{
  "_format": "hh-sol-artifact-1",
  "contractName": "ISANFT",
  "sourceName": "contracts/solidity/nft/ISANFT.sol",
  "abi": [
    {
      "inputs": [
        {
          "internalType": "address",
          "name": "_treasury",
          "type": "address"
        },
        {
          "internalType": "address",
          "name": "_artist",
          "type": "address"
        },
        {
          "internalType": "address",
          "name": "_royaltyRecipient",
          "type": "address"
        }
      ],
      "stateMutability": "nonpayable",
      "type": "constructor"
    },
    {
      "anonymous": false,
      "inputs": [
        {
          "indexed": true,
          "internalType": "address",
          "name": "owner",
          "type": "address"
        },
        {
          "indexed": true,
          "internalType": "address",
          "name": "approved",
          "type": "address"
        },
        {
          "indexed": true,
          "internalType": "uint256",
          "name": "tokenId",
          "type": "uint256"
        }
      ],
      "name": "Approval",
      "type": "event"
    },
    {
      "anonymous": false,
      "inputs": [
        {
          "indexed": true,
          "internalType": "address",
          "name": "owner",
          "type": "address"
        },
        {
          "indexed": true,
          "internalType": "address",
          "name": "operator",
          "type": "address"
        },
        {
          "indexed": false,
          "internalType": "bool",
          "name": "approved",
          "type": "bool"
        }
      ],
      "name": "ApprovalForAll",
      "type": "event"
    },
    {
      "anonymous": false,
      "inputs": [
        {
          "indexed": true,
          "internalType": "address",
          "name": "to",
          "type": "address"
        },
        {
          "indexed": false,
          "internalType": "uint256[]",
          "name": "tokenIds",
          "type": "uint256[]"
        }
      ],
      "name": "BatchMinted",
      "type": "event"
    },
    {
      "anonymous": false,
      "inputs": [
        {
          "indexed": false,
          "internalType": "bool",
          "name": "publicEnabled",
          "type": "bool"
        },
        {
          "indexed": false,
          "internalType": "bool",
          "name": "whitelistEnabled",
          "type": "bool"
        }
      ],
      "name": "MintingConfigUpdated",
      "type": "event"
    },
    {
      "anonymous": false,
      "inputs": [
        {
          "indexed": false,
          "internalType": "address",
          "name": "account",
          "type": "address"
        }
      ],
      "name": "Paused",
      "type": "event"
    },
    {
      "anonymous": false,
      "inputs": [
        {
          "indexed": false,
          "internalType": "uint256",
          "name": "newPrice",
          "type": "uint256"
        },
        {
          "indexed": false,
          "internalType": "uint256",
          "name": "newWhitelistPrice",
          "type": "uint256"
        }
      ],
      "name": "PriceUpdated",
      "type": "event"
    },
    {
      "anonymous": false,
      "inputs": [
        {
          "indexed": false,
          "internalType": "bool",
          "name": "revealed",
          "type": "bool"
        }
      ],
      "name": "RevealStatusChanged",
      "type": "event"
    },
    {
      "anonymous": false,
      "inputs": [
        {
          "indexed": true,
          "internalType": "bytes32",
          "name": "role",
          "type": "bytes32"
        },
        {
          "indexed": true,
          "internalType": "bytes32",
          "name": "previousAdminRole",
          "type": "bytes32"
        },
        {
          "indexed": true,
          "internalType": "bytes32",
          "name": "newAdminRole",
          "type": "bytes32"
        }
      ],
      "name": "RoleAdminChanged",
      "type": "event"
    },
    {
      "anonymous": false,
      "inputs": [
        {
          "indexed": true,
          "internalType": "bytes32",
          "name": "role",
          "type": "bytes32"
        },
        {
          "indexed": true,
          "internalType": "address",
          "name": "account",
          "type": "address"
        },
        {
          "indexed": true,
          "internalType": "address",
          "name": "sender",
          "type": "address"
        }
      ],
      "name": "RoleGranted",
      "type": "event"
    },
    {
      "anonymous": false,
      "inputs": [
        {
          "indexed": true,
          "internalType": "bytes32",
          "name": "role",
          "type": "bytes32"
        },
        {
          "indexed": true,
          "internalType": "address",
          "name": "account",
          "type": "address"
        },
        {
          "indexed": true,
          "internalType": "address",
          "name": "sender",
          "type": "address"
        }
      ],
      "name": "RoleRevoked",
      "type": "event"
    },
    {
      "anonymous": false,
      "inputs": [
        {
          "indexed": false,
          "internalType": "address",
          "name": "recipient",
          "type": "address"
        },
        {
          "indexed": false,
          "internalType": "uint96",
          "name": "feeBps",
          "type": "uint96"
        }
      ],
      "name": "RoyaltyUpdated",
      "type": "event"
    },
    {
      "anonymous": false,
      "inputs": [
        {
          "indexed": true,
          "internalType": "address",
          "name": "from",
          "type": "address"
        },
        {
          "indexed": true,
          "internalType": "address",
          "name": "to",
          "type": "address"
        },
        {
          "indexed": true,
          "internalType": "uint256",
          "name": "tokenId",
          "type": "uint256"
        }
      ],
      "name": "Transfer",
      "type": "event"
    },
    {
      "anonymous": false,
      "inputs": [
        {
          "indexed": false,
          "internalType": "address",
          "name": "account",
          "type": "address"
        }
      ],
      "name": "Unpaused",
      "type": "event"
    },
    {
      "anonymous": false,
      "inputs": [
        {
          "indexed": true,
          "internalType": "address",
          "name": "user",
          "type": "address"
        },
        {
          "indexed": false,
          "internalType": "bool",
          "name": "status",
          "type": "bool"
        }
      ],
      "name": "WhitelistStatusChanged",
      "type": "event"
    },
    {
      "anonymous": false,
      "inputs": [
        {
          "indexed": false,
          "internalType": "uint256",
          "name": "treasuryShare",
          "type": "uint256"
        },
        {
          "indexed": false,
          "internalType": "uint256",
          "name": "artistShare",
          "type": "uint256"
        }
      ],
      "name": "WithdrawSplitUpdated",
      "type": "event"
    },
    {
      "inputs": [],
      "name": "DEFAULT_ADMIN_ROLE",
      "outputs": [
        {
          "internalType": "bytes32",
          "name": "",
          "type": "bytes32"
        }
      ],
      "stateMutability": "view",
      "type": "function"
    },
    {
      "inputs": [],
      "name": "MAX_MINT_PER_TRANSACTION",
      "outputs": [
        {
          "internalType": "uint256",
          "name": "",
          "type": "uint256"
        }
      ],
      "stateMutability": "view",
      "type": "function"
    },
    {
      "inputs": [],
      "name": "MAX_MINT_PER_WALLET",
      "outputs": [
        {
          "internalType": "uint256",
          "name": "",
          "type": "uint256"
        }
      ],
      "stateMutability": "view",
      "type": "function"
    },
    {
      "inputs": [],
      "name": "MAX_SUPPLY",
      "outputs": [
        {
          "internalType": "uint256",
          "name": "",
          "type": "uint256"
        }
      ],
      "stateMutability": "view",
      "type": "function"
    },
    {
      "inputs": [],
      "name": "METADATA_ROLE",
      "outputs": [
        {
          "internalType": "bytes32",
          "name": "",
          "type": "bytes32"
        }
      ],
      "stateMutability": "view",
      "type": "function"
    },
    {
      "inputs": [],
      "name": "MINTER_ROLE",
      "outputs": [
        {
          "internalType": "bytes32",
          "name": "",
          "type": "bytes32"
        }
      ],
      "stateMutability": "view",
      "type": "function"
    },
    {
      "inputs": [],
      "name": "PAUSER_ROLE",
      "outputs": [
        {
          "internalType": "bytes32",
          "name": "",
          "type": "bytes32"
        }
      ],
      "stateMutability": "view",
      "type": "function"
    },
    {
      "inputs": [],
      "name": "ROYALTY_ROLE",
      "outputs": [
        {
          "internalType": "bytes32",
          "name": "",
          "type": "bytes32"
        }
      ],
      "stateMutability": "view",
      "type": "function"
    },
    {
      "inputs": [
        {
          "internalType": "address[]",
          "name": "addresses",
          "type": "address[]"
        }
      ],
      "name": "addToWhitelist",
      "outputs": [],
      "stateMutability": "nonpayable",
      "type": "function"
    },
    {
      "inputs": [
        {
          "internalType": "address",
          "name": "to",
          "type": "address"
        },
        {
          "internalType": "uint256",
          "name": "quantity",
          "type": "uint256"
        }
      ],
      "name": "adminMint",
      "outputs": [],
      "stateMutability": "nonpayable",
      "type": "function"
    },
    {
      "inputs": [
        {
          "internalType": "address",
          "name": "to",
          "type": "address"
        },
        {
          "internalType": "uint256",
          "name": "tokenId",
          "type": "uint256"
        }
      ],
      "name": "approve",
      "outputs": [],
      "stateMutability": "nonpayable",
      "type": "function"
    },
    {
      "inputs": [],
      "name": "artist",
      "outputs": [
        {
          "internalType": "address",
          "name": "",
          "type": "address"
        }
      ],
      "stateMutability": "view",
      "type": "function"
    },
    {
      "inputs": [],
      "name": "artistShare",
      "outputs": [
        {
          "internalType": "uint256",
          "name": "",
          "type": "uint256"
        }
      ],
      "stateMutability": "view",
      "type": "function"
    },
    {
      "inputs": [
        {
          "internalType": "address",
          "name": "owner",
          "type": "address"
        }
      ],
      "name": "balanceOf",
      "outputs": [
        {
          "internalType": "uint256",
          "name": "",
          "type": "uint256"
        }
      ],
      "stateMutability": "view",
      "type": "function"
    },
    {
      "inputs": [
        {
          "internalType": "uint256",
          "name": "tokenId",
          "type": "uint256"
        }
      ],
      "name": "burn",
      "outputs": [],
      "stateMutability": "nonpayable",
      "type": "function"
    },
    {
      "inputs": [],
      "name": "contractURI",
      "outputs": [
        {
          "internalType": "string",
          "name": "",
          "type": "string"
        }
      ],
      "stateMutability": "view",
      "type": "function"
    },
    {
      "inputs": [
        {
          "internalType": "uint256",
          "name": "tokenId",
          "type": "uint256"
        }
      ],
      "name": "getApproved",
      "outputs": [
        {
          "internalType": "address",
          "name": "",
          "type": "address"
        }
      ],
      "stateMutability": "view",
      "type": "function"
    },
    {
      "inputs": [],
      "name": "getCollectionInfo",
      "outputs": [
        {
          "internalType": "uint256",
          "name": "currentSupply",
          "type": "uint256"
        },
        {
          "internalType": "uint256",
          "name": "maxSupply",
          "type": "uint256"
        },
        {
          "internalType": "uint256",
          "name": "publicPrice",
          "type": "uint256"
        },
        {
          "internalType": "uint256",
          "name": "whitelistPriceValue",
          "type": "uint256"
        },
        {
          "internalType": "bool",
          "name": "publicEnabled",
          "type": "bool"
        },
        {
          "internalType": "bool",
          "name": "whitelistEnabled",
          "type": "bool"
        },
        {
          "internalType": "bool",
          "name": "isRevealed",
          "type": "bool"
        },
        {
          "internalType": "uint256",
          "name": "whitelistTotal",
          "type": "uint256"
        }
      ],
      "stateMutability": "view",
      "type": "function"
    },
    {
      "inputs": [
        {
          "internalType": "bytes32",
          "name": "role",
          "type": "bytes32"
        }
      ],
      "name": "getRoleAdmin",
      "outputs": [
        {
          "internalType": "bytes32",
          "name": "",
          "type": "bytes32"
        }
      ],
      "stateMutability": "view",
      "type": "function"
    },
    {
      "inputs": [
        {
          "internalType": "bytes32",
          "name": "role",
          "type": "bytes32"
        },
        {
          "internalType": "address",
          "name": "account",
          "type": "address"
        }
      ],
      "name": "grantRole",
      "outputs": [],
      "stateMutability": "nonpayable",
      "type": "function"
    },
    {
      "inputs": [
        {
          "internalType": "bytes32",
          "name": "role",
          "type": "bytes32"
        },
        {
          "internalType": "address",
          "name": "account",
          "type": "address"
        }
      ],
      "name": "hasRole",
      "outputs": [
        {
          "internalType": "bool",
          "name": "",
          "type": "bool"
        }
      ],
      "stateMutability": "view",
      "type": "function"
    },
    {
      "inputs": [
        {
          "internalType": "address",
          "name": "owner",
          "type": "address"
        },
        {
          "internalType": "address",
          "name": "operator",
          "type": "address"
        }
      ],
      "name": "isApprovedForAll",
      "outputs": [
        {
          "internalType": "bool",
          "name": "",
          "type": "bool"
        }
      ],
      "stateMutability": "view",
      "type": "function"
    },
    {
      "inputs": [
        {
          "internalType": "address",
          "name": "user",
          "type": "address"
        }
      ],
      "name": "isWhitelisted",
      "outputs": [
        {
          "internalType": "bool",
          "name": "",
          "type": "bool"
        }
      ],
      "stateMutability": "view",
      "type": "function"
    },
    {
      "inputs": [
        {
          "internalType": "uint256",
          "name": "quantity",
          "type": "uint256"
        }
      ],
      "name": "mint",
      "outputs": [],
      "stateMutability": "payable",
      "type": "function"
    },
    {
      "inputs": [],
      "name": "mintPrice",
      "outputs": [
        {
          "internalType": "uint256",
          "name": "",
          "type": "uint256"
        }
      ],
      "stateMutability": "view",
      "type": "function"
    },
    {
      "inputs": [],
      "name": "name",
      "outputs": [
        {
          "internalType": "string",
          "name": "",
          "type": "string"
        }
      ],
      "stateMutability": "view",
      "type": "function"
    },
    {
      "inputs": [
        {
          "internalType": "uint256",
          "name": "tokenId",
          "type": "uint256"
        }
      ],
      "name": "ownerOf",
      "outputs": [
        {
          "internalType": "address",
          "name": "",
          "type": "address"
        }
      ],
      "stateMutability": "view",
      "type": "function"
    },
    {
      "inputs": [],
      "name": "pause",
      "outputs": [],
      "stateMutability": "nonpayable",
      "type": "function"
    },
    {
      "inputs": [],
      "name": "paused",
      "outputs": [
        {
          "internalType": "bool",
          "name": "",
          "type": "bool"
        }
      ],
      "stateMutability": "view",
      "type": "function"
    },
    {
      "inputs": [],
      "name": "publicMintEnabled",
      "outputs": [
        {
          "internalType": "bool",
          "name": "",
          "type": "bool"
        }
      ],
      "stateMutability": "view",
      "type": "function"
    },
    {
      "inputs": [
        {
          "internalType": "address[]",
          "name": "addresses",
          "type": "address[]"
        }
      ],
      "name": "removeFromWhitelist",
      "outputs": [],
      "stateMutability": "nonpayable",
      "type": "function"
    },
    {
      "inputs": [
        {
          "internalType": "bytes32",
          "name": "role",
          "type": "bytes32"
        },
        {
          "internalType": "address",
          "name": "account",
          "type": "address"
        }
      ],
      "name": "renounceRole",
      "outputs": [],
      "stateMutability": "nonpayable",
      "type": "function"
    },
    {
      "inputs": [],
      "name": "reveal",
      "outputs": [],
      "stateMutability": "nonpayable",
      "type": "function"
    },
    {
      "inputs": [],
      "name": "revealed",
      "outputs": [
        {
          "internalType": "bool",
          "name": "",
          "type": "bool"
        }
      ],
      "stateMutability": "view",
      "type": "function"
    },
    {
      "inputs": [
        {
          "internalType": "bytes32",
          "name": "role",
          "type": "bytes32"
        },
        {
          "internalType": "address",
          "name": "account",
          "type": "address"
        }
      ],
      "name": "revokeRole",
      "outputs": [],
      "stateMutability": "nonpayable",
      "type": "function"
    },
    {
      "inputs": [],
      "name": "royaltyFeeBps",
      "outputs": [
        {
          "internalType": "uint96",
          "name": "",
          "type": "uint96"
        }
      ],
      "stateMutability": "view",
      "type": "function"
    },
    {
      "inputs": [
        {
          "internalType": "uint256",
          "name": "_tokenId",
          "type": "uint256"
        },
        {
          "internalType": "uint256",
          "name": "_salePrice",
          "type": "uint256"
        }
      ],
      "name": "royaltyInfo",
      "outputs": [
        {
          "internalType": "address",
          "name": "",
          "type": "address"
        },
        {
          "internalType": "uint256",
          "name": "",
          "type": "uint256"
        }
      ],
      "stateMutability": "view",
      "type": "function"
    },
    {
      "inputs": [],
      "name": "royaltyRecipient",
      "outputs": [
        {
          "internalType": "address",
          "name": "",
          "type": "address"
        }
      ],
      "stateMutability": "view",
      "type": "function"
    },
    {
      "inputs": [
        {
          "internalType": "address",
          "name": "from",
          "type": "address"
        },
        {
          "internalType": "address",
          "name": "to",
          "type": "address"
        },
        {
          "internalType": "uint256",
          "name": "tokenId",
          "type": "uint256"
        }
      ],
      "name": "safeTransferFrom",
      "outputs": [],
      "stateMutability": "nonpayable",
      "type": "function"
    },
    {
      "inputs": [
        {
          "internalType": "address",
          "name": "from",
          "type": "address"
        },
        {
          "internalType": "address",
          "name": "to",
          "type": "address"
        },
        {
          "internalType": "uint256",
          "name": "tokenId",
          "type": "uint256"
        },
        {
          "internalType": "bytes",
          "name": "data",
          "type": "bytes"
        }
      ],
      "name": "safeTransferFrom",
      "outputs": [],
      "stateMutability": "nonpayable",
      "type": "function"
    },
    {
      "inputs": [
        {
          "internalType": "address",
          "name": "operator",
          "type": "address"
        },
        {
          "internalType": "bool",
          "name": "approved",
          "type": "bool"
        }
      ],
      "name": "setApprovalForAll",
      "outputs": [],
      "stateMutability": "nonpayable",
      "type": "function"
    },
    {
      "inputs": [
        {
          "internalType": "string",
          "name": "newBaseURI",
          "type": "string"
        }
      ],
      "name": "setBaseURI",
      "outputs": [],
      "stateMutability": "nonpayable",
      "type": "function"
    },
    {
      "inputs": [
        {
          "internalType": "string",
          "name": "newContractURI",
          "type": "string"
        }
      ],
      "name": "setContractURI",
      "outputs": [],
      "stateMutability": "nonpayable",
      "type": "function"
    },
    {
      "inputs": [
        {
          "internalType": "string",
          "name": "newHiddenURI",
          "type": "string"
        }
      ],
      "name": "setHiddenMetadataURI",
      "outputs": [],
      "stateMutability": "nonpayable",
      "type": "function"
    },
    {
      "inputs": [
        {
          "internalType": "bool",
          "name": "_publicEnabled",
          "type": "bool"
        },
        {
          "internalType": "bool",
          "name": "_whitelistEnabled",
          "type": "bool"
        }
      ],
      "name": "setMintingConfig",
      "outputs": [],
      "stateMutability": "nonpayable",
      "type": "function"
    },
    {
      "inputs": [
        {
          "internalType": "uint256",
          "name": "_mintPrice",
          "type": "uint256"
        },
        {
          "internalType": "uint256",
          "name": "_whitelistPrice",
          "type": "uint256"
        }
      ],
      "name": "setPrices",
      "outputs": [],
      "stateMutability": "nonpayable",
      "type": "function"
    },
    {
      "inputs": [
        {
          "internalType": "address",
          "name": "recipient",
          "type": "address"
        },
        {
          "internalType": "uint96",
          "name": "feeBps",
          "type": "uint96"
        }
      ],
      "name": "setRoyalty",
      "outputs": [],
      "stateMutability": "nonpayable",
      "type": "function"
    },
    {
      "inputs": [
        {
          "internalType": "uint256",
          "name": "tokenId",
          "type": "uint256"
        },
        {
          "internalType": "string",
          "name": "uri",
          "type": "string"
        }
      ],
      "name": "setTokenURI",
      "outputs": [],
      "stateMutability": "nonpayable",
      "type": "function"
    },
    {
      "inputs": [
        {
          "internalType": "uint256",
          "name": "_treasuryShare",
          "type": "uint256"
        },
        {
          "internalType": "uint256",
          "name": "_artistShare",
          "type": "uint256"
        }
      ],
      "name": "setWithdrawSplit",
      "outputs": [],
      "stateMutability": "nonpayable",
      "type": "function"
    },
    {
      "inputs": [
        {
          "internalType": "bytes4",
          "name": "interfaceId",
          "type": "bytes4"
        }
      ],
      "name": "supportsInterface",
      "outputs": [
        {
          "internalType": "bool",
          "name": "",
          "type": "bool"
        }
      ],
      "stateMutability": "view",
      "type": "function"
    },
    {
      "inputs": [],
      "name": "symbol",
      "outputs": [
        {
          "internalType": "string",
          "name": "",
          "type": "string"
        }
      ],
      "stateMutability": "view",
      "type": "function"
    },
    {
      "inputs": [
        {
          "internalType": "uint256",
          "name": "index",
          "type": "uint256"
        }
      ],
      "name": "tokenByIndex",
      "outputs": [
        {
          "internalType": "uint256",
          "name": "",
          "type": "uint256"
        }
      ],
      "stateMutability": "view",
      "type": "function"
    },
    {
      "inputs": [
        {
          "internalType": "address",
          "name": "owner",
          "type": "address"
        },
        {
          "internalType": "uint256",
          "name": "index",
          "type": "uint256"
        }
      ],
      "name": "tokenOfOwnerByIndex",
      "outputs": [
        {
          "internalType": "uint256",
          "name": "",
          "type": "uint256"
        }
      ],
      "stateMutability": "view",
      "type": "function"
    },
    {
      "inputs": [
        {
          "internalType": "uint256",
          "name": "tokenId",
          "type": "uint256"
        }
      ],
      "name": "tokenURI",
      "outputs": [
        {
          "internalType": "string",
          "name": "",
          "type": "string"
        }
      ],
      "stateMutability": "view",
      "type": "function"
    },
    {
      "inputs": [],
      "name": "totalSupply",
      "outputs": [
        {
          "internalType": "uint256",
          "name": "",
          "type": "uint256"
        }
      ],
      "stateMutability": "view",
      "type": "function"
    },
    {
      "inputs": [
        {
          "internalType": "address",
          "name": "from",
          "type": "address"
        },
        {
          "internalType": "address",
          "name": "to",
          "type": "address"
        },
        {
          "internalType": "uint256",
          "name": "tokenId",
          "type": "uint256"
        }
      ],
      "name": "transferFrom",
      "outputs": [],
      "stateMutability": "nonpayable",
      "type": "function"
    },
    {
      "inputs": [],
      "name": "treasury",
      "outputs": [
        {
          "internalType": "address",
          "name": "",
          "type": "address"
        }
      ],
      "stateMutability": "view",
      "type": "function"
    },
    {
      "inputs": [],
      "name": "treasuryShare",
      "outputs": [
        {
          "internalType": "uint256",
          "name": "",
          "type": "uint256"
        }
      ],
      "stateMutability": "view",
      "type": "function"
    },
    {
      "inputs": [],
      "name": "unpause",
      "outputs": [],
      "stateMutability": "nonpayable",
      "type": "function"
    },
    {
      "inputs": [
        {
          "internalType": "address",
          "name": "",
          "type": "address"
        }
      ],
      "name": "walletMints",
      "outputs": [
        {
          "internalType": "uint256",
          "name": "",
          "type": "uint256"
        }
      ],
      "stateMutability": "view",
      "type": "function"
    },
    {
      "inputs": [
        {
          "internalType": "address",
          "name": "",
          "type": "address"
        }
      ],
      "name": "whitelist",
      "outputs": [
        {
          "internalType": "bool",
          "name": "",
          "type": "bool"
        }
      ],
      "stateMutability": "view",
      "type": "function"
    },
    {
      "inputs": [],
      "name": "whitelistCount",
      "outputs": [
        {
          "internalType": "uint256",
          "name": "",
          "type": "uint256"
        }
      ],
      "stateMutability": "view",
      "type": "function"
    },
    {
      "inputs": [
        {
          "internalType": "uint256",
          "name": "quantity",
          "type": "uint256"
        }
      ],
      "name": "whitelistMint",
      "outputs": [],
      "stateMutability": "payable",
      "type": "function"
    },
    {
      "inputs": [],
      "name": "whitelistMintEnabled",
      "outputs": [
        {
          "internalType": "bool",
          "name": "",
          "type": "bool"
        }
      ],
      "stateMutability": "view",
      "type": "function"
    },
    {
      "inputs": [],
      "name": "whitelistPrice",
      "outputs": [
        {
          "internalType": "uint256",
          "name": "",
          "type": "uint256"
        }
      ],
      "stateMutability": "view",
      "type": "function"
    },
    {
      "inputs": [],
      "name": "withdraw",
      "outputs": [],
      "stateMutability": "nonpayable",
      "type": "function"
    }
  ],
  "bytecode": "0x608034620007725762004a949081380390601f1990601f828185011682019360018060401b0395838610878711176200075c5781606092859260409889528339810103126200077257620000538262000797565b9060209262000071866200006986840162000797565b920162000797565b906200007c62000777565b93600d85526c1a5cd04810da185a5b88139195609a1b86860152620000a062000777565b9660068852651254d053919560d21b8789015285518a81116200075c5780600097620000cd8954620007ac565b8a8982116200072b575b50508990888311600114620006c7578992620006bb575b50508160011b916000199060031b1c19161786555b8751908a8211620003ba5781906001996200011f8b54620007ac565b8a8982116200067f575b505089918884116001146200061e5750889262000612575b5050600019600383901b1c191690881b1787555b60ff199081600b5416600b5587600f5566b1a2bc2ec50000601055666a94d74f43000060115562ffffff196012541660125587601655611b58601d55610bb8601e5560018060a01b03809116928315620005d05781169384156200058c5716928315620005375760018060a01b03199283601b541617601b5582601c541617601c558261017760a11b17601a55848052600c90818752888620338752875260ff89872054161562000502575b7f9f2df0fed2c77648de5860a4cc508cd0818c85b8b8a1ab4ceeef8d981c8956a6808752828852898720338852885260ff8a8820541615620004cb575b507f65d7a28e3265b37a6474929f336521b332c1681b933f6cb9f3376673440d862a808752828852898720338852885260ff8a882054161562000494575b507f6bd6b5318a46e5fff572d5e4258a20774aab40cc35ac7680654b9081fcc82f80808752828852898720338852885260ff8a88205416156200045d575b507feb54e1feee3ae17add098cbf58a47457bf5f7c3a89ceab263cbdb01b3da6d98e91828752808852898720338852885260ff8a882054161562000425575b505050601a548060a01c6127108111620003ce578851998a8a019081118b821017620003ba57899a88916c726163742d6d6574616461746160981b9b5285815201521617600d556200034d601554620007ac565b81811162000395575b5050605b60155560158152207f68747470733a2f2f6170692e697361636861696e2e696f2f6e66742f636f6e7481550155516142719081620008038239f35b6002620003b29260158552858520920160051c82019101620007e9565b388062000356565b634e487b7160e01b87526041600452602487fd5b885162461bcd60e51b815260048101889052602a60248201527f455243323938313a20726f79616c7479206665652077696c6c206578636565646044820152692073616c65507269636560b01b6064820152608490fd5b8287528752888620338752875287898720918254161790553390339060008051602062004a748339815191528780a4388080620002f9565b808752828852898720338852885289872089838254161790553390339060008051602062004a748339815191528980a438620002ba565b808752828852898720338852885289872089838254161790553390339060008051602062004a748339815191528980a4386200027c565b808752828852898720338852885289872089838254161790553390339060008051602062004a748339815191528980a4386200023e565b8580528187528886203387528752888620888282541617905533338760008051602062004a748339815191528180a462000201565b885162461bcd60e51b815260048101889052602860248201527f4953414e46543a20726f79616c747920726563697069656e742063616e6e6f74604482015267206265207a65726f60c01b6064820152608490fd5b895162461bcd60e51b815260048101899052601d60248201527f4953414e46543a206172746973742063616e6e6f74206265207a65726f0000006044820152606490fd5b606488878c519162461bcd60e51b8352600483015260248201527f4953414e46543a2074726561737572792063616e6e6f74206265207a65726f006044820152fd5b01519050388062000141565b8b8a528a8a208c9590939291168a5b8c8282106200066857505084116200064e575b505050811b01875562000155565b015160001960f88460031b161c1916905538808062000640565b8385015186558e979095019493840193016200062d565b620006a9918d8c528a828d209181880160051c8301938810620006b1575b0160051c0190620007e9565b388a62000129565b925081926200069d565b015190503880620000ee565b8980528a8a209285168a5b8c82821062000714575050908460019594939210620006fa575b505050811b01865562000103565b015160001960f88460031b161c19169055388080620006ec565b6001859682939686015181550195019301620006d2565b62000754918b80528a828d209181870160051c8301938710620006b1570160051c0190620007e9565b388a620000d7565b634e487b7160e01b600052604160045260246000fd5b600080fd5b60408051919082016001600160401b038111838210176200075c57604052565b51906001600160a01b03821682036200077257565b90600182811c92168015620007de575b6020831014620007c857565b634e487b7160e01b600052602260045260246000fd5b91607f1691620007bc565b818110620007f5575050565b60008155600101620007e956fe608060408181526004918236101561001657600080fd5b600092833560e01c91826301ffc9a7146128475750816305fefda7146127f757816306fdde0314612746578163081812fc14612726578163095ea7b3146125b85781630f4161aa14612594578163162094c4146123a157816318160ddd146123845781631a77447c1461231757816323b872dd146122f2578163248a9ca3146122c757816324ef901e146122ab5781632a55205a146122095781632f2ff15d1461215c5781632f745c59146120b057816332cb6b0c1461209357816336568abe146120015781633884178214611fc65781633af32abf14610c3d5781633ccfd60b14611e625781633f4ba83a14611dcc57816342842e0e14611d9857816342966c6814611aa657816343bc161214611a7d5781634c00de8214611a545781634f6ccce7146119c0578163512507c6146118685781635183022714611841578163548db1741461177257816355f804b31461161a5781635c975abb146115f657816361d027b3146115cd5781636352211e1461159c5781636817c76c1461157d5781636caede3d1461155657816370a08231146115295781637796ff371461150a5781637c95e250146114625781637f649783146113895781638456cb59146112f5578163868ff4a2146111b95781638f2fc60b14610f1e5781639119276514610efc57816391d1485414610eb5578163938e3d7b14610d2f57816395d89b4114610c7b5781639b19251a14610c3d578163a0712d6814610b40578163a217fddf14610b25578163a22cb46514610a59578163a475b5dd14610a01578163b19960e6146109e5578163b88d4fde1461095b578163c87b56dd14610927578163cb9fcffb146108ec578163cf933f86146108cd578163d539139314610892578163d547741f14610853578163e58306f91461056e578163e63ab1e914610533578163e8a3d48514610442578163e985e9c5146103f4578163f0293fd3146103bc578163f2624b5d1461039d578163f4e98c761461031c575063fc1a1c36146102fb57600080fd5b346103185781600319360112610318576020906011549051908152f35b5080fd5b9050346103995781600319360112610399573590811515809203610399577f8ea3b59e1e17fe356cecc4c78fcd999c9b40972a00e6bc375dd8436f1ee68c6391610364612a3d565b61036c613234565b6012549015159061ff008260081b169060ff84169061ffff1916171760125582519182526020820152a180f35b8280fd5b5050346103185781600319360112610318576020906019549051908152f35b5050346103185760203660031901126103185760209181906001600160a01b036103e4612963565b1681526017845220549051908152f35b50503461031857806003193601126103185760ff81602093610414612963565b61041c612979565b6001600160a01b0391821683526005875283832091168252855220549151911615158152f35b828434610530578060031936011261053057815191828260155461046581612b26565b90818452602095600191876001821691826000146105095750506001146104ad575b5050506104a9929161049a910385612ab3565b5192828493845283019061293e565b0390f35b9190869350601583527f55f448fdea98c4d29eb340757ef0a66cd03dbb9538908a6a81d96026b71ec4755b8284106104f1575050508201018161049a6104a9610487565b8054848a0186015288955087949093019281016104d8565b60ff19168782015293151560051b8601909301935084925061049a91506104a99050610487565b80fd5b505034610318578160031936011261031857602090517f65d7a28e3265b37a6474929f336521b332c1681b933f6cb9f3376673440d862a8152f35b83915034610318578260031936011261031857610589612963565b6024918235927f9f2df0fed2c77648de5860a4cc508cd0818c85b8b8a1ab4ceeef8d981c8956a6808652602090600c8252878720338852825260ff8888205416156106ae57506105d7613b05565b6001600160a01b038416156106625784156106185785610610868661060b61271161060484601654612e35565b1115612e9d565b613b72565b6001600f5580f35b865162461bcd60e51b8152928301526021908201527f4953414e46543a207175616e74697479206d75737420626520706f73697469766044820152606560f81b6064820152608490fd5b865162461bcd60e51b8152928301526023908201527f4953414e46543a2063616e6e6f74206d696e7420746f207a65726f206164647260448201526265737360e81b6064820152608490fd5b87919450866106bc336140d5565b918351906106c982612a98565b60428252878201926060368537825115610841576030845382516001906001101561082f5790607860218501536041915b8083116107d8575050506107985760486107949593859361077c9361076d975197889360008051602061421c8339815191528d8601526107448d825192839160378901910161291b565b8401917001034b99036b4b9b9b4b733903937b6329607d1b60378401525180938684019061291b565b01036028810186520184612ab3565b5194859462461bcd60e51b865285015283019061293e565b0390fd5b60648688878188519362461bcd60e51b85528401528201527f537472696e67733a20686578206c656e67746820696e73756666696369656e746044820152fd5b909192600f8116601081101561081d5761081691906f181899199a1a9b1b9c1cb0b131b232b360811b901a61080d8688613e99565b538a1c93612d3f565b91906106fa565b634e487b7160e01b845260328b528984fd5b634e487b7160e01b8252603289528782fd5b634e487b7160e01b8152603288528690fd5b9190503461039957806003193601126103995761088f913561088a6001610878612979565b93838752600c60205286200154613653565b613a8f565b80f35b505034610318578160031936011261031857602090517f9f2df0fed2c77648de5860a4cc508cd0818c85b8b8a1ab4ceeef8d981c8956a68152f35b505034610318578160031936011261031857602090601e549051908152f35b505034610318578160031936011261031857602090517feb54e1feee3ae17add098cbf58a47457bf5f7c3a89ceab263cbdb01b3da6d98e8152f35b82843461053057602036600319011261053057506109486104a99235612f81565b905191829160208352602083019061293e565b83903461031857608036600319011261031857610976612963565b9061097f612979565b91604435606435936001600160401b0385116109e157366023860112156109e1576109b96109dc9486602461088f98369301359101612aef565b926109cc6109c78433613748565b612c12565b6109d7838383613810565b61405c565b613e79565b8580fd5b5050346103185781600319360112610318576020905160328152f35b50503461031857816003193601126103185760207f4a9768f4a343b5cd5d5319e6fe71e839c384e1f67a57e74631919d50c5d4d95391610a3f6133f5565b6201000062ff00001960125416176012555160018152a180f35b91905034610399578060031936011261039957610a74612963565b90610a7d612a3d565b6001600160a01b0390921692338414610ae3575033845260056020528084208385526020528084209115159160ff1981541660ff8416179055519081527f17307eab39ab6107e8899845ad3d59bd9653f200f220920489ca2b5937696c3160203392a380f35b6020606492519162461bcd60e51b8352820152601960248201527f4552433732313a20617070726f766520746f2063616c6c6572000000000000006044820152fd5b50503461031857816003193601126103185751908152602090f35b839150602036600319011261031857803590610b5a613b05565b60ff6012541615610bef5750610610919281151580610be4575b610b7d90612e51565b610b8f61271161060484601654612e35565b3384526017602052610bb06032610ba98484882054612e35565b1115612ee9565b610bc7610bbf83601054612c74565b341015612f35565b33845260176020528320610bdc828254612e35565b905533613b72565b50600a821115610b74565b608490602085519162461bcd60e51b8352820152602260248201527f4953414e46543a207075626c6963206d696e74696e67206e6f7420656e61626c604482015261195960f21b6064820152fd5b5050346103185760203660031901126103185760209160ff9082906001600160a01b03610c68612963565b1681526018855220541690519015158152f35b828434610530578060031936011261053057815191828260019360015494610ca286612b26565b9182855260209687600182169182600014610509575050600114610cd3575050506104a9929161049a910385612ab3565b9190869350600183527fb10e2d527612073b26eecdfd717e6a320cf44b4afac2b0732d9fcbe2b7fa0cf65b828410610d17575050508201018161049a6104a9610487565b8054848a018601528895508794909301928101610cfe565b8334610530576020916020600319360112610318576001600160401b038135818111610eb157610d62903690840161298f565b929091610d6d6133f5565b8311610e9e5750610d7f601554612b26565b601f8111610e49575b508293601f8311600114610dcb575082938291610dba9492610dc0575b50508160011b916000199060031b1c19161790565b60155580f35b013590508480610da5565b601f198316947f55f448fdea98c4d29eb340757ef0a66cd03dbb9538908a6a81d96026b71ec475929185905b878210610e31575050836001959610610e17575b505050811b0160155580f35b0135600019600384901b60f8161c19169055838080610e0b565b80600184968294958701358155019501920190610df7565b610e8e907f55f448fdea98c4d29eb340757ef0a66cd03dbb9538908a6a81d96026b71ec475601f850160051c81019160208610610e94575b601f0160051c0190612d04565b84610d88565b9091508190610e81565b634e487b7160e01b845260419052602483fd5b8380fd5b9050346103995781600319360112610399578160209360ff92610ed6612979565b90358252600c86528282206001600160a01b039091168252855220549151911615158152f35b505034610318578160031936011261031857602090601a5460a01c9051908152f35b838334610318578060031936011261031857610f38612963565b926024908135916001600160601b038316918284036109e1577feb54e1feee3ae17add098cbf58a47457bf5f7c3a89ceab263cbdb01b3da6d98e96878752602097600c8952868820338952895260ff8789205416156110e657506001600160a01b03169384156110a6576103e884116110655760a01b6001600160a01b0319168417601a819055916127108411611010575050947f8039bd6e4e7dba001c8840eb2e118d9d131246faa7d0d04335f7305127ec0b10949582828651610ffc81612a4c565b8681520152600d558351928352820152a180f35b855162461bcd60e51b8152918201889052602a908201527f455243323938313a20726f79616c7479206665652077696c6c206578636565646044820152692073616c65507269636560b01b6064820152608490fd5b50601c6064928887519362461bcd60e51b85528401528201527f4953414e46543a20726f79616c74792066656520746f6f2068696768000000006044820152fd5b50866064928187519362461bcd60e51b85528401528201527f4953414e46543a20726563697069656e742063616e6e6f74206265207a65726f6044820152fd5b8284888b938b6110f5336140d5565b9183519061110282612a98565b60428252878201926060368537825115610841576030845382516001906001101561082f5790607860218501536041915b80831161117d575050506107985760486107949593859361077c9361076d975197889360008051602061421c8339815191528d8601526107448d825192839160378901910161291b565b909192600f8116601081101561081d576111b291906f181899199a1a9b1b9c1cb0b131b232b360811b901a61080d8688613e99565b9190611133565b83915060209283600319360112610399578135916111d5613b05565b60ff60125460081c16156112a6573384526018855260ff8285205416156112655750601761061093948315158061125a575b61121090612e51565b61122261271161060486601654612e35565b33865281815261123a6032610ba986868a2054612e35565b611249610bbf85601154612c74565b338652528320610bdc828254612e35565b50600a841115611207565b84606492519162461bcd60e51b8352820152601760248201527f4953414e46543a206e6f742077686974656c69737465640000000000000000006044820152fd5b84608492519162461bcd60e51b8352820152602560248201527f4953414e46543a2077686974656c697374206d696e74696e67206e6f7420656e60448201526418589b195960da1b6064820152fd5b90503461039957826003193601126103995761130f613524565b600b549060ff8216611353575060ff1916600117600b55513381527f62e78cea01bee320cd4e420270b5ea74000d11b0c9f74754ebdbfc544b05a25890602090a180f35b606490602084519162461bcd60e51b8352820152601060248201526f14185d5cd8589b194e881c185d5cd95960821b6044820152fd5b50503461031857611399366129f1565b6113a4929192613234565b835b8181106113b1578480f35b6001906001600160a01b03806113d06113cb84878a612d1b565b612d2b565b1687526018602081815260ff878a205416156113f0575b505050016113a6565b7f8daaf060c3306c38e068a75c054bf96ecd85a3db1252712c4d93632744c42e0d91836114216113cb878a8d612d1b565b168a5281528689209285938460ff1982541617905560196114428154612e42565b90556114526113cb86898c612d1b565b16928751908152a23880806113e7565b8383346103185761147236612900565b9361147b613234565b6127106114888684612e35565b036114c757507faa070d3b3dd2aa3e6fd4b26f0f2850ac535786bc0a6ef1920153b2f36d2c3751929381601d5580601e5582519182526020820152a180f35b606490602084519162461bcd60e51b8352820152601e60248201527f4953414e46543a20736861726573206d75737420657175616c203130302500006044820152fd5b505034610318578160031936011261031857602090601d549051908152f35b5050346103185760203660031901126103185760209061154f61154a612963565b612dbe565b9051908152f35b50503461031857816003193601126103185760209060ff60125460081c1690519015158152f35b5050346103185781600319360112610318576020906010549051908152f35b82843461053057602036600319011261053057506115bc60209235612d98565b90516001600160a01b039091168152f35b505034610318578160031936011261031857601b5490516001600160a01b039091168152602090f35b50503461031857816003193601126103185760209060ff600b541690519015158152f35b8334610530576020916020600319360112610318576001600160401b038135818111610eb15761164d903690840161298f565b9290916116586133f5565b8311610e9e575061166a601354612b26565b601f8111611728575b508293601f83116001146116aa5750829382916116a49492610dc05750508160011b916000199060031b1c19161790565b60135580f35b601f198316947f66de8ffda797e3de9c05e8fc57b3bf0ec28a930d40b0d285d93c06501cf6a090929185905b8782106117105750508360019596106116f6575b505050811b0160135580f35b0135600019600384901b60f8161c191690558380806116ea565b806001849682949587013581550195019201906116d6565b61176c907f66de8ffda797e3de9c05e8fc57b3bf0ec28a930d40b0d285d93c06501cf6a090601f850160051c81019160208610610e9457601f0160051c0190612d04565b84611673565b50503461031857611782366129f1565b61178d929192613234565b835b81811061179a578480f35b6001906001600160a01b03806117b46113cb84878a612d1b565b168752601860209181835260ff878a2054166117d4575b5050500161178f565b7f8daaf060c3306c38e068a75c054bf96ecd85a3db1252712c4d93632744c42e0d91816118056113cb878a8d612d1b565b168a52835286892060ff19815416905560196118218154612d3f565b90556118316113cb85888b612d1b565b16918651898152a23880806117cb565b50503461031857816003193601126103185760209060ff60125460101c1690519015158152f35b8334610530576020916020600319360112610318576001600160401b038135818111610eb15761189b903690840161298f565b9290916118a66133f5565b8311610e9e57506118b8601454612b26565b601f8111611976575b508293601f83116001146118f85750829382916118f29492610dc05750508160011b916000199060031b1c19161790565b60145580f35b601f198316947fce6d7b5282bd9a3661ae061feed1dbda4e52ab073b1f9285be6e155d9c38d4ec929185905b87821061195e575050836001959610611944575b505050811b0160145580f35b0135600019600384901b60f8161c19169055838080611938565b80600184968294958701358155019501920190611924565b6119ba907fce6d7b5282bd9a3661ae061feed1dbda4e52ab073b1f9285be6e155d9c38d4ec601f850160051c81019160208610610e9457601f0160051c0190612d04565b846118c1565b9050823461053057602036600319011261053057508035906008548210156119fc576020836119ee84612cb7565b91905490519160031b1c8152f35b608490602084519162461bcd60e51b8352820152602c60248201527f455243373231456e756d657261626c653a20676c6f62616c20696e646578206f60448201526b7574206f6620626f756e647360a01b6064820152fd5b505034610318578160031936011261031857601a5490516001600160a01b039091168152602090f35b505034610318578160031936011261031857601c5490516001600160a01b039091168152602090f35b8383346103185760209081600319360112610399578335611aca6109c78233613748565b611ad381612d98565b6001600160a01b0395908681169081611d17575050600854828652600985528084872055600160401b811015611d045782611b17826001611b309401600855612cb7565b90919082549060031b91821b91600019901b1916179055565b6008546000199690878101908111611cf15783875260098652611b568588205491612cb7565b90549060031b1c611b6a81611b1784612cb7565b8752600986528487205582865285848120556008548015611cde578701611b9081612cb7565b8982549160031b1b1916905560085560ff600b5416611c8757859683928792611bb885612d98565b918585528852868420916001600160601b0360a01b92838154169055169182845260038852868420908154019055838352600287528583209081541690557fddf252ad1be2c89b69c2b068fc378daa952ba7f163c4a11628f55a4df523b3ef8280a4600a8352611c2a82852054612b26565b611c3357505050f35b8352600a8252822090611c468254612b26565b9081611c5157505050f35b8390601f8311600114611c65575050505580f35b8382528120929091611c8290601f0160051c840160018501612d04565b555580f35b835162461bcd60e51b8152808301869052602b60248201527f4552433732315061757361626c653a20746f6b656e207472616e73666572207760448201526a1a1a5b19481c185d5cd95960aa1b6064820152608490fd5b634e487b7160e01b875260318352602487fd5b634e487b7160e01b875260118352602487fd5b634e487b7160e01b865260418252602486fd5b611d2090612dbe565b600019810191908211611cf1578387526007865284872054828103611d61575b50838752868581205586526006855283862090865284528483812055611b30565b8188526006875285882083895287528588205482895260068852868920828a52885280878a20558852600787528588205588611d40565b505034610318576109dc61088f91611daf366129bc565b91925192611dbc84612a7d565b8684526109cc6109c78433613748565b905034610399578260031936011261039957611de6613524565b600b549060ff821615611e28575060ff1916600b55513381527f5db9ee0a495bf2e6ff9c91a7834c1ba4fdd244a5e8aa4e537bd38aeae4b073aa90602090a180f35b606490602084519162461bcd60e51b8352820152601460248201527314185d5cd8589b194e881b9bdd081c185d5cd95960621b6044820152fd5b91905034610399578260031936011261039957611e7d613234565b611e85613b05565b478015611f8357612710611e9b601d5483612c74565b04808203918211611f70578480808060018060a01b039485601b54165af1611ec1612c87565b5015611f2d57848080938193601c54165af1611edb612c87565b5015611eea57826001600f5580f35b906020606492519162461bcd60e51b8352820152601e60248201527f4953414e46543a20617274697374207472616e73666572206661696c656400006044820152fd5b825162461bcd60e51b8152602081860181905260248201527f4953414e46543a207472656173757279207472616e73666572206661696c65646044820152606490fd5b634e487b7160e01b855260118452602485fd5b815162461bcd60e51b8152602081850152601c60248201527f4953414e46543a206e6f2066756e647320746f207769746864726177000000006044820152606490fd5b505034610318578160031936011261031857602090517f6bd6b5318a46e5fff572d5e4258a20774aab40cc35ac7680654b9081fcc82f808152f35b8391503461031857826003193601126103185761201c612979565b90336001600160a01b03831603612038579061088f9135613a8f565b608490602085519162461bcd60e51b8352820152602f60248201527f416363657373436f6e74726f6c3a2063616e206f6e6c792072656e6f756e636560448201526e103937b632b9903337b91039b2b63360891b6064820152fd5b505034610318578160031936011261031857602090516127108152f35b8284346105305781600319360112610530576120ca612963565b602435906120d781612dbe565b821015612105576001600160a01b031682526006602090815283832091835290815290829020548251908152f35b835162461bcd60e51b8152602081870152602b60248201527f455243373231456e756d657261626c653a206f776e657220696e646578206f7560448201526a74206f6620626f756e647360a81b6064820152608490fd5b9050346103995781600319360112610399573590612178612979565b90828452600c60205261219060018286200154613653565b828452600c60209081528185206001600160a01b039093168086529290528084205460ff16156121be578380f35b828452600c6020528084208285526020528320600160ff1982541617905533917f2f8788117e7eff1d82e926ec794901d17c78024a50270940304540a733656f0d8480a43880808380f35b828434610530578161221a36612900565b92908152600e6020522082519061223082612a4c565b546001600160a01b0380821680845260a09290921c60208401529192901561227f575b61226e612710916001600160601b0360208601511690612c74565b049151169082519182526020820152f35b915061271061226e845161229281612a4c565b600d54848116825260a01c602082015293915050612253565b50503461031857816003193601126103185760209051600a8152f35b9050346103995760203660031901126103995781602093600192358152600c85522001549051908152f35b83346105305761088f612304366129bc565b916123126109c78433613748565b613810565b50503461031857816003193601126103185761010090612335612bea565b9060ff601054601154601254916019549480519687526127106020880152860152606085015281811615156080850152818160081c16151560a085015260101c16151560c083015260e0820152f35b50503461031857816003193601126103185760209061154f612bea565b839150346103185782600319360112610318578035926001600160401b039060243582811161259057906123db61240c923690860161298f565b92906123e56133f5565b8787526020936002855261240560018060a01b03858a2054161515612b9e565b3691612aef565b6000878152600260205260409020549096906001600160a01b031615612536578552600a8252842092855192831161252357506124498354612b26565b601f81116124f5575b5080601f83116001146124935750819084956124839495926124885750508160011b916000199060031b1c19161790565b905580f35b015190508580610da5565b90601f198316958486528286209286905b8882106124dd575050836001959697106124c4575b505050811b01905580f35b015160001960f88460031b161c191690558480806124b9565b806001859682949686015181550195019301906124a4565b61251d90848652828620601f850160051c810191848610610e9457601f0160051c0190612d04565b85612452565b634e487b7160e01b855260419052602484fd5b815162461bcd60e51b8152808601849052602e60248201527f45524337323155524953746f726167653a2055524920736574206f66206e6f6e60448201526d32bc34b9ba32b73a103a37b5b2b760911b6064820152608490fd5b8480fd5b50503461031857816003193601126103185760209060ff6012541690519015158152f35b9050346103995781600319360112610399576125d2612963565b6024359290916001600160a01b03919082806125ed87612d98565b169416938085146126d9578033149081156126ba575b501561265257848652602052842080546001600160a01b0319168317905561262a83612d98565b167f8c5be1e5ebec7d5bd14f71427d1e84f3dd0314c0f7b2291e5b200ac8c7c3b9258480a480f35b6020608492519162461bcd60e51b8352820152603d60248201527f4552433732313a20617070726f76652063616c6c6572206973206e6f7420746f60448201527f6b656e206f776e6572206f7220617070726f76656420666f7220616c6c0000006064820152fd5b90508652600560205281862033875260205260ff828720541638612603565b506020608492519162461bcd60e51b8352820152602160248201527f4552433732313a20617070726f76616c20746f2063757272656e74206f776e656044820152603960f91b6064820152fd5b82843461053057602036600319011261053057506115bc60209235612b60565b8284346105305780600319360112610530578151918282835461276881612b26565b908184526020956001918760018216918260001461050957505060011461279c575050506104a9929161049a910385612ab3565b91908693508280527f290decd9548b62a8d60345a988386fc84ba6bc95484008f6362f93160ef3e5635b8284106127df575050508201018161049a6104a9610487565b8054848a0186015288955087949093019281016127c6565b505034610318577f945c1c4e99aa89f648fbfe3df471b916f719e16d960fcec0737d4d56bd6968389061282936612900565b612831613234565b816010558060115582519182526020820152a180f35b849134610399576020366003190112610399573563ffffffff60e01b8116809103610399576020925063152a902d60e11b8114908115612889575b5015158152f35b637965db0b60e01b8114915081156128a3575b5083612882565b63780e9d6360e01b8114915081156128bd575b508361289c565b6380ac58cd60e01b8114915081156128ef575b81156128de575b50836128b6565b6301ffc9a760e01b149050836128d7565b635b5e139f60e01b811491506128d0565b6040906003190112612916576004359060243590565b600080fd5b60005b83811061292e5750506000910152565b818101518382015260200161291e565b906020916129578151809281855285808601910161291b565b601f01601f1916010190565b600435906001600160a01b038216820361291657565b602435906001600160a01b038216820361291657565b9181601f84011215612916578235916001600160401b038311612916576020838186019501011161291657565b6060906003190112612916576001600160a01b0390600435828116810361291657916024359081168103612916579060443590565b906020600319830112612916576004356001600160401b039283821161291657806023830112156129165781600401359384116129165760248460051b83010111612916576024019190565b60243590811515820361291657565b604081019081106001600160401b03821117612a6757604052565b634e487b7160e01b600052604160045260246000fd5b602081019081106001600160401b03821117612a6757604052565b608081019081106001600160401b03821117612a6757604052565b90601f801991011681019081106001600160401b03821117612a6757604052565b6001600160401b038111612a6757601f01601f191660200190565b929192612afb82612ad4565b91612b096040519384612ab3565b829481845281830111612916578281602093846000960137010152565b90600182811c92168015612b56575b6020831014612b4057565b634e487b7160e01b600052602260045260246000fd5b91607f1691612b35565b600081815260026020526040902054612b83906001600160a01b03161515612d4c565b6000908152600460205260409020546001600160a01b031690565b15612ba557565b60405162461bcd60e51b815260206004820152601c60248201527f4953414e46543a20746f6b656e20646f6573206e6f74206578697374000000006044820152606490fd5b6016546000198101908111612bfc5790565b634e487b7160e01b600052601160045260246000fd5b15612c1957565b60405162461bcd60e51b815260206004820152602d60248201527f4552433732313a2063616c6c6572206973206e6f7420746f6b656e206f776e6560448201526c1c881bdc88185c1c1c9bdd9959609a1b6064820152608490fd5b81810292918115918404141715612bfc57565b3d15612cb2573d90612c9882612ad4565b91612ca66040519384612ab3565b82523d6000602084013e565b606090565b600854811015612cee5760086000527ff3f7a9fe364faab93b216da50a3214154f22a0a2b415b23a84c8169e8b636ee30190600090565b634e487b7160e01b600052603260045260246000fd5b818110612d0f575050565b60008155600101612d04565b9190811015612cee5760051b0190565b356001600160a01b03811681036129165790565b8015612bfc576000190190565b15612d5357565b60405162461bcd60e51b815260206004820152601860248201527f4552433732313a20696e76616c696420746f6b656e20494400000000000000006044820152606490fd5b6000908152600260205260409020546001600160a01b0316612dbb811515612d4c565b90565b6001600160a01b03168015612dde57600052600360205260406000205490565b60405162461bcd60e51b815260206004820152602960248201527f4552433732313a2061646472657373207a65726f206973206e6f7420612076616044820152683634b21037bbb732b960b91b6064820152608490fd5b91908201809211612bfc57565b6000198114612bfc5760010190565b15612e5857565b60405162461bcd60e51b815260206004820152601860248201527f4953414e46543a20696e76616c6964207175616e7469747900000000000000006044820152606490fd5b15612ea457565b60405162461bcd60e51b815260206004820152601a60248201527f4953414e46543a2065786365656473206d617820737570706c790000000000006044820152606490fd5b15612ef057565b60405162461bcd60e51b815260206004820152601c60248201527f4953414e46543a20657863656564732077616c6c6574206c696d6974000000006044820152606490fd5b15612f3c57565b60405162461bcd60e51b815260206004820152601c60248201527f4953414e46543a20696e73756666696369656e74207061796d656e74000000006044820152606490fd5b60009080825260209060028252604092612fa760018060a01b0385832054161515612b9e565b600082815260026020526040902054612fca906001600160a01b03161515612d4c565b818152600a83528381208451815493918184612fe587612b26565b928383526001978989821691826000146132145750506001146131d6575b5061301092500382612ab3565b82865161301c81612a7d565b5280516131cd575060ff60125460101c16156131135761303b90613eaa565b9351938492826013549161304e83612b26565b928181169081156130f35750600114613098575b505050928161307d8560059594612dbb97519485920161291b565b0164173539b7b760d91b815203601a19810184520182612ab3565b9091929350601382527f66de8ffda797e3de9c05e8fc57b3bf0ec28a930d40b0d285d93c06501cf6a0905b8383106130dd5750505082018301908061307d6005613062565b80548884018801528795509186019181016130c3565b60ff191688880152505050801515028301840191508061307d6005613062565b5090925192818492916014549161312983612b26565b808652928281169081156131ab575060011461314f575b505050612dbb92500382612ab3565b601481527fce6d7b5282bd9a3661ae061feed1dbda4e52ab073b1f9285be6e155d9c38d4ec95935091905b818310613193575050612dbb9350820101388080613140565b8554878401850152948501948694509183019161317a565b92505050612dbb94925060ff191682840152151560051b820101388080613140565b94505050505090565b915050845281868086208787915b8583106131fb575050613010935082010138613003565b80919294505483858801015201910187908785936131e4565b60ff19168582015261301095151560051b85010192503891506130039050565b3360009081527f13649b2456f1b42fef0f0040b3aaeabcd21a76a0f3f5defd4f583839455116e8602090815260408083205490929060ff161561327657505050565b61327f336140d5565b908084519061328d82612a98565b604282528482019260603685378251156133e157603084538251600190600110156133cd5790607860218501536041915b8083116133735750505061333157604861079493869361331593613306985198899360008051602061421c8339815191528a860152610744815180928c60378901910161291b565b01036028810187520185612ab3565b5192839262461bcd60e51b84526004840152602483019061293e565b60648486519062461bcd60e51b825280600483015260248201527f537472696e67733a20686578206c656e67746820696e73756666696369656e746044820152fd5b909192600f811660108110156133b9576133b291906f181899199a1a9b1b9c1cb0b131b232b360811b901a6133a88688613e99565b5360041c93612d3f565b91906132be565b634e487b7160e01b84526032600452602484fd5b634e487b7160e01b82526032600452602482fd5b634e487b7160e01b81526032600452602490fd5b3360009081527f6e6574f419c3a5b22aceb305d8c5ecd8c731066097b60e64e230a57364a480c3602090815260408083205490927f6bd6b5318a46e5fff572d5e4258a20774aab40cc35ac7680654b9081fcc82f809160ff16156134595750505050565b613462336140d5565b9184519061346f82612a98565b604282528482019260603685378251156133e157603084538251600190600110156133cd5790607860218501536041915b8083116134e85750505061333157604861079493869361331593613306985198899360008051602061421c8339815191528a860152610744815180928c60378901910161291b565b909192600f811660108110156133b95761351d91906f181899199a1a9b1b9c1cb0b131b232b360811b901a6133a88688613e99565b91906134a0565b3360009081527fdcc67b18bee54042de2f3c322d7907db427901c7dd6b8aabe39773d1548374f5602090815260408083205490927f65d7a28e3265b37a6474929f336521b332c1681b933f6cb9f3376673440d862a9160ff16156135885750505050565b613591336140d5565b9184519061359e82612a98565b604282528482019260603685378251156133e157603084538251600190600110156133cd5790607860218501536041915b8083116136175750505061333157604861079493869361331593613306985198899360008051602061421c8339815191528a860152610744815180928c60378901910161291b565b909192600f811660108110156133b95761364c91906f181899199a1a9b1b9c1cb0b131b232b360811b901a6133a88688613e99565b91906135cf565b600090808252602090600c8252604092838120338252835260ff84822054161561367d5750505050565b613686336140d5565b9184519061369382612a98565b604282528482019260603685378251156133e157603084538251600190600110156133cd5790607860218501536041915b80831161370c5750505061333157604861079493869361331593613306985198899360008051602061421c8339815191528a860152610744815180928c60378901910161291b565b909192600f811660108110156133b95761374191906f181899199a1a9b1b9c1cb0b131b232b360811b901a6133a88688613e99565b91906136c4565b906001600160a01b03808061375c84612d98565b1693169183831493841561378f575b508315613779575b50505090565b61378591929350612b60565b1614388080613773565b909350600052600560205260406000208260005260205260ff60406000205416923861376b565b156137bd57565b60405162461bcd60e51b815260206004820152602560248201527f4552433732313a207472616e736665722066726f6d20696e636f72726563742060448201526437bbb732b960d91b6064820152608490fd5b906138369061381e84612d98565b6001600160a01b0384811693909291831684146137b6565b818116938415613a3e57836139a8575060085485600052600960205280604060002055600160401b811015612a675785611b178260016138799401600855612cb7565b828403613975575b5060ff600b541661391c57816138a19161389a86612d98565b16146137b6565b7fddf252ad1be2c89b69c2b068fc378daa952ba7f163c4a11628f55a4df523b3ef60008481526004602052604081206001600160601b0360a01b9081815416905583825260036020526040822060001981540190558482526040822060018154019055858252600260205284604083209182541617905580a4565b60405162461bcd60e51b815260206004820152602b60248201527f4552433732315061757361626c653a20746f6b656e207472616e73666572207760448201526a1a1a5b19481c185d5cd95960aa1b6064820152608490fd5b61397e90612dbe565b60406000858152600660205281812083825260205286828220558681526007602052205538613881565b8484036139b6575b50613879565b6139bf90612dbe565b6000198101908111612bfc576000908682526020906007825260409182842054828103613a07575b5088845283838120558684526006815282842091845252812055386139b0565b87855260068252838520838652825283852054888652600683528486208287528352808587205585526007825283852055386139e7565b60405162461bcd60e51b8152602060048201526024808201527f4552433732313a207472616e7366657220746f20746865207a65726f206164646044820152637265737360e01b6064820152608490fd5b90600091808352600c602052604083209160018060a01b03169182845260205260ff604084205416613ac057505050565b808352600c602052604083208284526020526040832060ff1981541690557ff6391f5c32d9c69d2a47ea670b442974b53935d1edc7fd64eb21e047a839171b339380a4565b6002600f5414613b16576002600f55565b60405162461bcd60e51b815260206004820152601f60248201527f5265656e7472616e637947756172643a207265656e7472616e742063616c6c006044820152606490fd5b6001600160401b038111612a675760051b60200190565b613b7b82613b5b565b90604091613b8b83519182612ab3565b838152613b9784613b5b565b6020828101959091601f190136873760005b818110613c195750509083519382850191838652518092528401949160005b828110613c05575050505090807f0fccc44f8f4572066001d167eac735aa3f72308ef306fd3af1b0bb0b6a7ba90f9260018060a01b0316930390a2565b835187529581019592810192600101613bc8565b601680548551831015612cee5780858460051b88010152875190613c3c82612a7d565b600082526001600160a01b038816801580613de457600083815260026020526040902054613c76906001600160a01b031615155b156141cf565b60089081548460005260098a52808d60002055600160401b811015612a675784611b17613caa926001958682019055612cb7565b15613db1575b60ff600b5416613d59579282806109dc9360019897968e613cec613c70613d4799600052600260205260018060a01b0360406000205416151590565b8260005260038d526000209081540190558160005260028b528d600020816001600160601b0360a01b82541617905560007fddf252ad1be2c89b69c2b068fc378daa952ba7f163c4a11628f55a4df523b3ef8180a48a613f6a565b613d518154612e42565b905501613ba9565b8a5162461bcd60e51b815260048101899052602b60248201527f4552433732315061757361626c653a20746f6b656e207472616e73666572207760448201526a1a1a5b19481c185d5cd95960aa1b6064820152608490fd5b613dba8a612dbe565b82600052600689528b600020816000528952838c6000205583600052600789528b60002055613cb0565b6064888c519062461bcd60e51b825280600483015260248201527f4552433732313a206d696e7420746f20746865207a65726f20616464726573736044820152fd5b60809060208152603260208201527f4552433732313a207472616e7366657220746f206e6f6e20455243373231526560408201527131b2b4bb32b91034b6b83632b6b2b73a32b960711b60608201520190565b15613e8057565b60405162461bcd60e51b81528061079460048201613e26565b908151811015612cee570160200190565b8015613f4c5780816000925b613f365750613ec482612ad4565b91613ed26040519384612ab3565b80835281601f19613ee283612ad4565b013660208601375b613ef357505090565b6000198101908111612bfc578091600a9160308383068101809111612bfc5760f81b6001600160f81b03191660001a90613f2d9086613e99565b53049081613eea565b9091613f43600a91612e42565b92910480613eb6565b50604051613f5981612a4c565b60018152600360fc1b602082015290565b909190803b15614054576020604051809281630a85bd0160e11b9687825233600483015281613fb36000988993846024850152604484015260806064840152608483019061293e565b03926001600160a01b03165af19082908261400b575b5050613ffd57613fd7612c87565b80519081613ff85760405162461bcd60e51b81528061079460048201613e26565b602001fd5b6001600160e01b0319161490565b909192506020813d60201161404c575b8161402860209383612ab3565b810103126103185751906001600160e01b0319821682036105305750903880613fc9565b3d915061401b565b505050600190565b9290803b156140cc576140ac9160209160018060a01b039460405180958194829389630a85bd0160e11b9b8c8652336004870152166024850152604484015260806064840152608483019061293e565b03916000968791165af19082908261400b575050613ffd57613fd7612c87565b50505050600190565b60405190606082018281106001600160401b03821117612a6757604052602a8252602082016040368237825115612cee5760309053815160019060011015612cee57607860218401536029905b8082116141765750506141325790565b606460405162461bcd60e51b815260206004820152602060248201527f537472696e67733a20686578206c656e67746820696e73756666696369656e746044820152fd5b9091600f81169060108210156141ba576141b4916f181899199a1a9b1b9c1cb0b131b232b360811b901a6141aa8587613e99565b5360041c92612d3f565b90614122565b60246000634e487b7160e01b81526032600452fd5b156141d657565b60405162461bcd60e51b815260206004820152601c60248201527f4552433732313a20746f6b656e20616c7265616479206d696e746564000000006044820152606490fdfe416363657373436f6e74726f6c3a206163636f756e7420000000000000000000a264697066735822122091ee5760187909df149c45084da0b4e30c4479a1be44ff9d104fb2a20fb64e3264736f6c634300081800332f8788117e7eff1d82e926ec794901d17c78024a50270940304540a733656f0d",
  "linkReferences": {},
  "deployedLinkReferences": {}
}