{
  "_format": "hh-sol-artifact-1",
  "contractName": "ISAToken",
  "sourceName": "contracts/solidity/tokens/ISAToken.sol",
  "abi": [
    {
      "inputs": [
        {
          "internalType": "address",
          "name": "treasury",
          "type": "address"
        }
      ],
      "stateMutability": "nonpayable",
      "type": "constructor"
    },
    {
      "anonymous": false,
      "inputs": [
        {
          "indexed": true,
          "internalType": "address",
          "name": "owner",
          "type": "address"
        },
        {
          "indexed": true,
          "internalType": "address",
          "name": "spender",
          "type": "address"
        },
        {
          "indexed": false,
          "internalType": "uint256",
          "name": "value",
          "type": "uint256"
        }
      ],
      "name": "Approval",
      "type": "event"
    },
    {
      "anonymous": false,
      "inputs": [
        {
          "indexed": true,
          "internalType": "address",
          "name": "delegator",
          "type": "address"
        },
        {
          "indexed": true,
          "internalType": "address",
          "name": "fromDelegate",
          "type": "address"
        },
        {
          "indexed": true,
          "internalType": "address",
          "name": "toDelegate",
          "type": "address"
        }
      ],
      "name": "DelegateChanged",
      "type": "event"
    },
    {
      "anonymous": false,
      "inputs": [
        {
          "indexed": true,
          "internalType": "address",
          "name": "delegate",
          "type": "address"
        },
        {
          "indexed": false,
          "internalType": "uint256",
          "name": "previousBalance",
          "type": "uint256"
        },
        {
          "indexed": false,
          "internalType": "uint256",
          "name": "newBalance",
          "type": "uint256"
        }
      ],
      "name": "DelegateVotesChanged",
      "type": "event"
    },
    {
      "anonymous": false,
      "inputs": [
        {
          "indexed": false,
          "internalType": "address",
          "name": "account",
          "type": "address"
        }
      ],
      "name": "Paused",
      "type": "event"
    },
    {
      "anonymous": false,
      "inputs": [
        {
          "indexed": true,
          "internalType": "bytes32",
          "name": "role",
          "type": "bytes32"
        },
        {
          "indexed": true,
          "internalType": "bytes32",
          "name": "previousAdminRole",
          "type": "bytes32"
        },
        {
          "indexed": true,
          "internalType": "bytes32",
          "name": "newAdminRole",
          "type": "bytes32"
        }
      ],
      "name": "RoleAdminChanged",
      "type": "event"
    },
    {
      "anonymous": false,
      "inputs": [
        {
          "indexed": true,
          "internalType": "bytes32",
          "name": "role",
          "type": "bytes32"
        },
        {
          "indexed": true,
          "internalType": "address",
          "name": "account",
          "type": "address"
        },
        {
          "indexed": true,
          "internalType": "address",
          "name": "sender",
          "type": "address"
        }
      ],
      "name": "RoleGranted",
      "type": "event"
    },
    {
      "anonymous": false,
      "inputs": [
        {
          "indexed": true,
          "internalType": "bytes32",
          "name": "role",
          "type": "bytes32"
        },
        {
          "indexed": true,
          "internalType": "address",
          "name": "account",
          "type": "address"
        },
        {
          "indexed": true,
          "internalType": "address",
          "name": "sender",
          "type": "address"
        }
      ],
      "name": "RoleRevoked",
      "type": "event"
    },
    {
      "anonymous": false,
      "inputs": [
        {
          "indexed": true,
          "internalType": "address",
          "name": "beneficiary",
          "type": "address"
        },
        {
          "indexed": false,
          "internalType": "uint256",
          "name": "amount",
          "type": "uint256"
        }
      ],
      "name": "TokensReleased",
      "type": "event"
    },
    {
      "anonymous": false,
      "inputs": [
        {
          "indexed": true,
          "internalType": "address",
          "name": "from",
          "type": "address"
        },
        {
          "indexed": true,
          "internalType": "address",
          "name": "to",
          "type": "address"
        },
        {
          "indexed": false,
          "internalType": "uint256",
          "name": "value",
          "type": "uint256"
        }
      ],
      "name": "Transfer",
      "type": "event"
    },
    {
      "anonymous": false,
      "inputs": [
        {
          "indexed": false,
          "internalType": "address",
          "name": "account",
          "type": "address"
        }
      ],
      "name": "Unpaused",
      "type": "event"
    },
    {
      "anonymous": false,
      "inputs": [
        {
          "indexed": true,
          "internalType": "address",
          "name": "beneficiary",
          "type": "address"
        },
        {
          "indexed": false,
          "internalType": "uint256",
          "name": "unvestedAmount",
          "type": "uint256"
        }
      ],
      "name": "VestingRevoked",
      "type": "event"
    },
    {
      "anonymous": false,
      "inputs": [
        {
          "indexed": true,
          "internalType": "address",
          "name": "beneficiary",
          "type": "address"
        },
        {
          "indexed": false,
          "internalType": "uint256",
          "name": "totalAmount",
          "type": "uint256"
        },
        {
          "indexed": false,
          "internalType": "uint256",
          "name": "start",
          "type": "uint256"
        },
        {
          "indexed": false,
          "internalType": "uint256",
          "name": "duration",
          "type": "uint256"
        },
        {
          "indexed": false,
          "internalType": "uint256",
          "name": "cliffDuration",
          "type": "uint256"
        }
      ],
      "name": "VestingScheduleCreated",
      "type": "event"
    },
    {
      "inputs": [],
      "name": "BURNER_ROLE",
      "outputs": [
        {
          "internalType": "bytes32",
          "name": "",
          "type": "bytes32"
        }
      ],
      "stateMutability": "view",
      "type": "function"
    },
    {
      "inputs": [],
      "name": "DEFAULT_ADMIN_ROLE",
      "outputs": [
        {
          "internalType": "bytes32",
          "name": "",
          "type": "bytes32"
        }
      ],
      "stateMutability": "view",
      "type": "function"
    },
    {
      "inputs": [],
      "name": "DOMAIN_SEPARATOR",
      "outputs": [
        {
          "internalType": "bytes32",
          "name": "",
          "type": "bytes32"
        }
      ],
      "stateMutability": "view",
      "type": "function"
    },
    {
      "inputs": [],
      "name": "INITIAL_SUPPLY",
      "outputs": [
        {
          "internalType": "uint256",
          "name": "",
          "type": "uint256"
        }
      ],
      "stateMutability": "view",
      "type": "function"
    },
    {
      "inputs": [],
      "name": "MAX_SUPPLY",
      "outputs": [
        {
          "internalType": "uint256",
          "name": "",
          "type": "uint256"
        }
      ],
      "stateMutability": "view",
      "type": "function"
    },
    {
      "inputs": [],
      "name": "MINTER_ROLE",
      "outputs": [
        {
          "internalType": "bytes32",
          "name": "",
          "type": "bytes32"
        }
      ],
      "stateMutability": "view",
      "type": "function"
    },
    {
      "inputs": [],
      "name": "PAUSER_ROLE",
      "outputs": [
        {
          "internalType": "bytes32",
          "name": "",
          "type": "bytes32"
        }
      ],
      "stateMutability": "view",
      "type": "function"
    },
    {
      "inputs": [
        {
          "internalType": "address",
          "name": "owner",
          "type": "address"
        },
        {
          "internalType": "address",
          "name": "spender",
          "type": "address"
        }
      ],
      "name": "allowance",
      "outputs": [
        {
          "internalType": "uint256",
          "name": "",
          "type": "uint256"
        }
      ],
      "stateMutability": "view",
      "type": "function"
    },
    {
      "inputs": [
        {
          "internalType": "address",
          "name": "spender",
          "type": "address"
        },
        {
          "internalType": "uint256",
          "name": "amount",
          "type": "uint256"
        }
      ],
      "name": "approve",
      "outputs": [
        {
          "internalType": "bool",
          "name": "",
          "type": "bool"
        }
      ],
      "stateMutability": "nonpayable",
      "type": "function"
    },
    {
      "inputs": [
        {
          "internalType": "address",
          "name": "account",
          "type": "address"
        }
      ],
      "name": "balanceOf",
      "outputs": [
        {
          "internalType": "uint256",
          "name": "",
          "type": "uint256"
        }
      ],
      "stateMutability": "view",
      "type": "function"
    },
    {
      "inputs": [
        {
          "internalType": "uint256",
          "name": "amount",
          "type": "uint256"
        }
      ],
      "name": "burn",
      "outputs": [],
      "stateMutability": "nonpayable",
      "type": "function"
    },
    {
      "inputs": [
        {
          "internalType": "address",
          "name": "from",
          "type": "address"
        },
        {
          "internalType": "uint256",
          "name": "amount",
          "type": "uint256"
        }
      ],
      "name": "burnFrom",
      "outputs": [],
      "stateMutability": "nonpayable",
      "type": "function"
    },
    {
      "inputs": [
        {
          "internalType": "address",
          "name": "account",
          "type": "address"
        },
        {
          "internalType": "uint32",
          "name": "pos",
          "type": "uint32"
        }
      ],
      "name": "checkpoints",
      "outputs": [
        {
          "components": [
            {
              "internalType": "uint32",
              "name": "fromBlock",
              "type": "uint32"
            },
            {
              "internalType": "uint224",
              "name": "votes",
              "type": "uint224"
            }
          ],
          "internalType": "struct ERC20Votes.Checkpoint",
          "name": "",
          "type": "tuple"
        }
      ],
      "stateMutability": "view",
      "type": "function"
    },
    {
      "inputs": [
        {
          "internalType": "address",
          "name": "beneficiary",
          "type": "address"
        },
        {
          "internalType": "uint256",
          "name": "totalAmount",
          "type": "uint256"
        },
        {
          "internalType": "uint256",
          "name": "start",
          "type": "uint256"
        },
        {
          "internalType": "uint256",
          "name": "duration",
          "type": "uint256"
        },
        {
          "internalType": "uint256",
          "name": "cliffDuration",
          "type": "uint256"
        },
        {
          "internalType": "bool",
          "name": "revokable",
          "type": "bool"
        }
      ],
      "name": "createVestingSchedule",
      "outputs": [],
      "stateMutability": "nonpayable",
      "type": "function"
    },
    {
      "inputs": [],
      "name": "decimals",
      "outputs": [
        {
          "internalType": "uint8",
          "name": "",
          "type": "uint8"
        }
      ],
      "stateMutability": "view",
      "type": "function"
    },
    {
      "inputs": [
        {
          "internalType": "address",
          "name": "spender",
          "type": "address"
        },
        {
          "internalType": "uint256",
          "name": "subtractedValue",
          "type": "uint256"
        }
      ],
      "name": "decreaseAllowance",
      "outputs": [
        {
          "internalType": "bool",
          "name": "",
          "type": "bool"
        }
      ],
      "stateMutability": "nonpayable",
      "type": "function"
    },
    {
      "inputs": [
        {
          "internalType": "address",
          "name": "delegatee",
          "type": "address"
        }
      ],
      "name": "delegate",
      "outputs": [],
      "stateMutability": "nonpayable",
      "type": "function"
    },
    {
      "inputs": [
        {
          "internalType": "address",
          "name": "delegatee",
          "type": "address"
        },
        {
          "internalType": "uint256",
          "name": "nonce",
          "type": "uint256"
        },
        {
          "internalType": "uint256",
          "name": "expiry",
          "type": "uint256"
        },
        {
          "internalType": "uint8",
          "name": "v",
          "type": "uint8"
        },
        {
          "internalType": "bytes32",
          "name": "r",
          "type": "bytes32"
        },
        {
          "internalType": "bytes32",
          "name": "s",
          "type": "bytes32"
        }
      ],
      "name": "delegateBySig",
      "outputs": [],
      "stateMutability": "nonpayable",
      "type": "function"
    },
    {
      "inputs": [
        {
          "internalType": "address",
          "name": "account",
          "type": "address"
        }
      ],
      "name": "delegates",
      "outputs": [
        {
          "internalType": "address",
          "name": "",
          "type": "address"
        }
      ],
      "stateMutability": "view",
      "type": "function"
    },
    {
      "inputs": [
        {
          "internalType": "uint256",
          "name": "blockNumber",
          "type": "uint256"
        }
      ],
      "name": "getPastTotalSupply",
      "outputs": [
        {
          "internalType": "uint256",
          "name": "",
          "type": "uint256"
        }
      ],
      "stateMutability": "view",
      "type": "function"
    },
    {
      "inputs": [
        {
          "internalType": "address",
          "name": "account",
          "type": "address"
        },
        {
          "internalType": "uint256",
          "name": "blockNumber",
          "type": "uint256"
        }
      ],
      "name": "getPastVotes",
      "outputs": [
        {
          "internalType": "uint256",
          "name": "",
          "type": "uint256"
        }
      ],
      "stateMutability": "view",
      "type": "function"
    },
    {
      "inputs": [
        {
          "internalType": "bytes32",
          "name": "role",
          "type": "bytes32"
        }
      ],
      "name": "getRoleAdmin",
      "outputs": [
        {
          "internalType": "bytes32",
          "name": "",
          "type": "bytes32"
        }
      ],
      "stateMutability": "view",
      "type": "function"
    },
    {
      "inputs": [
        {
          "internalType": "address",
          "name": "beneficiary",
          "type": "address"
        }
      ],
      "name": "getVestingSchedule",
      "outputs": [
        {
          "components": [
            {
              "internalType": "uint256",
              "name": "totalAmount",
              "type": "uint256"
            },
            {
              "internalType": "uint256",
              "name": "released",
              "type": "uint256"
            },
            {
              "internalType": "uint256",
              "name": "start",
              "type": "uint256"
            },
            {
              "internalType": "uint256",
              "name": "duration",
              "type": "uint256"
            },
            {
              "internalType": "uint256",
              "name": "cliffDuration",
              "type": "uint256"
            },
            {
              "internalType": "bool",
              "name": "revokable",
              "type": "bool"
            },
            {
              "internalType": "bool",
              "name": "revoked",
              "type": "bool"
            }
          ],
          "internalType": "struct ISAToken.VestingSchedule",
          "name": "",
          "type": "tuple"
        }
      ],
      "stateMutability": "view",
      "type": "function"
    },
    {
      "inputs": [
        {
          "internalType": "address",
          "name": "account",
          "type": "address"
        }
      ],
      "name": "getVotes",
      "outputs": [
        {
          "internalType": "uint256",
          "name": "",
          "type": "uint256"
        }
      ],
      "stateMutability": "view",
      "type": "function"
    },
    {
      "inputs": [
        {
          "internalType": "bytes32",
          "name": "role",
          "type": "bytes32"
        },
        {
          "internalType": "address",
          "name": "account",
          "type": "address"
        }
      ],
      "name": "grantRole",
      "outputs": [],
      "stateMutability": "nonpayable",
      "type": "function"
    },
    {
      "inputs": [
        {
          "internalType": "bytes32",
          "name": "role",
          "type": "bytes32"
        },
        {
          "internalType": "address",
          "name": "account",
          "type": "address"
        }
      ],
      "name": "hasRole",
      "outputs": [
        {
          "internalType": "bool",
          "name": "",
          "type": "bool"
        }
      ],
      "stateMutability": "view",
      "type": "function"
    },
    {
      "inputs": [
        {
          "internalType": "address",
          "name": "spender",
          "type": "address"
        },
        {
          "internalType": "uint256",
          "name": "addedValue",
          "type": "uint256"
        }
      ],
      "name": "increaseAllowance",
      "outputs": [
        {
          "internalType": "bool",
          "name": "",
          "type": "bool"
        }
      ],
      "stateMutability": "nonpayable",
      "type": "function"
    },
    {
      "inputs": [
        {
          "internalType": "address",
          "name": "to",
          "type": "address"
        },
        {
          "internalType": "uint256",
          "name": "amount",
          "type": "uint256"
        }
      ],
      "name": "mint",
      "outputs": [],
      "stateMutability": "nonpayable",
      "type": "function"
    },
    {
      "inputs": [],
      "name": "name",
      "outputs": [
        {
          "internalType": "string",
          "name": "",
          "type": "string"
        }
      ],
      "stateMutability": "view",
      "type": "function"
    },
    {
      "inputs": [
        {
          "internalType": "address",
          "name": "owner",
          "type": "address"
        }
      ],
      "name": "nonces",
      "outputs": [
        {
          "internalType": "uint256",
          "name": "",
          "type": "uint256"
        }
      ],
      "stateMutability": "view",
      "type": "function"
    },
    {
      "inputs": [
        {
          "internalType": "address",
          "name": "account",
          "type": "address"
        }
      ],
      "name": "numCheckpoints",
      "outputs": [
        {
          "internalType": "uint32",
          "name": "",
          "type": "uint32"
        }
      ],
      "stateMutability": "view",
      "type": "function"
    },
    {
      "inputs": [],
      "name": "pause",
      "outputs": [],
      "stateMutability": "nonpayable",
      "type": "function"
    },
    {
      "inputs": [],
      "name": "paused",
      "outputs": [
        {
          "internalType": "bool",
          "name": "",
          "type": "bool"
        }
      ],
      "stateMutability": "view",
      "type": "function"
    },
    {
      "inputs": [
        {
          "internalType": "address",
          "name": "owner",
          "type": "address"
        },
        {
          "internalType": "address",
          "name": "spender",
          "type": "address"
        },
        {
          "internalType": "uint256",
          "name": "value",
          "type": "uint256"
        },
        {
          "internalType": "uint256",
          "name": "deadline",
          "type": "uint256"
        },
        {
          "internalType": "uint8",
          "name": "v",
          "type": "uint8"
        },
        {
          "internalType": "bytes32",
          "name": "r",
          "type": "bytes32"
        },
        {
          "internalType": "bytes32",
          "name": "s",
          "type": "bytes32"
        }
      ],
      "name": "permit",
      "outputs": [],
      "stateMutability": "nonpayable",
      "type": "function"
    },
    {
      "inputs": [
        {
          "internalType": "address",
          "name": "beneficiary",
          "type": "address"
        }
      ],
      "name": "releasableAmount",
      "outputs": [
        {
          "internalType": "uint256",
          "name": "",
          "type": "uint256"
        }
      ],
      "stateMutability": "view",
      "type": "function"
    },
    {
      "inputs": [
        {
          "internalType": "address",
          "name": "beneficiary",
          "type": "address"
        }
      ],
      "name": "release",
      "outputs": [],
      "stateMutability": "nonpayable",
      "type": "function"
    },
    {
      "inputs": [
        {
          "internalType": "bytes32",
          "name": "role",
          "type": "bytes32"
        },
        {
          "internalType": "address",
          "name": "account",
          "type": "address"
        }
      ],
      "name": "renounceRole",
      "outputs": [],
      "stateMutability": "nonpayable",
      "type": "function"
    },
    {
      "inputs": [
        {
          "internalType": "bytes32",
          "name": "role",
          "type": "bytes32"
        },
        {
          "internalType": "address",
          "name": "account",
          "type": "address"
        }
      ],
      "name": "revokeRole",
      "outputs": [],
      "stateMutability": "nonpayable",
      "type": "function"
    },
    {
      "inputs": [
        {
          "internalType": "address",
          "name": "beneficiary",
          "type": "address"
        }
      ],
      "name": "revokeVesting",
      "outputs": [],
      "stateMutability": "nonpayable",
      "type": "function"
    },
    {
      "inputs": [
        {
          "internalType": "bytes4",
          "name": "interfaceId",
          "type": "bytes4"
        }
      ],
      "name": "supportsInterface",
      "outputs": [
        {
          "internalType": "bool",
          "name": "",
          "type": "bool"
        }
      ],
      "stateMutability": "view",
      "type": "function"
    },
    {
      "inputs": [],
      "name": "symbol",
      "outputs": [
        {
          "internalType": "string",
          "name": "",
          "type": "string"
        }
      ],
      "stateMutability": "view",
      "type": "function"
    },
    {
      "inputs": [],
      "name": "totalSupply",
      "outputs": [
        {
          "internalType": "uint256",
          "name": "",
          "type": "uint256"
        }
      ],
      "stateMutability": "view",
      "type": "function"
    },
    {
      "inputs": [],
      "name": "totalVested",
      "outputs": [
        {
          "internalType": "uint256",
          "name": "",
          "type": "uint256"
        }
      ],
      "stateMutability": "view",
      "type": "function"
    },
    {
      "inputs": [
        {
          "internalType": "address",
          "name": "to",
          "type": "address"
        },
        {
          "internalType": "uint256",
          "name": "amount",
          "type": "uint256"
        }
      ],
      "name": "transfer",
      "outputs": [
        {
          "internalType": "bool",
          "name": "",
          "type": "bool"
        }
      ],
      "stateMutability": "nonpayable",
      "type": "function"
    },
    {
      "inputs": [
        {
          "internalType": "address",
          "name": "from",
          "type": "address"
        },
        {
          "internalType": "address",
          "name": "to",
          "type": "address"
        },
        {
          "internalType": "uint256",
          "name": "amount",
          "type": "uint256"
        }
      ],
      "name": "transferFrom",
      "outputs": [
        {
          "internalType": "bool",
          "name": "",
          "type": "bool"
        }
      ],
      "stateMutability": "nonpayable",
      "type": "function"
    },
    {
      "inputs": [],
      "name": "unpause",
      "outputs": [],
      "stateMutability": "nonpayable",
      "type": "function"
    }
  ],
  "bytecode": "0x61014080604052346200008f576020620049df80380380916200002282620000aa565b8439126200008f57516001600160a01b03811681036200008f576200004790620001b9565b60405161398f908162000ff0823960805181612933015260a051816129ee015260c051816128fd015260e05181612982015261010051816129a80152610120518161295f0152f35b600080fd5b634e487b7160e01b600052604160045260246000fd5b601f01601f1916610140908101906001600160401b03821190821017620000d057604052565b62000094565b604081019081106001600160401b03821117620000d057604052565b604051906200010182620000d6565b565b604051906200011282620000d6565b60038252565b604051906200012782620000d6565b60018252565b604051906200013c82620000d6565b600f82526e34b9a09021b430b4b7102a37b5b2b760891b6020830152565b156200016257565b60405162461bcd60e51b815260206004820152602960248201527f495341546f6b656e3a2074726561737572792063616e6e6f74206265207a65726044820152686f206164647265737360b81b6064820152608490fd5b90620001c46200012d565b91620001cf6200012d565b620001d962000103565b906020946249534160e81b86840152620001f262000118565b9286840192603160f81b845280519060018060401b038211620000d057620002278262000221600354620003b9565b620003f6565b8890601f83116001146200031d57926200026d83620001019a9b946200027694620002a39a99989760009262000311575b50508160011b916000199060031b1c19161790565b600355620004ac565b6200028660ff1960055416600555565b815191012091519020908060e05281610100524660a052620007a9565b6080523060c0526000805160206200499f83398151915261012052620002c96001600c55565b620002df6001600160a01b03821615156200015a565b620002ea336200059a565b620002f5336200062d565b6200030033620006e5565b6200030b3362000747565b62000864565b01519050388062000258565b6003600052601f19831691907fc2575a0e9e593c00f959f8c92f12db2869c3395a3b0502d05e2516446f71f85b9260005b818110620003a15750936200027693620002a3999897969360019383620001019e9f981062000387575b505050811b01600355620004ac565b015160001960f88460031b161c1916905538808062000378565b92938c6001819287860151815501950193016200034e565b90600182811c92168015620003eb575b6020831014620003d557565b634e487b7160e01b600052602260045260246000fd5b91607f1691620003c9565b601f811162000403575050565b60009060036000526020600020906020601f850160051c8301941062000446575b601f0160051c01915b8281106200043a57505050565b8181556001016200042d565b909250829062000424565b601f81116200045e575050565b60009060046000526020600020906020601f850160051c83019410620004a1575b601f0160051c01915b8281106200049557505050565b81815560010162000488565b90925082906200047f565b80519091906001600160401b038111620000d057620004d881620004d2600454620003b9565b62000451565b602080601f831160011462000512575081906200050d9394600092620003115750508160011b916000199060031b1c19161790565b600455565b6004600052601f198316949091907f8a35acfbc15ff81a39ae7d344fd709f28e8600b4aa8c65c6b64bfe7fe36bd19b926000905b8782106200058157505083600195961062000567575b505050811b01600455565b015160001960f88460031b161c191690553880806200055c565b8060018596829496860151815501950193019062000546565b6001600160a01b03811660009081527f54cdd369e4e8a8515e52ca72ec816c2101831ad1f18bf44102ed171459c9b4f8602052604081205460ff1615620005df575050565b8080526006602090815260408083206001600160a01b038516600090815292529020805460ff1916600117905533916001600160a01b0316906000805160206200497f8339815191528180a4565b6001600160a01b03811660009081527f3195c024b2ddd6d9b8f6c836aa52f67fe69376c8903d009b80229b3ce4425f51602052604081207f9f2df0fed2c77648de5860a4cc508cd0818c85b8b8a1ab4ceeef8d981c8956a69060ff905b5416156200069757505050565b8082526006602090815260408084206001600160a01b038616600090815292529020805460ff1916600117905533926001600160a01b0316916000805160206200497f8339815191529080a4565b6001600160a01b03811660009081527fe09f975e15f8f53f24cbbc282b13c40b84df485fcdb8d3997fa103dc5a4ef841602052604081207f65d7a28e3265b37a6474929f336521b332c1681b933f6cb9f3376673440d862a9060ff906200068a565b6001600160a01b03811660009081527f42d20fd6db25ea5a8e33f43724ad72f2ebd9488257fa78c86176b8175fc383fa602052604081207f3c11d16cbaffd01df69ce1c404f6340ee057498f5f00246190ea54220576a8489060ff906200068a565b906040519060208201926000805160206200499f8339815191528452604083015260608201524660808201523060a082015260a0815260c0810181811060018060401b03821117620000d05760405251902090565b156200080657565b60405162461bcd60e51b815260206004820152603060248201527f4552433230566f7465733a20746f74616c20737570706c79207269736b73206f60448201526f766572666c6f77696e6720766f74657360801b6064820152608490fd5b6001600160a01b038116908115620009365762000910916200088562000e5d565b6200089b6200089660025462000991565b600255565b6001600160a01b03821660009081526020819052604090206b033b2e3c9fd0803ce8000000815401905560007fddf252ad1be2c89b69c2b068fc378daa952ba7f163c4a11628f55a4df523b3ef604051806200090781906b033b2e3c9fd0803ce8000000602083019252565b0390a362000ec2565b60025462000928906001600160e01b031015620007fe565b6200093262000acb565b5050565b60405162461bcd60e51b815260206004820152601f60248201527f45524332303a206d696e7420746f20746865207a65726f2061646472657373006044820152606490fd5b634e487b7160e01b600052601160045260246000fd5b906b033b2e3c9fd0803ce80000008201809211620009ab57565b6200097b565b600019810191908211620009ab57565b604080519192919081016001600160401b03811182821017620000d057604052602081935463ffffffff81168352811c910152565b600b549068010000000000000000821015620000d0576001820180600b5582101562000a6457600b600052805160209182015190911b63ffffffff191663ffffffff91909116177f0175b7a638427703f0dbe7bb9bbf987a2551717b34e79f33b5b1008d1fa01db990910155565b634e487b7160e01b600052603260045260246000fd5b90815468010000000000000000811015620000d0576001810180845581101562000a6457600092835260209283902082519284015190931b63ffffffff191663ffffffff9290921691909117910155565b600b5490811590811562000bf45762000ae3620000f2565b6000815260006020820152925b602084015162000b10906001600160e01b03165b6001600160e01b031690565b9362000b1c8562000fbb565b9315908162000bdc575b501562000b8d57620001019062000b7662000b4c62000b458662000df3565b92620009b1565b600b6000527f0175b7a638427703f0dbe7bb9bbf987a2551717b34e79f33b5b1008d1fa01db90190565b9063ffffffff82549181199060201b169116179055565b506200010162000b9d4362000d8d565b62000bd662000bac8562000df3565b62000bc662000bba620000f2565b63ffffffff9094168452565b6001600160e01b03166020830152565b620009f6565b5163ffffffff16905063ffffffff1643143862000b26565b62000c0d62000c0762000b4c85620009b1565b620009c1565b9262000af0565b805491821591821562000d035762000c2b620000f2565b6000815260006020820152935b602085015162000c51906001600160e01b031662000b04565b9462000c5d8662000fd5565b9415908162000ceb575b501562000c9a5762000b76620001019262000c8d62000c868762000df3565b93620009b1565b9060005260206000200190565b50620001019062000cab4362000d8d565b9062000ce562000cbb8662000df3565b62000cd562000cc9620000f2565b63ffffffff9095168552565b6001600160e01b03166020840152565b62000a7a565b5163ffffffff16905063ffffffff1643143862000c67565b62000d2362000c0762000d1686620009b1565b8360005260206000200190565b9362000c38565b805491821591821562000d735762000d41620000f2565b6000815260006020820152935b602085015162000d67906001600160e01b031662000b04565b9462000c5d8662000fbb565b62000d8662000c0762000d1686620009b1565b9362000d4e565b63ffffffff9081811162000d9f571690565b60405162461bcd60e51b815260206004820152602660248201527f53616665436173743a2076616c756520646f65736e27742066697420696e203360448201526532206269747360d01b6064820152608490fd5b6001600160e01b039081811162000e08571690565b60405162461bcd60e51b815260206004820152602760248201527f53616665436173743a2076616c756520646f65736e27742066697420696e20326044820152663234206269747360c81b6064820152608490fd5b60ff6005541662000e6a57565b60405162461bcd60e51b815260206004820152602a60248201527f45524332305061757361626c653a20746f6b656e207472616e736665722077686044820152691a5b19481c185d5cd95960b21b6064820152608490fd5b60096020527fec8156718a8372b1db44bb411437d0870f3e3790d4a08526d024ce1b0b668f6b546001600160a01b039182166000908152604081205483169290911690818314158062000fb2575b62000f1a57505050565b8162000f73575b50508062000f2c5750565b6001600160a01b0381166000908152600a60205260409020600080516020620049bf8339815191529062000f609062000d2a565b60408051928352602083019190915290a2565b62000f9960408284600080516020620049bf8339815191529452600a6020522062000c14565b60408051928352602083019190915290a2388062000f21565b50600162000f10565b6b033b2e3c9fd0803ce80000008101809111620009ab5790565b6b033b2e3c9fd0803ce80000008103908111620009ab579056fe6080604052600436101561001257600080fd5b60003560e01c806301ffc9a7146102f757806306fdde03146102f2578063095ea7b3146102ed5780631726cbc8146102e857806318160ddd146102e357806319165587146102de578063199cbc54146102d957806323b872dd146102d4578063248a9ca3146102cf578063282c51f3146102ca5780632f2ff15d146102c55780632ff2e9dc146102c0578063313ce567146102bb57806332cb6b0c146102b65780633644e515146102b157806336568abe146102ac57806339509351146102a75780633a46b1a8146102a25780633b0da2601461029d5780633f4ba83a1461029857806340c10f191461029357806342966c681461028e578063587cde1e146102895780635c19a95c146102845780635c975abb1461027f5780636fcfff451461027a57806370a082311461027557806379cc6790146102705780637ecebe001461026b5780638456cb59146102665780638e539e8c1461026157806391d148541461025c57806395d89b41146102575780639ab24eb0146102525780639f8290631461024d578063a217fddf14610248578063a457c2d714610243578063a9059cbb1461023e578063aaad932114610239578063c3cda52014610234578063d505accf1461022f578063d53913931461022a578063d547741f14610225578063dd62ed3e14610220578063e63ab1e91461021b5763f1127ed81461021657600080fd5b611a9f565b611a64565b611a0c565b6119cd565b611992565b61184c565b611721565b6115a4565b61157e565b6114c4565b6114a8565b61139a565b611330565b61126a565b611218565b6110fd565b61106a565b611030565b610f64565b610f2a565b610ee2565b610ebf565b610e9d565b610e62565b610d80565b610c16565b610b82565b610a5f565b61091a565b6108c2565b610830565b610815565b6107ee565b6107d2565b6107ab565b6106e2565b6106a7565b610678565b610640565b610622565b610556565b610538565b61050d565b6104dc565b6103a1565b3461034d57602036600319011261034d5760043563ffffffff60e01b811680910361034d57602090637965db0b60e01b811490811561033c575b506040519015158152f35b6301ffc9a760e01b14905038610331565b600080fd5b60005b8381106103655750506000910152565b8181015183820152602001610355565b604091602082526103958151809281602086015260208686019101610352565b601f01601f1916010190565b3461034d576000806003193601126104ad576040519080600354906001918060011c92600182169283156104a3575b60209260208610851461048f57858852602088019490811561046e5750600114610415575b6104118761040581890382611be2565b60405191829182610375565b0390f35b600360005294509192917fc2575a0e9e593c00f959f8c92f12db2869c3395a3b0502d05e2516446f71f85b5b83861061045d57505050910190506104058261041138806103f5565b805485870152948201948101610441565b60ff191685525050505090151560051b0190506104058261041138806103f5565b634e487b7160e01b82526022600452602482fd5b93607f16936103d0565b80fd5b600435906001600160a01b038216820361034d57565b602435906001600160a01b038216820361034d57565b3461034d57604036600319011261034d576105026104f86104b0565b6024359033612140565b602060405160018152f35b3461034d57602036600319011261034d57602061053061052b6104b0565b6122a3565b604051908152f35b3461034d57600036600319011261034d576020600254604051908152f35b3461034d57602036600319011261034d5761056f6104b0565b610577612357565b7fc7798891864187665ac6dd119286e44ec13f014527aeeb2b8eb3fd413df931796106136001610603818060a01b0385169485600052600d6020526040600020906105c482541515611c04565b6105d860ff600584015460081c1615611c50565b6105e1816122a3565b9384926105ef841515611ca7565b016105fb838254611b4a565b905530612460565b6040519081529081906020820190565b0390a26106206001600c55565b005b3461034d57600036600319011261034d576020600e54604051908152f35b3461034d57606036600319011261034d5761050261065c6104b0565b6106646104c6565b60443591610673833383612562565b612460565b3461034d57602036600319011261034d5760043560005260066020526020600160406000200154604051908152f35b3461034d57600036600319011261034d5760206040517f3c11d16cbaffd01df69ce1c404f6340ee057498f5f00246190ea54220576a8488152f35b3461034d57604036600319011261034d576004356106fe6104c6565b60009180835260066020526107196001604085200154612851565b8083526006602090815260408085206001600160a01b0385166000908152925290205460ff1615610748578280f35b8083526006602090815260408085206001600160a01b038516600090815292529020805460ff1916600117905533916001600160a01b0316907f2f8788117e7eff1d82e926ec794901d17c78024a50270940304540a733656f0d8480a438808280f35b3461034d57600036600319011261034d5760206040516b033b2e3c9fd0803ce80000008152f35b3461034d57600036600319011261034d57602060405160128152f35b3461034d57600036600319011261034d5760206040516b204fce5e3e250261100000008152f35b3461034d57600036600319011261034d5760206105306128fa565b3461034d57604036600319011261034d576108496104c6565b336001600160a01b038216036108655761062090600435612a14565b60405162461bcd60e51b815260206004820152602f60248201527f416363657373436f6e74726f6c3a2063616e206f6e6c792072656e6f756e636560448201526e103937b632b9903337b91039b2b63360891b6064820152608490fd5b3461034d57604036600319011261034d576108db6104b0565b3360009081526001602090815260408083206001600160a01b03851684529091529020546024358101809111610915576105029133612140565b611b26565b3461034d57604036600319011261034d576109336104b0565b60243590610942438310611cf3565b6001600160a01b03166000908152600a6020526040812080549290918360058111610a0e575b50905b8382106109bd57505081610992575050602060005b6040516001600160e01b039091168152f35b6109b16109b8916109a4602094611b57565b9060005260206000200190565b5460201c90565b610980565b90926109c98185612d3a565b908263ffffffff6109ee6109e4858860005260206000200190565b5463ffffffff1690565b1611156109fe5750925b9061096b565b9350610a0990611b3c565b6109f8565b80610a1e610a2492969396612bfa565b90611b66565b908263ffffffff610a3f6109e4858860005260206000200190565b161115610a4f5750925b38610968565b9350610a5a90611b3c565b610a49565b3461034d57602036600319011261034d57610a786104b0565b610a806125fb565b610a88612357565b6001600160a01b0381166000908152600d602052604090207f57c76f5e278bfbd4eeb5207d287aa5a1a9e1113c65f7eefa540e379a2774d13b906106139092610ad384541515611c04565b610b27610b176005860195610afa60ff8854610af0828216611d3f565b60081c1615611d9c565b610b03846122a3565b80610b60575b506001815491015490611b66565b855461ff00191661010017909555565b610b3b610b3685600e54611b66565b600e55565b610b46843330612460565b6040519384526001600160a01b0316929081906020820190565b610b7c9060018301610b73828254611b4a565b90558530612460565b38610b09565b3461034d57600036600319011261034d57610b9b612752565b60055460ff811615610bda5760ff19166005557f5db9ee0a495bf2e6ff9c91a7834c1ba4fdd244a5e8aa4e537bd38aeae4b073aa6020604051338152a1005b60405162461bcd60e51b815260206004820152601460248201527314185d5cd8589b194e881b9bdd081c185d5cd95960621b6044820152606490fd5b3461034d57604036600319011261034d57610c2f6104b0565b602435610c3a6127a7565b610c42612357565b600254818101808211610915576b204fce5e3e2502611000000010610d3b576001600160a01b038316908115610cf657610cea93610ccf92610c95610c90868095610c8b613177565b611b4a565b600255565b6001600160a01b0382166000908152602081815260408083208054870190555185815260008051602061391a8339815191529190a36131db565b600254610ce5906001600160e01b031015612d4f565b61365d565b50506106206001600c55565b60405162461bcd60e51b815260206004820152601f60248201527f45524332303a206d696e7420746f20746865207a65726f2061646472657373006044820152606490fd5b60405162461bcd60e51b815260206004820152601c60248201527f495341546f6b656e3a2065786365656473206d617820737570706c79000000006044820152606490fd5b3461034d57602036600319011261034d576004353315610e135761062090610da6613177565b336000908152602081905260409020819054610dc48282101561383f565b3360009081526020819052604090209190039055610de58160025403600255565b604051818152600090339060008051602061391a83398151915290602090a3610e0e8133613226565b613739565b60405162461bcd60e51b815260206004820152602160248201527f45524332303a206275726e2066726f6d20746865207a65726f206164647265736044820152607360f81b6064820152608490fd5b3461034d57602036600319011261034d5760206001600160a01b0380610e866104b0565b166000526009825260406000205416604051908152f35b3461034d57602036600319011261034d57610620610eb96104b0565b33612aa7565b3461034d57600036600319011261034d57602060ff600554166040519015158152f35b3461034d57602036600319011261034d576001600160a01b03610f036104b0565b16600052600a6020526020610f1c604060002054612b1f565b63ffffffff60405191168152f35b3461034d57602036600319011261034d576001600160a01b03610f4b6104b0565b1660005260006020526020604060002054604051908152f35b3461034d57604036600319011261034d57610f7d6104b0565b602435610f886127fc565b610f90612357565b610f9b813384612562565b6001600160a01b038216918215610e135781610e0e916000610cea95610fbf613177565b6001600160a01b0383166000908152602081905260409020849054610fe68282101561383f565b036110038460018060a01b03166000526000602052604060002090565b556110118460025403600255565b60405184815260008051602061391a83398151915290602090a3613226565b3461034d57602036600319011261034d576001600160a01b036110516104b0565b1660005260076020526020604060002054604051908152f35b3461034d57600036600319011261034d57611083612752565b60055460ff81166110c55760019060ff1916176005557f62e78cea01bee320cd4e420270b5ea74000d11b0c9f74754ebdbfc544b05a2586020604051338152a1005b60405162461bcd60e51b815260206004820152601060248201526f14185d5cd8589b194e881c185d5cd95960821b6044820152606490fd5b3461034d57602036600319011261034d5760043561111c438210611cf3565b600b5490600082600581116111c3575b50905b828210611172578280611149575060405160008152602090f35b6109b86109b161115a602093611b57565b600b60005260008051602061393a8339815191520190565b909161117e8184612d3a565b600b600052908263ffffffff6111a360008051602061393a83398151915285016109e4565b1611156111b35750915b9061112f565b92506111be90611b3c565b6111ad565b80610a1e6111d392959395612bfa565b600b600052908263ffffffff6111f860008051602061393a83398151915285016109e4565b1611156112085750915b3861112c565b925061121390611b3c565b611202565b3461034d57604036600319011261034d57602060ff61125e6112386104c6565b6004356000526006845260406000209060018060a01b0316600052602052604060002090565b54166040519015158152f35b3461034d576000806003193601126104ad576040519080600454906001918060011c9260018216928315611326575b60209260208610851461048f57858852602088019490811561046e57506001146112cd576104118761040581890382611be2565b600460005294509192917f8a35acfbc15ff81a39ae7d344fd709f28e8600b4aa8c65c6b64bfe7fe36bd19b5b83861061131557505050910190506104058261041138806103f5565b8054858701529482019481016112f9565b93607f1693611299565b3461034d57602036600319011261034d576001600160a01b036113516104b0565b16600052600a6020526040600020805490811560001461137957505060405160008152602090f35b60001982019182116109155760209161139191611e11565b5054811c610980565b3461034d57602036600319011261034d5761041160c06113b86104b0565b604091829182516113c881611b89565b600092818480935282602082015282868201528260608201528260808201528260a0820152015260018060a01b03168152600d602052209061145760ff600583519461141386611b89565b805486526001810154602087015260028101548587015260038101546060870152600481015460808701520154818116151560a086015260081c16151560c0840152565b519182918291909160c08060e0830194805184526020810151602085015260408101516040850152606081015160608501526080810151608085015260a0810151151560a085015201511515910152565b3461034d57600036600319011261034d57602060405160008152f35b3461034d57604036600319011261034d576114dd6104b0565b6024359033600052600160205261150a8160406000209060018060a01b0316600052602052604060002090565b549180831061152b5761151f92039033612140565b60405160018152602090f35b60405162461bcd60e51b815260206004820152602560248201527f45524332303a2064656372656173656420616c6c6f77616e63652062656c6f77604482015264207a65726f60d81b6064820152608490fd5b3461034d57604036600319011261034d5761050261159a6104b0565b6024359033612460565b3461034d5760c036600319011261034d576115bd6104b0565b60643560443560243560a435608435811515820361034d577f47d46f58c7d60d60571092cff5715b8c8c5bc1347db2bb9890e639bf3680ba7b946116c4610613936116066125fb565b61160e612357565b6001600160a01b038916986116bf906116288b1515611e4a565b611633881515611eab565b61163e851515611f07565b61164a85871115611f5f565b6001600160a01b0381166000908152600d6020526040902061166d905415611fc3565b6116a0611678611e2e565b93898552600060208601528a604086015286606086015287608086015260a085019015159052565b600060c084015260018060a01b0316600052600d602052604060002090565b612021565b6116d3610b3685600e54611b4a565b6116de843033612460565b604051948594859094939260609260808301968352602083015260408201520152565b6064359060ff8216820361034d57565b6084359060ff8216820361034d57565b3461034d5760c036600319011261034d5761173a6104b0565b60443590602435611749611701565b92804211611807576117d96118029161062095604051906117c1826117b36020820195898b8860609194939260808201957fe48329057bfd03d55e49b547132e39cffd9c1820ad7b9d4c5307691425d15adf835260018060a01b0316602083015260408201520152565b03601f198101845283611be2565b6117d460a4359360843593519020612b84565b612bcc565b6001600160a01b0381166000908152600760205260409020805460018101909155909214612086565b612aa7565b60405162461bcd60e51b815260206004820152601d60248201527f4552433230566f7465733a207369676e617475726520657870697265640000006044820152606490fd5b3461034d5760e036600319011261034d576118656104b0565b61186d6104c6565b604435906064359261187d611711565b9380421161194d57611935611948916117b3610620976119226118bb8760018060a01b03166000526007602052604060002090815491600183019055565b604080517f6e71edae12b1b97f4d1f60370fef10105fa2faae0126114a169c64845d6126c9602082019081526001600160a01b03808c1693830193909352918b166060820152608081018c905260a081019290925260c082019590955292839060e0820190565b6117d460c4359360a43593519020612b84565b6001600160a01b038381169116146120d2565b612140565b60405162461bcd60e51b815260206004820152601d60248201527f45524332305065726d69743a206578706972656420646561646c696e650000006044820152606490fd5b3461034d57600036600319011261034d5760206040517f9f2df0fed2c77648de5860a4cc508cd0818c85b8b8a1ab4ceeef8d981c8956a68152f35b3461034d57604036600319011261034d576106206004356119ec6104c6565b90806000526006602052611a07600160406000200154612851565b612a14565b3461034d57604036600319011261034d576020611a5b611a2a6104b0565b611a326104c6565b6001600160a01b0391821660009081526001855260408082209290931681526020919091522090565b54604051908152f35b3461034d57600036600319011261034d5760206040517f65d7a28e3265b37a6474929f336521b332c1681b933f6cb9f3376673440d862a8152f35b3461034d57604036600319011261034d57611ab86104b0565b63ffffffff602435818116810361034d57611b02611b0891604094600060208751611ae281611baa565b82815201526001600160a01b03166000908152600a602052859020611e11565b5061211e565b8251815190921682526020908101516001600160e01b031690820152f35b634e487b7160e01b600052601160045260246000fd5b906001820180921161091557565b9190820180921161091557565b60001981019190821161091557565b9190820391821161091557565b634e487b7160e01b600052604160045260246000fd5b60e0810190811067ffffffffffffffff821117611ba557604052565b611b73565b6040810190811067ffffffffffffffff821117611ba557604052565b60c0810190811067ffffffffffffffff821117611ba557604052565b90601f8019910116810190811067ffffffffffffffff821117611ba557604052565b15611c0b57565b60405162461bcd60e51b815260206004820152601d60248201527f495341546f6b656e3a206e6f2076657374696e67207363686564756c650000006044820152606490fd5b15611c5757565b60405162461bcd60e51b815260206004820152602260248201527f495341546f6b656e3a2076657374696e67207363686564756c65207265766f6b604482015261195960f21b6064820152608490fd5b15611cae57565b60405162461bcd60e51b815260206004820152601e60248201527f495341546f6b656e3a206e6f20746f6b656e7320746f2072656c6561736500006044820152606490fd5b15611cfa57565b60405162461bcd60e51b815260206004820152601f60248201527f4552433230566f7465733a20626c6f636b206e6f7420796574206d696e6564006044820152606490fd5b15611d4657565b60405162461bcd60e51b815260206004820152602860248201527f495341546f6b656e3a2076657374696e67207363686564756c65206e6f74207260448201526765766f6b61626c6560c01b6064820152608490fd5b15611da357565b60405162461bcd60e51b815260206004820152602a60248201527f495341546f6b656e3a2076657374696e67207363686564756c6520616c726561604482015269191e481c995d9bdad95960b21b6064820152608490fd5b634e487b7160e01b600052603260045260246000fd5b8054821015611e295760005260206000200190600090565b611dfb565b60405190611e3b82611b89565b565b60405190611e3b82611baa565b15611e5157565b60405162461bcd60e51b815260206004820152602c60248201527f495341546f6b656e3a2062656e65666963696172792063616e6e6f742062652060448201526b7a65726f206164647265737360a01b6064820152608490fd5b15611eb257565b60405162461bcd60e51b815260206004820152602760248201527f495341546f6b656e3a20746f74616c20616d6f756e74206d75737420626520706044820152666f73697469766560c81b6064820152608490fd5b15611f0e57565b60405162461bcd60e51b815260206004820152602360248201527f495341546f6b656e3a206475726174696f6e206d75737420626520706f73697460448201526269766560e81b6064820152608490fd5b15611f6657565b60405162461bcd60e51b815260206004820152602f60248201527f495341546f6b656e3a20636c696666206475726174696f6e206578636565647360448201526e103a37ba30b610323ab930ba34b7b760891b6064820152608490fd5b15611fca57565b60405162461bcd60e51b815260206004820152602960248201527f495341546f6b656e3a2076657374696e67207363686564756c6520616c72656160448201526864792065786973747360b81b6064820152608490fd5b9060c06005611e3b938351815560208401516001820155604084015160028201556060840151600382015560808401516004820155019160a0810151151560ff801985541691161783550151151561ff00825491151560081b169061ff001916179055565b1561208d57565b60405162461bcd60e51b815260206004820152601960248201527f4552433230566f7465733a20696e76616c6964206e6f6e6365000000000000006044820152606490fd5b156120d957565b60405162461bcd60e51b815260206004820152601e60248201527f45524332305065726d69743a20696e76616c6964207369676e617475726500006044820152606490fd5b9060405161212b81611baa565b602081935463ffffffff81168352811c910152565b6001600160a01b03808216929190831561221f5782169384156121cf57806121b97f8c5be1e5ebec7d5bd14f71427d1e84f3dd0314c0f7b2291e5b200ac8c7c3b925946121a26121ca9560018060a01b03166000526001602052604060002090565b9060018060a01b0316600052602052604060002090565b556040519081529081906020820190565b0390a3565b60405162461bcd60e51b815260206004820152602260248201527f45524332303a20617070726f766520746f20746865207a65726f206164647265604482015261737360f01b6064820152608490fd5b60405162461bcd60e51b8152602060048201526024808201527f45524332303a20617070726f76652066726f6d20746865207a65726f206164646044820152637265737360e01b6064820152608490fd5b8181029291811591840414171561091557565b811561228d570490565b634e487b7160e01b600052601260045260246000fd5b6001600160a01b03166000908152600d6020526040902080549081158015612346575b61233f5760028101546122dd600483015482611b4a565b4210612337576003820154906122f38282611b4a565b421015612328576001916123176123259561231161231c9442611b66565b90612270565b612283565b91015490611b66565b90565b50506001015461232591611b66565b505050600090565b5050600090565b50600581015460081c60ff166122c6565b6002600c5414612368576002600c55565b60405162461bcd60e51b815260206004820152601f60248201527f5265656e7472616e637947756172643a207265656e7472616e742063616c6c006044820152606490fd5b156123b457565b60405162461bcd60e51b815260206004820152602360248201527f45524332303a207472616e7366657220746f20746865207a65726f206164647260448201526265737360e81b6064820152608490fd5b1561240c57565b60405162461bcd60e51b815260206004820152602660248201527f45524332303a207472616e7366657220616d6f756e7420657863656564732062604482015265616c616e636560d01b6064820152608490fd5b6001600160a01b03929190838116801561250f57611e3b948316906124868215156123ad565b61248e613177565b6001600160a01b03831660009081526020819052604090208590546124b582821015612405565b036124d28460018060a01b03166000526000602052604060002090565b556001600160a01b03841660009081526020818152604091829020805488019055905186815260008051602061391a8339815191529190a3613274565b60405162461bcd60e51b815260206004820152602560248201527f45524332303a207472616e736665722066726f6d20746865207a65726f206164604482015264647265737360d81b6064820152608490fd5b6001600160a01b03808216600090815260016020908152604080832093861683529290522090919054926001840161259b575b50505050565b8084106125b6576125ad930391612140565b38808080612595565b60405162461bcd60e51b815260206004820152601d60248201527f45524332303a20696e73756666696369656e7420616c6c6f77616e63650000006044820152606490fd5b3360009081527f54cdd369e4e8a8515e52ca72ec816c2101831ad1f18bf44102ed171459c9b4f8602052604090205460ff161561263457565b61263d33613358565b6000906126486132a6565b916030612654846132d2565b536078612660846132df565b5360415b600181116127105761270c60486126f4856126e688612683881561330d565b6040519485937f416363657373436f6e74726f6c3a206163636f756e742000000000000000000060208601526126c3815180926020603789019101610352565b84017001034b99036b4b9b9b4b733903937b6329607d1b60378201520190612be3565b03601f198101835282611be2565b60405162461bcd60e51b815291829160048301610375565b0390fd5b90600f8116906010821015611e295761274d916f181899199a1a9b1b9c1cb0b131b232b360811b901a61274384876132ef565b5360041c91613300565b612664565b3360009081527fe09f975e15f8f53f24cbbc282b13c40b84df485fcdb8d3997fa103dc5a4ef841602052604090205460ff161561278b57565b61270c60486126f461279c33613358565b6126e66126836133e9565b3360009081527f3195c024b2ddd6d9b8f6c836aa52f67fe69376c8903d009b80229b3ce4425f51602052604090205460ff16156127e057565b61270c60486126f46127f133613358565b6126e661268361347a565b3360009081527f42d20fd6db25ea5a8e33f43724ad72f2ebd9488257fa78c86176b8175fc383fa602052604090205460ff161561283557565b61270c60486126f461284633613358565b6126e661268361350b565b600081815260066020908152604080832033845290915290205460ff16156128765750565b61287f33613358565b6128876132a6565b916030612893846132d2565b53607861289f846132df565b5360415b600181116128c25761270c60486126f4856126e688612683881561330d565b90600f8116906010821015611e29576128f5916f181899199a1a9b1b9c1cb0b131b232b360811b901a61274384876132ef565b6128a3565b307f00000000000000000000000000000000000000000000000000000000000000006001600160a01b031614806129eb575b15612955577f000000000000000000000000000000000000000000000000000000000000000090565b60405160208101907f000000000000000000000000000000000000000000000000000000000000000082527f000000000000000000000000000000000000000000000000000000000000000060408201527f000000000000000000000000000000000000000000000000000000000000000060608201524660808201523060a082015260a081526129e581611bc6565b51902090565b507f0000000000000000000000000000000000000000000000000000000000000000461461292c565b600090808252600660205260ff612a4084604085209060018060a01b0316600052602052604060002090565b5416612a4b57505050565b8082526006602090815260408084206001600160a01b038616600090815292529020805460ff1916905533926001600160a01b0316917ff6391f5c32d9c69d2a47ea670b442974b53935d1edc7fd64eb21e047a839171b9080a4565b611e3b9160018060a01b038092166000928184526009602052806040852054168092856020527f3134e8a2e6d97e929a7e54011ea5485d7d196dd5f0ba4d4ef95803e8e3fc257f60408720549660096020526040812094871694856bffffffffffffffffffffffff60a01b82541617905580a4612db4565b63ffffffff90818111612b30571690565b60405162461bcd60e51b815260206004820152602660248201527f53616665436173743a2076616c756520646f65736e27742066697420696e203360448201526532206269747360d01b6064820152608490fd5b612b8c6128fa565b9060405190602082019261190160f01b845260228301526042820152604281526080810181811067ffffffffffffffff821117611ba55760405251902090565b916123259391612bdb93612fa8565b919091613057565b90612bf660209282815194859201610352565b0190565b8015612d345780612ccd612cc6612cbc612cb2612ca8612c9e612c94612c8a60016123259a6000908b60801c80612d28575b508060401c80612d1b575b508060201c80612d0e575b508060101c80612d01575b508060081c80612cf4575b508060041c80612ce7575b508060021c80612cda575b50821c612cd3575b811c1b612c83818b612283565b0160011c90565b612c83818a612283565b612c838189612283565b612c838188612283565b612c838187612283565b612c838186612283565b612c838185612283565b8092612283565b9061359c565b8101612c76565b6002915091019038612c6e565b6004915091019038612c63565b6008915091019038612c58565b6010915091019038612c4d565b6020915091019038612c42565b6040915091019038612c37565b91505060809038612c2c565b50600090565b90808216911860011c81018091116109155790565b15612d5657565b60405162461bcd60e51b815260206004820152603060248201527f4552433230566f7465733a20746f74616c20737570706c79207269736b73206f60448201526f766572666c6f77696e6720766f74657360801b6064820152608490fd5b6001600160a01b03808316939291168084141580612f9f575b612dd75750505050565b80612e45575b5082612dea575b80612595565b6001600160a01b03166000908152600a602052604090207fdec2bacdd2f05b59de34da9b523dff8be42e5e38e818c82fdb0bae774387a72491612e2c91613791565b60408051928352602083019190915290a2388080612de4565b80600052600a6020527fdec2bacdd2f05b59de34da9b523dff8be42e5e38e818c82fdb0bae774387a7246040600020805480159182600014612f7857612e89611e3d565b6000815260006020820152915b6020830151612eb5906001600160e01b03165b6001600160e01b031690565b92612ec089856138ff565b94159081612f61575b5015612f1557612ee8612eff926109a4612ee287613896565b93611b57565b9063ffffffff82549181199060201b169116179055565b604080519182526020820192909252a238612ddd565b50612f5c90612f2343612b1f565b90612f57612f3086613896565b612f47612f3b611e3d565b63ffffffff9095168552565b6001600160e01b03166020840152565b613603565b612eff565b5163ffffffff16905063ffffffff16431438612ec9565b612f99612f94612f8784611b57565b8360005260206000200190565b61211e565b91612e96565b50821515612dcd565b9291907f7fffffffffffffffffffffffffffffff5d576e7357a4501ddfe92f46681b20a0831161302b5791608094939160ff602094604051948552168484015260408301526060820152600093849182805260015afa1561301e5781516001600160a01b03811615613018579190565b50600190565b50604051903d90823e3d90fd5b50505050600090600390565b6005111561304157565b634e487b7160e01b600052602160045260246000fd5b61306081613037565b806130685750565b61307181613037565b600181036130be5760405162461bcd60e51b815260206004820152601860248201527f45434453413a20696e76616c6964207369676e617475726500000000000000006044820152606490fd5b6130c781613037565b600281036131145760405162461bcd60e51b815260206004820152601f60248201527f45434453413a20696e76616c6964207369676e6174757265206c656e677468006044820152606490fd5b80613120600392613037565b1461312757565b60405162461bcd60e51b815260206004820152602260248201527f45434453413a20696e76616c6964207369676e6174757265202773272076616c604482015261756560f01b6064820152608490fd5b60ff6005541661318357565b60405162461bcd60e51b815260206004820152602a60248201527f45524332305061757361626c653a20746f6b656e207472616e736665722077686044820152691a5b19481c185d5cd95960b21b6064820152608490fd5b60096020527fec8156718a8372b1db44bb411437d0870f3e3790d4a08526d024ce1b0b668f6b546001600160a01b0391821660009081526040902054611e3b93929081169116612db4565b6001600160a01b039081166000908152600960205260408120549080527fec8156718a8372b1db44bb411437d0870f3e3790d4a08526d024ce1b0b668f6b54611e3b93929081169116612db4565b6001600160a01b03908116600090815260096020526040808220549383168252902054611e3b93929082169116612db4565b604051906080820182811067ffffffffffffffff821117611ba557604052604282526060366020840137565b805115611e295760200190565b805160011015611e295760210190565b908151811015611e29570160200190565b8015610915576000190190565b1561331457565b606460405162461bcd60e51b815260206004820152602060248201527f537472696e67733a20686578206c656e67746820696e73756666696369656e746044820152fd5b604051906060820182811067ffffffffffffffff821117611ba557604052602a82526040366020840137603061338d836132d2565b536078613399836132df565b536029905b600182116133b15761232591501561330d565b600f8116906010821015611e29576133e3916f181899199a1a9b1b9c1cb0b131b232b360811b901a61274384866132ef565b9061339e565b7f65d7a28e3265b37a6474929f336521b332c1681b933f6cb9f3376673440d862a6134126132a6565b90603061341e836132d2565b53607861342a836132df565b536041905b600182116134425761232591501561330d565b600f8116906010821015611e2957613474916f181899199a1a9b1b9c1cb0b131b232b360811b901a61274384866132ef565b9061342f565b7f9f2df0fed2c77648de5860a4cc508cd0818c85b8b8a1ab4ceeef8d981c8956a66134a36132a6565b9060306134af836132d2565b5360786134bb836132df565b536041905b600182116134d35761232591501561330d565b600f8116906010821015611e2957613505916f181899199a1a9b1b9c1cb0b131b232b360811b901a61274384866132ef565b906134c0565b7f3c11d16cbaffd01df69ce1c404f6340ee057498f5f00246190ea54220576a8486135346132a6565b906030613540836132d2565b53607861354c836132df565b536041905b600182116135645761232591501561330d565b600f8116906010821015611e2957613596916f181899199a1a9b1b9c1cb0b131b232b360811b901a61274384866132ef565b90613551565b90808210156135a9575090565b905090565b600b5490600160401b821015611ba5576001820180600b55821015611e2957600b600052805160209182015190911b63ffffffff191663ffffffff919091161760008051602061393a83398151915290910155565b8054600160401b811015611ba55761362091600182018155611e11565b61364757815160209283015190921b63ffffffff191663ffffffff92909216919091179055565b634e487b7160e01b600052600060045260246000fd5b600b549091811591821561372557613673611e3d565b60008152600060208201525b60208101516136a19061369a906001600160e01b0316612ea9565b958661390c565b9315908161370e575b50156136c957611e3b90612ee861115a6136c386613896565b92611b57565b50611e3b6136d643612b1f565b6137096136e285613896565b6136f96136ed611e3d565b63ffffffff9094168452565b6001600160e01b03166020830152565b6135ae565b5163ffffffff16905063ffffffff164314386136aa565b613734612f9461115a83611b57565b61367f565b600b549091811591821561377d5761374f611e3d565b60008152600060208201525b60208101516136a190613776906001600160e01b0316612ea9565b95866138ff565b61378c612f9461115a83611b57565b61375b565b90918154918215928360001461381e576137a9611e3d565b60008152600060208201525b60208101516137d7906137d0906001600160e01b0316612ea9565b968761390c565b94159081613807575b50156137f957612ee8611e3b926109a4612ee287613896565b50611e3b90612f2343612b1f565b5163ffffffff16905063ffffffff164314386137e0565b61383a612f9461382d83611b57565b8460005260206000200190565b6137b5565b1561384657565b60405162461bcd60e51b815260206004820152602260248201527f45524332303a206275726e20616d6f756e7420657863656564732062616c616e604482015261636560f01b6064820152608490fd5b6001600160e01b03908181116138aa571690565b60405162461bcd60e51b815260206004820152602760248201527f53616665436173743a2076616c756520646f65736e27742066697420696e20326044820152663234206269747360c81b6064820152608490fd5b9081039081116109155790565b908101809111610915579056feddf252ad1be2c89b69c2b068fc378daa952ba7f163c4a11628f55a4df523b3ef0175b7a638427703f0dbe7bb9bbf987a2551717b34e79f33b5b1008d1fa01db9a2646970667358221220591f424e0d6930495508d322b02bd1b9a12c68d5bf94a2eefa0036b3004c725664736f6c634300081800332f8788117e7eff1d82e926ec794901d17c78024a50270940304540a733656f0d8b73c3c69bb8fe3d512ecc4cf759cc79239f7b179b0ffacaa9a75d522b39400fdec2bacdd2f05b59de34da9b523dff8be42e5e38e818c82fdb0bae774387a724",
  "linkReferences": {},
  "deployedLinkReferences": {}
}