{
  "_format": "hh-sol-artifact-1",
  "contractName": "LendingProtocol",
  "sourceName": "contracts/solidity/defi/LendingProtocol.sol",
  "abi": [
    {
      "inputs": [
        {
          "internalType": "address",
          "name": "_treasury",
          "type": "address"
        }
      ],
      "stateMutability": "nonpayable",
      "type": "constructor"
    },
    {
      "anonymous": false,
      "inputs": [
        {
          "indexed": true,
          "internalType": "address",
          "name": "user",
          "type": "address"
        },
        {
          "indexed": true,
          "internalType": "address",
          "name": "asset",
          "type": "address"
        },
        {
          "indexed": false,
          "internalType": "uint256",
          "name": "amount",
          "type": "uint256"
        },
        {
          "indexed": false,
          "internalType": "uint256",
          "name": "balance",
          "type": "uint256"
        }
      ],
      "name": "Borrow",
      "type": "event"
    },
    {
      "anonymous": false,
      "inputs": [
        {
          "indexed": true,
          "internalType": "address",
          "name": "receiver",
          "type": "address"
        },
        {
          "indexed": true,
          "internalType": "address",
          "name": "asset",
          "type": "address"
        },
        {
          "indexed": false,
          "internalType": "uint256",
          "name": "amount",
          "type": "uint256"
        },
        {
          "indexed": false,
          "internalType": "uint256",
          "name": "fee",
          "type": "uint256"
        }
      ],
      "name": "FlashLoan",
      "type": "event"
    },
    {
      "anonymous": false,
      "inputs": [
        {
          "indexed": true,
          "internalType": "address",
          "name": "liquidator",
          "type": "address"
        },
        {
          "indexed": true,
          "internalType": "address",
          "name": "borrower",
          "type": "address"
        },
        {
          "indexed": true,
          "internalType": "address",
          "name": "assetBorrowed",
          "type": "address"
        },
        {
          "indexed": false,
          "internalType": "address",
          "name": "assetCollateral",
          "type": "address"
        },
        {
          "indexed": false,
          "internalType": "uint256",
          "name": "repayAmount",
          "type": "uint256"
        },
        {
          "indexed": false,
          "internalType": "uint256",
          "name": "seizeAmount",
          "type": "uint256"
        }
      ],
      "name": "Liquidation",
      "type": "event"
    },
    {
      "anonymous": false,
      "inputs": [
        {
          "indexed": true,
          "internalType": "address",
          "name": "asset",
          "type": "address"
        },
        {
          "indexed": true,
          "internalType": "address",
          "name": "underlying",
          "type": "address"
        }
      ],
      "name": "MarketAdded",
      "type": "event"
    },
    {
      "anonymous": false,
      "inputs": [
        {
          "indexed": true,
          "internalType": "address",
          "name": "asset",
          "type": "address"
        }
      ],
      "name": "MarketConfigUpdated",
      "type": "event"
    },
    {
      "anonymous": false,
      "inputs": [
        {
          "indexed": false,
          "internalType": "address",
          "name": "account",
          "type": "address"
        }
      ],
      "name": "Paused",
      "type": "event"
    },
    {
      "anonymous": false,
      "inputs": [
        {
          "indexed": true,
          "internalType": "address",
          "name": "asset",
          "type": "address"
        },
        {
          "indexed": false,
          "internalType": "uint256",
          "name": "newPrice",
          "type": "uint256"
        }
      ],
      "name": "PriceUpdated",
      "type": "event"
    },
    {
      "anonymous": false,
      "inputs": [
        {
          "indexed": true,
          "internalType": "address",
          "name": "user",
          "type": "address"
        },
        {
          "indexed": true,
          "internalType": "address",
          "name": "asset",
          "type": "address"
        },
        {
          "indexed": false,
          "internalType": "uint256",
          "name": "amount",
          "type": "uint256"
        },
        {
          "indexed": false,
          "internalType": "uint256",
          "name": "balance",
          "type": "uint256"
        }
      ],
      "name": "RepayBorrow",
      "type": "event"
    },
    {
      "anonymous": false,
      "inputs": [
        {
          "indexed": true,
          "internalType": "bytes32",
          "name": "role",
          "type": "bytes32"
        },
        {
          "indexed": true,
          "internalType": "bytes32",
          "name": "previousAdminRole",
          "type": "bytes32"
        },
        {
          "indexed": true,
          "internalType": "bytes32",
          "name": "newAdminRole",
          "type": "bytes32"
        }
      ],
      "name": "RoleAdminChanged",
      "type": "event"
    },
    {
      "anonymous": false,
      "inputs": [
        {
          "indexed": true,
          "internalType": "bytes32",
          "name": "role",
          "type": "bytes32"
        },
        {
          "indexed": true,
          "internalType": "address",
          "name": "account",
          "type": "address"
        },
        {
          "indexed": true,
          "internalType": "address",
          "name": "sender",
          "type": "address"
        }
      ],
      "name": "RoleGranted",
      "type": "event"
    },
    {
      "anonymous": false,
      "inputs": [
        {
          "indexed": true,
          "internalType": "bytes32",
          "name": "role",
          "type": "bytes32"
        },
        {
          "indexed": true,
          "internalType": "address",
          "name": "account",
          "type": "address"
        },
        {
          "indexed": true,
          "internalType": "address",
          "name": "sender",
          "type": "address"
        }
      ],
      "name": "RoleRevoked",
      "type": "event"
    },
    {
      "anonymous": false,
      "inputs": [
        {
          "indexed": true,
          "internalType": "address",
          "name": "user",
          "type": "address"
        },
        {
          "indexed": true,
          "internalType": "address",
          "name": "asset",
          "type": "address"
        },
        {
          "indexed": false,
          "internalType": "uint256",
          "name": "amount",
          "type": "uint256"
        },
        {
          "indexed": false,
          "internalType": "uint256",
          "name": "balance",
          "type": "uint256"
        }
      ],
      "name": "Supply",
      "type": "event"
    },
    {
      "anonymous": false,
      "inputs": [
        {
          "indexed": false,
          "internalType": "address",
          "name": "account",
          "type": "address"
        }
      ],
      "name": "Unpaused",
      "type": "event"
    },
    {
      "anonymous": false,
      "inputs": [
        {
          "indexed": true,
          "internalType": "address",
          "name": "user",
          "type": "address"
        },
        {
          "indexed": true,
          "internalType": "address",
          "name": "asset",
          "type": "address"
        },
        {
          "indexed": false,
          "internalType": "uint256",
          "name": "amount",
          "type": "uint256"
        },
        {
          "indexed": false,
          "internalType": "uint256",
          "name": "balance",
          "type": "uint256"
        }
      ],
      "name": "Withdraw",
      "type": "event"
    },
    {
      "inputs": [],
      "name": "ADMIN_ROLE",
      "outputs": [
        {
          "internalType": "bytes32",
          "name": "",
          "type": "bytes32"
        }
      ],
      "stateMutability": "view",
      "type": "function"
    },
    {
      "inputs": [],
      "name": "DEFAULT_ADMIN_ROLE",
      "outputs": [
        {
          "internalType": "bytes32",
          "name": "",
          "type": "bytes32"
        }
      ],
      "stateMutability": "view",
      "type": "function"
    },
    {
      "inputs": [],
      "name": "FLASH_LOAN_FEE",
      "outputs": [
        {
          "internalType": "uint256",
          "name": "",
          "type": "uint256"
        }
      ],
      "stateMutability": "view",
      "type": "function"
    },
    {
      "inputs": [],
      "name": "LIQUIDATION_BONUS",
      "outputs": [
        {
          "internalType": "uint256",
          "name": "",
          "type": "uint256"
        }
      ],
      "stateMutability": "view",
      "type": "function"
    },
    {
      "inputs": [],
      "name": "LIQUIDATION_THRESHOLD",
      "outputs": [
        {
          "internalType": "uint256",
          "name": "",
          "type": "uint256"
        }
      ],
      "stateMutability": "view",
      "type": "function"
    },
    {
      "inputs": [],
      "name": "LIQUIDATOR_ROLE",
      "outputs": [
        {
          "internalType": "bytes32",
          "name": "",
          "type": "bytes32"
        }
      ],
      "stateMutability": "view",
      "type": "function"
    },
    {
      "inputs": [],
      "name": "MAX_BORROW_RATE",
      "outputs": [
        {
          "internalType": "uint256",
          "name": "",
          "type": "uint256"
        }
      ],
      "stateMutability": "view",
      "type": "function"
    },
    {
      "inputs": [],
      "name": "ORACLE_ROLE",
      "outputs": [
        {
          "internalType": "bytes32",
          "name": "",
          "type": "bytes32"
        }
      ],
      "stateMutability": "view",
      "type": "function"
    },
    {
      "inputs": [],
      "name": "PAUSER_ROLE",
      "outputs": [
        {
          "internalType": "bytes32",
          "name": "",
          "type": "bytes32"
        }
      ],
      "stateMutability": "view",
      "type": "function"
    },
    {
      "inputs": [],
      "name": "PRECISION",
      "outputs": [
        {
          "internalType": "uint256",
          "name": "",
          "type": "uint256"
        }
      ],
      "stateMutability": "view",
      "type": "function"
    },
    {
      "inputs": [],
      "name": "SECONDS_PER_YEAR",
      "outputs": [
        {
          "internalType": "uint256",
          "name": "",
          "type": "uint256"
        }
      ],
      "stateMutability": "view",
      "type": "function"
    },
    {
      "inputs": [
        {
          "internalType": "address",
          "name": "asset",
          "type": "address"
        },
        {
          "internalType": "address",
          "name": "underlying",
          "type": "address"
        },
        {
          "internalType": "uint256",
          "name": "collateralFactor",
          "type": "uint256"
        },
        {
          "internalType": "uint256",
          "name": "reserveFactor",
          "type": "uint256"
        },
        {
          "internalType": "uint256",
          "name": "baseRatePerYear",
          "type": "uint256"
        },
        {
          "internalType": "uint256",
          "name": "multiplierPerYear",
          "type": "uint256"
        },
        {
          "internalType": "uint256",
          "name": "jumpMultiplierPerYear",
          "type": "uint256"
        },
        {
          "internalType": "uint256",
          "name": "kink",
          "type": "uint256"
        }
      ],
      "name": "addMarket",
      "outputs": [],
      "stateMutability": "nonpayable",
      "type": "function"
    },
    {
      "inputs": [
        {
          "internalType": "uint256",
          "name": "",
          "type": "uint256"
        }
      ],
      "name": "allMarkets",
      "outputs": [
        {
          "internalType": "address",
          "name": "",
          "type": "address"
        }
      ],
      "stateMutability": "view",
      "type": "function"
    },
    {
      "inputs": [
        {
          "internalType": "address",
          "name": "",
          "type": "address"
        }
      ],
      "name": "assetPrices",
      "outputs": [
        {
          "internalType": "uint256",
          "name": "",
          "type": "uint256"
        }
      ],
      "stateMutability": "view",
      "type": "function"
    },
    {
      "inputs": [
        {
          "internalType": "address",
          "name": "asset",
          "type": "address"
        },
        {
          "internalType": "uint256",
          "name": "amount",
          "type": "uint256"
        }
      ],
      "name": "borrow",
      "outputs": [],
      "stateMutability": "nonpayable",
      "type": "function"
    },
    {
      "inputs": [
        {
          "internalType": "address",
          "name": "",
          "type": "address"
        },
        {
          "internalType": "address",
          "name": "",
          "type": "address"
        }
      ],
      "name": "borrowBalances",
      "outputs": [
        {
          "internalType": "uint256",
          "name": "principal",
          "type": "uint256"
        },
        {
          "internalType": "uint256",
          "name": "interestIndex",
          "type": "uint256"
        }
      ],
      "stateMutability": "view",
      "type": "function"
    },
    {
      "inputs": [
        {
          "internalType": "address",
          "name": "asset",
          "type": "address"
        },
        {
          "internalType": "uint256",
          "name": "amount",
          "type": "uint256"
        },
        {
          "internalType": "address",
          "name": "receiver",
          "type": "address"
        },
        {
          "internalType": "bytes",
          "name": "params",
          "type": "bytes"
        }
      ],
      "name": "flashLoan",
      "outputs": [],
      "stateMutability": "nonpayable",
      "type": "function"
    },
    {
      "inputs": [],
      "name": "flashLoanFeesCollected",
      "outputs": [
        {
          "internalType": "uint256",
          "name": "",
          "type": "uint256"
        }
      ],
      "stateMutability": "view",
      "type": "function"
    },
    {
      "inputs": [
        {
          "internalType": "address",
          "name": "user",
          "type": "address"
        }
      ],
      "name": "getAccountLiquidity",
      "outputs": [
        {
          "components": [
            {
              "internalType": "uint256",
              "name": "collateralValueUSD",
              "type": "uint256"
            },
            {
              "internalType": "uint256",
              "name": "borrowValueUSD",
              "type": "uint256"
            },
            {
              "internalType": "uint256",
              "name": "healthFactor",
              "type": "uint256"
            }
          ],
          "internalType": "struct LendingProtocol.AccountLiquidity",
          "name": "",
          "type": "tuple"
        }
      ],
      "stateMutability": "view",
      "type": "function"
    },
    {
      "inputs": [
        {
          "internalType": "address",
          "name": "asset",
          "type": "address"
        }
      ],
      "name": "getBorrowRate",
      "outputs": [
        {
          "internalType": "uint256",
          "name": "",
          "type": "uint256"
        }
      ],
      "stateMutability": "view",
      "type": "function"
    },
    {
      "inputs": [
        {
          "internalType": "bytes32",
          "name": "role",
          "type": "bytes32"
        }
      ],
      "name": "getRoleAdmin",
      "outputs": [
        {
          "internalType": "bytes32",
          "name": "",
          "type": "bytes32"
        }
      ],
      "stateMutability": "view",
      "type": "function"
    },
    {
      "inputs": [
        {
          "internalType": "address",
          "name": "asset",
          "type": "address"
        }
      ],
      "name": "getSupplyRate",
      "outputs": [
        {
          "internalType": "uint256",
          "name": "",
          "type": "uint256"
        }
      ],
      "stateMutability": "view",
      "type": "function"
    },
    {
      "inputs": [
        {
          "internalType": "address",
          "name": "user",
          "type": "address"
        },
        {
          "internalType": "address",
          "name": "asset",
          "type": "address"
        }
      ],
      "name": "getUserBorrowBalance",
      "outputs": [
        {
          "internalType": "uint256",
          "name": "",
          "type": "uint256"
        }
      ],
      "stateMutability": "view",
      "type": "function"
    },
    {
      "inputs": [
        {
          "internalType": "address",
          "name": "user",
          "type": "address"
        },
        {
          "internalType": "address",
          "name": "asset",
          "type": "address"
        }
      ],
      "name": "getUserSupplyBalance",
      "outputs": [
        {
          "internalType": "uint256",
          "name": "",
          "type": "uint256"
        }
      ],
      "stateMutability": "view",
      "type": "function"
    },
    {
      "inputs": [
        {
          "internalType": "bytes32",
          "name": "role",
          "type": "bytes32"
        },
        {
          "internalType": "address",
          "name": "account",
          "type": "address"
        }
      ],
      "name": "grantRole",
      "outputs": [],
      "stateMutability": "nonpayable",
      "type": "function"
    },
    {
      "inputs": [
        {
          "internalType": "bytes32",
          "name": "role",
          "type": "bytes32"
        },
        {
          "internalType": "address",
          "name": "account",
          "type": "address"
        }
      ],
      "name": "hasRole",
      "outputs": [
        {
          "internalType": "bool",
          "name": "",
          "type": "bool"
        }
      ],
      "stateMutability": "view",
      "type": "function"
    },
    {
      "inputs": [
        {
          "internalType": "address",
          "name": "borrower",
          "type": "address"
        },
        {
          "internalType": "address",
          "name": "assetBorrowed",
          "type": "address"
        },
        {
          "internalType": "uint256",
          "name": "repayAmount",
          "type": "uint256"
        },
        {
          "internalType": "address",
          "name": "assetCollateral",
          "type": "address"
        }
      ],
      "name": "liquidate",
      "outputs": [],
      "stateMutability": "nonpayable",
      "type": "function"
    },
    {
      "inputs": [
        {
          "internalType": "address",
          "name": "",
          "type": "address"
        }
      ],
      "name": "markets",
      "outputs": [
        {
          "internalType": "bool",
          "name": "isActive",
          "type": "bool"
        },
        {
          "internalType": "bool",
          "name": "canBorrow",
          "type": "bool"
        },
        {
          "internalType": "bool",
          "name": "canUseAsCollateral",
          "type": "bool"
        },
        {
          "internalType": "address",
          "name": "underlying",
          "type": "address"
        },
        {
          "internalType": "uint256",
          "name": "totalSupply",
          "type": "uint256"
        },
        {
          "internalType": "uint256",
          "name": "totalBorrows",
          "type": "uint256"
        },
        {
          "internalType": "uint256",
          "name": "totalReserves",
          "type": "uint256"
        },
        {
          "internalType": "uint256",
          "name": "reserveFactor",
          "type": "uint256"
        },
        {
          "internalType": "uint256",
          "name": "collateralFactor",
          "type": "uint256"
        },
        {
          "internalType": "uint256",
          "name": "liquidationIncentive",
          "type": "uint256"
        },
        {
          "internalType": "uint256",
          "name": "baseRatePerYear",
          "type": "uint256"
        },
        {
          "internalType": "uint256",
          "name": "multiplierPerYear",
          "type": "uint256"
        },
        {
          "internalType": "uint256",
          "name": "jumpMultiplierPerYear",
          "type": "uint256"
        },
        {
          "internalType": "uint256",
          "name": "kink",
          "type": "uint256"
        },
        {
          "internalType": "uint256",
          "name": "lastUpdateTimestamp",
          "type": "uint256"
        },
        {
          "internalType": "uint256",
          "name": "borrowIndex",
          "type": "uint256"
        },
        {
          "internalType": "uint256",
          "name": "supplyIndex",
          "type": "uint256"
        }
      ],
      "stateMutability": "view",
      "type": "function"
    },
    {
      "inputs": [],
      "name": "pause",
      "outputs": [],
      "stateMutability": "nonpayable",
      "type": "function"
    },
    {
      "inputs": [],
      "name": "paused",
      "outputs": [
        {
          "internalType": "bool",
          "name": "",
          "type": "bool"
        }
      ],
      "stateMutability": "view",
      "type": "function"
    },
    {
      "inputs": [
        {
          "internalType": "bytes32",
          "name": "role",
          "type": "bytes32"
        },
        {
          "internalType": "address",
          "name": "account",
          "type": "address"
        }
      ],
      "name": "renounceRole",
      "outputs": [],
      "stateMutability": "nonpayable",
      "type": "function"
    },
    {
      "inputs": [
        {
          "internalType": "address",
          "name": "asset",
          "type": "address"
        },
        {
          "internalType": "uint256",
          "name": "amount",
          "type": "uint256"
        }
      ],
      "name": "repayBorrow",
      "outputs": [],
      "stateMutability": "nonpayable",
      "type": "function"
    },
    {
      "inputs": [
        {
          "internalType": "bytes32",
          "name": "role",
          "type": "bytes32"
        },
        {
          "internalType": "address",
          "name": "account",
          "type": "address"
        }
      ],
      "name": "revokeRole",
      "outputs": [],
      "stateMutability": "nonpayable",
      "type": "function"
    },
    {
      "inputs": [
        {
          "internalType": "address",
          "name": "asset",
          "type": "address"
        },
        {
          "internalType": "uint256",
          "name": "amount",
          "type": "uint256"
        }
      ],
      "name": "supply",
      "outputs": [],
      "stateMutability": "nonpayable",
      "type": "function"
    },
    {
      "inputs": [
        {
          "internalType": "address",
          "name": "",
          "type": "address"
        },
        {
          "internalType": "address",
          "name": "",
          "type": "address"
        }
      ],
      "name": "supplyBalances",
      "outputs": [
        {
          "internalType": "uint256",
          "name": "principal",
          "type": "uint256"
        },
        {
          "internalType": "uint256",
          "name": "interestIndex",
          "type": "uint256"
        }
      ],
      "stateMutability": "view",
      "type": "function"
    },
    {
      "inputs": [
        {
          "internalType": "bytes4",
          "name": "interfaceId",
          "type": "bytes4"
        }
      ],
      "name": "supportsInterface",
      "outputs": [
        {
          "internalType": "bool",
          "name": "",
          "type": "bool"
        }
      ],
      "stateMutability": "view",
      "type": "function"
    },
    {
      "inputs": [],
      "name": "treasury",
      "outputs": [
        {
          "internalType": "address",
          "name": "",
          "type": "address"
        }
      ],
      "stateMutability": "view",
      "type": "function"
    },
    {
      "inputs": [],
      "name": "unpause",
      "outputs": [],
      "stateMutability": "nonpayable",
      "type": "function"
    },
    {
      "inputs": [
        {
          "internalType": "address",
          "name": "asset",
          "type": "address"
        },
        {
          "internalType": "uint256",
          "name": "priceUSD",
          "type": "uint256"
        }
      ],
      "name": "updatePrice",
      "outputs": [],
      "stateMutability": "nonpayable",
      "type": "function"
    },
    {
      "inputs": [
        {
          "internalType": "address",
          "name": "",
          "type": "address"
        },
        {
          "internalType": "uint256",
          "name": "",
          "type": "uint256"
        }
      ],
      "name": "userAssets",
      "outputs": [
        {
          "internalType": "address",
          "name": "",
          "type": "address"
        }
      ],
      "stateMutability": "view",
      "type": "function"
    },
    {
      "inputs": [
        {
          "internalType": "address",
          "name": "asset",
          "type": "address"
        },
        {
          "internalType": "uint256",
          "name": "amount",
          "type": "uint256"
        }
      ],
      "name": "withdraw",
      "outputs": [],
      "stateMutability": "nonpayable",
      "type": "function"
    },
    {
      "inputs": [],
      "name": "withdrawFlashLoanFees",
      "outputs": [],
      "stateMutability": "nonpayable",
      "type": "function"
    },
    {
      "inputs": [
        {
          "internalType": "address",
          "name": "asset",
          "type": "address"
        },
        {
          "internalType": "uint256",
          "name": "amount",
          "type": "uint256"
        }
      ],
      "name": "withdrawReserves",
      "outputs": [],
      "stateMutability": "nonpayable",
      "type": "function"
    }
  ],
  "bytecode": "0x6080346200030b57601f62003c2d38819003918201601f1916830192916001600160401b038411838510176200031057808392604095865283396020928391810103126200030b57516001600160a01b038116908190036200030b5760019081805560ff199081600254166002558015620002bd5760018060a01b03196009541617600955600091828052828452848320338452845260ff85842054161562000288575b7fa49807205ce4d355092ef5a8a18f56e8913cf4a201fbe287825b095693c21775808452838552858420338552855260ff86852054161562000251575b507f68e79a7bf1e0bc45d0a330c573bc367f9cf464fd326078812f301165fbda4ef1808452838552858420338552855260ff8685205416156200021a575b507f5e17fc5225d4a099df75359ce1f405503ca79498a8dc46a7d583235a0ee45c16808452838552858420338552855260ff868520541615620001e3575b507f65d7a28e3265b37a6474929f336521b332c1681b933f6cb9f3376673440d862a93848452838152858420338552815260ff868520541615620001aa575b85516138e69081620003278239f35b848452838152858420903385525284832091825416179055339160008051602062003c0d833981519152339280a438808080806200019b565b808452838552858420338552855285842082848254161790553390339060008051602062003c0d8339815191528680a4386200015c565b808452838552858420338552855285842082848254161790553390339060008051602062003c0d8339815191528680a4386200011e565b808452838552858420338552855285842082848254161790553390339060008051602062003c0d8339815191528680a438620000e0565b8280528284528483203384528452848320818382541617905533338460008051602062003c0d8339815191528180a4620000a3565b845162461bcd60e51b815260048101859052602160248201527f4c656e64696e6750726f746f636f6c3a20696e76616c696420747265617375726044820152607960f81b6064820152608490fd5b600080fd5b634e487b7160e01b600052604160045260246000fdfe608080604052600436101561001357600080fd5b600090813560e01c90816301ffc9a71461286a5750806307e2cea51461282f57806314a9ea381461281157806316d8887a146127d6578063248a9ca3146127aa5780632f2ff15d146126fc5780633574d4c4146126df578063357fa4aa1461264257806336568abe146125af5780633de2f6b214611fc45780633f4ba83a14611f2f578063457972de14611cb75780634b8a35291461189957806352d84d1e1461183d5780635c975abb1461181a5780635e9a523c146117e15780635ec88c791461178f57806361d027b31461176657806365dedacd146113425780636a8a69aa146112e75780636b5441a9146112c357806375b238fc146112885780637a0c5ebf1461126b5780638456cb5914611210578063888c21a1146111ad5780638e8f294b146110b15780638ffaacaa1461109557806390a8ae9b1461107857806391d1485414611030578063a217fddf14611014578063aaf5eb6814610ff1578063abdb5ea814610e58578063adf51de114610a8d578063b7adddac14610a35578063d32074d7146109c3578063d547741f14610986578063d71275f61461095a578063e478795d14610896578063e63ab1e91461085b578063e6a69ab81461083c578063f2b9fdb8146106d1578063f3fef3a3146102545763fc7d42d7146101fa57600080fd5b34610251576040366003190112610251576102136128d9565b604061021d6128c3565b9260018060a01b03809316815260056020522091166000526020526040806000206001815491015482519182526020820152f35b80fd5b50346102515760403660031901126102515761026e6128d9565b90610277612fb0565b61027f6131b0565b6001600160a01b0382168152600360205260408120546102a19060ff1661295d565b6001600160a01b0382168152600360205260408120916102c081613006565b33825260046020526040822060018060a01b03821660005260205260406000208054600d85015493610311670de0b6b3a76400006102fe878561291d565b04602435151590816106c4575b506129b4565b610319612a7d565b506000928396338552600660205260408520936040518086602082985493848152019089526020892092895b8181106106a257505061035a92500386612a5b565b855b85518110156105045760018060a01b0360208260051b880101511680600052600360205260406000206007602052604060002054903360005260046020526040600020836000526020528a604060002054801515806104f6575b61045b575b505033600052600560205260406000208360005260205260406000205490816103eb575b5050505060010161035c565b82610411959e956ec097ce7bc90715b34b9f100000000093600c6104169401549061291d565b61291d565b049115610435575b5061042b90600192612a00565b99903880806103df565b156001171561044557600161041e565b634e487b7160e01b600052601160045260246000fd5b6104a7839c92846ec097ce7bc90715b34b9f100000000061048b8861041161271097600d6104ae9b01549061291d565b04916001600160a01b031688146104b6575b600501549061291d565b0490612a00565b988a386103bb565b90600590670de0b6b3a76400006104cf8960243561291d565b046000918181116000146104ef576104e79250612950565b91905061049d565b50506104e7565b5060ff835460101c166103b6565b509293508592878987811561068b57670de0b6b3a7640000810291818304670de0b6b3a7640000148215171561044557604061054982670de0b6b3a764000095612930565b9283925b82519161055983612a0d565b8252602082015201521061063557670de0b6b3a7640000602435026024358104670de0b6b3a7640000146024351517156106215761059f6105db9493926105a692612930565b8092612950565b8455600d82015460018501556105c160018301918254612950565b90555460243590339060181c6001600160a01b0316613160565b5490604051916024358352602083015260018060a01b0316907ff341246adaac6f497bc2a656f546ab9e182111d630394f0c57c710a59a2cb56760403392a36001805580f35b634e487b7160e01b87526011600452602487fd5b60405162461bcd60e51b815260206004820152602860248201527f4c656e64696e6750726f746f636f6c3a20696e73756666696369656e7420636f6044820152671b1b185d195c985b60c21b6064820152608490fd5b670de0b6b3a764000091604060001992839261054d565b84546001600160a01b031683526001948501948a945060209093019201610345565b905060243511153861030b565b5034610251576040366003190112610251576106eb6128d9565b6024356106f6612fb0565b6106fe6131b0565b6001600160a01b03828116808552600360205260408520549093906107259060ff1661295d565b8280159261073384156129b4565b85875260036020526040872061074884613006565b8293600182019586546107e9575b506107a2906107b09596338b52600460205260408b208a60005260205261079a604060002098610787818b54612a00565b8a55600d86015460018b01558254612a00565b9055336131f4565b5460181c1630903390613105565b5460405191825260208201527f69a3ea8e6d6819646fbf2b98e9e8dd6d9cd343852550621038b4d72e4aa6dd3760403392a36001805580f35b919350919350670de0b6b3a7640000908187029187830414171561082857916107a26107b094926108208895600d85015490612930565b955090610756565b634e487b7160e01b88526011600452602488fd5b503461025157806003193601126102515760206040516301e133808152f35b503461025157806003193601126102515760206040517f65d7a28e3265b37a6474929f336521b332c1681b933f6cb9f3376673440d862a8152f35b5034610251576040366003190112610251576108b06128d9565b6024356108bb612b4f565b6001600160a01b0391821683526003602081905260408420908101805490939181841161090657610903946108f1858594612950565b90555460181c16906009541690613160565b80f35b60405162461bcd60e51b815260206004820152602660248201527f4c656e64696e6750726f746f636f6c3a20696e73756666696369656e7420726560448201526573657276657360d01b6064820152608490fd5b503461025157602036600319011261025157602061097e6109796128d9565b613276565b604051908152f35b5034610251576040366003190112610251576109036004356109a66128c3565b90808452836020526109be6001604086200154612e32565b612f3c565b503461025157604036600319011261025157670de0b6b3a7640000610a2c602092600d60406109f06128d9565b926109f96128c3565b6001600160a01b03948516825260048852828220941660008181529488529382902054938152600387522001549061291d565b04604051908152f35b503461025157604036600319011261025157610a4f6128d9565b6040610a596128c3565b9260018060a01b03809316815260046020522091166000526020526040806000206001815491015482519182526020820152f35b503461025157608036600319011261025157610aa76128d9565b6044356001600160a01b0381169003610e545767ffffffffffffffff60643511610e5457366023606435011215610e545767ffffffffffffffff6064356004013511610e545736602460643560040135606435010111610e5457610b09612fb0565b610b116131b0565b6001600160a01b038116825260036020526040822054610b339060ff1661295d565b6024351590610b4282156129b4565b6009602435029160243583046009141715610e40576001600160a01b0381811684526003602090815260408086205490516370a0823160e01b8152306004820152928391602491839160181c165afa908115610e35578491610e03575b506001600160a01b03828116855260036020526040852054610bcf91602435916044359160189190911c16613160565b6044356001600160a01b03163b15610dff57604051631dd0e4ab60e31b81526001600160a01b0383166004808301919091526024803581840152612710860460448401526080606480850191909152359182013560848401819052910160a483013760a460643560040135828101820187905286918391601f19601f9091011682018290030181836001600160a01b03604435165af18015610dc357610dce575b506001600160a01b0382811685526003602090815260408087205490516370a0823160e01b815230600482015293928491602491839160181c165afa918215610dc3578592610d88575b50610cca90612710850490612a00565b11610d3457610cdf6127108304600a54612a00565b600a5560408051602435815261271090930460208401526001600160a01b0391821692604435909216917f0d7d75e01ab95780d3cd1c8ec0dd6c2ce19e3a20427eec8bf53283b6fb8e95f09190a36001805580f35b60405162461bcd60e51b815260206004820152602660248201527f4c656e64696e6750726f746f636f6c3a20666c617368206c6f616e206e6f74206044820152651c995c185a5960d21b6064820152608490fd5b9091506020813d602011610dbb575b81610da460209383612a5b565b81010312610db6575190610cca610cba565b600080fd5b3d9150610d97565b6040513d87823e3d90fd5b67ffffffffffffffff8195929511610deb57604052926024610c70565b634e487b7160e01b82526041600452602482fd5b8380fd5b90506020813d602011610e2d575b81610e1e60209383612a5b565b81010312610dff575138610b9f565b3d9150610e11565b6040513d86823e3d90fd5b634e487b7160e01b83526011600452602483fd5b5080fd5b503461025157604036600319011261025157610e726128d9565b602435610e7d612fb0565b610e856131b0565b60018060a01b038083169283855260209160038352610eaa60ff60408820541661295d565b84865260038352610ebe6040872092613006565b3386526005835260408620858752835260408620918254600c82018054670de0b6b3a764000080610eef838661291d565b04808a11610fe9575b508815610f9a578089029089820403610f865791610f27610f20610f4e9795938b9795612930565b8093612950565b8755546001870155610f3e60028301918254612950565b90555460181c1630903390613105565b54906040519283528201527fa9a154237a69922f8860321d1fec1624a5dbe8a8af89a3dd3d7a759f6c8080d860403392a36001805580f35b634e487b7160e01b8b52601160045260248bfd5b60405162461bcd60e51b815260048101899052602160248201527f4c656e64696e6750726f746f636f6c3a206e6f7468696e6720746f20726570616044820152607960f81b6064820152608490fd5b985038610ef8565b50346102515780600319360112610251576020604051670de0b6b3a76400008152f35b5034610251578060031936011261025157602090604051908152f35b50346102515760403660031901126102515760ff60406020926110516128c3565b60043582528185528282206001600160a01b03909116825284522054604051911615158152f35b50346102515780600319360112610251576020604051611f408152f35b5034610251578060031936011261025157602060405160098152f35b5034610251576020366003190112610251576001600160a01b0390816110d56128d9565b168152600360205260409020805490600181015460028201546003830154600484015460058501546006860154600787015491600888015493600989015495600a8a015497600b8b015499600c8c01549b600d01549c6040519e8f9160ff8116151583528060081c60ff16151560208401528060101c60ff161515604084015260181c1660608201526080015260a08d015260c08c015260e08b01526101008a01526101208901526101408801526101608701526101808601526101a08501526101c08401526101e083015261020082015261022090f35b503461025157604036600319011261025157670de0b6b3a7640000610a2c6020926111d66128d9565b6111de6128c3565b6001600160a01b039182168352600586526040808420919092168352855280822054600386529120600c01549061291d565b5034610251578060031936011261025157611229612ceb565b6112316131b0565b600160ff1960025416176002557f62e78cea01bee320cd4e420270b5ea74000d11b0c9f74754ebdbfc544b05a2586020604051338152a180f35b503461025157806003193601126102515760206040516103e88152f35b503461025157806003193601126102515760206040517fa49807205ce4d355092ef5a8a18f56e8913cf4a201fbe287825b095693c217758152f35b503461025157602036600319011261025157602061097e6112e26128d9565b612a9c565b5034610251576040366003190112610251576113016128d9565b6001600160a01b039081168252600660205260408220805460243593908410156102515750602092611332916128ef565b9190546040519260031b1c168152f35b50346102515761010080600319360112610e545761135e6128d9565b906113676128c3565b916044359160643593611378612b4f565b6001600160a01b039383851615158061175b575b1561170b578484168752600360205260ff6040882054166116b757612328811161165e5761138886116116085760405191610220830183811067ffffffffffffffff8211176115f4579186600d94926102009460405260018452600160208501526001604085015216978860608401528960808401528960a08401528960c084015260e0830152848201526101f461012082015260843561014082015260a43561016082015260c43561018082015260e4356101a0820152426101c0820152670de0b6b3a76400006101e0820152670de0b6b3a764000082820152858516885260036020526040882093815115158554602084015115159162ff00006040860151151560101b169160ff61ff006301000000600160b81b03606089015160181b169560081b1692169068ffffffffffffffffff60b81b161717171785556080820151600186015560a0820151600286015560c0820151600386015560e08201516004860155810151600585015561012081015160068501556101408101516007850155610160810151600885015561018081015160098501556101a0810151600a8501556101c0810151600b8501556101e0810151600c8501550151910155600854600160401b8110156115e05760018101806008558110156115cc577ff3f7a9fe364faab93b216da50a3214154f22a0a2b415b23a84c8169e8b636ee3018282166bffffffffffffffffffffffff60a01b825416179055167f7772c85e68debdf74fad87834e2cc05fa763e74faf14de7096da3052906511428380a380f35b634e487b7160e01b85526032600452602485fd5b634e487b7160e01b85526041600452602485fd5b634e487b7160e01b89526041600452602489fd5b60405162461bcd60e51b815260206004820152602860248201527f4c656e64696e6750726f746f636f6c3a207265736572766520666163746f72206044820152670e8dede40d0d2ced60c31b6064820152608490fd5b60405162461bcd60e51b815260206004820152602b60248201527f4c656e64696e6750726f746f636f6c3a20636f6c6c61746572616c206661637460448201526a0dee440e8dede40d0d2ced60ab1b6064820152608490fd5b60405162461bcd60e51b815260206004820152602660248201527f4c656e64696e6750726f746f636f6c3a206d61726b657420616c72656164792060448201526565786973747360d01b6064820152608490fd5b60405162461bcd60e51b815260206004820152602260248201527f4c656e64696e6750726f746f636f6c3a20696e76616c69642061646472657373604482015261657360f01b6064820152608490fd5b50848216151561138c565b50346102515780600319360112610251576009546040516001600160a01b039091168152602090f35b50346102515760203660031901126102515760606117c56117ae6128d9565b6117b6612a7d565b506117bf612a7d565b50613378565b6040805191805183526020810151602084015201516040820152f35b5034610251576020366003190112610251576020906040906001600160a01b036118096128d9565b168152600783522054604051908152f35b5034610251578060031936011261025157602060ff600254166040519015158152f35b503461025157602036600319011261025157600435600854811015610e545760089091527ff3f7a9fe364faab93b216da50a3214154f22a0a2b415b23a84c8169e8b636ee301546040516001600160a01b039091168152602090f35b5034610251576040366003190112610251576118b36128d9565b6118bb612fb0565b6118c36131b0565b6001600160a01b03811682526003602052604082205460ff81169081611ca9575b5015611c55576118f760243515156129b4565b6001600160a01b03811682526003602052604082209061191681613006565b61191e612a7d565b5082908390338552600660205260408520906040518083602082955493848152019089526020892092895b818110611c3357505061195e92500383612a5b565b855b8251811015611ad35760018060a01b0360208260051b85010151168088526003602052604088206007602052604089205490338a52600460205260408a20838b5260205260408a205480151580611ac5575b611a47575b50338a52600560205260408a20838b5260205260408a205490816119e2575b50505050600101611960565b916ec097ce7bc90715b34b9f1000000000611a0e826104116001989b95600c611a1c999801549061291d565b049215611a26575b50612a00565b93903880806119d6565b91670de0b6b3a76400006104a7611a40939460243561291d565b9038611a16565b611a6c836104116ec097ce7bc90715b34b9f100000000093600d869d9601549061291d565b048315611a91575b906127106104a7611a8a9360058c01549061291d565b96386119b7565b821560011715610f8657611a8a91908015611ab8576104a7612710915b9293505050611a74565b506127106104a78c611aae565b5060ff825460101c166119b2565b50939190508015611c2657670de0b6b3a7640000808402908482041484151715611c1257611b0382604092612930565b9384925b825191611b1383612a0d565b825260208201520152670de0b6b3a764000080921061063557602435808302928115918404141715611bfe5780611b53600c611bb8930193845490612930565b33865260056020526040862060018060a01b03861687526020526040862093611b7d828654612a00565b8555546001850155611b9460028301918254612a00565b9055611ba084336131f4565b5460243590339060181c6001600160a01b0316613160565b5490604051916024358352602083015260018060a01b0316907fc1561b330e73faa7d5d1ac03c968d8f359b0191ccdb9cc002cf7d8eb6ae038cb60403392a36001805580f35b634e487b7160e01b84526011600452602484fd5b634e487b7160e01b86526011600452602486fd5b6040600019938492611b07565b84546001600160a01b0316835260019485019487945060209093019201611949565b60405162461bcd60e51b815260206004820152602660248201527f4c656e64696e6750726f746f636f6c3a20626f72726f77696e67206e6f7420616044820152651b1b1bddd95960d21b6064820152608490fd5b60ff915060081c16386118e4565b503461025157604036600319011261025157611cd16128d9565b9060248035907f68e79a7bf1e0bc45d0a330c573bc367f9cf464fd326078812f301165fbda4ef19384845260209184835260408520338652835260ff60408620541615611d7657506001600160a01b031680845260038252604084205490927f0d86730737b142fc160892fa8a0f2db687a92a0e294d1ad70624cf5acef03b849291611d5f9060ff1661295d565b83855260078252806040862055604051908152a280f35b92505092611d8333613712565b909160405192611d9284612a3f565b60428452858401946060368737845115611f1c576030865384519060019160011015611f095790607860218701536041915b818311611e9d57505050611e6d57611e69611e19611e516048888888611e4289604051978576020b1b1b2b9b9a1b7b73a3937b61d1030b1b1b7bab73a1604d1b8a978801528251928391603789019101613329565b8401917001034b99036b4b9b9b4b733903937b6329607d1b603784015251809386840190613329565b01036028810184520182612a5b565b60405162461bcd60e51b81529182916004830161334c565b0390fd5b606490856040519162461bcd60e51b83528160048401528201526000805160206138918339815191526044820152fd5b909192600f81166010811015611ef6576f181899199a1a9b1b9c1cb0b131b232b360811b901a611ecd8589613701565b5360041c928015611ee357600019019190611dc4565b634e487b7160e01b825260116004528482fd5b634e487b7160e01b835260326004528583fd5b634e487b7160e01b815260326004528390fd5b634e487b7160e01b815260326004529050fd5b5034610251578060031936011261025157611f48612ceb565b60025460ff811615611f885760ff19166002557f5db9ee0a495bf2e6ff9c91a7834c1ba4fdd244a5e8aa4e537bd38aeae4b073aa6020604051338152a180f35b60405162461bcd60e51b815260206004820152601460248201527314185d5cd8589b194e881b9bdd081c185d5cd95960621b6044820152606490fd5b503461025157608036600319011261025157611fde6128d9565b611fe66128c3565b6064803592916001600160a01b038085169291604480359290918588036125ab577f5e17fc5225d4a099df75359ce1f405503ca79498a8dc46a7d583235a0ee45c1692838a526020938a855260408b20338c52855260ff60408c205416156124575750612051612fb0565b8288169733891461240557838316998a8c526003938487528c60ff60408220541690816123f2575b50156123b1576120b293929161209161209692613006565b613006565b61209e612a7d565b506040670de0b6b3a7640000938492613378565b01511015612355578a9089825260058652604082208b835286526040822097671bc16d674ec800006120f0600c60408c5496898c522001548561291d565b0488116122fe578c908c825260078852604080832054928c8152205492821515806122f5575b156122b45750506006604061212c8f938b61291d565b928c8152878a5220015490612710918201908183116122a0579061214f9161291d565b048381029080820485149015171561228c579061216b91612930565b9682870287810484148815171561228c578b8d5284875260408d20600c015461219891610f209190612930565b9055898b528285526121b2600260408d2001918254612950565b9055878a526004845260408a20878b52845260408a2090808702908782041487151715610f865791612251939161221d600160408e6121ff8c988e8352878c52600d848420015490612930565b9461220b868254612950565b90558c8152858a522001918254612950565b9055898b5280855261223c8660408d2054309085339160181c16613105565b878b528452339060408b205460181c16613160565b60405193845283015260408201527f64f7c2c46814e079964a1934953e50adc025dc52cdbeb7d8e478e9fb9bfd2c2d60603392a46001805580f35b634e487b7160e01b8d52601160045260248dfd5b634e487b7160e01b8f52601160045260248ffd5b7f4c656e64696e6750726f746f636f6c3a20696e76616c6964207072696365730089916040519262461bcd60e51b84526004840152601f6024840152820152fd5b50831515612116565b6b0eadce840e8dede40d0d2ced60a31b87917f4c656e64696e6750726f746f636f6c3a206c69717569646174696f6e20616d6f6084946040519462461bcd60e51b86526004860152602c6024860152840152820152fd5b847019195c98dbdb1b185d195c985b1a5e9959607a1b887f4c656e64696e6750726f746f636f6c3a20626f72726f776572206e6f7420756e6084946040519462461bcd60e51b8652600486015260316024860152840152820152fd5b88877f4c656e64696e6750726f746f636f6c3a20696e616374697665206d61726b6574866040519262461bcd60e51b84528060048501526024840152820152fd5b60ff9150808c604092522054168d612079565b60405162461bcd60e51b815260048101869052602660248201527f4c656e64696e6750726f746f636f6c3a2063616e6e6f74206c697175696461748184015265329039b2b63360d11b81890152608490fd5b8a9185918861246533613712565b91926040519361247485612a3f565b604285528585019660603689378551156125975760308853855190600191600110156125975790607860218801536041915b818311612529575050506124fb57611e69611e19611e516048888a89611e428a604051978576020b1b1b2b9b9a1b7b73a3937b61d1030b1b1b7bab73a1604d1b8a978801528251928391603789019101613329565b60008051602061389183398151915285916040519262461bcd60e51b84528060048501526024840152820152fd5b909192600f81166010811015612583576f181899199a1a9b1b9c1cb0b131b232b360811b901a612559858a613701565b5360041c92801561256f576000190191906124a6565b634e487b7160e01b82526011600452602482fd5b634e487b7160e01b83526032600452602483fd5b634e487b7160e01b81526032600452602490fd5b8880fd5b5034610251576040366003190112610251576125c96128c3565b336001600160a01b038216036125e55761090390600435612f3c565b60405162461bcd60e51b815260206004820152602f60248201527f416363657373436f6e74726f6c3a2063616e206f6e6c792072656e6f756e636560448201526e103937b632b9903337b91039b2b63360891b6064820152608490fd5b503461025157806003193601126102515761265b612b4f565b600a54801561268e57818080809381600a5560018060a01b036009541682f1156126825780f35b604051903d90823e3d90fd5b60405162461bcd60e51b8152602060048201526024808201527f4c656e64696e6750726f746f636f6c3a206e6f206665657320746f20776974686044820152636472617760e01b6064820152608490fd5b503461025157806003193601126102515760206040516101f48152f35b5034610251576040366003190112610251576004356127196128c3565b818352826020526127306001604085200154612e32565b818352602083815260408085206001600160a01b039093168086529290915283205460ff161561275e578280f35b818352826020526040832081845260205260408320600160ff1982541617905533917f2f8788117e7eff1d82e926ec794901d17c78024a50270940304540a733656f0d8480a438808280f35b503461025157602036600319011261025157600160406020926004358152808452200154604051908152f35b503461025157806003193601126102515760206040517f5e17fc5225d4a099df75359ce1f405503ca79498a8dc46a7d583235a0ee45c168152f35b50346102515780600319360112610251576020600a54604051908152f35b503461025157806003193601126102515760206040517f68e79a7bf1e0bc45d0a330c573bc367f9cf464fd326078812f301165fbda4ef18152f35b905034610e54576020366003190112610e545760043563ffffffff60e01b81168091036128bf5760209250637965db0b60e01b81149081156128ae575b5015158152f35b6301ffc9a760e01b149050386128a7565b8280fd5b602435906001600160a01b0382168203610db657565b600435906001600160a01b0382168203610db657565b80548210156129075760005260206000200190600090565b634e487b7160e01b600052603260045260246000fd5b8181029291811591840414171561044557565b811561293a570490565b634e487b7160e01b600052601260045260246000fd5b9190820391821161044557565b1561296457565b60405162461bcd60e51b815260206004820152602260248201527f4c656e64696e6750726f746f636f6c3a206d61726b6574206e6f742061637469604482015261766560f01b6064820152608490fd5b156129bb57565b60405162461bcd60e51b815260206004820152601f60248201527f4c656e64696e6750726f746f636f6c3a20696e76616c696420616d6f756e74006044820152606490fd5b9190820180921161044557565b6060810190811067ffffffffffffffff821117612a2957604052565b634e487b7160e01b600052604160045260246000fd5b6080810190811067ffffffffffffffff821117612a2957604052565b90601f8019910116810190811067ffffffffffffffff821117612a2957604052565b60405190612a8a82612a0d565b60006040838281528260208201520152565b612aa581613276565b60009160018060a01b031682526003602052604082209060018201548015612b49576002830154670de0b6b3a764000090818102918183041490151715612b355791610411612af692600494612930565b91015491612710928303928311612b21575069021e19e0c9bab240000091612b1d9161291d565b0490565b634e487b7160e01b81526011600452602490fd5b634e487b7160e01b85526011600452602485fd5b50505090565b3360009081527f7d7ffb7a348e1c6a02869081a26547b49160dd3df72d1d75a570eb9b698292ec60209081526040808320549092907fa49807205ce4d355092ef5a8a18f56e8913cf4a201fbe287825b095693c217759060ff1615612bb45750505050565b612bbd33613712565b845191612bc983612a3f565b604283528483019360603686378351156125975760308553835190600191600110156125975790607860218601536041915b818311612ca557505050612c7557611e19938593612c5f93612c50604894611e699951988576020b1b1b2b9b9a1b7b73a3937b61d1030b1b1b7bab73a1604d1b8b978801528251928391603789019101613329565b01036028810185520183612a5b565b5162461bcd60e51b81529182916004830161334c565b60648486519062461bcd60e51b825280600483015260248201526000805160206138918339815191526044820152fd5b909192600f81166010811015612583576f181899199a1a9b1b9c1cb0b131b232b360811b901a612cd58588613701565b5360041c92801561256f57600019019190612bfb565b3360009081527ff7c9542c591017a21c74b6f3fab6263c7952fc0aaf9db4c22a2a04ddc7f8674f60209081526040808320549092907f65d7a28e3265b37a6474929f336521b332c1681b933f6cb9f3376673440d862a9060ff1615612d505750505050565b612d5933613712565b845191612d6583612a3f565b604283528483019360603686378351156125975760308553835190600191600110156125975790607860218601536041915b818311612dec57505050612c7557611e19938593612c5f93612c50604894611e699951988576020b1b1b2b9b9a1b7b73a3937b61d1030b1b1b7bab73a1604d1b8b978801528251928391603789019101613329565b909192600f81166010811015612583576f181899199a1a9b1b9c1cb0b131b232b360811b901a612e1c8588613701565b5360041c92801561256f57600019019190612d97565b6000818152602090808252604092838220338352835260ff848320541615612e5a5750505050565b612e6333613712565b845191612e6f83612a3f565b604283528483019360603686378351156125975760308553835190600191600110156125975790607860218601536041915b818311612ef657505050612c7557611e19938593612c5f93612c50604894611e699951988576020b1b1b2b9b9a1b7b73a3937b61d1030b1b1b7bab73a1604d1b8b978801528251928391603789019101613329565b909192600f81166010811015612583576f181899199a1a9b1b9c1cb0b131b232b360811b901a612f268588613701565b5360041c92801561256f57600019019190612ea1565b9060009180835282602052604083209160018060a01b03169182845260205260ff604084205416612f6c57505050565b80835282602052604083208284526020526040832060ff1981541690557ff6391f5c32d9c69d2a47ea670b442974b53935d1edc7fd64eb21e047a839171b339380a4565b600260015414612fc1576002600155565b60405162461bcd60e51b815260206004820152601f60248201527f5265656e7472616e637947756172643a207265656e7472616e742063616c6c006044820152606490fd5b6001600160a01b0381166000908152600360205260409020600b8101805490924282146130ff5761304361303d6130a19342612950565b91613276565b906130766301e133809283613060846104118460028b015461291d565b04936104a7600c8801946104118654948561291d565b905561271061308960048501548361291d565b04906003840161309a838254612a00565b9055612950565b60018201549081159283156130ba575b50505050429055565b600d01926130ca8454928361291d565b90670de0b6b3a7640000808502948504141715610445576130f4926130ee91612930565b90612a00565b9055388080806130b1565b50505050565b6040516323b872dd60e01b60208201526001600160a01b03928316602482015292909116604483015260648083019390935291815260a081019181831067ffffffffffffffff841117612a295761315e926040526135cd565b565b60405163a9059cbb60e01b60208201526001600160a01b039092166024830152604480830193909352918152608081019167ffffffffffffffff831182841017612a295761315e926040526135cd565b60ff600254166131bc57565b60405162461bcd60e51b815260206004820152601060248201526f14185d5cd8589b194e881c185d5cd95960821b6044820152606490fd5b9060018060a01b038092166000526006602052604060002060008154905b81811061324b5750600160401b811015612a2957613235916001820181556128ef565b90928084549260031b9316831b921b1916179055565b8461325682856128ef565b9190548187169260031b1c161461326f57600101613212565b5050505050565b6001600160a01b031660009081526003602052604090206001810154908115613320576002810154670de0b6b3a76400009283820291808304851490151715610445576132c291612930565b600a8201549092908084116132ec57506104a76132e993600860078501549401549061291d565b90565b8260096133176104a79361331160076132e999980154876104a760088801548561291d565b96612950565b9101549061291d565b60079150015490565b60005b83811061333c5750506000910152565b818101518382015260200161332c565b6040916020825261336c8151809281602086015260208686019101613329565b601f01601f1916010190565b90613381612a7d565b506000918260018060a01b03809216808252602092600684526040808420918151808488829654938481520190885288882092885b8a8282106135b5575050506133cd92500384612a5b565b845b8351811015613560576005828883831b87010151169081600052600389528460002060078a5285600020549088600052600492838c5287600020856000528c52876000205480151580613552575b6134bb575b50896000528b5286600020846000528b528660002054908161344c575b50505050506001016133cf565b82610411969e966ec097ce7bc90715b34b9f100000000093600c6134729401549061291d565b049215613493575b505061348890600192612a00565b98903880808061343f565b15600117156134a657508161348861347a565b601190634e487b7160e01b6000525260246000fd5b6134e1846104116ec097ce7bc90715b34b9f100000000093949e94600d8701549061291d565b048b8615613506575b6104a76134ff9392612710928601549061291d565b9938613422565b5083156001171561353d57906127106104a78d6134ff94600081151560001461353657505b9394509150506134ea565b905061352b565b601185634e487b7160e01b6000525260246000fd5b5060ff835460101c1661341d565b5095969395509291505080156135ac57670de0b6b3a7640000808502908582041485151715610445578161359391612930565b925b8251946135a186612a0d565b855284015282015290565b60001992613595565b855487168452600195860195899550930192016133b6565b60018060a01b0316906040516040810167ffffffffffffffff9082811082821117612a29576040526020938483527f5361666545524332303a206c6f772d6c6576656c2063616c6c206661696c6564858401526000808587829751910182855af1903d156136f2573d9283116115e057906136689392916040519261365b88601f19601f8401160185612a5b565b83523d868885013e6137ff565b8051806136755750505050565b81849181010312610e545782015190811591821503610251575061369b578080806130ff565b6084906040519062461bcd60e51b82526004820152602a60248201527f5361666545524332303a204552433230206f7065726174696f6e20646964206e6044820152691bdd081cdd58d8d9595960b21b6064820152fd5b906136689392506060916137ff565b908151811015612907570160200190565b6040519061371f82612a0d565b602a8252602082016040368237825115612907576030905381516001906001101561290757607860218401536029905b80821161379157505061375f5790565b606460405162461bcd60e51b815260206004820152602060248201526000805160206138918339815191526044820152fd5b9091600f811660108110156137ea576f181899199a1a9b1b9c1cb0b131b232b360811b901a6137c08486613701565b5360041c9180156137d557600019019061374f565b60246000634e487b7160e01b81526011600452fd5b60246000634e487b7160e01b81526032600452fd5b919290156138615750815115613813575090565b3b1561381c5790565b60405162461bcd60e51b815260206004820152601d60248201527f416464726573733a2063616c6c20746f206e6f6e2d636f6e74726163740000006044820152606490fd5b8251909150156138745750805190602001fd5b60405162461bcd60e51b8152908190611e69906004830161334c56fe537472696e67733a20686578206c656e67746820696e73756666696369656e74a264697066735822122093d3ff4d1a90412d292255dd2523afb6a20dab7c0bd3766398d8eb1a2f6aaf5364736f6c634300081800332f8788117e7eff1d82e926ec794901d17c78024a50270940304540a733656f0d",
  "linkReferences": {},
  "deployedLinkReferences": {}
}