{
  "_format": "hh-sol-artifact-1",
  "contractName": "NFTMarketplace",
  "sourceName": "contracts/solidity/nft/NFTMarketplace.sol",
  "abi": [
    {
      "inputs": [
        {
          "internalType": "address",
          "name": "_feeRecipient",
          "type": "address"
        }
      ],
      "stateMutability": "nonpayable",
      "type": "constructor"
    },
    {
      "anonymous": false,
      "inputs": [
        {
          "indexed": true,
          "internalType": "bytes32",
          "name": "auctionId",
          "type": "bytes32"
        }
      ],
      "name": "AuctionCancelled",
      "type": "event"
    },
    {
      "anonymous": false,
      "inputs": [
        {
          "indexed": true,
          "internalType": "bytes32",
          "name": "auctionId",
          "type": "bytes32"
        },
        {
          "indexed": true,
          "internalType": "address",
          "name": "seller",
          "type": "address"
        },
        {
          "indexed": true,
          "internalType": "address",
          "name": "nftContract",
          "type": "address"
        },
        {
          "indexed": false,
          "internalType": "uint256",
          "name": "tokenId",
          "type": "uint256"
        },
        {
          "indexed": false,
          "internalType": "address",
          "name": "paymentToken",
          "type": "address"
        },
        {
          "indexed": false,
          "internalType": "uint256",
          "name": "startingPrice",
          "type": "uint256"
        },
        {
          "indexed": false,
          "internalType": "uint256",
          "name": "endTime",
          "type": "uint256"
        }
      ],
      "name": "AuctionCreated",
      "type": "event"
    },
    {
      "anonymous": false,
      "inputs": [
        {
          "indexed": true,
          "internalType": "bytes32",
          "name": "auctionId",
          "type": "bytes32"
        },
        {
          "indexed": true,
          "internalType": "address",
          "name": "winner",
          "type": "address"
        },
        {
          "indexed": false,
          "internalType": "uint256",
          "name": "winningBid",
          "type": "uint256"
        }
      ],
      "name": "AuctionSettled",
      "type": "event"
    },
    {
      "anonymous": false,
      "inputs": [
        {
          "indexed": true,
          "internalType": "bytes32",
          "name": "auctionId",
          "type": "bytes32"
        },
        {
          "indexed": true,
          "internalType": "address",
          "name": "bidder",
          "type": "address"
        },
        {
          "indexed": false,
          "internalType": "uint256",
          "name": "amount",
          "type": "uint256"
        }
      ],
      "name": "BidPlaced",
      "type": "event"
    },
    {
      "anonymous": false,
      "inputs": [
        {
          "indexed": false,
          "internalType": "address",
          "name": "collection",
          "type": "address"
        },
        {
          "indexed": false,
          "internalType": "bool",
          "name": "approved",
          "type": "bool"
        }
      ],
      "name": "CollectionApproved",
      "type": "event"
    },
    {
      "anonymous": false,
      "inputs": [
        {
          "indexed": false,
          "internalType": "address",
          "name": "newRecipient",
          "type": "address"
        }
      ],
      "name": "FeeRecipientUpdated",
      "type": "event"
    },
    {
      "anonymous": false,
      "inputs": [
        {
          "indexed": true,
          "internalType": "bytes32",
          "name": "listingId",
          "type": "bytes32"
        }
      ],
      "name": "ListingCancelled",
      "type": "event"
    },
    {
      "anonymous": false,
      "inputs": [
        {
          "indexed": true,
          "internalType": "bytes32",
          "name": "listingId",
          "type": "bytes32"
        },
        {
          "indexed": true,
          "internalType": "address",
          "name": "seller",
          "type": "address"
        },
        {
          "indexed": true,
          "internalType": "address",
          "name": "nftContract",
          "type": "address"
        },
        {
          "indexed": false,
          "internalType": "uint256",
          "name": "tokenId",
          "type": "uint256"
        },
        {
          "indexed": false,
          "internalType": "address",
          "name": "paymentToken",
          "type": "address"
        },
        {
          "indexed": false,
          "internalType": "uint256",
          "name": "price",
          "type": "uint256"
        },
        {
          "indexed": false,
          "internalType": "uint256",
          "name": "expiration",
          "type": "uint256"
        }
      ],
      "name": "NFTListed",
      "type": "event"
    },
    {
      "anonymous": false,
      "inputs": [
        {
          "indexed": true,
          "internalType": "bytes32",
          "name": "listingId",
          "type": "bytes32"
        },
        {
          "indexed": true,
          "internalType": "address",
          "name": "buyer",
          "type": "address"
        },
        {
          "indexed": true,
          "internalType": "address",
          "name": "seller",
          "type": "address"
        },
        {
          "indexed": false,
          "internalType": "address",
          "name": "nftContract",
          "type": "address"
        },
        {
          "indexed": false,
          "internalType": "uint256",
          "name": "tokenId",
          "type": "uint256"
        },
        {
          "indexed": false,
          "internalType": "address",
          "name": "paymentToken",
          "type": "address"
        },
        {
          "indexed": false,
          "internalType": "uint256",
          "name": "price",
          "type": "uint256"
        },
        {
          "indexed": false,
          "internalType": "uint256",
          "name": "platformFeeAmount",
          "type": "uint256"
        },
        {
          "indexed": false,
          "internalType": "uint256",
          "name": "royaltyAmount",
          "type": "uint256"
        }
      ],
      "name": "NFTSold",
      "type": "event"
    },
    {
      "anonymous": false,
      "inputs": [
        {
          "indexed": true,
          "internalType": "bytes32",
          "name": "offerId",
          "type": "bytes32"
        },
        {
          "indexed": true,
          "internalType": "address",
          "name": "seller",
          "type": "address"
        },
        {
          "indexed": true,
          "internalType": "address",
          "name": "buyer",
          "type": "address"
        },
        {
          "indexed": false,
          "internalType": "uint256",
          "name": "amount",
          "type": "uint256"
        }
      ],
      "name": "OfferAccepted",
      "type": "event"
    },
    {
      "anonymous": false,
      "inputs": [
        {
          "indexed": true,
          "internalType": "bytes32",
          "name": "offerId",
          "type": "bytes32"
        }
      ],
      "name": "OfferCancelled",
      "type": "event"
    },
    {
      "anonymous": false,
      "inputs": [
        {
          "indexed": true,
          "internalType": "bytes32",
          "name": "offerId",
          "type": "bytes32"
        },
        {
          "indexed": true,
          "internalType": "address",
          "name": "buyer",
          "type": "address"
        },
        {
          "indexed": true,
          "internalType": "address",
          "name": "nftContract",
          "type": "address"
        },
        {
          "indexed": false,
          "internalType": "uint256",
          "name": "tokenId",
          "type": "uint256"
        },
        {
          "indexed": false,
          "internalType": "address",
          "name": "paymentToken",
          "type": "address"
        },
        {
          "indexed": false,
          "internalType": "uint256",
          "name": "amount",
          "type": "uint256"
        },
        {
          "indexed": false,
          "internalType": "uint256",
          "name": "expiration",
          "type": "uint256"
        }
      ],
      "name": "OfferMade",
      "type": "event"
    },
    {
      "anonymous": false,
      "inputs": [
        {
          "indexed": true,
          "internalType": "address",
          "name": "previousOwner",
          "type": "address"
        },
        {
          "indexed": true,
          "internalType": "address",
          "name": "newOwner",
          "type": "address"
        }
      ],
      "name": "OwnershipTransferred",
      "type": "event"
    },
    {
      "anonymous": false,
      "inputs": [
        {
          "indexed": false,
          "internalType": "address",
          "name": "account",
          "type": "address"
        }
      ],
      "name": "Paused",
      "type": "event"
    },
    {
      "anonymous": false,
      "inputs": [
        {
          "indexed": false,
          "internalType": "uint256",
          "name": "newFee",
          "type": "uint256"
        }
      ],
      "name": "PlatformFeeUpdated",
      "type": "event"
    },
    {
      "anonymous": false,
      "inputs": [
        {
          "indexed": false,
          "internalType": "address",
          "name": "token",
          "type": "address"
        },
        {
          "indexed": false,
          "internalType": "bool",
          "name": "supported",
          "type": "bool"
        }
      ],
      "name": "TokenSupportUpdated",
      "type": "event"
    },
    {
      "anonymous": false,
      "inputs": [
        {
          "indexed": false,
          "internalType": "address",
          "name": "account",
          "type": "address"
        }
      ],
      "name": "Unpaused",
      "type": "event"
    },
    {
      "inputs": [],
      "name": "ETH_ADDRESS",
      "outputs": [
        {
          "internalType": "address",
          "name": "",
          "type": "address"
        }
      ],
      "stateMutability": "view",
      "type": "function"
    },
    {
      "inputs": [],
      "name": "MAX_PLATFORM_FEE",
      "outputs": [
        {
          "internalType": "uint256",
          "name": "",
          "type": "uint256"
        }
      ],
      "stateMutability": "view",
      "type": "function"
    },
    {
      "inputs": [
        {
          "internalType": "bytes32",
          "name": "offerId",
          "type": "bytes32"
        }
      ],
      "name": "acceptOffer",
      "outputs": [],
      "stateMutability": "nonpayable",
      "type": "function"
    },
    {
      "inputs": [
        {
          "internalType": "address",
          "name": "",
          "type": "address"
        }
      ],
      "name": "approvedCollections",
      "outputs": [
        {
          "internalType": "bool",
          "name": "",
          "type": "bool"
        }
      ],
      "stateMutability": "view",
      "type": "function"
    },
    {
      "inputs": [
        {
          "internalType": "bytes32",
          "name": "",
          "type": "bytes32"
        },
        {
          "internalType": "uint256",
          "name": "",
          "type": "uint256"
        }
      ],
      "name": "auctionBidders",
      "outputs": [
        {
          "internalType": "address",
          "name": "",
          "type": "address"
        }
      ],
      "stateMutability": "view",
      "type": "function"
    },
    {
      "inputs": [
        {
          "internalType": "bytes32",
          "name": "",
          "type": "bytes32"
        }
      ],
      "name": "auctions",
      "outputs": [
        {
          "internalType": "address",
          "name": "seller",
          "type": "address"
        },
        {
          "internalType": "address",
          "name": "nftContract",
          "type": "address"
        },
        {
          "internalType": "uint256",
          "name": "tokenId",
          "type": "uint256"
        },
        {
          "internalType": "address",
          "name": "paymentToken",
          "type": "address"
        },
        {
          "internalType": "uint256",
          "name": "startingPrice",
          "type": "uint256"
        },
        {
          "internalType": "uint256",
          "name": "currentBid",
          "type": "uint256"
        },
        {
          "internalType": "address",
          "name": "currentBidder",
          "type": "address"
        },
        {
          "internalType": "uint256",
          "name": "endTime",
          "type": "uint256"
        },
        {
          "internalType": "uint256",
          "name": "minBidIncrement",
          "type": "uint256"
        },
        {
          "internalType": "bool",
          "name": "active",
          "type": "bool"
        },
        {
          "internalType": "bool",
          "name": "settled",
          "type": "bool"
        }
      ],
      "stateMutability": "view",
      "type": "function"
    },
    {
      "inputs": [
        {
          "internalType": "bytes32",
          "name": "listingId",
          "type": "bytes32"
        }
      ],
      "name": "buyNFT",
      "outputs": [],
      "stateMutability": "payable",
      "type": "function"
    },
    {
      "inputs": [
        {
          "internalType": "bytes32",
          "name": "auctionId",
          "type": "bytes32"
        }
      ],
      "name": "cancelAuction",
      "outputs": [],
      "stateMutability": "nonpayable",
      "type": "function"
    },
    {
      "inputs": [
        {
          "internalType": "bytes32",
          "name": "listingId",
          "type": "bytes32"
        }
      ],
      "name": "cancelListing",
      "outputs": [],
      "stateMutability": "nonpayable",
      "type": "function"
    },
    {
      "inputs": [
        {
          "internalType": "bytes32",
          "name": "offerId",
          "type": "bytes32"
        }
      ],
      "name": "cancelOffer",
      "outputs": [],
      "stateMutability": "nonpayable",
      "type": "function"
    },
    {
      "inputs": [
        {
          "internalType": "address",
          "name": "",
          "type": "address"
        }
      ],
      "name": "collectionFees",
      "outputs": [
        {
          "internalType": "uint256",
          "name": "",
          "type": "uint256"
        }
      ],
      "stateMutability": "view",
      "type": "function"
    },
    {
      "inputs": [
        {
          "internalType": "address",
          "name": "nftContract",
          "type": "address"
        },
        {
          "internalType": "uint256",
          "name": "tokenId",
          "type": "uint256"
        },
        {
          "internalType": "address",
          "name": "paymentToken",
          "type": "address"
        },
        {
          "internalType": "uint256",
          "name": "startingPrice",
          "type": "uint256"
        },
        {
          "internalType": "uint256",
          "name": "duration",
          "type": "uint256"
        },
        {
          "internalType": "uint256",
          "name": "minBidIncrement",
          "type": "uint256"
        }
      ],
      "name": "createAuction",
      "outputs": [
        {
          "internalType": "bytes32",
          "name": "",
          "type": "bytes32"
        }
      ],
      "stateMutability": "nonpayable",
      "type": "function"
    },
    {
      "inputs": [
        {
          "internalType": "address",
          "name": "nftContract",
          "type": "address"
        },
        {
          "internalType": "uint256",
          "name": "tokenId",
          "type": "uint256"
        },
        {
          "internalType": "address",
          "name": "to",
          "type": "address"
        }
      ],
      "name": "emergencyRecoverNFT",
      "outputs": [],
      "stateMutability": "nonpayable",
      "type": "function"
    },
    {
      "inputs": [
        {
          "internalType": "address",
          "name": "token",
          "type": "address"
        },
        {
          "internalType": "uint256",
          "name": "amount",
          "type": "uint256"
        },
        {
          "internalType": "address",
          "name": "to",
          "type": "address"
        }
      ],
      "name": "emergencyRecoverToken",
      "outputs": [],
      "stateMutability": "nonpayable",
      "type": "function"
    },
    {
      "inputs": [],
      "name": "feeRecipient",
      "outputs": [
        {
          "internalType": "address",
          "name": "",
          "type": "address"
        }
      ],
      "stateMutability": "view",
      "type": "function"
    },
    {
      "inputs": [
        {
          "internalType": "address",
          "name": "nftContract",
          "type": "address"
        },
        {
          "internalType": "uint256",
          "name": "tokenId",
          "type": "uint256"
        },
        {
          "internalType": "address",
          "name": "paymentToken",
          "type": "address"
        },
        {
          "internalType": "uint256",
          "name": "price",
          "type": "uint256"
        },
        {
          "internalType": "uint256",
          "name": "expiration",
          "type": "uint256"
        }
      ],
      "name": "listNFT",
      "outputs": [
        {
          "internalType": "bytes32",
          "name": "",
          "type": "bytes32"
        }
      ],
      "stateMutability": "nonpayable",
      "type": "function"
    },
    {
      "inputs": [
        {
          "internalType": "bytes32",
          "name": "",
          "type": "bytes32"
        }
      ],
      "name": "listings",
      "outputs": [
        {
          "internalType": "address",
          "name": "seller",
          "type": "address"
        },
        {
          "internalType": "address",
          "name": "nftContract",
          "type": "address"
        },
        {
          "internalType": "uint256",
          "name": "tokenId",
          "type": "uint256"
        },
        {
          "internalType": "address",
          "name": "paymentToken",
          "type": "address"
        },
        {
          "internalType": "uint256",
          "name": "price",
          "type": "uint256"
        },
        {
          "internalType": "uint256",
          "name": "expiration",
          "type": "uint256"
        },
        {
          "internalType": "bool",
          "name": "active",
          "type": "bool"
        }
      ],
      "stateMutability": "view",
      "type": "function"
    },
    {
      "inputs": [
        {
          "internalType": "address",
          "name": "nftContract",
          "type": "address"
        },
        {
          "internalType": "uint256",
          "name": "tokenId",
          "type": "uint256"
        },
        {
          "internalType": "address",
          "name": "paymentToken",
          "type": "address"
        },
        {
          "internalType": "uint256",
          "name": "amount",
          "type": "uint256"
        },
        {
          "internalType": "uint256",
          "name": "expiration",
          "type": "uint256"
        }
      ],
      "name": "makeOffer",
      "outputs": [
        {
          "internalType": "bytes32",
          "name": "",
          "type": "bytes32"
        }
      ],
      "stateMutability": "payable",
      "type": "function"
    },
    {
      "inputs": [
        {
          "internalType": "bytes32",
          "name": "",
          "type": "bytes32"
        }
      ],
      "name": "offers",
      "outputs": [
        {
          "internalType": "address",
          "name": "buyer",
          "type": "address"
        },
        {
          "internalType": "address",
          "name": "nftContract",
          "type": "address"
        },
        {
          "internalType": "uint256",
          "name": "tokenId",
          "type": "uint256"
        },
        {
          "internalType": "address",
          "name": "paymentToken",
          "type": "address"
        },
        {
          "internalType": "uint256",
          "name": "amount",
          "type": "uint256"
        },
        {
          "internalType": "uint256",
          "name": "expiration",
          "type": "uint256"
        },
        {
          "internalType": "bool",
          "name": "active",
          "type": "bool"
        }
      ],
      "stateMutability": "view",
      "type": "function"
    },
    {
      "inputs": [
        {
          "internalType": "address",
          "name": "",
          "type": "address"
        },
        {
          "internalType": "address",
          "name": "",
          "type": "address"
        },
        {
          "internalType": "uint256",
          "name": "",
          "type": "uint256"
        },
        {
          "internalType": "bytes",
          "name": "",
          "type": "bytes"
        }
      ],
      "name": "onERC721Received",
      "outputs": [
        {
          "internalType": "bytes4",
          "name": "",
          "type": "bytes4"
        }
      ],
      "stateMutability": "pure",
      "type": "function"
    },
    {
      "inputs": [],
      "name": "owner",
      "outputs": [
        {
          "internalType": "address",
          "name": "",
          "type": "address"
        }
      ],
      "stateMutability": "view",
      "type": "function"
    },
    {
      "inputs": [],
      "name": "pause",
      "outputs": [],
      "stateMutability": "nonpayable",
      "type": "function"
    },
    {
      "inputs": [],
      "name": "paused",
      "outputs": [
        {
          "internalType": "bool",
          "name": "",
          "type": "bool"
        }
      ],
      "stateMutability": "view",
      "type": "function"
    },
    {
      "inputs": [
        {
          "internalType": "bytes32",
          "name": "",
          "type": "bytes32"
        },
        {
          "internalType": "address",
          "name": "",
          "type": "address"
        }
      ],
      "name": "pendingReturns",
      "outputs": [
        {
          "internalType": "uint256",
          "name": "",
          "type": "uint256"
        }
      ],
      "stateMutability": "view",
      "type": "function"
    },
    {
      "inputs": [
        {
          "internalType": "bytes32",
          "name": "auctionId",
          "type": "bytes32"
        },
        {
          "internalType": "uint256",
          "name": "bidAmount",
          "type": "uint256"
        }
      ],
      "name": "placeBid",
      "outputs": [],
      "stateMutability": "payable",
      "type": "function"
    },
    {
      "inputs": [],
      "name": "platformFee",
      "outputs": [
        {
          "internalType": "uint256",
          "name": "",
          "type": "uint256"
        }
      ],
      "stateMutability": "view",
      "type": "function"
    },
    {
      "inputs": [],
      "name": "renounceOwnership",
      "outputs": [],
      "stateMutability": "nonpayable",
      "type": "function"
    },
    {
      "inputs": [
        {
          "internalType": "address",
          "name": "collection",
          "type": "address"
        },
        {
          "internalType": "bool",
          "name": "approved",
          "type": "bool"
        }
      ],
      "name": "setCollectionApproval",
      "outputs": [],
      "stateMutability": "nonpayable",
      "type": "function"
    },
    {
      "inputs": [
        {
          "internalType": "address",
          "name": "collection",
          "type": "address"
        },
        {
          "internalType": "uint256",
          "name": "fee",
          "type": "uint256"
        }
      ],
      "name": "setCollectionFee",
      "outputs": [],
      "stateMutability": "nonpayable",
      "type": "function"
    },
    {
      "inputs": [
        {
          "internalType": "address",
          "name": "newRecipient",
          "type": "address"
        }
      ],
      "name": "setFeeRecipient",
      "outputs": [],
      "stateMutability": "nonpayable",
      "type": "function"
    },
    {
      "inputs": [
        {
          "internalType": "uint256",
          "name": "newFee",
          "type": "uint256"
        }
      ],
      "name": "setPlatformFee",
      "outputs": [],
      "stateMutability": "nonpayable",
      "type": "function"
    },
    {
      "inputs": [
        {
          "internalType": "address",
          "name": "token",
          "type": "address"
        },
        {
          "internalType": "bool",
          "name": "supported",
          "type": "bool"
        }
      ],
      "name": "setSupportedToken",
      "outputs": [],
      "stateMutability": "nonpayable",
      "type": "function"
    },
    {
      "inputs": [
        {
          "internalType": "bytes32",
          "name": "auctionId",
          "type": "bytes32"
        }
      ],
      "name": "settleAuction",
      "outputs": [],
      "stateMutability": "nonpayable",
      "type": "function"
    },
    {
      "inputs": [
        {
          "internalType": "address",
          "name": "",
          "type": "address"
        }
      ],
      "name": "supportedTokens",
      "outputs": [
        {
          "internalType": "bool",
          "name": "",
          "type": "bool"
        }
      ],
      "stateMutability": "view",
      "type": "function"
    },
    {
      "inputs": [
        {
          "internalType": "address",
          "name": "newOwner",
          "type": "address"
        }
      ],
      "name": "transferOwnership",
      "outputs": [],
      "stateMutability": "nonpayable",
      "type": "function"
    },
    {
      "inputs": [],
      "name": "unpause",
      "outputs": [],
      "stateMutability": "nonpayable",
      "type": "function"
    },
    {
      "inputs": [
        {
          "internalType": "address",
          "name": "",
          "type": "address"
        },
        {
          "internalType": "uint256",
          "name": "",
          "type": "uint256"
        }
      ],
      "name": "userAuctions",
      "outputs": [
        {
          "internalType": "bytes32",
          "name": "",
          "type": "bytes32"
        }
      ],
      "stateMutability": "view",
      "type": "function"
    },
    {
      "inputs": [
        {
          "internalType": "address",
          "name": "",
          "type": "address"
        },
        {
          "internalType": "uint256",
          "name": "",
          "type": "uint256"
        }
      ],
      "name": "userListings",
      "outputs": [
        {
          "internalType": "bytes32",
          "name": "",
          "type": "bytes32"
        }
      ],
      "stateMutability": "view",
      "type": "function"
    },
    {
      "inputs": [
        {
          "internalType": "address",
          "name": "",
          "type": "address"
        },
        {
          "internalType": "uint256",
          "name": "",
          "type": "uint256"
        }
      ],
      "name": "userOffers",
      "outputs": [
        {
          "internalType": "bytes32",
          "name": "",
          "type": "bytes32"
        }
      ],
      "stateMutability": "view",
      "type": "function"
    },
    {
      "inputs": [
        {
          "internalType": "bytes32",
          "name": "auctionId",
          "type": "bytes32"
        }
      ],
      "name": "withdrawPendingReturns",
      "outputs": [],
      "stateMutability": "nonpayable",
      "type": "function"
    }
  ],
  "bytecode": "0x6080346200013357601f62003dd938819003918201601f19168301916001600160401b0383118484101762000138578084926020946040528339810103126200013357516001600160a01b03811690819003620001335762000061336200014e565b6001805560ff1990816002541660025560fa6003558015620000e057600480546001600160a01b0319169190911790556200009c336200014e565b6000805260056020527f05b8ccbb9d4d8fb16ea74ce3c29a41f1b461fbdaff4714a0d9a8eb05499746bc80549091166001179055604051613c439081620001968239f35b60405162461bcd60e51b815260206004820152602560248201527f4e46544d61726b6574706c6163653a20696e76616c69642066656520726563696044820152641c1a595b9d60da1b6064820152608490fd5b600080fd5b634e487b7160e01b600052604160045260246000fd5b600080546001600160a01b039283166001600160a01b03198216811783559216907f8be0079c531659141344cd1fd0a4f28419497f9722a3daafe3b4186f6b6457e09080a356fe6080604052600436101561001257600080fd5b60003560e01c806312e8e2c3146102975780631387c2b51461029257806314ec41061461028d578063150b7a021461028857806317118469146102835780631edbc5be1461027e57806326232a2e146102795780633998a681146102745780633ca116bb1461026f5780633ef4d1301461026a5780633f4ba83a146102655780634690484014610260578063474d3ff01461025b5780634aa2fd4b14610256578063531af6b4146102515780635c975abb1461024c57806368c4ac2614610247578063715018a6146102425780637411f9a41461023d5780638456cb591461023857806386cfa7d3146102335780638cebfe471461022e5780638da5cb5b146102295780639299e55214610224578063964f25bb1461021f578063a734f06e1461021a578063b4fbe80a14610215578063b596a15e14610210578063bca1aaa31461020b578063bd5fec6514610206578063c18b8db414610201578063c4c54188146101fc578063cfd9eb0d146101f7578063e3a22706146101f2578063e74b981b146101ed578063e7986466146101e8578063ec07fb74146101e3578063ec1f1a52146101de578063f2fde38b146101d95763f952279e146101d457600080fd5b612734565b61266d565b612358565b612316565b6122b2565b6121df565b6121a2565b612107565b61208e565b611fd6565b611f88565b611d38565b611968565b61191a565b6118fe565b61187a565b6117ac565b611783565b611731565b6116d5565b61164d565b61156a565b61150c565b6114ca565b6114a7565b61118a565b611139565b6110af565b611086565b610ff2565b610e9e565b610e4d565b610e30565b610e12565b610d20565b6109c5565b610957565b61057f565b61033b565b346102f15760203660031901126102f1577f45610d581145924dd7090a5017e5f2b1d6f42213bb2e95707ff86846bbfcb1ca60206004356102d6613678565b6102e46103e8821115612844565b80600355604051908152a1005b600080fd5b6001600160a01b038116036102f157565b60a09060031901126102f15760043561031f816102f6565b9060243590604435610330816102f6565b906064359060843590565b61053c6105207fdbfe545243bfbd01cecd2662267985c3e46e77dc38bf540027ab7c3ee297c56561036b36610307565b92936103789592956136d0565b610380613714565b6001600160a01b0381166000908152600c602052604090206103ad906103a8905b5460ff1690565b612890565b6001600160a01b03861660009081526005602052604090206103d7906103d2906103a1565b6128ec565b6103e282151561294c565b6103ed4285116129a8565b60405133606090811b6001600160601b0319908116602084019081529184901b16603483015260488201879052606882018490524260888301524360a8830152906104458160c881015b03601f198101835282612a66565b5190209687946001600160a01b039388851681816105685761046a9150341015612ad3565b803411610540575b6104d761047d612b46565b3381526001600160a01b0386166020820152604081018a90526001600160a01b038b1660608201528260808201528360a08201526104be60c0820160019052565b6104d2896000526008602052604060002090565b612c13565b336000908152600b602052604090206104f1908890612c9d565b6040519485941698339885909493926060926080830196835260018060a01b0316602083015260408201520152565b0390a461052c60018055565b6040519081529081906020820190565b0390f35b61056360008080806105528634612b34565b335af161055d612b87565b50612bc7565b610472565b610563916105763415612a88565b3090339061376a565b346102f15760c03660031901126102f15760043561059c816102f6565b602435604435916105ac836102f6565b6064356084359260a435926105bf6136d0565b6105c7613714565b6001600160a01b0381166000908152600c602052604090206105ec906103a8906103a1565b6001600160a01b0386166000908152600560205260409020610611906103d2906103a1565b61061c831515612cd2565b610e108510158061094a575b61063190612d36565b61063c841515612d81565b604080516331a9108f60e11b81526004810184905290946001600160a01b038381169592909160209182816024818b5afa801561088b576106899160009161092d575b5084163314612e09565b875163e985e9c560e01b81523360048201523060248201529282846044818b5afa93841561088b576000946108fe575b508315610890575b506106ce6107a793612e6a565b875133606090811b6001600160601b03199081168584019081529188901b1660148201526028810188905242604882015243606882015261074391610725919061071b8160888401610437565b5190209a42612ed6565b9561072e612b66565b338152936001600160a01b0390911690840152565b8188018690526001600160a01b038a166060830152836080830152600060a0830152600060c08301528460e0830152610100820152610786610120820160019052565b60006101408201526107a2886000526007602052604060002090565b612ee3565b336000908152600a602052604090206107c1908790612c9d565b833b156102f1578451632142170760e11b8152336004820152306024820152604481018490529060008260648183895af197881561088b5761085888947fe092418694f6ddd70867c5b8e9b49c398bad1f0d784ef7eab3f6e7dd495b522f9461053c9b610872575b5088519687526001600160a01b0390921660208701526040860192909252606085015233939081906080820190565b0390a461086460018055565b519081529081906020820190565b8061087f61088592612a15565b80610e07565b38610829565b612dfd565b885163020604bf60e21b81526004810188905290935082816024818b5afa801561088b576107a7946106ce926000926108cf575b5016301493506106c1565b6108f0919250853d87116108f7575b6108e88183612a66565b810190612de8565b90386108c4565b503d6108de565b61091f919450833d8511610926575b6109178183612a66565b810190612e55565b92386106b9565b503d61090d565b6109449150843d86116108f7576108e88183612a66565b3861067f565b5062278d00851115610628565b346102f15760803660031901126102f1576109736004356102f6565b61097e6024356102f6565b60643567ffffffffffffffff8082116102f157366023830112156102f15781600401359081116102f157369101602401116102f157604051630a85bd0160e11b8152602090f35b60203660031901126102f1576004356109dc6136d0565b6109e4613714565b6109f8816000526006602052604060002090565b90610a5560068301610a13610a0e825460ff1690565b612ff6565b610a23600585015442111561304d565b8354610a4b90610a43906001600160a01b03165b6001600160a01b031690565b331415613099565b805460ff19169055565b6004820154600183018054909291906001600160a01b031692610a7f8260028701958654906137d2565b92919690610a9681610a918a88612b34565b612b34565b60038301805490996001600160a01b0396909291871680610ca85750610abe88341015612ad3565b82610c79575b8380151580610c6e575b610c4d575b5050610aff60008080808095610aef8a5460018060a01b031690565b5af1610af9612b87565b506131a4565b863411610c36575b505b8354610b1f90610a37906001600160a01b031681565b83549096906001600160a01b03168954883b156102f157604051632142170760e11b81526001600160a01b039290921660048301523360248301526044820152966000908890606490829084905af193841561088b57610bc6610bb8610bd6927ff9c83fd227233561dd40a8c15c397cd0f830dbad7ef150b040c1b7ec289250fc9a610c1598610c23575b50546001600160a01b031690565b96546001600160a01b031690565b99549a546001600160a01b031690565b604051968796169a339a87929060a09491979695929760c0850198600180881b0380931686526020860152166040840152606083015260808201520152565b0390a4610c2160018055565b005b8061087f610c3092612a15565b38610baa565b808080610c47936105528b34612b34565b38610b07565b600080808093610c67955af1610c61612b87565b50613148565b3883610ad3565b508782161515610ace565b610ca3600080808087610c9360045460018060a01b031690565b5af1610c9d612b87565b506130f0565b610ac4565b610ce29291610cb98a30338561376a565b84610d03575b8580151580610cf8575b610ce7575b505085546001600160a01b03165b906138d1565b610b09565b610cf191836138d1565b3885610cce565b508982161515610cc9565b600454610d1b9086906001600160a01b0316846138d1565b610cbf565b346102f15760203660031901126102f1576004356000526007602052604060002060018060a01b039061053c828254169183600182015416926002820154946003830154169160048101546005820154610d83600684015460018060a01b031690565b6007840154600880860154600990960154604080516001600160a01b03998a1681529b891660208d01528b019b909b5296861660608a0152608089019390935260a088019190915290921660c086015260e085019190915261010084015260ff808516151561012085015293901c9092161515610140820152908190610160820190565b60009103126102f157565b346102f15760003660031901126102f1576020600354604051908152f35b346102f15760003660031901126102f15760206040516103e88152f35b346102f15760403660031901126102f1576020610e95602435610e6f816102f6565b600435600052600f835260406000209060018060a01b0316600052602052604060002090565b54604051908152f35b346102f15760203660031901126102f157600435610eba613714565b610ece816000526007602052604060002090565b90610f1d60098301610ee9610ee4825460ff1690565b6131ff565b610ef7600585015415613256565b8354610f0b906001600160a01b0316610a37565b33148015610fd7575b610a4b906132a1565b6001820154610f3690610a37906001600160a01b031681565b82546002906001600160a01b0316930154813b156102f157604051632142170760e11b81523060048201526001600160a01b0394909416602485015260448401526000929083908290606490829084905af1801561088b57610fc4575b507fd88fab4b08bf76f15cf2d6e03e382acf1edd6790ab82967e406abac37db202888280a2610fc160018055565b80f35b8061087f610fd192612a15565b38610f93565b50600054610a4b906001600160a01b03165b33149050610f14565b346102f15760003660031901126102f15761100b613678565b60025460ff81161561104a5760ff19166002557f5db9ee0a495bf2e6ff9c91a7834c1ba4fdd244a5e8aa4e537bd38aeae4b073aa6020604051338152a1005b60405162461bcd60e51b815260206004820152601460248201527314185d5cd8589b194e881b9bdd081c185d5cd95960621b6044820152606490fd5b346102f15760003660031901126102f1576004546040516001600160a01b039091168152602090f35b346102f15760203660031901126102f15760048035600090815260086020908152604091829020805460018201546002830154600384015496840154600585015460069095015487516001600160a01b039586168152938516968401969096529582015294166060850152608084019290925260a083019190915260ff16151560c082015260e090f35b346102f15760403660031901126102f157600435611156816102f6565b60243590611162613678565b6111706103e8831115612844565b6001600160a01b03166000908152600d6020526040902055005b346102f15761119836610307565b929193906111a46136d0565b6111ac613714565b6001600160a01b0382166000908152600c602052604090206111d1906103a8906103a1565b6001600160a01b03851660009081526005602052604090206111f6906103d2906103a1565b6112018115156132ed565b61120c4285116129a8565b604080516331a9108f60e11b81526004810185905290956001600160a01b038481169691926020919082816024818c5afa801561088b576112599160009161148a575b5082163314612e09565b885163e985e9c560e01b81523360048201523060248201529082826044818c5afa91821561088b5760009261146b575b5081156113c1575b61053c6113378b8b8b8b7ffb0f5dc3316ec26e274adbca7460e9de04c81da7e76875d31c5b5cd29c00b0058c8c6108588d6113798e6112cf8f612e6a565b8a5133606090811b6001600160601b0319908116848401908152918b901b166014820152602881018b9052426048820152436068820152906113148160888401610437565b5190209b8c98611322612b46565b338152926001600160a01b0390911690830152565b808b018990526001600160a01b03851660608201528560808201528260a082015261136560c0820160019052565b6104d2886000526006602052604060002090565b336000908152600960205260409020611393908790612c9d565b88519687526001600160a01b0390921660208701526040860192909252606085015233939081906080820190565b98809795929896949150519263020604bf60e21b84528884806113ec89600483019190602083019252565b03818a5afa90811561088b576113796113379a6112cf6108589461053c9e7ffb0f5dc3316ec26e274adbca7460e9de04c81da7e76875d31c5b5cd29c00b0059960009261144c575b503091161495989a9c50509497999b50509350611291565b611464919250843d86116108f7576108e88183612a66565b9038611434565b611483919250833d8511610926576109178183612a66565b9038611289565b6114a19150843d86116108f7576108e88183612a66565b3861124f565b346102f15760003660031901126102f157602060ff600254166040519015158152f35b346102f15760203660031901126102f1576004356114e7816102f6565b60018060a01b03166000526005602052602060ff604060002054166040519015158152f35b346102f15760008060031936011261156757611526613678565b80546001600160a01b03198116825581906001600160a01b03167f8be0079c531659141344cd1fd0a4f28419497f9722a3daafe3b4186f6b6457e08280a380f35b80fd5b346102f15760203660031901126102f157600435611586613714565b6000818152600f6020908152604080832033845290915281209091905480156115fd578280808093816115e26115f4976115cb3391600052600f602052604060002090565b9060018060a01b0316600052602052604060002090565b55335af16115ee612b87565b50613348565b610fc160018055565b60405162461bcd60e51b815260206004820152602260248201527f4e46544d61726b6574706c6163653a206e6f2070656e64696e672072657475726044820152616e7360f01b6064820152608490fd5b346102f15760003660031901126102f157611666613678565b61166e6136d0565b600160ff1960025416176002557f62e78cea01bee320cd4e420270b5ea74000d11b0c9f74754ebdbfc544b05a2586020604051338152a1005b80548210156116bf5760005260206000200190600090565b634e487b7160e01b600052603260045260246000fd5b346102f15760403660031901126102f1576004356116f2816102f6565b6001600160a01b03166000908152600960205260409020805460243591908210156102f157602091611723916116a7565b90546040519160031b1c8152f35b346102f15760403660031901126102f157602435600435600052600e602052604060002080548210156102f15760209161176a916116a7565b905460405160039290921b1c6001600160a01b03168152f35b346102f15760003660031901126102f1576000546040516001600160a01b039091168152602090f35b346102f15760203660031901126102f1576004356117c8613714565b600090808252600660205260408220600681019061180a8254916117ee60ff8416612ff6565b54336001600160a01b039182161490811561183b575b506132a1565b60ff191690557f9210d6774ad7b502b3da4d2c233cb4913c6254bedbae89dfa93e0594a36397578280a26001805580f35b9050855416331438611804565b801515036102f157565b60409060031901126102f15760043561186a816102f6565b9060243561187781611848565b90565b346102f1577f35458355462628654fc1c4ba280f8cbd0e5539f514c06e40e17e1d6cdf40a3426118a936611852565b906118b2613678565b6001600160a01b0381166000908152600c60205260409020805460ff191660ff841515161790555b604080516001600160a01b039092168252911515602082015290819081015b0390a1005b346102f15760003660031901126102f157602060405160008152f35b346102f15760403660031901126102f157600435611937816102f6565b6001600160a01b03166000908152600a60205260409020805460243591908210156102f157602091611723916116a7565b346102f1576020806003193601126102f15760049081356119876136d0565b61198f613714565b6119a3816000526008602052604060002090565b9260068401936119bc6119b7865460ff1690565b61339e565b6119cc60058201544211156133e9565b6001810180549092906119e990610a37906001600160a01b031681565b9560028301938454604051976331a9108f60e11b8952808980611a13858983019190602083019252565b03818d5afa98891561088b57600099611d19575b506001600160a01b0398611a3e908a163314612e09565b6040805163e985e9c560e01b815233878201908152306020820152909391839185919082900301818e5afa92831561088b57600093611cfa575b508215611c8b575b5050611a9f92610a4b611a9292612e6a565b546001600160a01b031690565b95610a918454611ac584611aba8188019b8c549485916137d2565b958282959396612b34565b60038801549093908b166001600160a01b031680611bfd5750600093611b0e9585948594848695611bde575b505080151580611bd3575b611bb9575b5050335af1610af9612b87565b82546001600160a01b0316935490803b156102f15760408051632142170760e11b8152339481019485526001600160a01b03909616602085015283019190915260009184919082908490829060600103925af190811561088b577ffef44c015c86eda3d7c7869af989b4f01201b397cf6a320cf6480927644c38c192611ba092610c235750546001600160a01b031690565b9354604051908152929093169233928060208101610c15565b8380808093611bcc955af1610c61612b87565b3880611b01565b508d82161515611afc565b8580808093610c93611bf6965460018060a01b031690565b8938611af1565b9290611c3495925080611c6e575b50801515918280611c63575b80611c57575b15611c3957611c2d9250836138d1565b33906138d1565b611b0e565b5090611c46575b50611c2d565b611c509192612ed6565b9038611c40565b50338c82161415611c1d565b508b81161515611c17565b8754611c8591906001600160a01b03165b856138d1565b38611c0b565b60405163020604bf60e21b8152868101918252919491925084908390819060200103818d5afa93841561088b57611a9f94611a9293610a4b92600092611cdd575b50508a309116149250819450611a80565b611cf39250803d106108f7576108e88183612a66565b3880611ccc565b611d12919350823d8411610926576109178183612a66565b9138611a78565b81611d31929a503d8b116108f7576108e88183612a66565b9738611a27565b60403660031901126102f157600435611d4f6136d0565b611d57613714565b611d6b816000526007602052604060002090565b90611d7d610ee4600984015460ff1690565b60078201611d8d81544210613435565b8254611dad90611da5906001600160a01b0316610a37565b331415613481565b6003830180549093611e49916001600160a01b0390811680159290918315611f7057611e2c349889945b60058501805490956006908215611f6357611e01611df9600883015485612ed6565b8a101561353d565b0180549098906001600160a01b031690868216611f00575b505091546001600160a01b031692915050565b168281611eec575b50505580546001600160a01b03191633179055565b611e61336115cb84600052600f602052604060002090565b5415611eca575b610258611e76428354612b34565b10611eb9575b5060405191825233917f96d59693caec7bfbd896ccf6bb677a3b2230fec3c76d4b1b482a8670996c7c669080602081015b0390a3610c2160018055565b611ec242612ec7565b905538611e7c565b611ee733611ee284600052600e602052604060002090565b613589565b611e68565b611ef9913090339061376a565b3882611e34565b15611f55575050508354611f49611f41611f248c600052600f602052604060002090565b89546001600160a01b031660009081526020919091526040902090565b918254612ed6565b90555b38808080611e19565b611f5e926138d1565b611f4c565b611e016004820154611df9565b611e2c602435988994611f8334156134d7565b611dd7565b346102f15760403660031901126102f157600435611fa5816102f6565b6001600160a01b03166000908152600b60205260409020805460243591908210156102f157602091611723916116a7565b346102f15760203660031901126102f157600480356000908152600660208181526040928390208054600182015460028301546003840154978401546005850154949096015487516001600160a01b03948516815292841695830195909552958101959095529094166060840152608083019190915260a082019290925260ff909116151560c082015260e090f35b60609060031901126102f15760043561207d816102f6565b9060243590604435611877816102f6565b346102f15761209c36612065565b916120a5613678565b6001600160a01b031690813b156102f157604051632142170760e11b81523060048201526001600160a01b0393909316602484015260448301526000919082908290606490829084905af1801561088b576120fe575080f35b610fc190612a15565b346102f15761211536612065565b9161211e613678565b6001600160a01b03169182612199576000809350809281925af1612140612b87565b501561214857005b60405162461bcd60e51b815260206004820152602360248201527f4e46544d61726b6574706c6163653a20455448207265636f76657279206661696044820152621b195960ea1b6064820152608490fd5b610c21926138d1565b346102f15760203660031901126102f1576004356121bf816102f6565b60018060a01b0316600052600d6020526020604060002054604051908152f35b346102f15760203660031901126102f1576004356121fc816102f6565b612204613678565b6001600160a01b038116801561226357600480546001600160a01b03191690911790556040516001600160a01b0390911681527f7a7b5a0a132f9e0581eb8527f66eae9ee89c2a3e79d4ac7e41a1f1f4d48a7fc29080602081016118f9565b60405162461bcd60e51b815260206004820152602160248201527f4e46544d61726b6574706c6163653a20696e76616c696420726563697069656e6044820152601d60fa1b6064820152608490fd5b346102f1577fbbe72b7d9dcb594ee398a4a617885aba53d833e2aad601c813ce9df99fdeb49b6122e136611852565b906122ea613678565b6001600160a01b0381166000908152600560205260409020805460ff191660ff841515161790556118da565b346102f15760203660031901126102f157600435612333816102f6565b60018060a01b0316600052600c602052602060ff604060002054166040519015158152f35b346102f15760203660031901126102f157600435612374613714565b612388816000526007602052604060002090565b906123cb600983016123bc60ff82546123a28282166131ff565b6123b260078801544210156135c4565b60081c161561361c565b805461ffff1916610100179055565b6006820180549092906001600160a01b03908116156125d85760018201546001600160a01b03169361247b610a37610a3760016002870196610a91885461241e89611aba600586019e8f549485916137d2565b600386015490939082166001600160a01b03168061256c575060009361246d958594859484869561254d575b508115159081612541575b50612527575b505086546001600160a01b0316610aef565b01546001600160a01b031690565b81549093906001600160a01b03169054843b156102f157604051632142170760e11b81523060048201526001600160a01b039290921660248301526044820152926000908490606490829084905af190811561088b577fa6d7caa325bd06c767ae7505be45dbb3ed3302a742cde6bc78d0ec0cf24a5d709361250992610c235750546001600160a01b031690565b93546040519081529316928060208101611ead565b610c2160018055565b838080809361253a955af1610c61612b87565b388061245b565b9050821615158f612455565b8580808061256694610c9360045460018060a01b031690565b3861244a565b929061259b959250806125bc575b50801515806125b1575b6125a0575b505083546001600160a01b0316610cdc565b61246d565b6125aa91836138d1565b3880612589565b508b82161515612584565b6004546125d291906001600160a01b0316611c7f565b3861257a565b5060018101549092506125f69150610a37906001600160a01b031681565b81549091906002906001600160a01b0316910154823b156102f157604051632142170760e11b81523060048201526001600160a01b039290921660248301526044820152906000908290606490829084905af1801561088b5761265a575b5061251e565b8061087f61266792612a15565b38612654565b346102f15760203660031901126102f15760043561268a816102f6565b612692613678565b6001600160a01b0390811680156126e057600080546001600160a01b03198116831782559092167f8be0079c531659141344cd1fd0a4f28419497f9722a3daafe3b4186f6b6457e08380a380f35b60405162461bcd60e51b815260206004820152602660248201527f4f776e61626c653a206e6577206f776e657220697320746865207a65726f206160448201526564647265737360d01b6064820152608490fd5b346102f15760203660031901126102f157600435612750613714565b612764816000526008602052604060002090565b61279e600682016127796119b7825460ff1690565b825461278d906001600160a01b0316610a37565b3314801561282a57610a4b906132a1565b60038101546001600160a01b031680612809575060008080808460046127cd6127db975460018060a01b031690565b910154905af161055d612b87565b7f3f9cb69d022b6ec319f86f2df848bcce01f2fc51c9f86396779a8081cf6ca2ea600080a2610c2160018055565b815461282592906004906001600160a01b0316910154916138d1565b6127db565b50600054610a4b90610fe9906001600160a01b0316610a37565b1561284b57565b60405162461bcd60e51b815260206004820152601c60248201527f4e46544d61726b6574706c6163653a2066656520746f6f2068696768000000006044820152606490fd5b1561289757565b60405162461bcd60e51b815260206004820152602760248201527f4e46544d61726b6574706c6163653a20636f6c6c656374696f6e206e6f7420616044820152661c1c1c9bdd995960ca1b6064820152608490fd5b156128f357565b60405162461bcd60e51b815260206004820152602b60248201527f4e46544d61726b6574706c6163653a207061796d656e7420746f6b656e206e6f60448201526a1d081cdd5c1c1bdc9d195960aa1b6064820152608490fd5b1561295357565b60405162461bcd60e51b815260206004820152602760248201527f4e46544d61726b6574706c6163653a20616d6f756e74206d75737420626520706044820152666f73697469766560c81b6064820152608490fd5b156129af57565b60405162461bcd60e51b815260206004820152602260248201527f4e46544d61726b6574706c6163653a20696e76616c696420657870697261746960448201526137b760f11b6064820152608490fd5b634e487b7160e01b600052604160045260246000fd5b67ffffffffffffffff8111612a2957604052565b6129ff565b6040810190811067ffffffffffffffff821117612a2957604052565b6060810190811067ffffffffffffffff821117612a2957604052565b90601f8019910116810190811067ffffffffffffffff821117612a2957604052565b15612a8f57565b606460405162461bcd60e51b815260206004820152602060248201527f4e46544d61726b6574706c6163653a20455448206e6f742061636365707465646044820152fd5b15612ada57565b606460405162461bcd60e51b815260206004820152602060248201527f4e46544d61726b6574706c6163653a20696e73756666696369656e74204554486044820152fd5b634e487b7160e01b600052601160045260246000fd5b91908203918211612b4157565b612b1e565b6040519060e0820182811067ffffffffffffffff821117612a2957604052565b60405190610160820182811067ffffffffffffffff821117612a2957604052565b3d15612bc2573d9067ffffffffffffffff8211612a295760405191612bb6601f8201601f191660200184612a66565b82523d6000602084013e565b606090565b15612bce57565b60405162461bcd60e51b815260206004820152601d60248201527f4e46544d61726b6574706c6163653a20726566756e64206661696c65640000006044820152606490fd5b815181546001600160a01b03199081166001600160a01b039283161783556020840151600184018054918416918316919091179055604084015160028401556060840151600384018054919093169116179055612c9b9160069060c0906080810151600485015560a081015160058501550151151591019060ff801983541691151516179055565b565b8054600160401b811015612a2957612cba916001820181556116a7565b819291549060031b91821b91600019901b1916179055565b15612cd957565b60405162461bcd60e51b815260206004820152602f60248201527f4e46544d61726b6574706c6163653a207374617274696e67207072696365206d60448201526e75737420626520706f73697469766560881b6064820152608490fd5b15612d3d57565b606460405162461bcd60e51b815260206004820152602060248201527f4e46544d61726b6574706c6163653a20696e76616c6964206475726174696f6e6044820152fd5b15612d8857565b60405162461bcd60e51b815260206004820152603260248201527f4e46544d61726b6574706c6163653a206d696e2062696420696e6372656d656e60448201527174206d75737420626520706f73697469766560701b6064820152608490fd5b908160209103126102f15751611877816102f6565b6040513d6000823e3d90fd5b15612e1057565b60405162461bcd60e51b815260206004820152601f60248201527f4e46544d61726b6574706c6163653a206e6f7420746f6b656e206f776e6572006044820152606490fd5b908160209103126102f1575161187781611848565b15612e7157565b60405162461bcd60e51b815260206004820152602860248201527f4e46544d61726b6574706c6163653a206d61726b6574706c616365206e6f7420604482015267185c1c1c9bdd995960c21b6064820152608490fd5b906102588201809211612b4157565b91908201809211612b4157565b815181546001600160a01b0319166001600160a01b03909116178155612c9b9190612fe0906101409060099060208501516001820180546001600160a01b0319166001600160a01b039092169190911790556040850151600282015560608501516003820180546001600160a01b0319166001600160a01b039092169190911790556080850151600482015560a0850151600582015560c08501516006820180546001600160a01b0319166001600160a01b0390921691909117905560e0850151600782015561010085015160088201550192612fd9612fc7610120830151151590565b859060ff801983541691151516179055565b0151151590565b815461ff00191690151560081b61ff0016179055565b15612ffd57565b60405162461bcd60e51b815260206004820152602260248201527f4e46544d61726b6574706c6163653a206c697374696e67206e6f742061637469604482015261766560f01b6064820152608490fd5b1561305457565b60405162461bcd60e51b815260206004820152601f60248201527f4e46544d61726b6574706c6163653a206c697374696e672065787069726564006044820152606490fd5b156130a057565b60405162461bcd60e51b815260206004820152602260248201527f4e46544d61726b6574706c6163653a2063616e6e6f7420627579206f776e204e604482015261119560f21b6064820152608490fd5b156130f757565b60405162461bcd60e51b815260206004820152602360248201527f4e46544d61726b6574706c6163653a20666565207472616e73666572206661696044820152621b195960ea1b6064820152608490fd5b1561314f57565b60405162461bcd60e51b815260206004820152602760248201527f4e46544d61726b6574706c6163653a20726f79616c7479207472616e736665726044820152660819985a5b195960ca1b6064820152608490fd5b156131ab57565b60405162461bcd60e51b815260206004820152602660248201527f4e46544d61726b6574706c6163653a2073656c6c6572207472616e736665722060448201526519985a5b195960d21b6064820152608490fd5b1561320657565b60405162461bcd60e51b815260206004820152602260248201527f4e46544d61726b6574706c6163653a2061756374696f6e206e6f742061637469604482015261766560f01b6064820152608490fd5b1561325d57565b606460405162461bcd60e51b815260206004820152602060248201527f4e46544d61726b6574706c6163653a2061756374696f6e2068617320626964736044820152fd5b156132a857565b60405162461bcd60e51b815260206004820152601c60248201527f4e46544d61726b6574706c6163653a20756e617574686f72697a6564000000006044820152606490fd5b156132f457565b60405162461bcd60e51b815260206004820152602660248201527f4e46544d61726b6574706c6163653a207072696365206d75737420626520706f60448201526573697469766560d01b6064820152608490fd5b1561334f57565b60405162461bcd60e51b815260206004820152602160248201527f4e46544d61726b6574706c6163653a207769746864726177616c206661696c656044820152601960fa1b6064820152608490fd5b156133a557565b606460405162461bcd60e51b815260206004820152602060248201527f4e46544d61726b6574706c6163653a206f66666572206e6f74206163746976656044820152fd5b156133f057565b60405162461bcd60e51b815260206004820152601d60248201527f4e46544d61726b6574706c6163653a206f6666657220657870697265640000006044820152606490fd5b1561343c57565b60405162461bcd60e51b815260206004820152601d60248201527f4e46544d61726b6574706c6163653a2061756374696f6e20656e6465640000006044820152606490fd5b1561348857565b60405162461bcd60e51b815260206004820152602160248201527f4e46544d61726b6574706c6163653a2073656c6c65722063616e6e6f742062696044820152601960fa1b6064820152608490fd5b156134de57565b60405162461bcd60e51b815260206004820152603160248201527f4e46544d61726b6574706c6163653a20455448206e6f74206163636570746564604482015270103337b9103a3434b99030bab1ba34b7b760791b6064820152608490fd5b1561354457565b60405162461bcd60e51b815260206004820152601b60248201527f4e46544d61726b6574706c6163653a2062696420746f6f206c6f7700000000006044820152606490fd5b8054600160401b811015612a29576135a6916001820181556116a7565b60018060a09493941b038084549260031b9316831b921b1916179055565b156135cb57565b60405162461bcd60e51b8152602060048201526024808201527f4e46544d61726b6574706c6163653a2061756374696f6e207374696c6c2061636044820152637469766560e01b6064820152608490fd5b1561362357565b60405162461bcd60e51b815260206004820152602760248201527f4e46544d61726b6574706c6163653a2061756374696f6e20616c7265616479206044820152661cd95d1d1b195960ca1b6064820152608490fd5b6000546001600160a01b0316330361368c57565b606460405162461bcd60e51b815260206004820152602060248201527f4f776e61626c653a2063616c6c6572206973206e6f7420746865206f776e65726044820152fd5b60ff600254166136dc57565b60405162461bcd60e51b815260206004820152601060248201526f14185d5cd8589b194e881c185d5cd95960821b6044820152606490fd5b600260015414613725576002600155565b60405162461bcd60e51b815260206004820152601f60248201527f5265656e7472616e637947756172643a207265656e7472616e742063616c6c006044820152606490fd5b6040516323b872dd60e01b60208201526001600160a01b039283166024820152929091166044830152606480830193909352918152612c9b916137ae608483612a66565b61391d565b91908260409103126102f157602082516137cc816102f6565b92015190565b6001600160a01b0381166000908152600d6020526040812090948594909392909154156138c8576001600160a01b0381166000908152600d6020526040902054925b838302938385041483151715612b415761382d826139f7565b61383f575b5050506127109004929190565b6040805163152a902d60e11b815260048101929092526024820193909352955091935090849060449082906001600160a01b03165afa801561088b57600093600091613893575b5092916127103880613832565b61271094506138ba915060403d6040116138c1575b6138b28183612a66565b8101906137b3565b9093613886565b503d6138a8565b60035492613814565b60405163a9059cbb60e01b60208201526001600160a01b039092166024830152604480830193909352918152608081019167ffffffffffffffff831182841017612a2957612c9b926040525b60405161397b916001600160a01b031661393682612a2e565b6000806020958685527f5361666545524332303a206c6f772d6c6576656c2063616c6c206661696c656487860152868151910182855af1613975612b87565b91613b7b565b8051908161398857505050565b8280613998938301019101612e55565b156139a05750565b6084906040519062461bcd60e51b82526004820152602a60248201527f5361666545524332303a204552433230206f7065726174696f6e20646964206e6044820152691bdd081cdd58d8d9595960b21b6064820152fd5b6040519060208083018160006301ffc9a760e01b9586845286602482015260248152613a2281612a4a565b51617530938685fa933d6000519086613ac7575b5085613abd575b5084613a5a575b50505081613a50575090565b6118779150613ad2565b83945090600091839460405185810192835263ffffffff60e01b602482015260248152613a8681612a4a565b5192fa60005190913d83613ab2575b505081613aa8575b501590388080613a44565b9050151538613a9d565b101591503880613a95565b1515945038613a3d565b841115955038613a36565b6000602091604051838101906301ffc9a760e01b825263152a902d60e11b602482015260248152613b0281612a4a565b5191617530fa6000513d82613b23575b5081613b1c575090565b9050151590565b60201115915038613b12565b15613b3657565b60405162461bcd60e51b815260206004820152601d60248201527f416464726573733a2063616c6c20746f206e6f6e2d636f6e74726163740000006044820152606490fd5b91929015613b9b5750815115613b8f575090565b611877903b1515613b2f565b825190915015613bae5750805190602001fd5b6040519062461bcd60e51b82528160208060048301528251908160248401526000935b828510613bf4575050604492506000838284010152601f80199101168101030190fd5b8481018201518686016044015293810193859350613bd156fea26469706673582212209ed6e616ecb0d22fcf298da1e372564eb6902fb84c955c93a3a7f4a683667b4164736f6c63430008180033",
  "linkReferences": {},
  "deployedLinkReferences": {}
}