{
  "_format": "hh-sol-artifact-1",
  "contractName": "OrderManager",
  "sourceName": "contracts/solidity/exchange/OrderManager.sol",
  "abi": [
    {
      "inputs": [
        {
          "internalType": "address",
          "name": "_exchange",
          "type": "address"
        }
      ],
      "stateMutability": "nonpayable",
      "type": "constructor"
    },
    {
      "anonymous": false,
      "inputs": [
        {
          "indexed": true,
          "internalType": "bytes32",
          "name": "orderId",
          "type": "bytes32"
        },
        {
          "indexed": true,
          "internalType": "address",
          "name": "user",
          "type": "address"
        },
        {
          "indexed": false,
          "internalType": "enum OrderManager.AdvancedOrderType",
          "name": "orderType",
          "type": "uint8"
        }
      ],
      "name": "AdvancedOrderPlaced",
      "type": "event"
    },
    {
      "anonymous": false,
      "inputs": [
        {
          "indexed": true,
          "internalType": "bytes32",
          "name": "orderId",
          "type": "bytes32"
        },
        {
          "indexed": false,
          "internalType": "uint256",
          "name": "newVisibleAmount",
          "type": "uint256"
        }
      ],
      "name": "IcebergOrderRefilled",
      "type": "event"
    },
    {
      "anonymous": false,
      "inputs": [
        {
          "indexed": true,
          "internalType": "bytes32",
          "name": "orderId",
          "type": "bytes32"
        },
        {
          "indexed": false,
          "internalType": "bytes32",
          "name": "cancelledOrderId",
          "type": "bytes32"
        }
      ],
      "name": "OCOOrderActivated",
      "type": "event"
    },
    {
      "anonymous": false,
      "inputs": [
        {
          "indexed": true,
          "internalType": "bytes32",
          "name": "orderId",
          "type": "bytes32"
        },
        {
          "indexed": false,
          "internalType": "uint256",
          "name": "triggerPrice",
          "type": "uint256"
        }
      ],
      "name": "OrderTriggered",
      "type": "event"
    },
    {
      "anonymous": false,
      "inputs": [
        {
          "indexed": true,
          "internalType": "bytes32",
          "name": "role",
          "type": "bytes32"
        },
        {
          "indexed": true,
          "internalType": "bytes32",
          "name": "previousAdminRole",
          "type": "bytes32"
        },
        {
          "indexed": true,
          "internalType": "bytes32",
          "name": "newAdminRole",
          "type": "bytes32"
        }
      ],
      "name": "RoleAdminChanged",
      "type": "event"
    },
    {
      "anonymous": false,
      "inputs": [
        {
          "indexed": true,
          "internalType": "bytes32",
          "name": "role",
          "type": "bytes32"
        },
        {
          "indexed": true,
          "internalType": "address",
          "name": "account",
          "type": "address"
        },
        {
          "indexed": true,
          "internalType": "address",
          "name": "sender",
          "type": "address"
        }
      ],
      "name": "RoleGranted",
      "type": "event"
    },
    {
      "anonymous": false,
      "inputs": [
        {
          "indexed": true,
          "internalType": "bytes32",
          "name": "role",
          "type": "bytes32"
        },
        {
          "indexed": true,
          "internalType": "address",
          "name": "account",
          "type": "address"
        },
        {
          "indexed": true,
          "internalType": "address",
          "name": "sender",
          "type": "address"
        }
      ],
      "name": "RoleRevoked",
      "type": "event"
    },
    {
      "anonymous": false,
      "inputs": [
        {
          "indexed": true,
          "internalType": "bytes32",
          "name": "orderId",
          "type": "bytes32"
        },
        {
          "indexed": false,
          "internalType": "uint256",
          "name": "interval",
          "type": "uint256"
        },
        {
          "indexed": false,
          "internalType": "uint256",
          "name": "amount",
          "type": "uint256"
        }
      ],
      "name": "TWAPIntervalExecuted",
      "type": "event"
    },
    {
      "anonymous": false,
      "inputs": [
        {
          "indexed": true,
          "internalType": "bytes32",
          "name": "orderId",
          "type": "bytes32"
        },
        {
          "indexed": false,
          "internalType": "uint256",
          "name": "newTriggerPrice",
          "type": "uint256"
        }
      ],
      "name": "TrailingStopUpdated",
      "type": "event"
    },
    {
      "inputs": [],
      "name": "ADMIN_ROLE",
      "outputs": [
        {
          "internalType": "bytes32",
          "name": "",
          "type": "bytes32"
        }
      ],
      "stateMutability": "view",
      "type": "function"
    },
    {
      "inputs": [],
      "name": "DEFAULT_ADMIN_ROLE",
      "outputs": [
        {
          "internalType": "bytes32",
          "name": "",
          "type": "bytes32"
        }
      ],
      "stateMutability": "view",
      "type": "function"
    },
    {
      "inputs": [],
      "name": "OPERATOR_ROLE",
      "outputs": [
        {
          "internalType": "bytes32",
          "name": "",
          "type": "bytes32"
        }
      ],
      "stateMutability": "view",
      "type": "function"
    },
    {
      "inputs": [
        {
          "internalType": "uint256",
          "name": "",
          "type": "uint256"
        }
      ],
      "name": "activeOrders",
      "outputs": [
        {
          "internalType": "bytes32",
          "name": "",
          "type": "bytes32"
        }
      ],
      "stateMutability": "view",
      "type": "function"
    },
    {
      "inputs": [
        {
          "internalType": "bytes32",
          "name": "",
          "type": "bytes32"
        }
      ],
      "name": "advancedOrders",
      "outputs": [
        {
          "internalType": "bytes32",
          "name": "id",
          "type": "bytes32"
        },
        {
          "internalType": "address",
          "name": "user",
          "type": "address"
        },
        {
          "internalType": "bytes32",
          "name": "pairId",
          "type": "bytes32"
        },
        {
          "internalType": "enum OrderManager.AdvancedOrderType",
          "name": "orderType",
          "type": "uint8"
        },
        {
          "internalType": "enum SpotExchange.OrderSide",
          "name": "side",
          "type": "uint8"
        },
        {
          "internalType": "uint256",
          "name": "amount",
          "type": "uint256"
        },
        {
          "internalType": "uint256",
          "name": "price",
          "type": "uint256"
        },
        {
          "internalType": "uint256",
          "name": "triggerPrice",
          "type": "uint256"
        },
        {
          "internalType": "uint256",
          "name": "limitPrice",
          "type": "uint256"
        },
        {
          "internalType": "uint256",
          "name": "trailingAmount",
          "type": "uint256"
        },
        {
          "internalType": "uint256",
          "name": "visibleAmount",
          "type": "uint256"
        },
        {
          "internalType": "uint256",
          "name": "timeInterval",
          "type": "uint256"
        },
        {
          "internalType": "uint256",
          "name": "maxSlippage",
          "type": "uint256"
        },
        {
          "internalType": "enum OrderManager.TimeInForce",
          "name": "timeInForce",
          "type": "uint8"
        },
        {
          "internalType": "uint256",
          "name": "expiry",
          "type": "uint256"
        },
        {
          "internalType": "uint256",
          "name": "created",
          "type": "uint256"
        },
        {
          "internalType": "bool",
          "name": "isActive",
          "type": "bool"
        },
        {
          "internalType": "bytes32",
          "name": "linkedOrderId",
          "type": "bytes32"
        },
        {
          "internalType": "uint256",
          "name": "executedAmount",
          "type": "uint256"
        },
        {
          "internalType": "uint256",
          "name": "lastTriggerPrice",
          "type": "uint256"
        }
      ],
      "stateMutability": "view",
      "type": "function"
    },
    {
      "inputs": [
        {
          "internalType": "bytes32",
          "name": "_orderId",
          "type": "bytes32"
        }
      ],
      "name": "cancelOrder",
      "outputs": [],
      "stateMutability": "nonpayable",
      "type": "function"
    },
    {
      "inputs": [
        {
          "internalType": "bytes32[]",
          "name": "_orderIds",
          "type": "bytes32[]"
        }
      ],
      "name": "checkAndExecuteOrders",
      "outputs": [],
      "stateMutability": "nonpayable",
      "type": "function"
    },
    {
      "inputs": [],
      "name": "exchange",
      "outputs": [
        {
          "internalType": "contract SpotExchange",
          "name": "",
          "type": "address"
        }
      ],
      "stateMutability": "view",
      "type": "function"
    },
    {
      "inputs": [
        {
          "internalType": "bytes32",
          "name": "_orderId",
          "type": "bytes32"
        }
      ],
      "name": "getAdvancedOrder",
      "outputs": [
        {
          "internalType": "bytes32",
          "name": "id",
          "type": "bytes32"
        },
        {
          "internalType": "address",
          "name": "user",
          "type": "address"
        },
        {
          "internalType": "bytes32",
          "name": "pairId",
          "type": "bytes32"
        },
        {
          "internalType": "enum OrderManager.AdvancedOrderType",
          "name": "orderType",
          "type": "uint8"
        },
        {
          "internalType": "enum SpotExchange.OrderSide",
          "name": "side",
          "type": "uint8"
        },
        {
          "internalType": "uint256",
          "name": "amount",
          "type": "uint256"
        },
        {
          "internalType": "uint256",
          "name": "price",
          "type": "uint256"
        },
        {
          "internalType": "uint256",
          "name": "triggerPrice",
          "type": "uint256"
        },
        {
          "internalType": "bool",
          "name": "isActive",
          "type": "bool"
        }
      ],
      "stateMutability": "view",
      "type": "function"
    },
    {
      "inputs": [
        {
          "internalType": "bytes32",
          "name": "_orderId",
          "type": "bytes32"
        }
      ],
      "name": "getIcebergState",
      "outputs": [
        {
          "components": [
            {
              "internalType": "uint256",
              "name": "hiddenAmount",
              "type": "uint256"
            },
            {
              "internalType": "uint256",
              "name": "visibleAmount",
              "type": "uint256"
            },
            {
              "internalType": "uint256",
              "name": "executedVisible",
              "type": "uint256"
            },
            {
              "internalType": "bytes32[]",
              "name": "childOrderIds",
              "type": "bytes32[]"
            },
            {
              "internalType": "uint256",
              "name": "currentChildIndex",
              "type": "uint256"
            }
          ],
          "internalType": "struct OrderManager.IcebergState",
          "name": "",
          "type": "tuple"
        }
      ],
      "stateMutability": "view",
      "type": "function"
    },
    {
      "inputs": [
        {
          "internalType": "bytes32",
          "name": "role",
          "type": "bytes32"
        }
      ],
      "name": "getRoleAdmin",
      "outputs": [
        {
          "internalType": "bytes32",
          "name": "",
          "type": "bytes32"
        }
      ],
      "stateMutability": "view",
      "type": "function"
    },
    {
      "inputs": [
        {
          "internalType": "bytes32",
          "name": "_orderId",
          "type": "bytes32"
        }
      ],
      "name": "getTWAPState",
      "outputs": [
        {
          "components": [
            {
              "internalType": "uint256",
              "name": "totalAmount",
              "type": "uint256"
            },
            {
              "internalType": "uint256",
              "name": "executedAmount",
              "type": "uint256"
            },
            {
              "internalType": "uint256",
              "name": "startTime",
              "type": "uint256"
            },
            {
              "internalType": "uint256",
              "name": "endTime",
              "type": "uint256"
            },
            {
              "internalType": "uint256",
              "name": "intervals",
              "type": "uint256"
            },
            {
              "internalType": "uint256",
              "name": "currentInterval",
              "type": "uint256"
            },
            {
              "internalType": "uint256",
              "name": "nextExecutionTime",
              "type": "uint256"
            },
            {
              "internalType": "uint256",
              "name": "intervalAmount",
              "type": "uint256"
            }
          ],
          "internalType": "struct OrderManager.TWAPState",
          "name": "",
          "type": "tuple"
        }
      ],
      "stateMutability": "view",
      "type": "function"
    },
    {
      "inputs": [
        {
          "internalType": "address",
          "name": "_user",
          "type": "address"
        }
      ],
      "name": "getUserOrders",
      "outputs": [
        {
          "internalType": "bytes32[]",
          "name": "",
          "type": "bytes32[]"
        }
      ],
      "stateMutability": "view",
      "type": "function"
    },
    {
      "inputs": [
        {
          "internalType": "bytes32",
          "name": "role",
          "type": "bytes32"
        },
        {
          "internalType": "address",
          "name": "account",
          "type": "address"
        }
      ],
      "name": "grantRole",
      "outputs": [],
      "stateMutability": "nonpayable",
      "type": "function"
    },
    {
      "inputs": [
        {
          "internalType": "bytes32",
          "name": "role",
          "type": "bytes32"
        },
        {
          "internalType": "address",
          "name": "account",
          "type": "address"
        }
      ],
      "name": "hasRole",
      "outputs": [
        {
          "internalType": "bool",
          "name": "",
          "type": "bool"
        }
      ],
      "stateMutability": "view",
      "type": "function"
    },
    {
      "inputs": [
        {
          "internalType": "bytes32",
          "name": "",
          "type": "bytes32"
        }
      ],
      "name": "icebergStates",
      "outputs": [
        {
          "internalType": "uint256",
          "name": "hiddenAmount",
          "type": "uint256"
        },
        {
          "internalType": "uint256",
          "name": "visibleAmount",
          "type": "uint256"
        },
        {
          "internalType": "uint256",
          "name": "executedVisible",
          "type": "uint256"
        },
        {
          "internalType": "uint256",
          "name": "currentChildIndex",
          "type": "uint256"
        }
      ],
      "stateMutability": "view",
      "type": "function"
    },
    {
      "inputs": [
        {
          "internalType": "bytes32",
          "name": "",
          "type": "bytes32"
        },
        {
          "internalType": "uint256",
          "name": "",
          "type": "uint256"
        }
      ],
      "name": "pairOrders",
      "outputs": [
        {
          "internalType": "bytes32",
          "name": "",
          "type": "bytes32"
        }
      ],
      "stateMutability": "view",
      "type": "function"
    },
    {
      "inputs": [],
      "name": "pause",
      "outputs": [],
      "stateMutability": "nonpayable",
      "type": "function"
    },
    {
      "inputs": [
        {
          "internalType": "bytes32",
          "name": "_pairId",
          "type": "bytes32"
        },
        {
          "internalType": "enum SpotExchange.OrderSide",
          "name": "_side",
          "type": "uint8"
        },
        {
          "internalType": "uint256",
          "name": "_totalAmount",
          "type": "uint256"
        },
        {
          "internalType": "uint256",
          "name": "_visibleAmount",
          "type": "uint256"
        },
        {
          "internalType": "uint256",
          "name": "_price",
          "type": "uint256"
        },
        {
          "internalType": "enum OrderManager.TimeInForce",
          "name": "_timeInForce",
          "type": "uint8"
        },
        {
          "internalType": "uint256",
          "name": "_expiry",
          "type": "uint256"
        }
      ],
      "name": "placeIceberg",
      "outputs": [
        {
          "internalType": "bytes32",
          "name": "",
          "type": "bytes32"
        }
      ],
      "stateMutability": "nonpayable",
      "type": "function"
    },
    {
      "inputs": [
        {
          "internalType": "bytes32",
          "name": "_pairId",
          "type": "bytes32"
        },
        {
          "internalType": "enum SpotExchange.OrderSide",
          "name": "_side",
          "type": "uint8"
        },
        {
          "internalType": "uint256",
          "name": "_amount",
          "type": "uint256"
        },
        {
          "internalType": "uint256",
          "name": "_stopPrice",
          "type": "uint256"
        },
        {
          "internalType": "uint256",
          "name": "_limitPrice",
          "type": "uint256"
        },
        {
          "internalType": "uint256",
          "name": "_profitPrice",
          "type": "uint256"
        },
        {
          "internalType": "uint256",
          "name": "_profitLimit",
          "type": "uint256"
        },
        {
          "internalType": "uint256",
          "name": "_expiry",
          "type": "uint256"
        }
      ],
      "name": "placeOCO",
      "outputs": [
        {
          "internalType": "bytes32",
          "name": "",
          "type": "bytes32"
        },
        {
          "internalType": "bytes32",
          "name": "",
          "type": "bytes32"
        }
      ],
      "stateMutability": "nonpayable",
      "type": "function"
    },
    {
      "inputs": [
        {
          "internalType": "bytes32",
          "name": "_pairId",
          "type": "bytes32"
        },
        {
          "internalType": "enum SpotExchange.OrderSide",
          "name": "_side",
          "type": "uint8"
        },
        {
          "internalType": "uint256",
          "name": "_amount",
          "type": "uint256"
        },
        {
          "internalType": "uint256",
          "name": "_triggerPrice",
          "type": "uint256"
        },
        {
          "internalType": "uint256",
          "name": "_limitPrice",
          "type": "uint256"
        },
        {
          "internalType": "enum OrderManager.TimeInForce",
          "name": "_timeInForce",
          "type": "uint8"
        },
        {
          "internalType": "uint256",
          "name": "_expiry",
          "type": "uint256"
        }
      ],
      "name": "placeStopLoss",
      "outputs": [
        {
          "internalType": "bytes32",
          "name": "",
          "type": "bytes32"
        }
      ],
      "stateMutability": "nonpayable",
      "type": "function"
    },
    {
      "inputs": [
        {
          "internalType": "bytes32",
          "name": "_pairId",
          "type": "bytes32"
        },
        {
          "internalType": "enum SpotExchange.OrderSide",
          "name": "_side",
          "type": "uint8"
        },
        {
          "internalType": "uint256",
          "name": "_amount",
          "type": "uint256"
        },
        {
          "internalType": "uint256",
          "name": "_timeInterval",
          "type": "uint256"
        },
        {
          "internalType": "uint256",
          "name": "_intervals",
          "type": "uint256"
        },
        {
          "internalType": "uint256",
          "name": "_maxSlippage",
          "type": "uint256"
        }
      ],
      "name": "placeTWAP",
      "outputs": [
        {
          "internalType": "bytes32",
          "name": "",
          "type": "bytes32"
        }
      ],
      "stateMutability": "nonpayable",
      "type": "function"
    },
    {
      "inputs": [
        {
          "internalType": "bytes32",
          "name": "_pairId",
          "type": "bytes32"
        },
        {
          "internalType": "enum SpotExchange.OrderSide",
          "name": "_side",
          "type": "uint8"
        },
        {
          "internalType": "uint256",
          "name": "_amount",
          "type": "uint256"
        },
        {
          "internalType": "uint256",
          "name": "_triggerPrice",
          "type": "uint256"
        },
        {
          "internalType": "uint256",
          "name": "_limitPrice",
          "type": "uint256"
        },
        {
          "internalType": "enum OrderManager.TimeInForce",
          "name": "_timeInForce",
          "type": "uint8"
        },
        {
          "internalType": "uint256",
          "name": "_expiry",
          "type": "uint256"
        }
      ],
      "name": "placeTakeProfit",
      "outputs": [
        {
          "internalType": "bytes32",
          "name": "",
          "type": "bytes32"
        }
      ],
      "stateMutability": "nonpayable",
      "type": "function"
    },
    {
      "inputs": [
        {
          "internalType": "bytes32",
          "name": "_pairId",
          "type": "bytes32"
        },
        {
          "internalType": "enum SpotExchange.OrderSide",
          "name": "_side",
          "type": "uint8"
        },
        {
          "internalType": "uint256",
          "name": "_amount",
          "type": "uint256"
        },
        {
          "internalType": "uint256",
          "name": "_trailingAmount",
          "type": "uint256"
        },
        {
          "internalType": "enum OrderManager.TimeInForce",
          "name": "_timeInForce",
          "type": "uint8"
        },
        {
          "internalType": "uint256",
          "name": "_expiry",
          "type": "uint256"
        }
      ],
      "name": "placeTrailingStop",
      "outputs": [
        {
          "internalType": "bytes32",
          "name": "",
          "type": "bytes32"
        }
      ],
      "stateMutability": "nonpayable",
      "type": "function"
    },
    {
      "inputs": [
        {
          "internalType": "bytes32",
          "name": "_orderId",
          "type": "bytes32"
        }
      ],
      "name": "refillIcebergOrder",
      "outputs": [],
      "stateMutability": "nonpayable",
      "type": "function"
    },
    {
      "inputs": [
        {
          "internalType": "bytes32",
          "name": "role",
          "type": "bytes32"
        },
        {
          "internalType": "address",
          "name": "account",
          "type": "address"
        }
      ],
      "name": "renounceRole",
      "outputs": [],
      "stateMutability": "nonpayable",
      "type": "function"
    },
    {
      "inputs": [
        {
          "internalType": "bytes32",
          "name": "role",
          "type": "bytes32"
        },
        {
          "internalType": "address",
          "name": "account",
          "type": "address"
        }
      ],
      "name": "revokeRole",
      "outputs": [],
      "stateMutability": "nonpayable",
      "type": "function"
    },
    {
      "inputs": [
        {
          "internalType": "bytes4",
          "name": "interfaceId",
          "type": "bytes4"
        }
      ],
      "name": "supportsInterface",
      "outputs": [
        {
          "internalType": "bool",
          "name": "",
          "type": "bool"
        }
      ],
      "stateMutability": "view",
      "type": "function"
    },
    {
      "inputs": [
        {
          "internalType": "bytes32",
          "name": "",
          "type": "bytes32"
        }
      ],
      "name": "twapStates",
      "outputs": [
        {
          "internalType": "uint256",
          "name": "totalAmount",
          "type": "uint256"
        },
        {
          "internalType": "uint256",
          "name": "executedAmount",
          "type": "uint256"
        },
        {
          "internalType": "uint256",
          "name": "startTime",
          "type": "uint256"
        },
        {
          "internalType": "uint256",
          "name": "endTime",
          "type": "uint256"
        },
        {
          "internalType": "uint256",
          "name": "intervals",
          "type": "uint256"
        },
        {
          "internalType": "uint256",
          "name": "currentInterval",
          "type": "uint256"
        },
        {
          "internalType": "uint256",
          "name": "nextExecutionTime",
          "type": "uint256"
        },
        {
          "internalType": "uint256",
          "name": "intervalAmount",
          "type": "uint256"
        }
      ],
      "stateMutability": "view",
      "type": "function"
    },
    {
      "inputs": [],
      "name": "unpause",
      "outputs": [],
      "stateMutability": "nonpayable",
      "type": "function"
    },
    {
      "inputs": [
        {
          "internalType": "address",
          "name": "",
          "type": "address"
        },
        {
          "internalType": "uint256",
          "name": "",
          "type": "uint256"
        }
      ],
      "name": "userOrders",
      "outputs": [
        {
          "internalType": "bytes32",
          "name": "",
          "type": "bytes32"
        }
      ],
      "stateMutability": "view",
      "type": "function"
    }
  ],
  "bytecode": "0x6101603462000331576001600160401b0390601f62002bba38819003918201601f1916830191848311848410176200031b57808492604094855283396020938491810103126200033157516001600160a01b038116919082900362000331578051926200006c8462000336565b600c8452808085016b27b93232b926b0b730b3b2b960a11b8152835190620000948262000336565b60019282848094520196603160f81b88528280555190209520958560e052610100968088524660a052845190848201907f8b73c3c69bb8fe3d512ecc4cf759cc79239f7b179b0ffacaa9a75d522b39400f988983528784015260608301524660808301523060a083015260a0825260c0820192828410908411176200031b57828652815190206080523060c0526101209687528515620002d9575050610140938452600090818052818352838220338352835260ff848320541615620002a2575b7fa49807205ce4d355092ef5a8a18f56e8913cf4a201fbe287825b095693c21775808352828452848320338452845260ff85842054161562000269575b507f97667070c54ef182b0f5858b034beac1b6f3089aa2d3188bb1e8929f4fa9b92992838352828152848320338452815260ff8584205416156200022e575b505050505191612847938462000353853960805184505060a05184505060c05184505060e05184505051835050518250505181818161034c0152818161087c01528181611f0001528181612257015281816123e701526126b40152f35b83835282815284832090338452528382209060ff19825416179055339160008051602062002b9a833981519152339280a438808080620001d1565b80835282845284832033845284528483208260ff198254161790553390339060008051602062002b9a8339815191528580a43862000192565b81805281835283822033835283528382208160ff1982541617905533338360008051602062002b9a8339815191528180a462000155565b907f4f726465724d616e616765723a20696e76616c69642065786368616e676500006101046064938662461bcd60e51b855260c4820152601e60e48201520152fd5b634e487b7160e01b600052604160045260246000fd5b600080fd5b604081019081106001600160401b038211176200031b5760405256fe610140806040526004908136101561001657600080fd5b600091823560e01c91826301ffc9a714611526575081631a09e2d3146113675781632277fe1d146112ee578163248a9ca3146112c25781632f2ff15d1461121557816336568abe146111845781633703c289146110ff5781633f4ba83a14610a3d5781634e43195a14610fa9578163509181c814610f0457816360801a3e14610e0b57816363c69f0814610d925781637489ec2314610d0057816375b238fc14610cc5578163817efdd914610b445781638447d17314610a565781638456cb5914610a3d578163856652e9146109f557816390076a931461081757816391d14854146107ce578163a217fddf146107b2578163b1db205b1461068c578163b1ea867d14610641578163bcb68e4114610554578163c2b5431f14610505578163d07ff4d51461037b578163d2f7265a14610336578163d547741f146102f6578163e3f2ca32146101fd578163e47efcb8146101b7575063f5b541a61461017a57600080fd5b346101b457806003193601126101b45760206040517f97667070c54ef182b0f5858b034beac1b6f3089aa2d3188bb1e8929f4fa9b9298152f35b80fd5b82346101b45760403660031901126101b457602435913581526006602052604081209081548310156101b45760206101ef8484611620565b90546040519160031b1c8152f35b9050346102f25760203660031901126102f2576040826101009360e0835161022481611777565b82815282602082015282858201528260608201528260808201528260a08201528260c08201520152823581526003602052206040519061026382611777565b805492838352600182015490602084019182526002830154906040850191825260038401549060608601918252840154916080860192835260058501549360a0870194855260e0600760068801549760c08a01988952015497019687526040519788525160208801525160408701525160608601525160808501525160a08401525160c08301525160e0820152f35b5080fd5b9050346102f25760403660031901126102f2576103339035610316611579565b908084528360205261032e6001604086200154611d1d565b611e29565b80f35b82346101b457806003193601126101b4576040517f00000000000000000000000000000000000000000000000000000000000000006001600160a01b03168152602090f35b9050346102f25761038b366115da565b61039b98959198969492966118ea565b828410156104ab57918784939284938733906103b691611940565b9b8c9a8b8b52600260205260408b20938c855560018501336001600160601b0360a01b8254161790558a6002860155600385019060ff1996878354161782556103fe9161164e565b858d8501556005840155856009840155600c83019061041c91611743565b600d82015542600e820155600f01908154166001179055868652876020526040862091610448916118dd565b81556001015561045890846121d9565b610462833361197e565b815260066020526040902090610477916116cb565b6104808261166d565b60405190815281339160206000805160206127f283398151915291a360018055604051908152602090f35b60405162461bcd60e51b81526020818a0152602d60248201527f4f726465724d616e616765723a2076697369626c65206d757374206265206c6560448201526c1cdcc81d1a185b881d1bdd185b609a1b6064820152608490fd5b9050346102f25760203660031901126102f257356007548110156102f2576007602092527fa66cc928b5edb82af9bd49922954155ab7b0942694bea4ce44661d9a8736c6880154604051908152f35b9050346102f257602091826003193601126101b457918260806040516105798161175b565b82815282848201528260408201526060808201520152813583528181526040832091604051936105a88561175b565b83548552600194600185015494848201958652600281015493604083019485526105d4600383016117d2565b9160608401928352015493608083019485526040519686885260c08801935187890152516040880152516060870152519360a0608087015284518092528060e087019501925b82811061062e57845160a088015286860387f35b835186529481019492810192870161061a565b9050346102f25760203660031901126102f257604060809282358152826020522090815491600181015491600282015491015491604051938452602084015260408301526060820152f35b9050346102f25760203660031901126102f25780356106a961199f565b8083526002602052604083209160ff600384015416600781101561079f57810361075b5781845260205260408320908154806106fa575b505054156106ec575080f35b600f01805460ff1916905580f35b60098401547f913df66c96950b48e008c439195223abafd335fae6e5396a30a83d6cffbbc41691602091808210610750576107369080926118dd565b855561074281856121d9565b604051908152a238806106e0565b5061073681806118dd565b60649060206040519162461bcd60e51b8352820152601f60248201527f4f726465724d616e616765723a206e6f742069636562657267206f72646572006044820152fd5b634e487b7160e01b855260218252602485fd5b82346101b457806003193601126101b457602090604051908152f35b9050346102f25760403660031901126102f257604060209260ff926107f1611579565b903582528185528282206001600160a01b03909116825284522054604051911615158152f35b9050346102f25760c03660031901126102f25780356024359160028310156109f1576064359060843593818510156109ed576108516118ea565b61085b8433611940565b6040516340ce2b9b60e01b81528381018690529095906101409081816024817f00000000000000000000000000000000000000000000000000000000000000006001600160a01b03165afa9182156109e25794899461094361097699956101008c9a9660139660209f9b60409c926109b5575b5050015195600184036109a6576108e581886118dd565b8b8a5260028f528a8a20958c875560018701336001600160601b0360a01b825416179055896002880155610929600388019660ff199760028982541617815561164e565b6044359087015560068601556008850155600c8401611743565b60a435600d83015542600e8301556001600f830191825416179055015561096a843361197e565b815260068652206116cb565b61097f8161166d565b60405160028152816000805160206127f2833981519152843393a360018055604051908152f35b6109b08188611700565b6108e5565b6109d49250803d106109db575b6109cc81836117b0565b810190611839565b38806108ce565b503d6109c2565b6040513d8b823e3d90fd5b8580fd5b8380fd5b82346101b45760403660031901126101b457610a0f611594565b6001600160a01b03168152600560205260408120805460243592908310156101b45760206101ef8484611620565b82346101b457806003193601126101b457610333611bd2565b9050346102f257602091600f91610ae56001610a71366115da565b939a9598949792610a839291926118ea565b610a8d8a33611940565b9b8c8c5260028e5260408c20968d8855898801336001600160601b0360a01b8254161790558b6002890155610acf600389019b60ff199c8d815416815561164e565b87015560068601556007850155600c8401611743565b600d82015542600e8201550191825416179055610b02833361197e565b815260068352610b1582604083206116cb565b610b1e8261166d565b604051908152816000805160206127f2833981519152843393a360018055604051908152f35b82346101b45760203660031901126101b457813581526002602052604090208091815490600160a01b6001900360018401541661010052600283015461012052600383015490830154600584015460068501546007860154600887015490600988015492600a89015494600b8a015496600c8b015460ff1698600d8c01549a600e8d01549c600f015460ff169d6010810154608052601281015460c0526013015460e05260405160a05260a051526101005160a051602001526101205160a0516040015260a05160600160ff821690610c1c916115aa565b60a0516080019060081c60ff1690610c33916115cd565b60a05160a0015260a05160c0015260a05160e0015260a051610100015260a051610120015260a051610140015260a051610160015260a0516101800152610c7981611616565b60a0516101a0015260a0516101c0015260a0516101e00152151560a051610200015260805160a051610220015260c05160a051610240015260e05160a051610260015260a05161028090f35b82346101b457806003193601126101b45760206040517fa49807205ce4d355092ef5a8a18f56e8913cf4a201fbe287825b095693c217758152f35b9050346102f25760203660031901126102f257803590610d1e6118ea565b818352600260205260408320600101546001600160a01b03163303610d4e5750610d479061219d565b6001805580f35b60649060206040519162461bcd60e51b8352820152601d60248201527f4f726465724d616e616765723a206e6f74206f72646572206f776e65720000006044820152fd5b82346101b457602090816003193601126101b457906001600160a01b03610db7611594565b16825260058152610dca604083206117d2565b60405192828493840190808552835180925280604086019401925b828110610df457505050500390f35b835185528695509381019392810192600101610de5565b9050346102f257610e1b366115da565b610e2d989593919897929694976118ea565b610e378533611940565b9889978888526002602052604088209389855560019a8b96878701336001600160601b0360a01b8254161790558960028801556003870160ff1999898b835416178255610e839161164e565b86015560068501556007840155610e9d90600c8401611743565b600d82015542600e820155600f018054909216179055610ebd833361197e565b815260066020526040902090610ed2916116cb565b610edb8261166d565b60405181815282339160206000805160206127f283398151915291a38055604051908152602090f35b9050346102f25760203660031901126102f257604061012092823581526002602052209081549160018060a01b0360018201541691600282015490610f906003840154918401549160058501549360ff600f6006880154970154169660405198895260208901526040880152610f806060880160ff83166115aa565b60ff608088019160081c166115cd565b60a085015260c084015260e08301521515610100820152f35b82346101b45760c03660031901126101b45760243590823560028310156102f257604435606435608435610fdb6118ea565b610fe58433611940565b9586865260026020526001600f60408820898155828101336001600160601b0360a01b82541617905587600282015561102e600382019460ff199560058782541617815561164e565b868b82015585600a82015560a435600b82015542600e8201550191825416179055858552600360205260408520928084554260028501558183028381048314841517156110ec576110af6110bc97946110a485604098958c9a9760209e61109760069842611700565b60038a0155880155611723565b600785015542611700565b91015561096a843361197e565b6110c58161166d565b60405160058152816000805160206127f2833981519152843393a360018055604051908152f35b634e487b7160e01b875260118952602487fd5b9050346102f25760203660031901126102f257803567ffffffffffffffff918282116109f157366023830112156109f1578101359182116111805760249060053660248560051b8401011161117c5761115661199f565b845b848110611163578580f35b8061117685600193851b86010135611e9d565b01611158565b8480fd5b8280fd5b82346101b45760403660031901126101b45761119e611579565b336001600160a01b038216036111b957610333919235611e29565b60405162461bcd60e51b8152602081850152602f60248201527f416363657373436f6e74726f6c3a2063616e206f6e6c792072656e6f756e636560448201526e103937b632b9903337b91039b2b63360891b6064820152608490fd5b9050346102f25760403660031901126102f25735611231611579565b818352826020526112486001604085200154611d1d565b818352602083815260408085206001600160a01b039093168086529290915283205460ff1615611276578280f35b818352826020526040832081845260205260408320600160ff1982541617905533917f2f8788117e7eff1d82e926ec794901d17c78024a50270940304540a733656f0d8480a438808280f35b9050346102f25760203660031901126102f2576040602092600192358152808452200154604051908152f35b9050346102f25760203660031901126102f2576040610100928235815260036020522090815491600181015491600282015490600383015490830154906005840154926007600686015495015495604051978852602088015260408701526060860152608085015260a084015260c083015260e0820152f35b9050346102f2576101003660031901126102f25780359160243560028110156102f2576044359260e4359261139a6118ea565b6113a48633611940565b9586825286602095600287526040842095828755600196878101926001600160601b0360a01b933385825416179055856002830155600382019060ff1991848382541682556113f29161164e565b8b898401556064356006840155608435600784015580600d84015542600e840155600f83018a8382541617905586339061142b91611940565b9b8c998a958d878c526002905260408b20978789558d890190339082541617905589600289015560038801908d868354161782556114689161164e565b86015560a435600686015560c4356007860155600d85015542600e85015588600f85019182541617905560100155601001558633906114a69161197e565b6114b0833361197e565b808252600685528660408320906114c6916116cb565b81526006845260409020906114da916116cb565b6114e38461166d565b6114ec8361166d565b604051600381526000805160206127f2833981519152908582853393a3836040519160038352843393a38055604051928352820152604090f35b915034611180576020366003190112611180573563ffffffff60e01b81168091036111805760209250637965db0b60e01b8114908115611568575b5015158152f35b6301ffc9a760e01b14905038611561565b602435906001600160a01b038216820361158f57565b600080fd5b600435906001600160a01b038216820361158f57565b9060078210156115b75752565b634e487b7160e01b600052602160045260246000fd5b9060028210156115b75752565b60e090600319011261158f5760043590602435600281101561158f579060443590606435906084359060a435600481101561158f579060c43590565b600411156115b757565b80548210156116385760005260206000200190600090565b634e487b7160e01b600052603260045260246000fd5b9060028110156115b75761ff0082549160081b169061ff001916179055565b600754600160401b8110156116b55760018101806007558110156116385760076000527fa66cc928b5edb82af9bd49922954155ab7b0942694bea4ce44661d9a8736c6880155565b634e487b7160e01b600052604160045260246000fd5b8054600160401b8110156116b5576116e891600182018155611620565b819291549060031b91821b91600019901b1916179055565b9190820180921161170d57565b634e487b7160e01b600052601160045260246000fd5b811561172d570490565b634e487b7160e01b600052601260045260246000fd5b9061174d81611616565b60ff80198354169116179055565b60a0810190811067ffffffffffffffff8211176116b557604052565b610100810190811067ffffffffffffffff8211176116b557604052565b6080810190811067ffffffffffffffff8211176116b557604052565b90601f8019910116810190811067ffffffffffffffff8211176116b557604052565b90604051918281549182825260209260208301916000526020600020936000905b82821061180b57505050611809925003836117b0565b565b8554845260019586019588955093810193909101906117f3565b51906001600160a01b038216820361158f57565b8091610140928391031261158f5760405191820182811067ffffffffffffffff8211176116b55760405261186c81611825565b825261187a60208201611825565b60208301526040810151801515810361158f576040830152606081015160608301526080810151608083015260a081015160a083015260c081015160c083015260e081015160e08301526101008082015190830152610120809101519082015290565b9190820391821161170d57565b6002600154146118fb576002600155565b60405162461bcd60e51b815260206004820152601f60248201527f5265656e7472616e637947756172643a207265656e7472616e742063616c6c006044820152606490fd5b906040519060208201926001600160601b03199060601b1683526034820152426054820152446074820152607481526119788161175b565b51902090565b6001600160a01b0316600090815260056020526040902061180991906116cb565b3360009081527fee57cd81e84075558e8fcc182a1f4393f91fc97f963a136e66b7f949a62f319f6020908152604080832054909291907f97667070c54ef182b0f5858b034beac1b6f3089aa2d3188bb1e8929f4fa9b9299060ff1615611a055750505050565b611a0e33612511565b90845190611a1b82611794565b60428252838201946060368737825115611bbe576030865382519060019160011015611bbe5790607860218501536041915b818311611b5057505050611b0e5784611adc6048611b00936044979851988991611acd8984019876020b1b1b2b9b9a1b7b73a3937b61d1030b1b1b7bab73a1604d1b8a52611aa4815180928d6037890191016122fb565b8401917001034b99036b4b9b9b4b733903937b6329607d1b6037840152518093868401906122fb565b010360288101895201876117b0565b5194859362461bcd60e51b85526004850152518092816024860152858501906122fb565b601f01601f19168101030190fd5b60648386519062461bcd60e51b825280600483015260248201527f537472696e67733a20686578206c656e67746820696e73756666696369656e746044820152fd5b909192600f81166010811015611baa576f181899199a1a9b1b9c1cb0b131b232b360811b901a611b808587612500565b5360041c928015611b9657600019019190611a4d565b634e487b7160e01b82526011600452602482fd5b634e487b7160e01b83526032600452602483fd5b634e487b7160e01b81526032600452602490fd5b3360009081527f7d7ffb7a348e1c6a02869081a26547b49160dd3df72d1d75a570eb9b698292ec6020908152604080832054909291907fa49807205ce4d355092ef5a8a18f56e8913cf4a201fbe287825b095693c217759060ff1615611c385750505050565b611c4133612511565b90845190611c4e82611794565b60428252838201946060368737825115611bbe576030865382519060019160011015611bbe5790607860218501536041915b818311611cd757505050611b0e5784611adc6048611b00936044979851988991611acd8984019876020b1b1b2b9b9a1b7b73a3937b61d1030b1b1b7bab73a1604d1b8a52611aa4815180928d6037890191016122fb565b909192600f81166010811015611baa576f181899199a1a9b1b9c1cb0b131b232b360811b901a611d078587612500565b5360041c928015611b9657600019019190611c80565b60008181526020818152604092838320338452825260ff848420541615611d445750505050565b611d4d33612511565b90845190611d5a82611794565b60428252838201946060368737825115611bbe576030865382519060019160011015611bbe5790607860218501536041915b818311611de357505050611b0e5784611adc6048611b00936044979851988991611acd8984019876020b1b1b2b9b9a1b7b73a3937b61d1030b1b1b7bab73a1604d1b8a52611aa4815180928d6037890191016122fb565b909192600f81166010811015611baa576f181899199a1a9b1b9c1cb0b131b232b360811b901a611e138587612500565b5360041c928015611b9657600019019190611d8c565b9060009180835282602052604083209160018060a01b03169182845260205260ff604084205416611e5957505050565b80835282602052604083208284526020526040832060ff1981541690557ff6391f5c32d9c69d2a47ea670b442974b53935d1edc7fd64eb21e047a839171b339380a4565b600081815260026020908082526040928381209360ff9384600f870154161561219457600185600c88015416611ed281611616565b1480612187575b612178578584015482516340ce2b9b60e01b815260048101919091526101409081816024817f00000000000000000000000000000000000000000000000000000000000000006001600160a01b03165afa91821561216e578792600392610100928892612151575b5050015197015416600781101561213d5784919080611fb1575087845252812092600384015460081c1691821015611f9d575060069190600103611f9457015410155b611f8b5750565b61180990612621565b01541115611f84565b634e487b7160e01b81526021600452602490fd5b90915060018103611ff75750839087845252812092600384015460081c1691821015611f9d575060069190600103611fee5701541115611f8b5750565b01541015611f84565b919390929091808303612122575086815281835283812094600386015460081c1691821015611f9d5750918591600160069594146000146120aa5760138401918254871161204f575b5050505001541015611f8b5750565b61205d6008860154886118dd565b90878787019485548411612074575b505050612040565b837fb532608b37615b8194524da9d5610ebfa2841a803cc6603687e884d17302cc5b96555551908152a28338808080878161206c565b6013840191825487106120c7575b5050505001541115611f8b5750565b6120d5600886015488611700565b908787870194855484106120ec575b5050506120b8565b837fb532608b37615b8194524da9d5610ebfa2841a803cc6603687e884d17302cc5b96555551908152a2833880808087816120e4565b94505050505060059150146121345750565b6118099061231e565b634e487b7160e01b84526021600452602484fd5b6121679250803d106109db576109cc81836117b0565b3880611f41565b84513d87823e3d90fd5b5050505050506118099061219d565b50600d8601544211611ed9565b50505050505050565b600052600260205260406000206010600f82019160ff19928381541690550154806121c6575050565b600052600f604060002001908154169055565b919060009083825260209060028252604083209460028601549160ff600388015460081c1690600588015490612231600d8a0154936040519663390c46ab60e01b8852600488015288602488015260448701906115cd565b6064850152608484015260a483015260c4820184905260e48201849052828261010481877f00000000000000000000000000000000000000000000000000000000000000006001600160a01b03165af19182156122f05784926122c0575b5094601191604095968552600484526122ad816003888820016116cb565b845201905220805460ff19166001179055565b9091508281813d83116122e9575b6122d881836117b0565b810103126109f1575190604061228f565b503d6122ce565b6040513d86823e3d90fd5b60005b83811061230e5750506000910152565b81810151838201526020016122fe565b600090808252602060028152604080842092600383528185209160068301938454421061219457600584019687549460048101958654808210156124f35761237b61238192612375600186549601958654906118dd565b926118dd565b90611723565b966002890154916123b960ff60038c015460081c1687519463390c46ab60e01b865260048601526001602486015260448501906115cd565b8860648401528360848401528360a48401528360c48401528360e48401528483610104818760018060a01b037f0000000000000000000000000000000000000000000000000000000000000000165af19283156124e95784936124ba575b50612423898254611700565b9055895460001981146124a657918594939160017f72eab502e989a59923ce03a8b2ce6fdda003a15983a261b9892d0ce2ba1e41c79794018c5561246b600a8c015442611700565b90558152601189018352209760ff199860018a8254161790555495825191878352820152a254111561249b575050565b600f01908154169055565b634e487b7160e01b84526011600452602484fd5b9092508481813d83116124e2575b6124d281836117b0565b810103126109f157519138612417565b503d6124c8565b86513d86823e3d90fd5b5050505050505050505050565b908151811015611638570160200190565b604051906060820182811067ffffffffffffffff8211176116b557604052602a8252602082016040368237825115611638576030905381516001906001101561163857607860218401536029905b8082116125b357505061256f5790565b606460405162461bcd60e51b815260206004820152602060248201527f537472696e67733a20686578206c656e67746820696e73756666696369656e746044820152fd5b9091600f8116601081101561260c576f181899199a1a9b1b9c1cb0b131b232b360811b901a6125e28486612500565b5360041c9180156125f757600019019061255f565b60246000634e487b7160e01b81526011600452fd5b60246000634e487b7160e01b81526032600452fd5b906000918083526020600281526040808520600281015460078201548015156000146127e95787905b60ff600385015460081c1661268e600486015491600d8701549488519663390c46ab60e01b8852600488015261267f81611616565b602487015260448601906115cd565b6064840152608483015260a482015260c4810187905260e481018790528381610104818a7f00000000000000000000000000000000000000000000000000000000000000006001600160a01b03165af19081156127df57879161278e575b50906006916001848798997f2b37854a489b905b79f05e884a015e6cc96b126ccac71a714d16df2f7520250898601086018981549182612754575b50505050600f85019360ff19948581541690558152601185018852209182541617905501549051908152a2565b61277e7f6adc616e8d467dbde98bdfd2ccb7ca0ff02fbb492c07bad58d50fe03a5c8780d9361219d565b548551908152a289388981612727565b90508381813d83116127d8575b6127a581836117b0565b810103126127d457517f2b37854a489b905b79f05e884a015e6cc96b126ccac71a714d16df2f752025086126ec565b8680fd5b503d61279b565b83513d89823e3d90fd5b60019061264a56fe7a787b2b4f41ea32a2319e39076105507b1dfe28ade050d669bce171d2667590a264697066735822122094ee8606f4e95333e1137f572b774f23da9b06c65ed4269c2074db66ac974da964736f6c634300081800332f8788117e7eff1d82e926ec794901d17c78024a50270940304540a733656f0d",
  "linkReferences": {},
  "deployedLinkReferences": {}
}