{
  "_format": "hh-sol-artifact-1",
  "contractName": "PriceOracle",
  "sourceName": "contracts/solidity/oracle/PriceOracle.sol",
  "abi": [
    {
      "inputs": [
        {
          "internalType": "address",
          "name": "_stakingToken",
          "type": "address"
        },
        {
          "internalType": "address",
          "name": "_treasury",
          "type": "address"
        },
        {
          "internalType": "uint256",
          "name": "_minStakeAmount",
          "type": "uint256"
        }
      ],
      "stateMutability": "nonpayable",
      "type": "constructor"
    },
    {
      "anonymous": false,
      "inputs": [
        {
          "indexed": true,
          "internalType": "bytes32",
          "name": "feedId",
          "type": "bytes32"
        },
        {
          "indexed": false,
          "internalType": "string",
          "name": "symbol",
          "type": "string"
        },
        {
          "indexed": false,
          "internalType": "address",
          "name": "asset",
          "type": "address"
        }
      ],
      "name": "FeedAdded",
      "type": "event"
    },
    {
      "anonymous": false,
      "inputs": [
        {
          "indexed": true,
          "internalType": "bytes32",
          "name": "feedId",
          "type": "bytes32"
        },
        {
          "indexed": true,
          "internalType": "address",
          "name": "oracle",
          "type": "address"
        }
      ],
      "name": "HeartbeatMissed",
      "type": "event"
    },
    {
      "anonymous": false,
      "inputs": [
        {
          "indexed": true,
          "internalType": "address",
          "name": "oracle",
          "type": "address"
        },
        {
          "indexed": false,
          "internalType": "uint256",
          "name": "stake",
          "type": "uint256"
        }
      ],
      "name": "OracleAdded",
      "type": "event"
    },
    {
      "anonymous": false,
      "inputs": [
        {
          "indexed": true,
          "internalType": "address",
          "name": "oracle",
          "type": "address"
        },
        {
          "indexed": false,
          "internalType": "uint256",
          "name": "amount",
          "type": "uint256"
        },
        {
          "indexed": false,
          "internalType": "string",
          "name": "reason",
          "type": "string"
        }
      ],
      "name": "OracleSlashed",
      "type": "event"
    },
    {
      "anonymous": false,
      "inputs": [
        {
          "indexed": false,
          "internalType": "address",
          "name": "account",
          "type": "address"
        }
      ],
      "name": "Paused",
      "type": "event"
    },
    {
      "anonymous": false,
      "inputs": [
        {
          "indexed": true,
          "internalType": "bytes32",
          "name": "feedId",
          "type": "bytes32"
        },
        {
          "indexed": true,
          "internalType": "address",
          "name": "oracle",
          "type": "address"
        },
        {
          "indexed": false,
          "internalType": "uint256",
          "name": "price",
          "type": "uint256"
        },
        {
          "indexed": false,
          "internalType": "uint256",
          "name": "roundId",
          "type": "uint256"
        }
      ],
      "name": "PriceSubmitted",
      "type": "event"
    },
    {
      "anonymous": false,
      "inputs": [
        {
          "indexed": true,
          "internalType": "bytes32",
          "name": "feedId",
          "type": "bytes32"
        },
        {
          "indexed": false,
          "internalType": "uint256",
          "name": "price",
          "type": "uint256"
        },
        {
          "indexed": false,
          "internalType": "uint256",
          "name": "roundId",
          "type": "uint256"
        },
        {
          "indexed": false,
          "internalType": "uint256",
          "name": "timestamp",
          "type": "uint256"
        }
      ],
      "name": "PriceUpdated",
      "type": "event"
    },
    {
      "anonymous": false,
      "inputs": [
        {
          "indexed": true,
          "internalType": "bytes32",
          "name": "role",
          "type": "bytes32"
        },
        {
          "indexed": true,
          "internalType": "bytes32",
          "name": "previousAdminRole",
          "type": "bytes32"
        },
        {
          "indexed": true,
          "internalType": "bytes32",
          "name": "newAdminRole",
          "type": "bytes32"
        }
      ],
      "name": "RoleAdminChanged",
      "type": "event"
    },
    {
      "anonymous": false,
      "inputs": [
        {
          "indexed": true,
          "internalType": "bytes32",
          "name": "role",
          "type": "bytes32"
        },
        {
          "indexed": true,
          "internalType": "address",
          "name": "account",
          "type": "address"
        },
        {
          "indexed": true,
          "internalType": "address",
          "name": "sender",
          "type": "address"
        }
      ],
      "name": "RoleGranted",
      "type": "event"
    },
    {
      "anonymous": false,
      "inputs": [
        {
          "indexed": true,
          "internalType": "bytes32",
          "name": "role",
          "type": "bytes32"
        },
        {
          "indexed": true,
          "internalType": "address",
          "name": "account",
          "type": "address"
        },
        {
          "indexed": true,
          "internalType": "address",
          "name": "sender",
          "type": "address"
        }
      ],
      "name": "RoleRevoked",
      "type": "event"
    },
    {
      "anonymous": false,
      "inputs": [
        {
          "indexed": true,
          "internalType": "bytes32",
          "name": "feedId",
          "type": "bytes32"
        },
        {
          "indexed": false,
          "internalType": "uint256",
          "name": "twapPrice",
          "type": "uint256"
        },
        {
          "indexed": false,
          "internalType": "uint256",
          "name": "windowSize",
          "type": "uint256"
        }
      ],
      "name": "TWAPUpdated",
      "type": "event"
    },
    {
      "anonymous": false,
      "inputs": [
        {
          "indexed": false,
          "internalType": "address",
          "name": "account",
          "type": "address"
        }
      ],
      "name": "Unpaused",
      "type": "event"
    },
    {
      "inputs": [],
      "name": "ADMIN_ROLE",
      "outputs": [
        {
          "internalType": "bytes32",
          "name": "",
          "type": "bytes32"
        }
      ],
      "stateMutability": "view",
      "type": "function"
    },
    {
      "inputs": [],
      "name": "DEFAULT_ADMIN_ROLE",
      "outputs": [
        {
          "internalType": "bytes32",
          "name": "",
          "type": "bytes32"
        }
      ],
      "stateMutability": "view",
      "type": "function"
    },
    {
      "inputs": [],
      "name": "HEARTBEAT_INTERVAL",
      "outputs": [
        {
          "internalType": "uint256",
          "name": "",
          "type": "uint256"
        }
      ],
      "stateMutability": "view",
      "type": "function"
    },
    {
      "inputs": [],
      "name": "MAX_DEVIATION",
      "outputs": [
        {
          "internalType": "uint256",
          "name": "",
          "type": "uint256"
        }
      ],
      "stateMutability": "view",
      "type": "function"
    },
    {
      "inputs": [],
      "name": "MAX_ORACLE_COUNT",
      "outputs": [
        {
          "internalType": "uint256",
          "name": "",
          "type": "uint256"
        }
      ],
      "stateMutability": "view",
      "type": "function"
    },
    {
      "inputs": [],
      "name": "MIN_ORACLE_COUNT",
      "outputs": [
        {
          "internalType": "uint256",
          "name": "",
          "type": "uint256"
        }
      ],
      "stateMutability": "view",
      "type": "function"
    },
    {
      "inputs": [],
      "name": "ORACLE_ROLE",
      "outputs": [
        {
          "internalType": "bytes32",
          "name": "",
          "type": "bytes32"
        }
      ],
      "stateMutability": "view",
      "type": "function"
    },
    {
      "inputs": [],
      "name": "PRECISION",
      "outputs": [
        {
          "internalType": "uint256",
          "name": "",
          "type": "uint256"
        }
      ],
      "stateMutability": "view",
      "type": "function"
    },
    {
      "inputs": [],
      "name": "SLASH_AMOUNT",
      "outputs": [
        {
          "internalType": "uint256",
          "name": "",
          "type": "uint256"
        }
      ],
      "stateMutability": "view",
      "type": "function"
    },
    {
      "inputs": [],
      "name": "STALENESS_THRESHOLD",
      "outputs": [
        {
          "internalType": "uint256",
          "name": "",
          "type": "uint256"
        }
      ],
      "stateMutability": "view",
      "type": "function"
    },
    {
      "inputs": [],
      "name": "VALIDATOR_ROLE",
      "outputs": [
        {
          "internalType": "bytes32",
          "name": "",
          "type": "bytes32"
        }
      ],
      "stateMutability": "view",
      "type": "function"
    },
    {
      "inputs": [
        {
          "internalType": "uint256",
          "name": "",
          "type": "uint256"
        }
      ],
      "name": "activeOracles",
      "outputs": [
        {
          "internalType": "address",
          "name": "",
          "type": "address"
        }
      ],
      "stateMutability": "view",
      "type": "function"
    },
    {
      "inputs": [
        {
          "internalType": "bytes32",
          "name": "_feedId",
          "type": "bytes32"
        },
        {
          "internalType": "string",
          "name": "_symbol",
          "type": "string"
        },
        {
          "internalType": "address",
          "name": "_asset",
          "type": "address"
        },
        {
          "internalType": "uint256",
          "name": "_heartbeat",
          "type": "uint256"
        },
        {
          "internalType": "uint256",
          "name": "_deviationThreshold",
          "type": "uint256"
        },
        {
          "internalType": "uint256",
          "name": "_minOracleCount",
          "type": "uint256"
        }
      ],
      "name": "addPriceFeed",
      "outputs": [],
      "stateMutability": "nonpayable",
      "type": "function"
    },
    {
      "inputs": [
        {
          "internalType": "uint256",
          "name": "",
          "type": "uint256"
        }
      ],
      "name": "feedIds",
      "outputs": [
        {
          "internalType": "bytes32",
          "name": "",
          "type": "bytes32"
        }
      ],
      "stateMutability": "view",
      "type": "function"
    },
    {
      "inputs": [
        {
          "internalType": "bytes32",
          "name": "_feedId",
          "type": "bytes32"
        }
      ],
      "name": "getFeedInfo",
      "outputs": [
        {
          "internalType": "string",
          "name": "symbol",
          "type": "string"
        },
        {
          "internalType": "address",
          "name": "asset",
          "type": "address"
        },
        {
          "internalType": "uint256",
          "name": "latestPrice",
          "type": "uint256"
        },
        {
          "internalType": "uint256",
          "name": "timestamp",
          "type": "uint256"
        },
        {
          "internalType": "bool",
          "name": "isActive",
          "type": "bool"
        }
      ],
      "stateMutability": "view",
      "type": "function"
    },
    {
      "inputs": [
        {
          "internalType": "bytes32",
          "name": "_feedId",
          "type": "bytes32"
        }
      ],
      "name": "getLatestPrice",
      "outputs": [
        {
          "internalType": "uint256",
          "name": "price",
          "type": "uint256"
        },
        {
          "internalType": "uint256",
          "name": "timestamp",
          "type": "uint256"
        }
      ],
      "stateMutability": "view",
      "type": "function"
    },
    {
      "inputs": [
        {
          "internalType": "address",
          "name": "_oracle",
          "type": "address"
        }
      ],
      "name": "getOracleInfo",
      "outputs": [
        {
          "components": [
            {
              "internalType": "address",
              "name": "nodeAddress",
              "type": "address"
            },
            {
              "internalType": "bool",
              "name": "isActive",
              "type": "bool"
            },
            {
              "internalType": "uint256",
              "name": "reputation",
              "type": "uint256"
            },
            {
              "internalType": "uint256",
              "name": "totalSubmissions",
              "type": "uint256"
            },
            {
              "internalType": "uint256",
              "name": "accurateSubmissions",
              "type": "uint256"
            },
            {
              "internalType": "uint256",
              "name": "stake",
              "type": "uint256"
            },
            {
              "internalType": "uint256",
              "name": "lastSubmissionTime",
              "type": "uint256"
            },
            {
              "internalType": "uint256",
              "name": "slashCount",
              "type": "uint256"
            },
            {
              "internalType": "string",
              "name": "endpoint",
              "type": "string"
            },
            {
              "internalType": "bytes32[]",
              "name": "supportedFeeds",
              "type": "bytes32[]"
            }
          ],
          "internalType": "struct PriceOracle.OracleNode",
          "name": "",
          "type": "tuple"
        }
      ],
      "stateMutability": "view",
      "type": "function"
    },
    {
      "inputs": [
        {
          "internalType": "bytes32",
          "name": "role",
          "type": "bytes32"
        }
      ],
      "name": "getRoleAdmin",
      "outputs": [
        {
          "internalType": "bytes32",
          "name": "",
          "type": "bytes32"
        }
      ],
      "stateMutability": "view",
      "type": "function"
    },
    {
      "inputs": [
        {
          "internalType": "bytes32",
          "name": "_feedId",
          "type": "bytes32"
        },
        {
          "internalType": "uint256",
          "name": "_roundId",
          "type": "uint256"
        }
      ],
      "name": "getRoundData",
      "outputs": [
        {
          "internalType": "uint256",
          "name": "price",
          "type": "uint256"
        },
        {
          "internalType": "uint256",
          "name": "timestamp",
          "type": "uint256"
        },
        {
          "internalType": "uint256",
          "name": "submissionCount",
          "type": "uint256"
        },
        {
          "internalType": "bool",
          "name": "isFinalized",
          "type": "bool"
        }
      ],
      "stateMutability": "view",
      "type": "function"
    },
    {
      "inputs": [
        {
          "internalType": "bytes32",
          "name": "_feedId",
          "type": "bytes32"
        }
      ],
      "name": "getTWAP",
      "outputs": [
        {
          "internalType": "uint256",
          "name": "",
          "type": "uint256"
        }
      ],
      "stateMutability": "view",
      "type": "function"
    },
    {
      "inputs": [
        {
          "internalType": "bytes32",
          "name": "role",
          "type": "bytes32"
        },
        {
          "internalType": "address",
          "name": "account",
          "type": "address"
        }
      ],
      "name": "grantRole",
      "outputs": [],
      "stateMutability": "nonpayable",
      "type": "function"
    },
    {
      "inputs": [
        {
          "internalType": "bytes32",
          "name": "role",
          "type": "bytes32"
        },
        {
          "internalType": "address",
          "name": "account",
          "type": "address"
        }
      ],
      "name": "hasRole",
      "outputs": [
        {
          "internalType": "bool",
          "name": "",
          "type": "bool"
        }
      ],
      "stateMutability": "view",
      "type": "function"
    },
    {
      "inputs": [],
      "name": "minStakeAmount",
      "outputs": [
        {
          "internalType": "uint256",
          "name": "",
          "type": "uint256"
        }
      ],
      "stateMutability": "view",
      "type": "function"
    },
    {
      "inputs": [
        {
          "internalType": "address",
          "name": "",
          "type": "address"
        }
      ],
      "name": "oracleNodes",
      "outputs": [
        {
          "internalType": "address",
          "name": "nodeAddress",
          "type": "address"
        },
        {
          "internalType": "bool",
          "name": "isActive",
          "type": "bool"
        },
        {
          "internalType": "uint256",
          "name": "reputation",
          "type": "uint256"
        },
        {
          "internalType": "uint256",
          "name": "totalSubmissions",
          "type": "uint256"
        },
        {
          "internalType": "uint256",
          "name": "accurateSubmissions",
          "type": "uint256"
        },
        {
          "internalType": "uint256",
          "name": "stake",
          "type": "uint256"
        },
        {
          "internalType": "uint256",
          "name": "lastSubmissionTime",
          "type": "uint256"
        },
        {
          "internalType": "uint256",
          "name": "slashCount",
          "type": "uint256"
        },
        {
          "internalType": "string",
          "name": "endpoint",
          "type": "string"
        }
      ],
      "stateMutability": "view",
      "type": "function"
    },
    {
      "inputs": [],
      "name": "pause",
      "outputs": [],
      "stateMutability": "nonpayable",
      "type": "function"
    },
    {
      "inputs": [],
      "name": "paused",
      "outputs": [
        {
          "internalType": "bool",
          "name": "",
          "type": "bool"
        }
      ],
      "stateMutability": "view",
      "type": "function"
    },
    {
      "inputs": [
        {
          "internalType": "bytes32",
          "name": "",
          "type": "bytes32"
        }
      ],
      "name": "priceFeeds",
      "outputs": [
        {
          "internalType": "string",
          "name": "symbol",
          "type": "string"
        },
        {
          "internalType": "address",
          "name": "asset",
          "type": "address"
        },
        {
          "internalType": "uint256",
          "name": "latestPrice",
          "type": "uint256"
        },
        {
          "internalType": "uint256",
          "name": "timestamp",
          "type": "uint256"
        },
        {
          "internalType": "uint256",
          "name": "roundId",
          "type": "uint256"
        },
        {
          "internalType": "bool",
          "name": "isActive",
          "type": "bool"
        },
        {
          "internalType": "uint256",
          "name": "heartbeat",
          "type": "uint256"
        },
        {
          "internalType": "uint256",
          "name": "deviationThreshold",
          "type": "uint256"
        },
        {
          "internalType": "uint256",
          "name": "minOracleCount",
          "type": "uint256"
        },
        {
          "internalType": "uint256",
          "name": "currentRoundId",
          "type": "uint256"
        }
      ],
      "stateMutability": "view",
      "type": "function"
    },
    {
      "inputs": [
        {
          "internalType": "uint256",
          "name": "_stakeAmount",
          "type": "uint256"
        },
        {
          "internalType": "string",
          "name": "_endpoint",
          "type": "string"
        },
        {
          "internalType": "bytes32[]",
          "name": "_supportedFeeds",
          "type": "bytes32[]"
        }
      ],
      "name": "registerOracle",
      "outputs": [],
      "stateMutability": "nonpayable",
      "type": "function"
    },
    {
      "inputs": [
        {
          "internalType": "bytes32",
          "name": "role",
          "type": "bytes32"
        },
        {
          "internalType": "address",
          "name": "account",
          "type": "address"
        }
      ],
      "name": "renounceRole",
      "outputs": [],
      "stateMutability": "nonpayable",
      "type": "function"
    },
    {
      "inputs": [
        {
          "internalType": "bytes32",
          "name": "role",
          "type": "bytes32"
        },
        {
          "internalType": "address",
          "name": "account",
          "type": "address"
        }
      ],
      "name": "revokeRole",
      "outputs": [],
      "stateMutability": "nonpayable",
      "type": "function"
    },
    {
      "inputs": [
        {
          "internalType": "bytes32",
          "name": "_feedId",
          "type": "bytes32"
        },
        {
          "internalType": "bool",
          "name": "_isActive",
          "type": "bool"
        }
      ],
      "name": "setFeedActive",
      "outputs": [],
      "stateMutability": "nonpayable",
      "type": "function"
    },
    {
      "inputs": [
        {
          "internalType": "uint256",
          "name": "_amount",
          "type": "uint256"
        }
      ],
      "name": "setMinStakeAmount",
      "outputs": [],
      "stateMutability": "nonpayable",
      "type": "function"
    },
    {
      "inputs": [
        {
          "internalType": "address",
          "name": "_oracle",
          "type": "address"
        },
        {
          "internalType": "string",
          "name": "_reason",
          "type": "string"
        }
      ],
      "name": "slashOracle",
      "outputs": [],
      "stateMutability": "nonpayable",
      "type": "function"
    },
    {
      "inputs": [
        {
          "internalType": "address",
          "name": "",
          "type": "address"
        }
      ],
      "name": "stakes",
      "outputs": [
        {
          "internalType": "uint256",
          "name": "",
          "type": "uint256"
        }
      ],
      "stateMutability": "view",
      "type": "function"
    },
    {
      "inputs": [],
      "name": "stakingToken",
      "outputs": [
        {
          "internalType": "address",
          "name": "",
          "type": "address"
        }
      ],
      "stateMutability": "view",
      "type": "function"
    },
    {
      "inputs": [
        {
          "internalType": "bytes32",
          "name": "_feedId",
          "type": "bytes32"
        },
        {
          "internalType": "uint256",
          "name": "_price",
          "type": "uint256"
        },
        {
          "internalType": "uint256",
          "name": "_timestamp",
          "type": "uint256"
        }
      ],
      "name": "submitPrice",
      "outputs": [],
      "stateMutability": "nonpayable",
      "type": "function"
    },
    {
      "inputs": [
        {
          "internalType": "bytes4",
          "name": "interfaceId",
          "type": "bytes4"
        }
      ],
      "name": "supportsInterface",
      "outputs": [
        {
          "internalType": "bool",
          "name": "",
          "type": "bool"
        }
      ],
      "stateMutability": "view",
      "type": "function"
    },
    {
      "inputs": [],
      "name": "treasury",
      "outputs": [
        {
          "internalType": "address",
          "name": "",
          "type": "address"
        }
      ],
      "stateMutability": "view",
      "type": "function"
    },
    {
      "inputs": [
        {
          "internalType": "bytes32",
          "name": "",
          "type": "bytes32"
        }
      ],
      "name": "twapData",
      "outputs": [
        {
          "internalType": "uint256",
          "name": "price",
          "type": "uint256"
        },
        {
          "internalType": "uint256",
          "name": "timestamp",
          "type": "uint256"
        },
        {
          "internalType": "uint256",
          "name": "accumulator",
          "type": "uint256"
        },
        {
          "internalType": "uint256",
          "name": "windowSize",
          "type": "uint256"
        }
      ],
      "stateMutability": "view",
      "type": "function"
    },
    {
      "inputs": [],
      "name": "unpause",
      "outputs": [],
      "stateMutability": "nonpayable",
      "type": "function"
    }
  ],
  "bytecode": "0x6080346200029057601f6200340f38819003918201601f191683019291906001600160401b038411838510176200029557816060928492604096875283398101031262000290576200005181620002ab565b6020918362000062848301620002ab565b91015160ff19916001938385541685558460025560018060a01b03809116918215620002415716908115620001fd5760018060a01b031990816009541617600955600b541617600b55600a55600091828052828452848320338452845260ff858420541615620001c8575b7fa49807205ce4d355092ef5a8a18f56e8913cf4a201fbe287825b095693c21775808452838552858420338552855260ff86852054161562000191575b507f21702c8af46127c7fa207f89d0b0a8441bb32959a0ac7df790e9ab1a25c9892693848452838152858420338552815260ff86852054161562000158575b855161312e9081620002c18239f35b8484528381528584209033855252848320918254161790553391600080516020620033ef833981519152339280a4388080808062000149565b8084528385528584203385528552858420828482541617905533903390600080516020620033ef8339815191528680a4386200010a565b82805282845284832033845284528483208183825416179055333384600080516020620033ef8339815191528180a4620000cd565b865162461bcd60e51b815260048101879052601d60248201527f50726963654f7261636c653a20696e76616c69642074726561737572790000006044820152606490fd5b875162461bcd60e51b815260048101889052602260248201527f50726963654f7261636c653a20696e76616c6964207374616b696e6720746f6b60448201526132b760f11b6064820152608490fd5b600080fd5b634e487b7160e01b600052604160045260246000fd5b51906001600160a01b0382168203620002905756fe608080604052600436101561001357600080fd5b60003560e01c90816301ffc9a7146122b657508063020068f71461223957806307e2cea51461221057806314dfe912146121b557806316934fc41461217b57806319b6482d14611ced578063248a9ca314611cbe5780632849463e14611c0e5780632f2ff15d14611b5b57806334d1c8fe146110a657806336568abe14611ac95780633772060614611aa55780633f4ba83a14611a11578063533b05dd1461115e5780635af54469146110f75780635c975abb146110d457806361d027b3146110ab5780637215b0bf146110a657806372f702f31461107d57806375b238fc146110425780638456cb5914610fe957806391d1485414610f9c578063a217fddf14610f80578063aaf5eb6814610f5d578063ab1e710c14610f41578063b05f233a14610f24578063b2ee2f0114610eec578063b7f433d114610eb5578063bf146fe614610e99578063bfba6c8f14610987578063bfdb6b04146107ba578063c49baebe1461077f578063c6c3f71e146106ca578063cabc13bd1461067c578063d547741f1461063d578063e6cf42ff14610296578063eb4af04514610275578063edd3a54714610226578063f1887684146102085763f67bffe1146101d757600080fd5b346102035760203660031901126102035760043560005260056020526020604060002054604051908152f35b600080fd5b34610203576000366003190112610203576020600a54604051908152f35b34610203576040366003190112610203576024358015158103610203576102739061024f612656565b600435600052600360205260056040600020019060ff801983541691151516179055565b005b346102035760203660031901126102035761028e612656565b600435600a55005b346102035760c03660031901126102035767ffffffffffffffff602435818111610203576102c89036906004016123cc565b604435926001600160a01b03908185168503610203576102e6612656565b600435600052600360205281600160406000200154166105f957818516156105b457600360a43510610560576103e86084351161050957600435600052600360205260406000209083116104355761033e81546123fa565b601f81116104c1575b50826000601f82116001146104565791600a9160019360009161044b575b50600019600387901b1c191685841b1781555b8281018488166001600160601b0360a01b825416179055600581018360ff198254161790556064356006820155608435600782015560a43560088201550155600754600160401b811015610435577f3f429a36b3c320d2d7f916fd0d9f3e5d4c37fb6f4e955cb780924e6a89e83fbc936103fb8260016104249401600755612351565b81549060031b90600435821b91600019901b1916179055604051936040855260408501916125d1565b9316602082015280600435930390a2005b634e487b7160e01b600052604160045260246000fd5b905086013588610365565b60008381526020812092505b601f19861681106104a9575091600a9160019386601f1981161061048f575b50508285811b018155610378565b870135600019600388901b60f8161c191690558780610481565b9091602060018192858a013581550193019101610462565b816000526020600020601f850160051c810191602086106104ff575b601f0160051c01905b8181106104f35750610347565b600081556001016104e6565b90915081906104dd565b60405162461bcd60e51b815260206004820152602960248201527f50726963654f7261636c653a20646576696174696f6e207468726573686f6c64604482015268040e8dede40d0d2ced60bb1b6064820152608490fd5b60405162461bcd60e51b815260206004820152602660248201527f50726963654f7261636c653a20696e73756666696369656e74206f7261636c656044820152650818dbdd5b9d60d21b6064820152608490fd5b60405162461bcd60e51b815260206004820152601a60248201527f50726963654f7261636c653a20696e76616c69642061737365740000000000006044820152606490fd5b606460405162461bcd60e51b815260206004820152602060248201527f50726963654f7261636c653a206665656420616c7265616479206578697374736044820152fd5b346102035760403660031901126102035761027360043561065c6123b6565b90806000526000602052610677600160406000200154612845565b612950565b34610203576020366003190112610203576004356000526005602052608060406000208054906001810154906003600282015491015491604051938452602084015260408301526060820152f35b3461020357602036600319011261020357600435600052600360205261074960406000206106f78161248f565b9060018060a01b03600182015416906002810154906003810154600482015460ff600584015416600684015491600785015493600a6008870154960154966040519a8b9a610140808d528c019061232c565b9860208b015260408a015260608901526080880152151560a087015260c086015260e08501526101008401526101208301520390f35b346102035760003660031901126102035760206040517f21702c8af46127c7fa207f89d0b0a8441bb32959a0ac7df790e9ab1a25c989268152f35b34610203576020366003190112610203576107d36123a0565b604051906107e082612434565b6000825260006020830152600060408301526000606083015260006080830152600060a0830152600060c0830152600060e0830152606061010083015260606101208093015260018060a01b0316600052600460205260406000206108bd60086040519261084d84612434565b80546001600160a01b038116855260a090811c60ff1615156020860152600182015460408601526002820154606086015260038201546080860152600482015490850152600581015460c0850152600681015460e08501526108b16007820161248f565b61010085015201612605565b828201526040519182916020835260018060a01b0381511660208401526020810151151560408401526040810151606084015260608101516080840152608081015160a084015260a081015160c084015260c081015160e084015260e08101516101008401526101008101519161094161014093848387015261016086019061232c565b91015191601f1984830301908401526020808351928381520192019060005b81811061096e575050500390f35b8251845285945060209384019390920191600101610960565b3461020357606036600319011261020357602460043567ffffffffffffffff8235818111610203576109bd9036906004016123cc565b9093604435918383116102035736602384011215610203578260040135908482116102035736838360051b86010111610203576002805414610e555760028055610a0b600a54871015612551565b60156008541015610e1157336000526020946004865260018060a01b038060406000205416610dcd5786600091600954166064604051809481936323b872dd60e01b8352336004840152308b8401528d60448401525af18015610dc157610d94575b50336000526006865286604060002055600486526040600020918254600160a01b9060ff60a01b193316906affffffffffffffffffffff60a81b16171783556001986103e88a85015588600485015560078401928211610d7f57610ad183546123fa565b601f8111610d36575b50600090601f8311600114610ccc5760089493929160009183610cc1575b5050600019600383901b1c1916908a1b1790555b01600160401b93848311610cac5783908254848455808510610c7f575b500190600052846000208760005b848110610c6d57505050505060085491821015610c595784820180600855821015610c455750907f27e42c8c186bae4ba00900be68f86e7115c0845941300729a6bf8e65f4eddbaf917ff3f7a9fe364faab93b216da50a3214154f22a0a2b415b23a84c8169e8b636ee301336001600160601b0360a01b8254161790556000805160206130d98339815191528060005260008252604060002033600052825260ff6040600020541615610bf4575b506040519283523392a2600255005b8060005260008252604060002033600052825260406000208560ff19825416179055339033907f2f8788117e7eff1d82e926ec794901d17c78024a50270940304540a733656f0d600080a484610be5565b634e487b7160e01b60009081526032600452fd5b634e487b7160e01b60009081526041600452fd5b87843594019381840155018890610b37565b8360005289858960002092830192015b828110610c9d575050610b29565b600081558794508b9101610c8f565b83634e487b7160e01b60005260416004526000fd5b013590508b80610af8565b918a91949392601f19821690846000528a6000209160005b8c828210610d20575050968360089810610d06575b505050811b019055610b0c565b0135600019600384901b60f8161c191690558b8080610cf9565b838a01358555988901988f969094019301610ce4565b8360005288600020601f840160051c8101918a8510610d75575b601f0160051c01908b905b828110610d69575050610ada565b60008155018b90610d5b565b9091508190610d50565b85634e487b7160e01b60005260416004526000fd5b610db390873d8911610dba575b610dab818361246d565b8101906125b9565b5088610a6d565b503d610da1565b6040513d6000823e3d90fd5b60405162461bcd60e51b815260048101889052601f818701527f50726963654f7261636c653a20616c72656164792072656769737465726564006044820152606490fd5b60405162461bcd60e51b8152602060048201819052818501527f50726963654f7261636c653a206d6178206f7261636c657320726561636865646044820152606490fd5b60405162461bcd60e51b815260206004820152601f818501527f5265656e7472616e637947756172643a207265656e7472616e742063616c6c006044820152606490fd5b3461020357600036600319011261020357602060405160158152f35b346102035760203660031901126102035760043560075481101561020357610ede602091612351565b90546040519160031b1c8152f35b346102035760203660031901126102035760043560005260036020526040806000206003600282015491015482519182526020820152f35b346102035760003660031901126102035760206040516101f48152f35b3461020357600036600319011261020357602060405160038152f35b34610203576000366003190112610203576020604051670de0b6b3a76400008152f35b3461020357600036600319011261020357602060405160008152f35b3461020357604036600319011261020357610fb56123b6565b600435600052600060205260406000209060018060a01b0316600052602052602060ff604060002054166040519015158152f35b3461020357600036600319011261020357611002612656565b61100a6129c4565b600160ff19815416176001557f62e78cea01bee320cd4e420270b5ea74000d11b0c9f74754ebdbfc544b05a2586020604051338152a1005b346102035760003660031901126102035760206040517fa49807205ce4d355092ef5a8a18f56e8913cf4a201fbe287825b095693c217758152f35b34610203576000366003190112610203576009546040516001600160a01b039091168152602090f35b612534565b3461020357600036600319011261020357600b546040516001600160a01b039091168152602090f35b3461020357600036600319011261020357602060ff600154166040519015158152f35b3461020357604036600319011261020357600435600052600360205260096040600020016024356000526020526080604060002060018101549060028101549060ff6005600383015492015416916040519384526020840152604083015215156060820152f35b34610203576060366003190112610203573360009081527fa629f6981c2f6895a67dc766e8e03ff72d04a413d0d8773a3ca56e9e474032c160205260409020546000805160206130d98339815191529060ff161561187b576111be6129c4565b600435600052600360205260ff600560406000200154161561183657602435156117f15742604435116117ac57610e106111fa6044354261259d565b11611767576004356000526003602052604060002033600052600460205260406000209061122a60043533612a1c565b1561172257600a810154918260005260098201602052604060002090815415611714575b33600052600682016020526002604060002001546116cf5761127584602435600435612a95565b9060405180608081011067ffffffffffffffff6080830111176104355780608061130e920160405233815260243560208201526003604082016044358152606083019086151582523360005260068801602052602060406000209460018060a01b038151166001600160601b0360a01b8754161786550151600185015551600284015551151591019060ff801983541691151516179055565b600783015491600160401b83101561043557611337836001809501600787015560078601612388565b81549060031b9033821b91868060a01b03901b1916179055806003850161135e81546125aa565b90556116ba575b6002820161137381546125aa565b905542600583015515611683576003810161138e81546125aa565b905501805490916107d0808310156116775750600a820180921161166157600892600492905b555b604051602435815285602082015233907f33d4109c9d51b33dd7cbeafdf370dc091648a044d0bd8038be094d71464891fa6040853592a3015491015411156113fa57005b600435600052600360205260406000209080600052600982016020526040600020600581019260ff8454166116105760048201546008820154116115b757600193600a9261144a85600435612dcd565b9586918260028601554260038601558660048601550155600160ff198254161790550161147781546125aa565b905560043560005260056020526040600020600181018054611499814261259d565b816115335750508382554290556114b042846125f2565b6002820155610e1060038201555b6003815491015460405191825260208201527f059168943390aabd0d812a454ad76b2fe62c526789515b24f96ceca1b7093ad9604060043592a260405191825260208201524260408201527f1c278fa9790ee5cfae7607a35202b57ef06960df9fe79baca5d617e2db126d6f606060043592a2005b61153e8185546125f2565b9161154e60028601938454612b5d565b908184556003860154908184101561156c575b5050505050506114be565b61158f6115959261158a8661158461159b9886612b5d565b94612b5d565b61259d565b9061259d565b90612a75565b83556115a742866125f2565b9055429055838080808080611561565b60405162461bcd60e51b815260206004820152602b60248201527f50726963654f7261636c653a20696e73756666696369656e742076616c69642060448201526a7375626d697373696f6e7360a81b6064820152608490fd5b60405162461bcd60e51b8152602060048201526024808201527f50726963654f7261636c653a20726f756e6420616c72656164792066696e616c6044820152631a5e995960e21b6064820152608490fd5b634e487b7160e01b600052601160045260246000fd5b600893600493506113b4565b0180549091600a8211156116ab57601319820191821161166157600892600492905b556113b6565b600491506008926000906116a5565b600484016116c881546125aa565b9055611365565b60405162461bcd60e51b815260206004820152601e60248201527f50726963654f7261636c653a20616c7265616479207375626d697474656400006044820152606490fd5b83825542600283015561124e565b60405162461bcd60e51b815260206004820152601f60248201527f50726963654f7261636c653a2066656564206e6f7420737570706f72746564006044820152606490fd5b60405162461bcd60e51b815260206004820152601760248201527f50726963654f7261636c653a207374616c6520646174610000000000000000006044820152606490fd5b60405162461bcd60e51b815260206004820152601d60248201527f50726963654f7261636c653a206675747572652074696d657374616d700000006044820152606490fd5b60405162461bcd60e51b815260206004820152601a60248201527f50726963654f7261636c653a20696e76616c69642070726963650000000000006044820152606490fd5b60405162461bcd60e51b815260206004820152601c60248201527f50726963654f7261636c653a2066656564206e6f7420616374697665000000006044820152606490fd5b61188433612edf565b6040519161189183612451565b60428352602083019060603683378351156119fb57603082538351600190600110156119fb57607860218601536041905b8082116119b75750506119735760486119409261194f9261196f9560405195869376020b1b1b2b9b9a1b7b73a3937b61d1030b1b1b7bab73a1604d1b6020860152611917815180926020603789019101612309565b8401917001034b99036b4b9b9b4b733903937b6329607d1b603784015251809386840190612309565b0103602881018452018261246d565b60405162461bcd60e51b815260206004820152918291602483019061232c565b0390fd5b606460405162461bcd60e51b815260206004820152602060248201527f537472696e67733a20686578206c656e67746820696e73756666696369656e746044820152fd5b9091600f811660108110156119fb576f181899199a1a9b1b9c1cb0b131b232b360811b901a6119e68488612ece565b5360041c9180156116615760001901906118c2565b634e487b7160e01b600052603260045260246000fd5b3461020357600036600319011261020357611a2a612656565b60015460ff811615611a695760ff19166001557f5db9ee0a495bf2e6ff9c91a7834c1ba4fdd244a5e8aa4e537bd38aeae4b073aa6020604051338152a1005b60405162461bcd60e51b815260206004820152601460248201527314185d5cd8589b194e881b9bdd081c185d5cd95960621b6044820152606490fd5b3461020357600036600319011261020357602060405168056bc75e2d631000008152f35b3461020357604036600319011261020357611ae26123b6565b336001600160a01b03821603611afe5761027390600435612950565b60405162461bcd60e51b815260206004820152602f60248201527f416363657373436f6e74726f6c3a2063616e206f6e6c792072656e6f756e636560448201526e103937b632b9903337b91039b2b63360891b6064820152608490fd5b3461020357604036600319011261020357600435611b776123b6565b816000526000602052611b91600160406000200154612845565b81600052600060205260406000209060018060a01b0316908160005260205260ff6040600020541615611bc057005b8160005260006020526040600020816000526020526040600020600160ff1982541617905533917f2f8788117e7eff1d82e926ec794901d17c78024a50270940304540a733656f0d600080a4005b346102035760203660031901126102035760ff6001600160a01b0380611c326123a0565b166000526004602052611cba604060002080549260018201549160028101546003820154600483015490600584015492611c7360076006870154960161248f565b966040519a8b9a6101209881168c5260a01c16151560208b015260408a01526060890152608088015260a087015260c086015260e08501528061010085015283019061232c565b0390f35b346102035760203660031901126102035760043560005260006020526020600160406000200154604051908152f35b3461020357604036600319011261020357611d066123a0565b602490813567ffffffffffffffff811161020357611d289036906004016123cc565b90917f21702c8af46127c7fa207f89d0b0a8441bb32959a0ac7df790e9ab1a25c98926908160005260209160008352604060002033600052835260ff6040600020541615611fe9575060018060a01b0380911693846000526004835260406000209360ff855460a01c1615611fa557600485019485549568056bc75e2d6310000094611db686891015612551565b68056bc75e2d630fffff1997808901908111611f905782556006830197611ddd89546125aa565b89556001840180546064811115611f87576063198101908111611f7257905b55896000526006885260406000208054918201918211611f5d5788999a9b9192889993604492556000816009541691600b5416916040519a8b95869463a9059cbb60e01b865260048601528401525af18015610dc1577fda4247d88dd9a845536e72b0c02526ceb5db850882b8cc9fd14673b70eaca30d98611ea996600392611f40575b50541090811591611f33575b50611eae575b5060408051958695865285015260408401916125d1565b0390a2005b805460ff60a01b191690556000805160206130d9833981519152600081815280875260408082208a8352885290205460ff1615611e925780600052600086526040600020886000528652604060002060ff1981541690558733917ff6391f5c32d9c69d2a47ea670b442974b53935d1edc7fd64eb21e047a839171b600080a487611e92565b905054600a541189611e8c565b611f56908a3d8c11610dba57610dab818361246d565b508b611e80565b8b634e487b7160e01b60005260116004526000fd5b8c634e487b7160e01b60005260116004526000fd5b50600090611dfc565b8a634e487b7160e01b60005260116004526000fd5b60405162461bcd60e51b815260048101859052601e818901527f50726963654f7261636c653a206f7261636c65206e6f742061637469766500006044820152606490fd5b828691611ff533612edf565b9060405161200281612451565b60428152838101916060368437815115612166576030835381516001906001101561215157607860218401536041905b8082116120e35750506120a157604861196f93611940936120859360405195869376020b1b1b2b9b9a1b7b73a3937b61d1030b1b1b7bab73a1604d1b8a860152611917815180928c603789019101612309565b60405193849362461bcd60e51b8552600485015283019061232c565b606485856040519162461bcd60e51b83528160048401528201527f537472696e67733a20686578206c656e67746820696e73756666696369656e746044820152fd5b9091600f8116601081101561213c576f181899199a1a9b1b9c1cb0b131b232b360811b901a6121128486612ece565b5360041c918015612127576000190190612032565b87634e487b7160e01b60005260116004526000fd5b88634e487b7160e01b60005260326004526000fd5b86634e487b7160e01b60005260326004526000fd5b85634e487b7160e01b60005260326004526000fd5b34610203576020366003190112610203576001600160a01b0361219c6123a0565b1660005260066020526020604060002054604051908152f35b34610203576020366003190112610203576004356008548110156102035760086000527ff3f7a9fe364faab93b216da50a3214154f22a0a2b415b23a84c8169e8b636ee301546040516001600160a01b039091168152602090f35b346102035760003660031901126102035760206040516000805160206130d98339815191528152f35b3461020357602036600319011261020357600435600052600360205261229b604060002060018060a01b03600182015416600282015491600381015461228660ff6005840154169261248f565b9360405195869560a0875260a087019061232c565b93602086015260408501526060840152151560808301520390f35b34610203576020366003190112610203576004359063ffffffff60e01b821680920361020357602091637965db0b60e01b81149081156122f8575b5015158152f35b6301ffc9a760e01b149050836122f1565b60005b83811061231c5750506000910152565b818101518382015260200161230c565b9060209161234581518092818552858086019101612309565b601f01601f1916010190565b6007548110156119fb5760076000527fa66cc928b5edb82af9bd49922954155ab7b0942694bea4ce44661d9a8736c6880190600090565b80548210156119fb5760005260206000200190600090565b600435906001600160a01b038216820361020357565b602435906001600160a01b038216820361020357565b9181601f840112156102035782359167ffffffffffffffff8311610203576020838186019501011161020357565b90600182811c9216801561242a575b602083101461241457565b634e487b7160e01b600052602260045260246000fd5b91607f1691612409565b610140810190811067ffffffffffffffff82111761043557604052565b6080810190811067ffffffffffffffff82111761043557604052565b90601f8019910116810190811067ffffffffffffffff82111761043557604052565b906040519182600082546124a2816123fa565b9081845260209460019160018116908160001461251257506001146124d3575b5050506124d19250038361246d565b565b600090815285812095935091905b8183106124fa5750506124d193508201013880806124c2565b855488840185015294850194879450918301916124e1565b925050506124d194925060ff191682840152151560051b8201013880806124c2565b34610203576000366003190112610203576020604051610e108152f35b1561255857565b60405162461bcd60e51b815260206004820152601f60248201527f50726963654f7261636c653a20696e73756666696369656e74207374616b65006044820152606490fd5b9190820391821161166157565b60001981146116615760010190565b90816020910312610203575180151581036102035790565b908060209392818452848401376000828201840152601f01601f1916010190565b8181029291811591840414171561166157565b90604051918281549182825260209260208301916000526020600020936000905b82821061263c575050506124d19250038361246d565b855484526001958601958895509381019390910190612626565b3360009081527f7d7ffb7a348e1c6a02869081a26547b49160dd3df72d1d75a570eb9b698292ec602090815260408083205490927fa49807205ce4d355092ef5a8a18f56e8913cf4a201fbe287825b095693c217759160ff16156126ba5750505050565b6126c333612edf565b918451906126d082612451565b604282528482019260603685378251156128315760308453825190600191600110156128315790607860218501536041915b8183116127c35750505061278157604861196f93869361276593612756985198899376020b1b1b2b9b9a1b7b73a3937b61d1030b1b1b7bab73a1604d1b8a860152611917815180928c603789019101612309565b0103602881018752018561246d565b5192839262461bcd60e51b84526004840152602483019061232c565b60648486519062461bcd60e51b825280600483015260248201527f537472696e67733a20686578206c656e67746820696e73756666696369656e746044820152fd5b909192600f8116601081101561281d576f181899199a1a9b1b9c1cb0b131b232b360811b901a6127f38587612ece565b5360041c92801561280957600019019190612702565b634e487b7160e01b82526011600452602482fd5b634e487b7160e01b83526032600452602483fd5b634e487b7160e01b81526032600452602490fd5b600090808252602090828252604092838120338252835260ff84822054161561286e5750505050565b61287733612edf565b9184519061288482612451565b604282528482019260603685378251156128315760308453825190600191600110156128315790607860218501536041915b81831161290a5750505061278157604861196f93869361276593612756985198899376020b1b1b2b9b9a1b7b73a3937b61d1030b1b1b7bab73a1604d1b8a860152611917815180928c603789019101612309565b909192600f8116601081101561281d576f181899199a1a9b1b9c1cb0b131b232b360811b901a61293a8587612ece565b5360041c928015612809576000190191906128b6565b9060009180835282602052604083209160018060a01b03169182845260205260ff60408420541661298057505050565b80835282602052604083208284526020526040832060ff1981541690557ff6391f5c32d9c69d2a47ea670b442974b53935d1edc7fd64eb21e047a839171b339380a4565b60ff600154166129d057565b60405162461bcd60e51b815260206004820152601060248201526f14185d5cd8589b194e881c185d5cd95960821b6044820152606490fd5b80518210156119fb5760209160051b010190565b6001600160a01b03166000908152600460205260409020612a3f90600801612605565b9060005b8251811015612a6d5781612a578285612a08565b5114612a6557600101612a43565b505050600190565b505050600090565b8115612a7f570490565b634e487b7160e01b600052601260045260246000fd5b9190600091838352600360205260096040842001818452602052600460408420015415612b5457612ac69084612bb4565b908180821115612b2157612ad99161259d565b61271090818102918183041490151715612b0d5791612afc604092600794612a75565b935b81526003602052200154101590565b634e487b7160e01b83526011600452602483fd5b90612b2b9161259d565b61271090818102918183041490151715612b0d5791612b4e604092600794612a75565b93612afe565b50505050600190565b9190820180921161166157565b67ffffffffffffffff81116104355760051b60200190565b90612b8c82612b6a565b612b99604051918261246d565b8281528092612baa601f1991612b6a565b0190602036910137565b9190916000908152600392602092600360205260409160096040852001908452602052604083209360049560048601548015612dc257612bf690969296612b82565b938596869060078501600681549601925b868110612d6a575050505050505082905b60001990858201868111612d5757831015612ce457845b612c39848861259d565b838101908111612cd157811015612cc457612c548186612a08565b516001820190818311612cb1579060019291612c708289612a08565b5110612c7e575b5001612c2f565b612c888188612a08565b5190612c9f612c97848a612a08565b519189612a08565b52612caa8288612a08565b5238612c77565b634e487b7160e01b885260118a52602488fd5b5091600191500190612c18565b634e487b7160e01b875260118952602487fd5b955050509190600180831614600014612d0a575090612d069160011c90612a08565b5190565b9060011c90600019820190828211612d4357508291612d2f612d3692612d3d95612a08565b5192612a08565b5190612b5d565b60011c90565b634e487b7160e01b81526011600452602490fd5b634e487b7160e01b865260118852602486fd5b612d748183612388565b905490871b1c6001600160a01b03168a52838352848a208087015460ff16612da0575b50600101612c07565b6001919b82612dbb920154612db5828d612a08565b526125aa565b9a90612d97565b505050935050905090565b60009081526003906020916003602052604093600960408420019083526020526040822090612dff6004830154612b82565b948394849060078501600681549601925b868110612e7457505050505050506000199081830183811161280957612e37908286612fda565b600183811603612e5157505090612d069160011c90612a08565b909160011c91820190828211612d4357508291612d2f612d3692612d3d95612a08565b612e7e8183612388565b905490871b1c6001600160a01b03168852838352848820808701548b919060ff16612eae575b5050600101612e10565b99612ec491612db582600180969e015492612a08565b9890508938612ea4565b9081518110156119fb570160200190565b604051906060820182811067ffffffffffffffff82111761043557604052602a82526020820160403682378251156119fb57603090538151600190600110156119fb57607860218401536029905b808211612f3d5750506119735790565b9091600f81166010811015612f96576f181899199a1a9b1b9c1cb0b131b232b360811b901a612f6c8486612ece565b5360041c918015612f81576000190190612f2d565b60246000634e487b7160e01b81526011600452fd5b60246000634e487b7160e01b81526032600452fd5b90600019820191821360011661166157565b906001820191600060018412911290801582169115161761166157565b919091818312612fe957505050565b612ff38282612a08565b51612ffd84612fab565b90845b8481126130755750506130526130639161301a8585612a08565b5161304c61303061302a84612fbd565b87612a08565b5161303a84612fbd565b906130458989612a08565b5286612a08565b52612fbd565b9361305c85612fab565b9083612fda565b61306f6124d193612fbd565b90612fda565b816130808286612a08565b511115613090575b600101613000565b916001600160ff1b038114612f81576001809101926130af8186612a08565b516130ba8587612a08565b516130c58388612a08565b526130d08587612a08565b52905061308856fe68e79a7bf1e0bc45d0a330c573bc367f9cf464fd326078812f301165fbda4ef1a2646970667358221220a593fcb9b537d9d1ca68c6e925b7bc6148b0a8477ef433e047477042b609519264736f6c634300081800332f8788117e7eff1d82e926ec794901d17c78024a50270940304540a733656f0d",
  "linkReferences": {},
  "deployedLinkReferences": {}
}