{
  "_format": "hh-sol-artifact-1",
  "contractName": "PrivacyPool",
  "sourceName": "contracts/solidity/privacy/PrivacyPool.sol",
  "abi": [
    {
      "inputs": [
        {
          "internalType": "address",
          "name": "_verifier",
          "type": "address"
        },
        {
          "internalType": "address",
          "name": "_treasury",
          "type": "address"
        }
      ],
      "stateMutability": "nonpayable",
      "type": "constructor"
    },
    {
      "anonymous": false,
      "inputs": [
        {
          "indexed": true,
          "internalType": "uint256",
          "name": "id",
          "type": "uint256"
        },
        {
          "indexed": false,
          "internalType": "uint256",
          "name": "amount",
          "type": "uint256"
        },
        {
          "indexed": false,
          "internalType": "address",
          "name": "token",
          "type": "address"
        }
      ],
      "name": "DenominationAdded",
      "type": "event"
    },
    {
      "anonymous": false,
      "inputs": [
        {
          "indexed": true,
          "internalType": "bytes32",
          "name": "commitment",
          "type": "bytes32"
        },
        {
          "indexed": true,
          "internalType": "uint256",
          "name": "denominationId",
          "type": "uint256"
        },
        {
          "indexed": false,
          "internalType": "uint32",
          "name": "leafIndex",
          "type": "uint32"
        }
      ],
      "name": "Deposit",
      "type": "event"
    },
    {
      "anonymous": false,
      "inputs": [
        {
          "indexed": false,
          "internalType": "bytes32",
          "name": "newRoot",
          "type": "bytes32"
        },
        {
          "indexed": false,
          "internalType": "uint32",
          "name": "leafIndex",
          "type": "uint32"
        }
      ],
      "name": "MerkleRootUpdated",
      "type": "event"
    },
    {
      "anonymous": false,
      "inputs": [
        {
          "indexed": false,
          "internalType": "address",
          "name": "account",
          "type": "address"
        }
      ],
      "name": "Paused",
      "type": "event"
    },
    {
      "anonymous": false,
      "inputs": [
        {
          "indexed": true,
          "internalType": "address",
          "name": "relayer",
          "type": "address"
        },
        {
          "indexed": false,
          "internalType": "uint256",
          "name": "fee",
          "type": "uint256"
        }
      ],
      "name": "RelayerRegistered",
      "type": "event"
    },
    {
      "anonymous": false,
      "inputs": [
        {
          "indexed": true,
          "internalType": "address",
          "name": "relayer",
          "type": "address"
        },
        {
          "indexed": false,
          "internalType": "uint256",
          "name": "fee",
          "type": "uint256"
        },
        {
          "indexed": false,
          "internalType": "bool",
          "name": "isActive",
          "type": "bool"
        }
      ],
      "name": "RelayerUpdated",
      "type": "event"
    },
    {
      "anonymous": false,
      "inputs": [
        {
          "indexed": true,
          "internalType": "bytes32",
          "name": "role",
          "type": "bytes32"
        },
        {
          "indexed": true,
          "internalType": "bytes32",
          "name": "previousAdminRole",
          "type": "bytes32"
        },
        {
          "indexed": true,
          "internalType": "bytes32",
          "name": "newAdminRole",
          "type": "bytes32"
        }
      ],
      "name": "RoleAdminChanged",
      "type": "event"
    },
    {
      "anonymous": false,
      "inputs": [
        {
          "indexed": true,
          "internalType": "bytes32",
          "name": "role",
          "type": "bytes32"
        },
        {
          "indexed": true,
          "internalType": "address",
          "name": "account",
          "type": "address"
        },
        {
          "indexed": true,
          "internalType": "address",
          "name": "sender",
          "type": "address"
        }
      ],
      "name": "RoleGranted",
      "type": "event"
    },
    {
      "anonymous": false,
      "inputs": [
        {
          "indexed": true,
          "internalType": "bytes32",
          "name": "role",
          "type": "bytes32"
        },
        {
          "indexed": true,
          "internalType": "address",
          "name": "account",
          "type": "address"
        },
        {
          "indexed": true,
          "internalType": "address",
          "name": "sender",
          "type": "address"
        }
      ],
      "name": "RoleRevoked",
      "type": "event"
    },
    {
      "anonymous": false,
      "inputs": [
        {
          "indexed": false,
          "internalType": "address",
          "name": "account",
          "type": "address"
        }
      ],
      "name": "Unpaused",
      "type": "event"
    },
    {
      "anonymous": false,
      "inputs": [
        {
          "indexed": true,
          "internalType": "address",
          "name": "recipient",
          "type": "address"
        },
        {
          "indexed": true,
          "internalType": "bytes32",
          "name": "nullifierHash",
          "type": "bytes32"
        },
        {
          "indexed": true,
          "internalType": "address",
          "name": "relayer",
          "type": "address"
        },
        {
          "indexed": false,
          "internalType": "uint256",
          "name": "fee",
          "type": "uint256"
        },
        {
          "indexed": false,
          "internalType": "uint256",
          "name": "denominationId",
          "type": "uint256"
        }
      ],
      "name": "Withdrawal",
      "type": "event"
    },
    {
      "inputs": [],
      "name": "ADMIN_ROLE",
      "outputs": [
        {
          "internalType": "bytes32",
          "name": "",
          "type": "bytes32"
        }
      ],
      "stateMutability": "view",
      "type": "function"
    },
    {
      "inputs": [],
      "name": "ANONYMITY_SET_SIZE",
      "outputs": [
        {
          "internalType": "uint256",
          "name": "",
          "type": "uint256"
        }
      ],
      "stateMutability": "view",
      "type": "function"
    },
    {
      "inputs": [],
      "name": "DEFAULT_ADMIN_ROLE",
      "outputs": [
        {
          "internalType": "bytes32",
          "name": "",
          "type": "bytes32"
        }
      ],
      "stateMutability": "view",
      "type": "function"
    },
    {
      "inputs": [],
      "name": "FIELD_SIZE",
      "outputs": [
        {
          "internalType": "uint256",
          "name": "",
          "type": "uint256"
        }
      ],
      "stateMutability": "view",
      "type": "function"
    },
    {
      "inputs": [],
      "name": "MERKLE_TREE_HEIGHT",
      "outputs": [
        {
          "internalType": "uint256",
          "name": "",
          "type": "uint256"
        }
      ],
      "stateMutability": "view",
      "type": "function"
    },
    {
      "inputs": [],
      "name": "OPERATOR_ROLE",
      "outputs": [
        {
          "internalType": "bytes32",
          "name": "",
          "type": "bytes32"
        }
      ],
      "stateMutability": "view",
      "type": "function"
    },
    {
      "inputs": [],
      "name": "RELAYER_ROLE",
      "outputs": [
        {
          "internalType": "bytes32",
          "name": "",
          "type": "bytes32"
        }
      ],
      "stateMutability": "view",
      "type": "function"
    },
    {
      "inputs": [
        {
          "internalType": "uint256",
          "name": "_amount",
          "type": "uint256"
        },
        {
          "internalType": "address",
          "name": "_token",
          "type": "address"
        }
      ],
      "name": "addDenomination",
      "outputs": [],
      "stateMutability": "nonpayable",
      "type": "function"
    },
    {
      "inputs": [
        {
          "internalType": "uint256",
          "name": "",
          "type": "uint256"
        }
      ],
      "name": "commitmentHistory",
      "outputs": [
        {
          "internalType": "bytes32",
          "name": "",
          "type": "bytes32"
        }
      ],
      "stateMutability": "view",
      "type": "function"
    },
    {
      "inputs": [
        {
          "internalType": "bytes32",
          "name": "",
          "type": "bytes32"
        }
      ],
      "name": "commitments",
      "outputs": [
        {
          "internalType": "bool",
          "name": "",
          "type": "bool"
        }
      ],
      "stateMutability": "view",
      "type": "function"
    },
    {
      "inputs": [],
      "name": "currentMerkleRoot",
      "outputs": [
        {
          "internalType": "bytes32",
          "name": "",
          "type": "bytes32"
        }
      ],
      "stateMutability": "view",
      "type": "function"
    },
    {
      "inputs": [
        {
          "internalType": "uint256",
          "name": "",
          "type": "uint256"
        }
      ],
      "name": "denominationIds",
      "outputs": [
        {
          "internalType": "uint256",
          "name": "",
          "type": "uint256"
        }
      ],
      "stateMutability": "view",
      "type": "function"
    },
    {
      "inputs": [
        {
          "internalType": "uint256",
          "name": "",
          "type": "uint256"
        }
      ],
      "name": "denominations",
      "outputs": [
        {
          "internalType": "uint256",
          "name": "amount",
          "type": "uint256"
        },
        {
          "internalType": "contract IERC20",
          "name": "token",
          "type": "address"
        },
        {
          "internalType": "bool",
          "name": "isActive",
          "type": "bool"
        },
        {
          "internalType": "uint256",
          "name": "depositCount",
          "type": "uint256"
        },
        {
          "internalType": "uint256",
          "name": "withdrawalCount",
          "type": "uint256"
        },
        {
          "internalType": "uint256",
          "name": "totalVolume",
          "type": "uint256"
        }
      ],
      "stateMutability": "view",
      "type": "function"
    },
    {
      "inputs": [
        {
          "internalType": "bytes32",
          "name": "_commitment",
          "type": "bytes32"
        },
        {
          "internalType": "uint256",
          "name": "_denominationId",
          "type": "uint256"
        }
      ],
      "name": "deposit",
      "outputs": [],
      "stateMutability": "nonpayable",
      "type": "function"
    },
    {
      "inputs": [
        {
          "internalType": "uint256",
          "name": "_denominationId",
          "type": "uint256"
        },
        {
          "internalType": "uint256",
          "name": "_amount",
          "type": "uint256"
        }
      ],
      "name": "emergencyWithdraw",
      "outputs": [],
      "stateMutability": "nonpayable",
      "type": "function"
    },
    {
      "inputs": [],
      "name": "getCommitmentHistory",
      "outputs": [
        {
          "internalType": "bytes32[]",
          "name": "",
          "type": "bytes32[]"
        }
      ],
      "stateMutability": "view",
      "type": "function"
    },
    {
      "inputs": [
        {
          "internalType": "uint256",
          "name": "_id",
          "type": "uint256"
        }
      ],
      "name": "getDenomination",
      "outputs": [
        {
          "components": [
            {
              "internalType": "uint256",
              "name": "amount",
              "type": "uint256"
            },
            {
              "internalType": "contract IERC20",
              "name": "token",
              "type": "address"
            },
            {
              "internalType": "bool",
              "name": "isActive",
              "type": "bool"
            },
            {
              "internalType": "uint256",
              "name": "depositCount",
              "type": "uint256"
            },
            {
              "internalType": "uint256",
              "name": "withdrawalCount",
              "type": "uint256"
            },
            {
              "internalType": "uint256",
              "name": "totalVolume",
              "type": "uint256"
            }
          ],
          "internalType": "struct PrivacyPool.Denomination",
          "name": "",
          "type": "tuple"
        }
      ],
      "stateMutability": "view",
      "type": "function"
    },
    {
      "inputs": [],
      "name": "getDenominationCount",
      "outputs": [
        {
          "internalType": "uint256",
          "name": "",
          "type": "uint256"
        }
      ],
      "stateMutability": "view",
      "type": "function"
    },
    {
      "inputs": [],
      "name": "getMerkleRoot",
      "outputs": [
        {
          "internalType": "bytes32",
          "name": "",
          "type": "bytes32"
        }
      ],
      "stateMutability": "view",
      "type": "function"
    },
    {
      "inputs": [
        {
          "internalType": "address",
          "name": "_relayer",
          "type": "address"
        }
      ],
      "name": "getRelayerInfo",
      "outputs": [
        {
          "components": [
            {
              "internalType": "bool",
              "name": "isActive",
              "type": "bool"
            },
            {
              "internalType": "uint256",
              "name": "fee",
              "type": "uint256"
            },
            {
              "internalType": "address payable",
              "name": "feeRecipient",
              "type": "address"
            },
            {
              "internalType": "uint256",
              "name": "totalRelayed",
              "type": "uint256"
            },
            {
              "internalType": "string",
              "name": "endpoint",
              "type": "string"
            }
          ],
          "internalType": "struct PrivacyPool.RelayerInfo",
          "name": "",
          "type": "tuple"
        }
      ],
      "stateMutability": "view",
      "type": "function"
    },
    {
      "inputs": [
        {
          "internalType": "bytes32",
          "name": "role",
          "type": "bytes32"
        }
      ],
      "name": "getRoleAdmin",
      "outputs": [
        {
          "internalType": "bytes32",
          "name": "",
          "type": "bytes32"
        }
      ],
      "stateMutability": "view",
      "type": "function"
    },
    {
      "inputs": [
        {
          "internalType": "bytes32",
          "name": "role",
          "type": "bytes32"
        },
        {
          "internalType": "address",
          "name": "account",
          "type": "address"
        }
      ],
      "name": "grantRole",
      "outputs": [],
      "stateMutability": "nonpayable",
      "type": "function"
    },
    {
      "inputs": [
        {
          "internalType": "bytes32",
          "name": "role",
          "type": "bytes32"
        },
        {
          "internalType": "address",
          "name": "account",
          "type": "address"
        }
      ],
      "name": "hasRole",
      "outputs": [
        {
          "internalType": "bool",
          "name": "",
          "type": "bool"
        }
      ],
      "stateMutability": "view",
      "type": "function"
    },
    {
      "inputs": [
        {
          "internalType": "bytes32",
          "name": "_commitment",
          "type": "bytes32"
        }
      ],
      "name": "isCommitmentUsed",
      "outputs": [
        {
          "internalType": "bool",
          "name": "",
          "type": "bool"
        }
      ],
      "stateMutability": "view",
      "type": "function"
    },
    {
      "inputs": [
        {
          "internalType": "bytes32",
          "name": "_nullifierHash",
          "type": "bytes32"
        }
      ],
      "name": "isNullifierUsed",
      "outputs": [
        {
          "internalType": "bool",
          "name": "",
          "type": "bool"
        }
      ],
      "stateMutability": "view",
      "type": "function"
    },
    {
      "inputs": [
        {
          "internalType": "uint256",
          "name": "",
          "type": "uint256"
        }
      ],
      "name": "merkleTree",
      "outputs": [
        {
          "internalType": "bytes32",
          "name": "",
          "type": "bytes32"
        }
      ],
      "stateMutability": "view",
      "type": "function"
    },
    {
      "inputs": [],
      "name": "nextLeafIndex",
      "outputs": [
        {
          "internalType": "uint256",
          "name": "",
          "type": "uint256"
        }
      ],
      "stateMutability": "view",
      "type": "function"
    },
    {
      "inputs": [
        {
          "internalType": "bytes32",
          "name": "",
          "type": "bytes32"
        }
      ],
      "name": "nullifierHashes",
      "outputs": [
        {
          "internalType": "bool",
          "name": "",
          "type": "bool"
        }
      ],
      "stateMutability": "view",
      "type": "function"
    },
    {
      "inputs": [],
      "name": "pause",
      "outputs": [],
      "stateMutability": "nonpayable",
      "type": "function"
    },
    {
      "inputs": [],
      "name": "paused",
      "outputs": [
        {
          "internalType": "bool",
          "name": "",
          "type": "bool"
        }
      ],
      "stateMutability": "view",
      "type": "function"
    },
    {
      "inputs": [
        {
          "internalType": "uint256",
          "name": "_fee",
          "type": "uint256"
        },
        {
          "internalType": "address payable",
          "name": "_feeRecipient",
          "type": "address"
        },
        {
          "internalType": "string",
          "name": "_endpoint",
          "type": "string"
        }
      ],
      "name": "registerRelayer",
      "outputs": [],
      "stateMutability": "nonpayable",
      "type": "function"
    },
    {
      "inputs": [
        {
          "internalType": "address",
          "name": "",
          "type": "address"
        }
      ],
      "name": "relayers",
      "outputs": [
        {
          "internalType": "bool",
          "name": "isActive",
          "type": "bool"
        },
        {
          "internalType": "uint256",
          "name": "fee",
          "type": "uint256"
        },
        {
          "internalType": "address payable",
          "name": "feeRecipient",
          "type": "address"
        },
        {
          "internalType": "uint256",
          "name": "totalRelayed",
          "type": "uint256"
        },
        {
          "internalType": "string",
          "name": "endpoint",
          "type": "string"
        }
      ],
      "stateMutability": "view",
      "type": "function"
    },
    {
      "inputs": [
        {
          "internalType": "bytes32",
          "name": "role",
          "type": "bytes32"
        },
        {
          "internalType": "address",
          "name": "account",
          "type": "address"
        }
      ],
      "name": "renounceRole",
      "outputs": [],
      "stateMutability": "nonpayable",
      "type": "function"
    },
    {
      "inputs": [
        {
          "internalType": "bytes32",
          "name": "role",
          "type": "bytes32"
        },
        {
          "internalType": "address",
          "name": "account",
          "type": "address"
        }
      ],
      "name": "revokeRole",
      "outputs": [],
      "stateMutability": "nonpayable",
      "type": "function"
    },
    {
      "inputs": [],
      "name": "serviceFee",
      "outputs": [
        {
          "internalType": "uint256",
          "name": "",
          "type": "uint256"
        }
      ],
      "stateMutability": "view",
      "type": "function"
    },
    {
      "inputs": [
        {
          "internalType": "uint256",
          "name": "_id",
          "type": "uint256"
        },
        {
          "internalType": "bool",
          "name": "_isActive",
          "type": "bool"
        }
      ],
      "name": "setDenominationActive",
      "outputs": [],
      "stateMutability": "nonpayable",
      "type": "function"
    },
    {
      "inputs": [
        {
          "internalType": "uint256",
          "name": "_fee",
          "type": "uint256"
        }
      ],
      "name": "setServiceFee",
      "outputs": [],
      "stateMutability": "nonpayable",
      "type": "function"
    },
    {
      "inputs": [
        {
          "internalType": "address",
          "name": "_verifier",
          "type": "address"
        }
      ],
      "name": "setVerifier",
      "outputs": [],
      "stateMutability": "nonpayable",
      "type": "function"
    },
    {
      "inputs": [
        {
          "internalType": "bytes4",
          "name": "interfaceId",
          "type": "bytes4"
        }
      ],
      "name": "supportsInterface",
      "outputs": [
        {
          "internalType": "bool",
          "name": "",
          "type": "bool"
        }
      ],
      "stateMutability": "view",
      "type": "function"
    },
    {
      "inputs": [],
      "name": "treasury",
      "outputs": [
        {
          "internalType": "address",
          "name": "",
          "type": "address"
        }
      ],
      "stateMutability": "view",
      "type": "function"
    },
    {
      "inputs": [],
      "name": "unpause",
      "outputs": [],
      "stateMutability": "nonpayable",
      "type": "function"
    },
    {
      "inputs": [
        {
          "internalType": "uint256",
          "name": "_fee",
          "type": "uint256"
        },
        {
          "internalType": "address payable",
          "name": "_feeRecipient",
          "type": "address"
        },
        {
          "internalType": "bool",
          "name": "_isActive",
          "type": "bool"
        },
        {
          "internalType": "string",
          "name": "_endpoint",
          "type": "string"
        }
      ],
      "name": "updateRelayer",
      "outputs": [],
      "stateMutability": "nonpayable",
      "type": "function"
    },
    {
      "inputs": [],
      "name": "verifier",
      "outputs": [
        {
          "internalType": "address",
          "name": "",
          "type": "address"
        }
      ],
      "stateMutability": "view",
      "type": "function"
    },
    {
      "inputs": [
        {
          "components": [
            {
              "internalType": "uint256[2]",
              "name": "a",
              "type": "uint256[2]"
            },
            {
              "internalType": "uint256[2][2]",
              "name": "b",
              "type": "uint256[2][2]"
            },
            {
              "internalType": "uint256[2]",
              "name": "c",
              "type": "uint256[2]"
            }
          ],
          "internalType": "struct PrivacyPool.ProofData",
          "name": "_proof",
          "type": "tuple"
        },
        {
          "internalType": "bytes32",
          "name": "_root",
          "type": "bytes32"
        },
        {
          "internalType": "bytes32",
          "name": "_nullifierHash",
          "type": "bytes32"
        },
        {
          "internalType": "address payable",
          "name": "_recipient",
          "type": "address"
        },
        {
          "internalType": "address payable",
          "name": "_relayer",
          "type": "address"
        },
        {
          "internalType": "uint256",
          "name": "_fee",
          "type": "uint256"
        },
        {
          "internalType": "uint256",
          "name": "_denominationId",
          "type": "uint256"
        }
      ],
      "name": "withdraw",
      "outputs": [],
      "stateMutability": "nonpayable",
      "type": "function"
    }
  ],
  "bytecode": "0x608034620002f25762002c86906001600160401b0390601f38849003908101601f191682019083821183831017620002f75780839160409687948552833981010312620002f25762000051816200030d565b906200006160208092016200030d565b9060019260009284845560ff1991826002541660025560018060a01b03809116918215620002ae57169081156200026a5760018060a01b03199081600c541617600c55600d541617600d556064600e55828052838252858320338452825260ff86842054161562000235575b7fa49807205ce4d355092ef5a8a18f56e8913cf4a201fbe287825b095693c21775808452848352868420338552835260ff878520541615620001fe575b507f97667070c54ef182b0f5858b034beac1b6f3089aa2d3188bb1e8929f4fa9b92990818452848352868420338552835260ff878520541615620001c6575b5050929190809381935b601485106200016f578686600b55516129439081620003238239f35b9091929394858452600583528087852055865183810191808352888201528781526060810181811084821117620001b25788525190209484019392919062000153565b634e487b7160e01b86526041600452602486fd5b818452848352868420338552835284878520918254161790553390339060008051602062002c668339815191528580a4388062000149565b808452848352868420338552835286842085838254161790553390339060008051602062002c668339815191528680a4386200010a565b8280528382528583203384528252858320848282541617905533338460008051602062002c668339815191528180a4620000cd565b875162461bcd60e51b815260048101859052601d60248201527f50726976616379506f6f6c3a20696e76616c69642074726561737572790000006044820152606490fd5b885162461bcd60e51b815260048101869052601d60248201527f50726976616379506f6f6c3a20696e76616c69642076657269666965720000006044820152606490fd5b600080fd5b634e487b7160e01b600052604160045260246000fd5b51906001600160a01b0382168203620002f25756fe608080604052600436101561001357600080fd5b60003560e01c90816301ffc9a714611d225750806306bfd20b14611c415780630a1d4f201461166c5780630be4f4221461164e5780630df0ff90146116225780631186407f1461146757806317cc915c146110845780631de26e16146111095780631f276b6e146110b557806322dc7b4c14611084578063248a9ca3146110555780632b7ac3f31461102c5780632f2ff15d14610f7957806336568abe14610ee75780633f4ba83a14610e53578063414a37ba14610e185780634959065714610aa15780635300f84114610d925780635437988d14610d055780635c975abb14610ce25780635cdf76f814610cb357806361d027b314610c8a578063740a654714610c6157806375b238fc14610c26578063839df945146109ff5780638456cb5914610bcc57806384e2e18314610b655780638abdf5aa14610b4757806391d1485414610afa578063926d7d7f14610abf5780639ea9719014610aa15780639f2944c114610a6a578063a217fddf14610a4e578063ab198e9014610a30578063b61b395c146109ff578063bdceee70146107d6578063c794d19714610720578063d0ec114d14610702578063d547741f146106c1578063effd6021146105eb578063f3ce61ad1461057d578063f5b541a614610542578063f76597a8146102245763fcc0be6b1461020357600080fd5b3461021f57600036600319011261021f57602060405160148152f35b600080fd5b3461021f57606036600319011261021f57600435610240611d8b565b67ffffffffffffffff919060443583811161021f57610263903690600401611fc2565b6102746103e88594939411156120c7565b6001600160a01b039182169283156104f25760405161029281611e23565b60019384825260209586830191888352604084019182526060840192600084526102bb87612185565b966102c96040519889611e77565b808852368188011161021f578981600092600499838c013789010152608085019687523360005260078952610312604060002095511515869060ff801983541691151516179055565b5187850155600284019151166001600160601b0360a01b82541617905551600382015501905180519586116104dc576103558661034f8454611de9565b8461212f565b8390601f87116001146104575795806103a8927f193a79fd17752d71da6eaba98e99be182b006d3e3178dd96b26a52f905e23e7d979860009261044c575b50508160011b916000199060031b1c19161790565b90555b7fe2b7fb3b832174769106daebcfd6d1970523240dda11281102db9363b83b0dc49081600052808352604060002033600052835260ff60406000205416156103fb575b50506040519283523392a2005b81600052808352604060002033600052835260406000209060ff19825416179055339033907f2f8788117e7eff1d82e926ec794901d17c78024a50270940304540a733656f0d600080a483806103ee565b015190508880610393565b90601f1987169183600052856000209260005b8181106104c7575091859391897f193a79fd17752d71da6eaba98e99be182b006d3e3178dd96b26a52f905e23e7d999a94106104ae575b505050811b0190556103ab565b015160001960f88460031b161c191690558780806104a1565b8284015185559386019392870192870161046a565b634e487b7160e01b600052604160045260246000fd5b60405162461bcd60e51b815260206004820152602260248201527f50726976616379506f6f6c3a20696e76616c69642066656520726563697069656044820152611b9d60f21b6064820152608490fd5b3461021f57600036600319011261021f5760206040517f97667070c54ef182b0f5858b034beac1b6f3089aa2d3188bb1e8929f4fa9b9298152f35b3461021f57602036600319011261021f57600435600052600660205260c06040600020805490600181015490600281015460ff600460038401549301549360405195865260018060a01b038116602087015260a01c16151560408501526060840152608083015260a0820152f35b3461021f57602036600319011261021f57600060a060405161060c81611e3f565b8281528260208201528260408201528260608201528260808201520152600435600052600660205260c0604060002060405161064781611e3f565b815491828252600181015460018060a01b03906020840191808216835260ff604086019260a01c16151582526002840154926060860193845260a0600460038701549660808901978852015496019586526040519687525116602086015251151560408501525160608401525160808301525160a0820152f35b3461021f57604036600319011261021f576107006004356106e0611d8b565b908060005260016020526106fb6001604060002001546124bf565b6125ca565b005b3461021f57600036600319011261021f576020604051621000008152f35b3461021f57600036600319011261021f57604051806009548083526020809301809160096000527f6e1540171b6c0c960b71a7020d9f60077f6af931a8bbf590da0223dacf75c7af9060005b868282106107c257868661078282880383611e77565b604051928392818401908285525180915260408401929160005b8281106107ab57505050500390f35b83518552869550938101939281019260010161079c565b83548552909301926001928301920161076c565b3461021f57608036600319011261021f576004356107f2611d8b565b6044358015159182820361021f5767ffffffffffffffff9060643582811161021f57610822903690600401611fc2565b91907fe2b7fb3b832174769106daebcfd6d1970523240dda11281102db9363b83b0dc460005260019160209560018752604060002033600052875260ff60406000205416156109ba57906108c46004926108806103e88c11156120c7565b33600052600789526040600020928b6001850155600284019060018060a01b03166001600160601b0360a01b825416179055829060ff801983541691151516179055565b019383116104dc576108e0836108da8654611de9565b8661212f565b600091601f841160011461095057506109119291600091836109455750508160011b916000199060031b1c19161790565b90555b6040519283528201527fac7f0c8ed938e6142a963d72bb2b1f3660de61d575988d9f1a341be3ba377f1b60403392a2005b013590508780610393565b91601f1984168560005286600020936000905b888383106109a357505050908460019594939210610989575b505050811b019055610914565b0135600019600384901b60f8161c1916905586808061097c565b818597829394968801358155019601930190610963565b60405162461bcd60e51b815260048101889052601a60248201527f50726976616379506f6f6c3a206e6f7420612072656c617965720000000000006044820152606490fd5b3461021f57602036600319011261021f576004356000526003602052602060ff604060002054166040519015158152f35b3461021f57600036600319011261021f576020600854604051908152f35b3461021f57600036600319011261021f57602060405160008152f35b3461021f57602036600319011261021f5760043560095481101561021f57610a93602091611f8b565b90546040519160031b1c8152f35b3461021f57600036600319011261021f576020600b54604051908152f35b3461021f57600036600319011261021f5760206040517fe2b7fb3b832174769106daebcfd6d1970523240dda11281102db9363b83b0dc48152f35b3461021f57604036600319011261021f57610b13611d8b565b600435600052600160205260406000209060018060a01b0316600052602052602060ff604060002054166040519015158152f35b3461021f57600036600319011261021f576020600e54604051908152f35b3461021f57604036600319011261021f57600435602435801515810361021f5761070091610b916122a3565b610b9e6008548210611ff0565b6000908152600660205260409020600101805460ff60a01b191691151560a01b60ff60a01b16919091179055565b3461021f57600036600319011261021f57610be56122a3565b610bed6121f7565b600160ff1960025416176002557f62e78cea01bee320cd4e420270b5ea74000d11b0c9f74754ebdbfc544b05a2586020604051338152a1005b3461021f57600036600319011261021f5760206040517fa49807205ce4d355092ef5a8a18f56e8913cf4a201fbe287825b095693c217758152f35b3461021f57602036600319011261021f5760043560085481101561021f57610a93602091611f3e565b3461021f57600036600319011261021f57600d546040516001600160a01b039091168152602090f35b3461021f57602036600319011261021f57600435610ccf6122a3565b610cdd6101f48211156120c7565b600e55005b3461021f57600036600319011261021f57602060ff600254166040519015158152f35b3461021f57602036600319011261021f57610d1e611d75565b610d266122a3565b6001600160a01b03168015610d4d576001600160601b0360a01b600c541617600c55600080f35b60405162461bcd60e51b815260206004820152601d60248201527f50726976616379506f6f6c3a20696e76616c69642076657269666965720000006044820152606490fd5b3461021f57602036600319011261021f576001600160a01b0380610db4611d75565b1660005260076020526040600020610e1460ff8254169160018101549360028201541690610de9600460038301549201611e99565b916040519586951515865260208601526040850152606084015260a0608084015260a0830190611dc4565b0390f35b3461021f57600036600319011261021f5760206040517f30644e72e131a029b85045b68181585d2833e84879b9709143e1f593f00000018152f35b3461021f57600036600319011261021f57610e6c6122a3565b60025460ff811615610eab5760ff19166002557f5db9ee0a495bf2e6ff9c91a7834c1ba4fdd244a5e8aa4e537bd38aeae4b073aa6020604051338152a1005b60405162461bcd60e51b815260206004820152601460248201527314185d5cd8589b194e881b9bdd081c185d5cd95960621b6044820152606490fd5b3461021f57604036600319011261021f57610f00611d8b565b336001600160a01b03821603610f1c57610700906004356125ca565b60405162461bcd60e51b815260206004820152602f60248201527f416363657373436f6e74726f6c3a2063616e206f6e6c792072656e6f756e636560448201526e103937b632b9903337b91039b2b63360891b6064820152608490fd5b3461021f57604036600319011261021f57600435610f95611d8b565b816000526001602052610faf6001604060002001546124bf565b81600052600160205260406000209060018060a01b0316908160005260205260ff6040600020541615610fde57005b8160005260016020526040600020816000526020526040600020600160ff1982541617905533917f2f8788117e7eff1d82e926ec794901d17c78024a50270940304540a733656f0d600080a4005b3461021f57600036600319011261021f57600c546040516001600160a01b039091168152602090f35b3461021f57602036600319011261021f5760043560005260016020526020600160406000200154604051908152f35b3461021f57602036600319011261021f576004356000526004602052602060ff604060002054166040519015158152f35b3461021f57604036600319011261021f576004356110d16122a3565b6110de6008548210611ff0565b600052600660205261070060018060a01b03806001604060002001541660243591600d541690612253565b3461021f57604036600319011261021f57602480356004356111296121a1565b6111316121f7565b61113e6008548310611ff0565b806000526020916003835260ff604060002054166114185781156113d45780600052600683526040600020916001938484019361118160ff865460a01c16612046565b62100000600a54101561139057826000526003825260406000208660ff19825416179055600954600160401b81101561137b576111de6111c78289879401600955611f8b565b819391549060031b91821b91600019901b19161790565b9055600a5494838660005b601481106112ee5750506040817f1bed04c7cfb61e9a21d36517a6ed73b90844dc1ea8a74ce9f96ee2599be0db3b92600b5563ffffffff809983519283521686820152a16002820161123b8154612120565b90556004825492018054908382018092116112d95755546040516323b872dd60e01b81850152339881019890985230604489015260648089019290925290875294956112d1957f1938c888ea696b8966eb74acc759783c6d746f6dbe29768b3a2e0aee8e18bfc692916112bf916001600160a01b03166112ba82611e23565b612640565b600a54946040519086168152a3612120565b600a55600055005b89634e487b7160e01b60005260116004526000fd5b9091898316611368578160005260058652604060002054905b60405191878301918252604083015260408252606082019180831067ffffffffffffffff841117611353578b9260405251902092826000526005875283604060002055811c91016111e9565b8c634e487b7160e01b60005260416004526000fd5b8160005260058652604060002054611307565b87634e487b7160e01b60005260416004526000fd5b60405162461bcd60e51b815260048101839052601d818901527f50726976616379506f6f6c3a206d65726b6c6520747265652066756c6c0000006044820152606490fd5b60405162461bcd60e51b815260048101849052601f818601527f50726976616379506f6f6c3a20696e76616c696420636f6d6d69746d656e74006044820152606490fd5b608483856040519162461bcd60e51b83526004830152808201527f50726976616379506f6f6c3a20636f6d6d69746d656e7420616c7265616479206044820152631d5cd95960e21b6064820152fd5b3461021f57604036600319011261021f57600435611483611d8b565b9061148c6122a3565b80156115dd576001600160a01b0391821690811561159857600854926004604051916114b783611e3f565b8383526020830185815260408401906001825261153160608601916000835260808701936000855260a0880195600087528b6000526006602052604060002098518955600189019251166001600160601b0360a01b83541617825551151581549060ff60a01b90151560a01b169060ff60a01b1916179055565b5160028501555160038401555191015560085490600160401b8210156104dc577f10b971eb3ba5ee29f4238bad2abe92cfedfaeb3914954d5f28eb8a838fb2902592846115896111c785600160409701600855611f3e565b905582519182526020820152a2005b60405162461bcd60e51b815260206004820152601a60248201527f50726976616379506f6f6c3a20696e76616c696420746f6b656e0000000000006044820152606490fd5b60405162461bcd60e51b815260206004820152601b60248201527f50726976616379506f6f6c3a20696e76616c696420616d6f756e7400000000006044820152606490fd5b3461021f57602036600319011261021f5760043560005260056020526020604060002054604051908152f35b3461021f57600036600319011261021f576020600a54604051908152f35b3461021f5736600319016101c0811261021f576101001361021f57610144356001600160a01b038116810361021f5761016435906001600160a01b038216820361021f576116b86121a1565b6116c06121f7565b6116d06008546101a43510611ff0565b61012435600052600460205260ff60406000205416611bf0576001600160a01b03811615611bab57600b546101043503611b67576101a4356000526006602052604060002061172860ff600183015460a01c16612046565b6001600160a01b03831615611ac6576001600160a01b03831660009081526007602052604090205460ff1615611a815761178f612710611783835460018060a01b03871660005260076020526001604060002001549061209e565b046101843511156120c7565b600c54604051906001600160a01b03166117a882611e3f565b6101043582526101243560208301526001600160a01b0384811660408085019190915290861660608401526101843560808401526101a43560a0840152805163f398789b60e01b8152928391600480840137604460008382015b60028210611a6557505050604060c480840137600061010483015b60068210611a4b575050506101c4816020935afa908115611a3f57600091611a10575b50156119cb576101243560005260046020526040600020600160ff1982541617905580546118c461188e612710611879600e548561209e565b0492611889846101843592612113565b612113565b6003840161189c8154612120565b90556001600160a01b03861661199e575b60018401546001600160a01b038681169116612253565b80611979575b5061018435151580611967575b61192d575b50604080516101843581526101a43560208201526001600160a01b0393841693610124359316917f6d7aac54bd3d1c91db3b1fd7b8d6cb45324ad6b5e373c0f0ea4d7b2606c4c2c891a46001600055005b600101546001600160a01b038381166000908152600760205260409020600201546119619261018435929182169116612253565b826118dc565b506001600160a01b03831615156118d7565b6001820154600d5461199892916001600160a01b039182169116612253565b836118ca565b6001600160a01b038616600090815260076020526040902060030180546119c490612120565b90556118ad565b60405162461bcd60e51b815260206004820152601a60248201527f50726976616379506f6f6c3a20696e76616c69642070726f6f660000000000006044820152606490fd5b611a32915060203d602011611a38575b611a2a8183611e77565b81019061223b565b84611840565b503d611a20565b6040513d6000823e3d90fd5b82935060208091600193945181520193019101849261181d565b8293945060408181600194958194370193019101859392611802565b60405162461bcd60e51b815260206004820152601f60248201527f50726976616379506f6f6c3a2072656c61796572206e6f7420616374697665006044820152606490fd5b61018435611b2357336001600160a01b0383161461178f5760405162461bcd60e51b815260206004820152601b60248201527f50726976616379506f6f6c3a20696e76616c69642073656e64657200000000006044820152606490fd5b606460405162461bcd60e51b815260206004820152602060248201527f50726976616379506f6f6c3a2066656520776974686f75742072656c617965726044820152fd5b606460405162461bcd60e51b815260206004820152602060248201527f50726976616379506f6f6c3a20696e76616c6964206d65726b6c6520726f6f746044820152fd5b60405162461bcd60e51b815260206004820152601e60248201527f50726976616379506f6f6c3a20696e76616c696420726563697069656e7400006044820152606490fd5b60405162461bcd60e51b815260206004820152602360248201527f50726976616379506f6f6c3a206e756c6c696669657220616c726561647920756044820152621cd95960ea1b6064820152608490fd5b3461021f5760208060031936011261021f57611c5b611d75565b60606080604051611c6b81611e23565b6000815260008582015260006040820152600083820152015260018060a01b0380911660005260078252610e1460406000209160405192611cab84611e23565b60ff815416151584526001810154918585019283528060028301541660408601908152611ce660046003850154946060890195865201611e99565b936080870194855260405197889781895251151590880152516040870152511660608501525160808401525160a08084015260c0830190611dc4565b3461021f57602036600319011261021f576004359063ffffffff60e01b821680920361021f57602091637965db0b60e01b8114908115611d64575b5015158152f35b6301ffc9a760e01b14905083611d5d565b600435906001600160a01b038216820361021f57565b602435906001600160a01b038216820361021f57565b60005b838110611db45750506000910152565b8181015183820152602001611da4565b90602091611ddd81518092818552858086019101611da1565b601f01601f1916010190565b90600182811c92168015611e19575b6020831014611e0357565b634e487b7160e01b600052602260045260246000fd5b91607f1691611df8565b60a0810190811067ffffffffffffffff8211176104dc57604052565b60c0810190811067ffffffffffffffff8211176104dc57604052565b6080810190811067ffffffffffffffff8211176104dc57604052565b90601f8019910116810190811067ffffffffffffffff8211176104dc57604052565b90604051918260008254611eac81611de9565b90818452602094600191600181169081600014611f1c5750600114611edd575b505050611edb92500383611e77565b565b600090815285812095935091905b818310611f04575050611edb9350820101388080611ecc565b85548884018501529485019487945091830191611eeb565b92505050611edb94925060ff191682840152151560051b820101388080611ecc565b600854811015611f755760086000527ff3f7a9fe364faab93b216da50a3214154f22a0a2b415b23a84c8169e8b636ee30190600090565b634e487b7160e01b600052603260045260246000fd5b600954811015611f755760096000527f6e1540171b6c0c960b71a7020d9f60077f6af931a8bbf590da0223dacf75c7af0190600090565b9181601f8401121561021f5782359167ffffffffffffffff831161021f576020838186019501011161021f57565b15611ff757565b60405162461bcd60e51b815260206004820152602160248201527f50726976616379506f6f6c3a20696e76616c69642064656e6f6d696e6174696f6044820152603760f91b6064820152608490fd5b1561204d57565b60405162461bcd60e51b8152602060048201526024808201527f50726976616379506f6f6c3a2064656e6f6d696e6174696f6e206e6f742061636044820152637469766560e01b6064820152608490fd5b818102929181159184041417156120b157565b634e487b7160e01b600052601160045260246000fd5b156120ce57565b60405162461bcd60e51b815260206004820152601960248201527f50726976616379506f6f6c3a2066656520746f6f2068696768000000000000006044820152606490fd5b919082039182116120b157565b60001981146120b15760010190565b90601f811161213d57505050565b6000916000526020600020906020601f850160051c8301941061217b575b601f0160051c01915b82811061217057505050565b818155600101612164565b909250829061215b565b67ffffffffffffffff81116104dc57601f01601f191660200190565b6002600054146121b2576002600055565b60405162461bcd60e51b815260206004820152601f60248201527f5265656e7472616e637947756172643a207265656e7472616e742063616c6c006044820152606490fd5b60ff6002541661220357565b60405162461bcd60e51b815260206004820152601060248201526f14185d5cd8589b194e881c185d5cd95960821b6044820152606490fd5b9081602091031261021f5751801515810361021f5790565b60405163a9059cbb60e01b60208201526001600160a01b039092166024830152604480830193909352918152608081019167ffffffffffffffff8311828410176104dc57611edb92604052612640565b3360009081527f50efbde2d46c37e9785f1791697f77e94bb7b701e19f1930a668820722d37694602090815260408083205490927fa49807205ce4d355092ef5a8a18f56e8913cf4a201fbe287825b095693c217759160019060ff161561230b575050505050565b61231433612764565b9285519161232183611e5b565b604283528583019360603686378351156124ab57603085538351600110156124ab5790607860218501536041915b81831161243d575050506123fb5760486123f79386936123db936123cc985198899376020b1b1b2b9b9a1b7b73a3937b61d1030b1b1b7bab73a1604d1b8a8601526123a3815180928c603789019101611da1565b8401917001034b99036b4b9b9b4b733903937b6329607d1b603784015251809386840190611da1565b01036028810187520185611e77565b5192839262461bcd60e51b845260048401526024830190611dc4565b0390fd5b60648486519062461bcd60e51b825280600483015260248201527f537472696e67733a20686578206c656e67746820696e73756666696369656e746044820152fd5b909192600f81166010811015612497576f181899199a1a9b1b9c1cb0b131b232b360811b901a61246d8587612753565b5360041c9280156124835760001901919061234f565b634e487b7160e01b82526011600452602482fd5b634e487b7160e01b83526032600452602483fd5b634e487b7160e01b81526032600452602490fd5b600081815260019160209160018352604093848220338352845260ff8583205416156124ec575050505050565b6124f533612764565b9285519161250283611e5b565b604283528583019360603686378351156124ab57603085538351600110156124ab5790607860218501536041915b818311612584575050506123fb5760486123f79386936123db936123cc985198899376020b1b1b2b9b9a1b7b73a3937b61d1030b1b1b7bab73a1604d1b8a8601526123a3815180928c603789019101611da1565b909192600f81166010811015612497576f181899199a1a9b1b9c1cb0b131b232b360811b901a6125b48587612753565b5360041c92801561248357600019019190612530565b906000918083526001602052604083209160018060a01b03169182845260205260ff6040842054166125fb57505050565b8083526001602052604083208284526020526040832060ff1981541690557ff6391f5c32d9c69d2a47ea670b442974b53935d1edc7fd64eb21e047a839171b339380a4565b60408051908101916001600160a01b031667ffffffffffffffff8311828410176104dc576126cf926040526000806020958685527f5361666545524332303a206c6f772d6c6576656c2063616c6c206661696c656487860152868151910182855af13d1561274b573d916126b383612185565b926126c16040519485611e77565b83523d60008785013e612874565b805190816126dc57505050565b82806126ec93830101910161223b565b156126f45750565b6084906040519062461bcd60e51b82526004820152602a60248201527f5361666545524332303a204552433230206f7065726174696f6e20646964206e6044820152691bdd081cdd58d8d9595960b21b6064820152fd5b606091612874565b908151811015611f75570160200190565b604051906060820182811067ffffffffffffffff8211176104dc57604052602a8252602082016040368237825115611f755760309053815160019060011015611f7557607860218401536029905b8082116128065750506127c25790565b606460405162461bcd60e51b815260206004820152602060248201527f537472696e67733a20686578206c656e67746820696e73756666696369656e746044820152fd5b9091600f8116601081101561285f576f181899199a1a9b1b9c1cb0b131b232b360811b901a6128358486612753565b5360041c91801561284a5760001901906127b2565b60246000634e487b7160e01b81526011600452fd5b60246000634e487b7160e01b81526032600452fd5b919290156128d65750815115612888575090565b3b156128915790565b60405162461bcd60e51b815260206004820152601d60248201527f416464726573733a2063616c6c20746f206e6f6e2d636f6e74726163740000006044820152606490fd5b8251909150156128e95750805190602001fd5b60405162461bcd60e51b8152602060048201529081906123f7906024830190611dc456fea26469706673582212204775d9d70e695c0c55799309e7c62e2a498a6327dcd3f3fbd9fb106ae48cbbf064736f6c634300081800332f8788117e7eff1d82e926ec794901d17c78024a50270940304540a733656f0d",
  "linkReferences": {},
  "deployedLinkReferences": {}
}