{
  "_format": "hh-sol-artifact-1",
  "contractName": "SimpleDEX",
  "sourceName": "contracts/solidity/defi/SimpleDEX.sol",
  "abi": [
    {
      "inputs": [
        {
          "internalType": "address",
          "name": "_feeCollector",
          "type": "address"
        }
      ],
      "stateMutability": "nonpayable",
      "type": "constructor"
    },
    {
      "anonymous": false,
      "inputs": [
        {
          "indexed": true,
          "internalType": "bytes32",
          "name": "pairId",
          "type": "bytes32"
        },
        {
          "indexed": false,
          "internalType": "uint256",
          "name": "oldRate",
          "type": "uint256"
        },
        {
          "indexed": false,
          "internalType": "uint256",
          "name": "newRate",
          "type": "uint256"
        }
      ],
      "name": "FeeRateUpdated",
      "type": "event"
    },
    {
      "anonymous": false,
      "inputs": [
        {
          "indexed": true,
          "internalType": "bytes32",
          "name": "pairId",
          "type": "bytes32"
        },
        {
          "indexed": true,
          "internalType": "address",
          "name": "provider",
          "type": "address"
        },
        {
          "indexed": false,
          "internalType": "uint256",
          "name": "amountA",
          "type": "uint256"
        },
        {
          "indexed": false,
          "internalType": "uint256",
          "name": "amountB",
          "type": "uint256"
        },
        {
          "indexed": false,
          "internalType": "uint256",
          "name": "liquidity",
          "type": "uint256"
        }
      ],
      "name": "LiquidityAdded",
      "type": "event"
    },
    {
      "anonymous": false,
      "inputs": [
        {
          "indexed": true,
          "internalType": "bytes32",
          "name": "pairId",
          "type": "bytes32"
        },
        {
          "indexed": true,
          "internalType": "address",
          "name": "provider",
          "type": "address"
        },
        {
          "indexed": false,
          "internalType": "uint256",
          "name": "amountA",
          "type": "uint256"
        },
        {
          "indexed": false,
          "internalType": "uint256",
          "name": "amountB",
          "type": "uint256"
        },
        {
          "indexed": false,
          "internalType": "uint256",
          "name": "liquidity",
          "type": "uint256"
        }
      ],
      "name": "LiquidityRemoved",
      "type": "event"
    },
    {
      "anonymous": false,
      "inputs": [
        {
          "indexed": true,
          "internalType": "address",
          "name": "previousOwner",
          "type": "address"
        },
        {
          "indexed": true,
          "internalType": "address",
          "name": "newOwner",
          "type": "address"
        }
      ],
      "name": "OwnershipTransferred",
      "type": "event"
    },
    {
      "anonymous": false,
      "inputs": [
        {
          "indexed": true,
          "internalType": "bytes32",
          "name": "pairId",
          "type": "bytes32"
        },
        {
          "indexed": true,
          "internalType": "address",
          "name": "tokenA",
          "type": "address"
        },
        {
          "indexed": true,
          "internalType": "address",
          "name": "tokenB",
          "type": "address"
        }
      ],
      "name": "PairCreated",
      "type": "event"
    },
    {
      "anonymous": false,
      "inputs": [
        {
          "indexed": false,
          "internalType": "address",
          "name": "account",
          "type": "address"
        }
      ],
      "name": "Paused",
      "type": "event"
    },
    {
      "anonymous": false,
      "inputs": [
        {
          "indexed": false,
          "internalType": "uint256",
          "name": "oldRate",
          "type": "uint256"
        },
        {
          "indexed": false,
          "internalType": "uint256",
          "name": "newRate",
          "type": "uint256"
        }
      ],
      "name": "ProtocolFeeUpdated",
      "type": "event"
    },
    {
      "anonymous": false,
      "inputs": [
        {
          "indexed": true,
          "internalType": "address",
          "name": "token",
          "type": "address"
        },
        {
          "indexed": false,
          "internalType": "bool",
          "name": "supported",
          "type": "bool"
        }
      ],
      "name": "TokenSupported",
      "type": "event"
    },
    {
      "anonymous": false,
      "inputs": [
        {
          "indexed": true,
          "internalType": "bytes32",
          "name": "pairId",
          "type": "bytes32"
        },
        {
          "indexed": true,
          "internalType": "address",
          "name": "trader",
          "type": "address"
        },
        {
          "indexed": false,
          "internalType": "address",
          "name": "tokenIn",
          "type": "address"
        },
        {
          "indexed": false,
          "internalType": "address",
          "name": "tokenOut",
          "type": "address"
        },
        {
          "indexed": false,
          "internalType": "uint256",
          "name": "amountIn",
          "type": "uint256"
        },
        {
          "indexed": false,
          "internalType": "uint256",
          "name": "amountOut",
          "type": "uint256"
        }
      ],
      "name": "TokensSwapped",
      "type": "event"
    },
    {
      "anonymous": false,
      "inputs": [
        {
          "indexed": false,
          "internalType": "address",
          "name": "account",
          "type": "address"
        }
      ],
      "name": "Unpaused",
      "type": "event"
    },
    {
      "inputs": [
        {
          "internalType": "bytes32",
          "name": "pairId",
          "type": "bytes32"
        },
        {
          "internalType": "uint256",
          "name": "amountADesired",
          "type": "uint256"
        },
        {
          "internalType": "uint256",
          "name": "amountBDesired",
          "type": "uint256"
        },
        {
          "internalType": "uint256",
          "name": "amountAMin",
          "type": "uint256"
        },
        {
          "internalType": "uint256",
          "name": "amountBMin",
          "type": "uint256"
        }
      ],
      "name": "addLiquidity",
      "outputs": [
        {
          "internalType": "uint256",
          "name": "amountA",
          "type": "uint256"
        },
        {
          "internalType": "uint256",
          "name": "amountB",
          "type": "uint256"
        },
        {
          "internalType": "uint256",
          "name": "liquidity",
          "type": "uint256"
        }
      ],
      "stateMutability": "nonpayable",
      "type": "function"
    },
    {
      "inputs": [
        {
          "internalType": "uint256",
          "name": "",
          "type": "uint256"
        }
      ],
      "name": "allPairs",
      "outputs": [
        {
          "internalType": "bytes32",
          "name": "",
          "type": "bytes32"
        }
      ],
      "stateMutability": "view",
      "type": "function"
    },
    {
      "inputs": [
        {
          "internalType": "address",
          "name": "tokenA",
          "type": "address"
        },
        {
          "internalType": "address",
          "name": "tokenB",
          "type": "address"
        },
        {
          "internalType": "uint256",
          "name": "feeRate",
          "type": "uint256"
        }
      ],
      "name": "createPair",
      "outputs": [
        {
          "internalType": "bytes32",
          "name": "pairId",
          "type": "bytes32"
        }
      ],
      "stateMutability": "nonpayable",
      "type": "function"
    },
    {
      "inputs": [],
      "name": "defaultFeeRate",
      "outputs": [
        {
          "internalType": "uint256",
          "name": "",
          "type": "uint256"
        }
      ],
      "stateMutability": "view",
      "type": "function"
    },
    {
      "inputs": [],
      "name": "feeCollector",
      "outputs": [
        {
          "internalType": "address",
          "name": "",
          "type": "address"
        }
      ],
      "stateMutability": "view",
      "type": "function"
    },
    {
      "inputs": [
        {
          "internalType": "uint256",
          "name": "amountIn",
          "type": "uint256"
        },
        {
          "internalType": "uint256",
          "name": "reserveIn",
          "type": "uint256"
        },
        {
          "internalType": "uint256",
          "name": "reserveOut",
          "type": "uint256"
        },
        {
          "internalType": "uint256",
          "name": "feeRate",
          "type": "uint256"
        }
      ],
      "name": "getAmountOut",
      "outputs": [
        {
          "internalType": "uint256",
          "name": "",
          "type": "uint256"
        }
      ],
      "stateMutability": "pure",
      "type": "function"
    },
    {
      "inputs": [
        {
          "internalType": "bytes32",
          "name": "pairId",
          "type": "bytes32"
        }
      ],
      "name": "getPairInfo",
      "outputs": [
        {
          "components": [
            {
              "internalType": "address",
              "name": "tokenA",
              "type": "address"
            },
            {
              "internalType": "address",
              "name": "tokenB",
              "type": "address"
            },
            {
              "internalType": "uint256",
              "name": "reserveA",
              "type": "uint256"
            },
            {
              "internalType": "uint256",
              "name": "reserveB",
              "type": "uint256"
            },
            {
              "internalType": "uint256",
              "name": "totalLiquidity",
              "type": "uint256"
            },
            {
              "internalType": "uint256",
              "name": "feeRate",
              "type": "uint256"
            },
            {
              "internalType": "bool",
              "name": "active",
              "type": "bool"
            }
          ],
          "internalType": "struct SimpleDEX.TradingPair",
          "name": "",
          "type": "tuple"
        }
      ],
      "stateMutability": "view",
      "type": "function"
    },
    {
      "inputs": [
        {
          "internalType": "bytes32",
          "name": "pairId",
          "type": "bytes32"
        },
        {
          "internalType": "address",
          "name": "user",
          "type": "address"
        }
      ],
      "name": "getUserPosition",
      "outputs": [
        {
          "components": [
            {
              "internalType": "uint256",
              "name": "liquidity",
              "type": "uint256"
            },
            {
              "internalType": "uint256",
              "name": "rewardDebt",
              "type": "uint256"
            },
            {
              "internalType": "uint256",
              "name": "lastDepositTime",
              "type": "uint256"
            }
          ],
          "internalType": "struct SimpleDEX.LiquidityPosition",
          "name": "",
          "type": "tuple"
        }
      ],
      "stateMutability": "view",
      "type": "function"
    },
    {
      "inputs": [
        {
          "internalType": "bytes32",
          "name": "",
          "type": "bytes32"
        },
        {
          "internalType": "address",
          "name": "",
          "type": "address"
        }
      ],
      "name": "liquidityPositions",
      "outputs": [
        {
          "internalType": "uint256",
          "name": "liquidity",
          "type": "uint256"
        },
        {
          "internalType": "uint256",
          "name": "rewardDebt",
          "type": "uint256"
        },
        {
          "internalType": "uint256",
          "name": "lastDepositTime",
          "type": "uint256"
        }
      ],
      "stateMutability": "view",
      "type": "function"
    },
    {
      "inputs": [],
      "name": "minimumLiquidity",
      "outputs": [
        {
          "internalType": "uint256",
          "name": "",
          "type": "uint256"
        }
      ],
      "stateMutability": "view",
      "type": "function"
    },
    {
      "inputs": [],
      "name": "owner",
      "outputs": [
        {
          "internalType": "address",
          "name": "",
          "type": "address"
        }
      ],
      "stateMutability": "view",
      "type": "function"
    },
    {
      "inputs": [],
      "name": "pause",
      "outputs": [],
      "stateMutability": "nonpayable",
      "type": "function"
    },
    {
      "inputs": [],
      "name": "paused",
      "outputs": [
        {
          "internalType": "bool",
          "name": "",
          "type": "bool"
        }
      ],
      "stateMutability": "view",
      "type": "function"
    },
    {
      "inputs": [],
      "name": "protocolFeeRate",
      "outputs": [
        {
          "internalType": "uint256",
          "name": "",
          "type": "uint256"
        }
      ],
      "stateMutability": "view",
      "type": "function"
    },
    {
      "inputs": [
        {
          "internalType": "bytes32",
          "name": "pairId",
          "type": "bytes32"
        },
        {
          "internalType": "uint256",
          "name": "liquidity",
          "type": "uint256"
        },
        {
          "internalType": "uint256",
          "name": "amountAMin",
          "type": "uint256"
        },
        {
          "internalType": "uint256",
          "name": "amountBMin",
          "type": "uint256"
        }
      ],
      "name": "removeLiquidity",
      "outputs": [
        {
          "internalType": "uint256",
          "name": "amountA",
          "type": "uint256"
        },
        {
          "internalType": "uint256",
          "name": "amountB",
          "type": "uint256"
        }
      ],
      "stateMutability": "nonpayable",
      "type": "function"
    },
    {
      "inputs": [],
      "name": "renounceOwnership",
      "outputs": [],
      "stateMutability": "nonpayable",
      "type": "function"
    },
    {
      "inputs": [
        {
          "internalType": "bytes32",
          "name": "pairId",
          "type": "bytes32"
        },
        {
          "internalType": "uint256",
          "name": "newRate",
          "type": "uint256"
        }
      ],
      "name": "setPairFeeRate",
      "outputs": [],
      "stateMutability": "nonpayable",
      "type": "function"
    },
    {
      "inputs": [
        {
          "internalType": "uint256",
          "name": "newRate",
          "type": "uint256"
        }
      ],
      "name": "setProtocolFeeRate",
      "outputs": [],
      "stateMutability": "nonpayable",
      "type": "function"
    },
    {
      "inputs": [
        {
          "internalType": "address",
          "name": "token",
          "type": "address"
        },
        {
          "internalType": "bool",
          "name": "supported",
          "type": "bool"
        }
      ],
      "name": "setSupportedToken",
      "outputs": [],
      "stateMutability": "nonpayable",
      "type": "function"
    },
    {
      "inputs": [
        {
          "internalType": "address",
          "name": "",
          "type": "address"
        }
      ],
      "name": "supportedTokens",
      "outputs": [
        {
          "internalType": "bool",
          "name": "",
          "type": "bool"
        }
      ],
      "stateMutability": "view",
      "type": "function"
    },
    {
      "inputs": [
        {
          "internalType": "bytes32",
          "name": "pairId",
          "type": "bytes32"
        },
        {
          "internalType": "address",
          "name": "tokenIn",
          "type": "address"
        },
        {
          "internalType": "uint256",
          "name": "amountIn",
          "type": "uint256"
        },
        {
          "internalType": "uint256",
          "name": "amountOutMin",
          "type": "uint256"
        }
      ],
      "name": "swap",
      "outputs": [
        {
          "internalType": "uint256",
          "name": "amountOut",
          "type": "uint256"
        }
      ],
      "stateMutability": "nonpayable",
      "type": "function"
    },
    {
      "inputs": [
        {
          "internalType": "bytes32",
          "name": "",
          "type": "bytes32"
        }
      ],
      "name": "tradingPairs",
      "outputs": [
        {
          "internalType": "address",
          "name": "tokenA",
          "type": "address"
        },
        {
          "internalType": "address",
          "name": "tokenB",
          "type": "address"
        },
        {
          "internalType": "uint256",
          "name": "reserveA",
          "type": "uint256"
        },
        {
          "internalType": "uint256",
          "name": "reserveB",
          "type": "uint256"
        },
        {
          "internalType": "uint256",
          "name": "totalLiquidity",
          "type": "uint256"
        },
        {
          "internalType": "uint256",
          "name": "feeRate",
          "type": "uint256"
        },
        {
          "internalType": "bool",
          "name": "active",
          "type": "bool"
        }
      ],
      "stateMutability": "view",
      "type": "function"
    },
    {
      "inputs": [
        {
          "internalType": "address",
          "name": "newOwner",
          "type": "address"
        }
      ],
      "name": "transferOwnership",
      "outputs": [],
      "stateMutability": "nonpayable",
      "type": "function"
    },
    {
      "inputs": [],
      "name": "unpause",
      "outputs": [],
      "stateMutability": "nonpayable",
      "type": "function"
    }
  ],
  "bytecode": "0x6080346200010b57601f62001c7038819003918201601f19168301916001600160401b0383118484101762000110578084926020946040528339810103126200010b57516001600160a01b038116908190036200010b57620000613362000126565b6001805560ff196002541660025561012c600755601e6008556103e8600a558015620000b657600980546001600160a01b031916919091179055620000a63362000126565b604051611b0290816200016e8239f35b60405162461bcd60e51b815260206004820152602760248201527f53696d706c654445583a2066656520636f6c6c6563746f722063616e6e6f74206044820152666265207a65726f60c81b6064820152608490fd5b600080fd5b634e487b7160e01b600052604160045260246000fd5b600080546001600160a01b039283166001600160a01b03198216811783559216907f8be0079c531659141344cd1fd0a4f28419497f9722a3daafe3b4186f6b6457e09080a356fe6080604081815260048036101561001557600080fd5b600092833560e01c90816307d3345514611292575080631e3dd18b1461125a57806326d78678146111715780633f4ba83a146110dc5780634669660f14610e2657806352707d8c14610df357806358f8588014610dd45780635c975abb14610db057806368c4ac2614610d725780636b600d1c14610a33578063715018a6146109d65780637aab64441461082f5780638456cb59146107d45780638da5cb5b146107ac5780639c4c27481461054a578063b13aa2d6146104a8578063b1e6bb491461041d578063b56cf011146103fe578063be65ed601461037e578063c415b95c14610355578063cc5d00c3146102f3578063e798646614610266578063f1e9899e146101f05763f2fde38b1461012b57600080fd5b346101ec5760203660031901126101ec57610144611316565b9061014d611528565b6001600160a01b0391821692831561019a57505082546001600160a01b0319811683178455167f8be0079c531659141344cd1fd0a4f28419497f9722a3daafe3b4186f6b6457e08380a380f35b906020608492519162461bcd60e51b8352820152602660248201527f4f776e61626c653a206e6577206f776e657220697320746865207a65726f206160448201526564647265737360d01b6064820152fd5b8280fd5b50346101ec5760203660031901126101ec578160e0938235815260036020522060018060a01b039283825416936001830154169260028301546003840154918401549260ff600660058701549601541695815197885260208801528601526060850152608084015260a0830152151560c0820152f35b5050346102ef57806003193601126102ef57610280611316565b90602435918215158084036102eb577fd86c88b4a367d9b81a6e00c9d3f7d01657bffef358fa8968c91c045ae99f0d52926102e36020936102bf611528565b60018060a01b031695868852600585528288209060ff801983541691151516179055565b51908152a280f35b8480fd5b5080fd5b50346101ec57816003193601126101ec5791819261030f6112fb565b8135835260209182528383206001600160a01b039190911683528152919020805460018201546002909201549351908152918201526040810191909152606090f35b0390f35b5050346102ef57816003193601126102ef5760095490516001600160a01b039091168152602090f35b50346101ec57816003193601126101ec577f62cdb4795129b028637c98680c5ba8f8dcf19722c3cc952f6c315022fd52e9109035916024356103be611528565b6103cc6103e882111561147f565b838552600360205260058286206103e960ff60068301541661137a565b0190808254925582519182526020820152a280f35b5050346102ef57816003193601126102ef57602090600a549051908152f35b50346101ec57816003193601126101ec57606092829161043b6112fb565b90828480516104498161135e565b8281528260208201520152803583526020528282209060018060a01b03168252602052209080516104798161135e565b825492838252826002600183015492602085019384520154920191825282519384525160208401525190820152f35b50346101ec5760203660031901126101ec578035906104c5611528565b606482116105075750907fb404cac19fb1cbeff98d325795b08886e3cd8fe8cb1a2f193aac66f13fb239c391600854908060085582519182526020820152a180f35b606490602084519162461bcd60e51b8352820152602060248201527f53696d706c654445583a2070726f746f636f6c2066656520746f6f20686967686044820152fd5b5090346101ec5760a03660031901126101ec57813591610568611580565b6105706115d6565b82845260036020528184209161058c60ff60068501541661137a565b6105a16084356064356044356024358761177d565b94909383810193845494851560001461074f576105be888861144c565b8960038211156107235750806001908060011c600181018091116107105791905b8383106106f057505050889988999361069595936106496103519b6106098b965b600a549061143f565b9b8c916106178315156114cb565b6106228315156114cb565b61063160028a0191825461141c565b9055600388016106428a825461141c565b905561141c565b90558682526020528181203382526020522061066687825461141c565b815560024291015560018060a01b03906106878983835416309033906116d2565b3091600133920154166116d2565b815185815260208101879052604081018490523391907f9c8e2178a53b464e8c6d21c6d0d1f5189e5d2f6f6a79237ba611cf996a6e6b3290606090a36001805551938493846040919493926060820195825260208201520152565b9091925061070783610702818461145f565b61141c565b821c91906105df565b634e487b7160e01b8d526011865260248dfd5b99899a9361069595938a9b956103519b8a95610746575b61060961064992610600565b6001915061073a565b91848899889993610695956106498b8b6107936107886103519f610776846107819261144c565b60028c01549061145f565b928b61144c565b60038a01549061145f565b808210156107a557505b9b8c91610617565b905061079d565b5050346102ef57816003193601126102ef57905490516001600160a01b039091168152602090f35b5050346102ef57816003193601126102ef5760207f62e78cea01bee320cd4e420270b5ea74000d11b0c9f74754ebdbfc544b05a25891610812611528565b61081a6115d6565b600160ff19600254161760025551338152a180f35b508290346102ef5760803660031901126102ef576024358135610850611580565b8084526003602052848085209461086d60ff60068801541661137a565b82815284602052818120338252602052209361088c83865410156113c6565b600281019485549561089e878661144c565b868401916108ae8354809361145f565b9860038601918254916108ca856108c5858d61144c565b61145f565b9a6044358d1015806109ca575b156109875750936109329795936108fb8c610902958f956108fb8f97849d9b61143f565b905561143f565b905561090f86825461143f565b905560018060a01b0361092688338385541661172d565b6001339201541661172d565b7f1644e236c5520c62ce0dee793b42f87f940781d55b02c890fbbcdfff1ee5e25185518061097433958789846040919493926060820195825260208201520152565b0390a36001805582519182526020820152f35b60649060208f519162461bcd60e51b8352820152601e60248201527f53696d706c654445583a20696e73756666696369656e74206f757470757400006044820152fd5b506064358c10156108d7565b8334610a305780600319360112610a30576109ef611528565b80546001600160a01b03198116825581906001600160a01b03167f8be0079c531659141344cd1fd0a4f28419497f9722a3daafe3b4186f6b6457e08280a380f35b80fd5b509190346102ef5760603660031901126102ef57610a4f611316565b92610a586112fb565b60443592610a64611528565b6001600160a01b038681169690939087151580610d67575b15610d2457848416808914610ce15788885260209860058a5260ff858a20541680610cd1575b15610c8e57610ab56103e889111561147f565b1015610c885792935b825188810190828616956bffffffffffffffffffffffff19809160601b1683528388169760601b16603482015260288152610af88161135e565b519020958688526003895260ff6006858a20015416610c4557610bc291889160069189918015610c3b57905b8c8851958692610b338461132c565b8b8452828401908d8252808c808701948086526003606089019782895260c060808b019a848c5260a081019c8d52019b60018d5283525220995116906bffffffffffffffffffffffff60a01b91828b5416178a5560018a0192511690825416179055516002870155516003860155518685015551600584015551151591019060ff801983541691151516179055565b6006549068010000000000000000821015610c2857508491610c0b8260017faff90cfc97c741e6d1ffffa62656c16a763f41dc773055d7b0c36950a823babf94016006556112ae565b81549060031b9085821b91600019901b1916179055519580a48152f35b634e487b7160e01b875260419052602486fd5b5060075490610b24565b835162461bcd60e51b81528084018a9052601e60248201527f53696d706c654445583a207061697220616c72656164792065786973747300006044820152606490fd5b93610abe565b845162461bcd60e51b81528085018b9052601f60248201527f53696d706c654445583a20746f6b656e73206e6f7420737570706f72746564006044820152606490fd5b5081895260ff858a205416610aa2565b835162461bcd60e51b8152602081850152601b60248201527f53696d706c654445583a206964656e746963616c20746f6b656e7300000000006044820152606490fd5b506020606492519162461bcd60e51b8352820152602060248201527f53696d706c654445583a20696e76616c696420746f6b656e20616464726573736044820152fd5b508484161515610a7c565b5050346102ef5760203660031901126102ef5760209160ff9082906001600160a01b03610d9d611316565b1681526005855220541690519015158152f35b5050346102ef57816003193601126102ef5760209060ff6002541690519015158152f35b5050346102ef57816003193601126102ef576020906008549051908152f35b509134610a30576080366003190112610a305750610e1f6020926064359060443590602435903561161a565b9051908152f35b5090346101ec5760803660031901126101ec578135610e436112fb565b90604435610e4f611580565b610e576115d6565b8186526020956003875284812090610e7560ff60068401541661137a565b81546001600160a01b039586169592908316868114908180156110cd575b1561108a57851561103b578115611035575083600183015416925b811561102a576002830154905b50811561101c57610ed96003840154915b826005860154918961161a565b996064358b10610fcb575090610ef3859493928b106113c6565b15610fa45780600260039201610f0a87825461141c565b905501610f1889825461143f565b90555b610f27843033896116d2565b1690610f3487338461172d565b612710610f436008548561144c565b0480610f8f575b5050845193845286840152838301528360608301527f2c94922d2481e5626ad57580c6ebc77560b10a579a34f910e958c65a1c343d8060803393a36001805551908152f35b610f9d91600954168661172d565b3880610f4a565b80600360029201610fb687825461141c565b905501610fc489825461143f565b9055610f1b565b895162461bcd60e51b81529081018c9052602560248201527f53696d706c654445583a20696e73756666696369656e74206f757470757420616044820152641b5bdd5b9d60da1b6064820152608490fd5b610ed9600284015491610ecc565b600383015490610ebb565b92610eae565b885162461bcd60e51b8152808b018c90526024808201527f53696d706c654445583a20696e73756666696369656e7420696e70757420616d6044820152631bdd5b9d60e21b6064820152608490fd5b885162461bcd60e51b8152808b018c9052601860248201527f53696d706c654445583a20696e76616c696420746f6b656e00000000000000006044820152606490fd5b50846001840154168814610e93565b50346101ec57826003193601126101ec576110f5611528565b6002549060ff821615611137575060ff1916600255513381527f5db9ee0a495bf2e6ff9c91a7834c1ba4fdd244a5e8aa4e537bd38aeae4b073aa90602090a180f35b606490602084519162461bcd60e51b8352820152601460248201527314185d5cd8589b194e881b9bdd081c185d5cd95960621b6044820152fd5b50346101ec5760203660031901126101ec57818360e09460c083516111958161132c565b82815282602082015282858201528260608201528260808201528260a08201520152823581526003602052208251916111cd8361132c565b60018060a01b0390818354169485855282600185015416926020860193845260028501549082870191825260038601549360608801948552860154946080880195865260c060ff600660058a01549960a08c019a8b520154169801971515885283519889525116602088015251908601525160608501525160808401525160a083015251151560c0820152f35b50346101ec5760203660031901126101ec573591600654831015610a3057506112846020926112ae565b91905490519160031b1c8152f35b8490346102ef57816003193601126102ef576020906007548152f35b6006548110156112e55760066000527ff652222313e28459528d920b65115c16c04f3efc82aaedc97be59f3f377c0d3f0190600090565b634e487b7160e01b600052603260045260246000fd5b602435906001600160a01b038216820361131157565b600080fd5b600435906001600160a01b038216820361131157565b60e0810190811067ffffffffffffffff82111761134857604052565b634e487b7160e01b600052604160045260246000fd5b6060810190811067ffffffffffffffff82111761134857604052565b1561138157565b60405162461bcd60e51b815260206004820152601a60248201527f53696d706c654445583a2070616972206e6f74206163746976650000000000006044820152606490fd5b156113cd57565b60405162461bcd60e51b815260206004820152602160248201527f53696d706c654445583a20696e73756666696369656e74206c697175696469746044820152607960f81b6064820152608490fd5b9190820180921161142957565b634e487b7160e01b600052601160045260246000fd5b9190820391821161142957565b8181029291811591840414171561142957565b8115611469570490565b634e487b7160e01b600052601260045260246000fd5b1561148657565b60405162461bcd60e51b815260206004820152601c60248201527f53696d706c654445583a20666565207261746520746f6f2068696768000000006044820152606490fd5b156114d257565b60405162461bcd60e51b815260206004820152602860248201527f53696d706c654445583a20696e73756666696369656e74206c697175696469746044820152671e481b5a5b9d195960c21b6064820152608490fd5b6000546001600160a01b0316330361153c57565b606460405162461bcd60e51b815260206004820152602060248201527f4f776e61626c653a2063616c6c6572206973206e6f7420746865206f776e65726044820152fd5b600260015414611591576002600155565b60405162461bcd60e51b815260206004820152601f60248201527f5265656e7472616e637947756172643a207265656e7472616e742063616c6c006044820152606490fd5b60ff600254166115e257565b60405162461bcd60e51b815260206004820152601060248201526f14185d5cd8589b194e881c185d5cd95960821b6044820152606490fd5b92909192801515806116c9575b806116c0575b1561167b5761271091820390828211611429576116549161164d9161144c565b938461144c565b9181810291818304149015171561142957611678926116729161141c565b9061145f565b90565b60405162461bcd60e51b815260206004820152601b60248201527f53696d706c654445583a20696e76616c696420726573657276657300000000006044820152606490fd5b5083151561162d565b50821515611627565b6040516323b872dd60e01b60208201526001600160a01b03928316602482015292909116604483015260648083019390935291815260a081019181831067ffffffffffffffff8411176113485761172b9260405261188d565b565b60405163a9059cbb60e01b60208201526001600160a01b039092166024830152604480830193909352918152608081019167ffffffffffffffff8311828410176113485761172b9260405261188d565b949390929194600281015490811580611881575b6118795760030154916117a8826108c5858861144c565b9087821115611825575050906108c56117c1928761144c565b91821115908161181a575b50156117d6579190565b606460405162461bcd60e51b815260206004820152602060248201527f53696d706c654445583a20696e73756666696369656e74204120616d6f756e746044820152fd5b9050811015386117cc565b9350955050508310611835579190565b606460405162461bcd60e51b815260206004820152602060248201527f53696d706c654445583a20696e73756666696369656e74204220616d6f756e746044820152fd5b505050509190565b50600381015415611791565b6040805167ffffffffffffffff94936001600160a01b039093169290808301868111828210176113485783526020938482527f5361666545524332303a206c6f772d6c6576656c2063616c6c206661696c6564858301526000808487829651910182855af13d156119eb573d918883116119d757601f1992865193603f81601f8401160116840199848b10908b11176119c3578697989961193896975283528286893d92013e6119f8565b805180611947575b5050505050565b818591810103126102ef5783015190811591821503610a30575061196d57808080611940565b60849250519062461bcd60e51b82526004820152602a60248201527f5361666545524332303a204552433230206f7065726174696f6e20646964206e6044820152691bdd081cdd58d8d9595960b21b6064820152fd5b634e487b7160e01b86526041600452602486fd5b634e487b7160e01b85526041600452602485fd5b6119389394959697506060915b91929015611a5a5750815115611a0c575090565b3b15611a155790565b60405162461bcd60e51b815260206004820152601d60248201527f416464726573733a2063616c6c20746f206e6f6e2d636f6e74726163740000006044820152606490fd5b825190915015611a6d5750805190602001fd5b6040519062461bcd60e51b82528160208060048301528251908160248401526000935b828510611ab3575050604492506000838284010152601f80199101168101030190fd5b8481018201518686016044015293810193859350611a9056fea2646970667358221220509b1fa05056561d0bbbdbd49d2d9fb9381234811059965c11ef6640dad7a82064736f6c63430008180033",
  "linkReferences": {},
  "deployedLinkReferences": {}
}