{
  "_format": "hh-sol-artifact-1",
  "contractName": "SimpleToken",
  "sourceName": "contracts/SimpleToken.sol",
  "abi": [
    {
      "inputs": [],
      "stateMutability": "nonpayable",
      "type": "constructor"
    },
    {
      "anonymous": false,
      "inputs": [
        {
          "indexed": true,
          "internalType": "address",
          "name": "owner",
          "type": "address"
        },
        {
          "indexed": true,
          "internalType": "address",
          "name": "spender",
          "type": "address"
        },
        {
          "indexed": false,
          "internalType": "uint256",
          "name": "value",
          "type": "uint256"
        }
      ],
      "name": "Approval",
      "type": "event"
    },
    {
      "anonymous": false,
      "inputs": [
        {
          "indexed": true,
          "internalType": "address",
          "name": "from",
          "type": "address"
        },
        {
          "indexed": true,
          "internalType": "address",
          "name": "to",
          "type": "address"
        },
        {
          "indexed": false,
          "internalType": "uint256",
          "name": "value",
          "type": "uint256"
        }
      ],
      "name": "Transfer",
      "type": "event"
    },
    {
      "inputs": [
        {
          "internalType": "address",
          "name": "owner",
          "type": "address"
        },
        {
          "internalType": "address",
          "name": "spender",
          "type": "address"
        }
      ],
      "name": "allowance",
      "outputs": [
        {
          "internalType": "uint256",
          "name": "",
          "type": "uint256"
        }
      ],
      "stateMutability": "view",
      "type": "function"
    },
    {
      "inputs": [
        {
          "internalType": "address",
          "name": "spender",
          "type": "address"
        },
        {
          "internalType": "uint256",
          "name": "amount",
          "type": "uint256"
        }
      ],
      "name": "approve",
      "outputs": [
        {
          "internalType": "bool",
          "name": "",
          "type": "bool"
        }
      ],
      "stateMutability": "nonpayable",
      "type": "function"
    },
    {
      "inputs": [
        {
          "internalType": "address",
          "name": "account",
          "type": "address"
        }
      ],
      "name": "balanceOf",
      "outputs": [
        {
          "internalType": "uint256",
          "name": "",
          "type": "uint256"
        }
      ],
      "stateMutability": "view",
      "type": "function"
    },
    {
      "inputs": [],
      "name": "decimals",
      "outputs": [
        {
          "internalType": "uint8",
          "name": "",
          "type": "uint8"
        }
      ],
      "stateMutability": "view",
      "type": "function"
    },
    {
      "inputs": [
        {
          "internalType": "address",
          "name": "spender",
          "type": "address"
        },
        {
          "internalType": "uint256",
          "name": "subtractedValue",
          "type": "uint256"
        }
      ],
      "name": "decreaseAllowance",
      "outputs": [
        {
          "internalType": "bool",
          "name": "",
          "type": "bool"
        }
      ],
      "stateMutability": "nonpayable",
      "type": "function"
    },
    {
      "inputs": [
        {
          "internalType": "address",
          "name": "spender",
          "type": "address"
        },
        {
          "internalType": "uint256",
          "name": "addedValue",
          "type": "uint256"
        }
      ],
      "name": "increaseAllowance",
      "outputs": [
        {
          "internalType": "bool",
          "name": "",
          "type": "bool"
        }
      ],
      "stateMutability": "nonpayable",
      "type": "function"
    },
    {
      "inputs": [
        {
          "internalType": "address",
          "name": "to",
          "type": "address"
        },
        {
          "internalType": "uint256",
          "name": "amount",
          "type": "uint256"
        }
      ],
      "name": "mint",
      "outputs": [],
      "stateMutability": "nonpayable",
      "type": "function"
    },
    {
      "inputs": [],
      "name": "name",
      "outputs": [
        {
          "internalType": "string",
          "name": "",
          "type": "string"
        }
      ],
      "stateMutability": "view",
      "type": "function"
    },
    {
      "inputs": [],
      "name": "owner",
      "outputs": [
        {
          "internalType": "address",
          "name": "",
          "type": "address"
        }
      ],
      "stateMutability": "view",
      "type": "function"
    },
    {
      "inputs": [],
      "name": "symbol",
      "outputs": [
        {
          "internalType": "string",
          "name": "",
          "type": "string"
        }
      ],
      "stateMutability": "view",
      "type": "function"
    },
    {
      "inputs": [],
      "name": "totalSupply",
      "outputs": [
        {
          "internalType": "uint256",
          "name": "",
          "type": "uint256"
        }
      ],
      "stateMutability": "view",
      "type": "function"
    },
    {
      "inputs": [
        {
          "internalType": "address",
          "name": "to",
          "type": "address"
        },
        {
          "internalType": "uint256",
          "name": "amount",
          "type": "uint256"
        }
      ],
      "name": "transfer",
      "outputs": [
        {
          "internalType": "bool",
          "name": "",
          "type": "bool"
        }
      ],
      "stateMutability": "nonpayable",
      "type": "function"
    },
    {
      "inputs": [
        {
          "internalType": "address",
          "name": "from",
          "type": "address"
        },
        {
          "internalType": "address",
          "name": "to",
          "type": "address"
        },
        {
          "internalType": "uint256",
          "name": "amount",
          "type": "uint256"
        }
      ],
      "name": "transferFrom",
      "outputs": [
        {
          "internalType": "bool",
          "name": "",
          "type": "bool"
        }
      ],
      "stateMutability": "nonpayable",
      "type": "function"
    }
  ],
  "bytecode": "0x608034620003db576040906001600160401b0381830181811183821017620002db578352600c82526020906b29b4b6b83632902a37b5b2b760a11b8284015283519284840184811083821117620002db578552600684526553494d504c4560d01b83850152805191808311620002db5760038054936001938486811c96168015620003d0575b87871014620003ba578190601f9687811162000364575b508790878311600114620002fd57600092620002f1575b505060001982841b1c191690841b1781555b8551918211620002db5760049586548481811c91168015620002d0575b87821014620002bb5785811162000270575b5085908584116001146200020557938394918492600095620001f9575b50501b92600019911b1c19161783555b600580546001600160a01b0319163390811790915515620001ba575060025469d3c21bcecceda100000092838201809211620001a557506000917fddf252ad1be2c89b69c2b068fc378daa952ba7f163c4a11628f55a4df523b3ef9160025533835282815284832084815401905584519384523393a3516109fc9081620003e18239f35b601190634e487b7160e01b6000525260246000fd5b90606493519262461bcd60e51b845283015260248201527f45524332303a206d696e7420746f20746865207a65726f2061646472657373006044820152fd5b01519350388062000111565b9190601f198416928860005284886000209460005b8a898383106200025857505050106200023d575b50505050811b01835562000121565b01519060f884600019921b161c19169055388080806200022e565b8686015189559097019694850194889350016200021a565b87600052866000208680860160051c820192898710620002b1575b0160051c019085905b828110620002a4575050620000f4565b6000815501859062000294565b925081926200028b565b602288634e487b7160e01b6000525260246000fd5b90607f1690620000e2565b634e487b7160e01b600052604160045260246000fd5b015190503880620000b3565b90869350601f1983169185600052896000209260005b8b8282106200034d575050841162000334575b505050811b018155620000c5565b015160001983861b60f8161c1916905538808062000326565b8385015186558a9790950194938401930162000313565b90915083600052876000208780850160051c8201928a8610620003b0575b918891869594930160051c01915b828110620003a05750506200009c565b6000815585945088910162000390565b9250819262000382565b634e487b7160e01b600052602260045260246000fd5b95607f169562000085565b600080fdfe608060408181526004918236101561001657600080fd5b600092833560e01c91826306fdde03146105df57508163095ea7b3146105b557816318160ddd1461059657816323b872dd146104cc578163313ce567146104b0578163395093511461046057816340c10f191461035857816370a08231146103215781638da5cb5b146102f857816395d89b41146101d7578163a457c2d71461012f57508063a9059cbb146100ff5763dd62ed3e146100b457600080fd5b346100fb57806003193601126100fb57806020926100d0610702565b6100d861071d565b6001600160a01b0391821683526001865283832091168252845220549051908152f35b5080fd5b50346100fb57806003193601126100fb5760209061012861011e610702565b6024359033610858565b5160018152f35b905082346101d457826003193601126101d45761014a610702565b918360243592338152600160205281812060018060a01b0386168252602052205490828210610183576020856101288585038733610756565b608490602086519162461bcd60e51b8352820152602560248201527f45524332303a2064656372656173656420616c6c6f77616e63652062656c6f77604482015264207a65726f60d81b6064820152fd5b80fd5b8383346100fb57816003193601126100fb5780519082845460018160011c90600183169283156102ee575b60209384841081146102db578388529081156102bf575060011461026a575b505050829003601f01601f191682019267ffffffffffffffff84118385101761025757508291826102539252826106b9565b0390f35b634e487b7160e01b815260418552602490fd5b8787529192508591837f8a35acfbc15ff81a39ae7d344fd709f28e8600b4aa8c65c6b64bfe7fe36bd19b5b8385106102ab5750505050830101858080610221565b805488860183015293019284908201610295565b60ff1916878501525050151560051b8401019050858080610221565b634e487b7160e01b895260228a52602489fd5b91607f1691610202565b5050346100fb57816003193601126100fb5760055490516001600160a01b039091168152602090f35b5050346100fb5760203660031901126100fb5760209181906001600160a01b03610349610702565b16815280845220549051908152f35b9190503461045c578060031936011261045c57610373610702565b60055460243592916001600160a01b03918216330361042357169283156103e157506020827fddf252ad1be2c89b69c2b068fc378daa952ba7f163c4a11628f55a4df523b3ef926103c78795600254610733565b60025585855284835280852082815401905551908152a380f35b6020606492519162461bcd60e51b8352820152601f60248201527f45524332303a206d696e7420746f20746865207a65726f2061646472657373006044820152fd5b825162461bcd60e51b8152602081870152601360248201527213db9b1e481bdddb995c8818d85b881b5a5b9d606a1b6044820152606490fd5b8280fd5b5050346100fb57806003193601126100fb576101286020926104a9610483610702565b338352600186528483206001600160a01b03821684528652918490205460243590610733565b9033610756565b5050346100fb57816003193601126100fb576020905160128152f35b839150346100fb5760603660031901126100fb576104e8610702565b6104f061071d565b91846044359460018060a01b03841681526001602052818120338252602052205490600019820361052a575b602086610128878787610858565b84821061055357509183916105486020969561012895033383610756565b91939481935061051c565b606490602087519162461bcd60e51b8352820152601d60248201527f45524332303a20696e73756666696369656e7420616c6c6f77616e63650000006044820152fd5b5050346100fb57816003193601126100fb576020906002549051908152f35b5050346100fb57806003193601126100fb576020906101286105d5610702565b6024359033610756565b8490843461045c578260031936011261045c578260035460018160011c90600183169283156106af575b60209384841081146102db578388529081156102bf575060011461065957505050829003601f01601f191682019267ffffffffffffffff84118385101761025757508291826102539252826106b9565b600387529192508591837fc2575a0e9e593c00f959f8c92f12db2869c3395a3b0502d05e2516446f71f85b5b83851061069b5750505050830101858080610221565b805488860183015293019284908201610685565b91607f1691610609565b6020808252825181830181905290939260005b8281106106ee57505060409293506000838284010152601f8019910116010190565b8181018601518482016040015285016106cc565b600435906001600160a01b038216820361071857565b600080fd5b602435906001600160a01b038216820361071857565b9190820180921161074057565b634e487b7160e01b600052601160045260246000fd5b6001600160a01b0390811691821561080757169182156107b75760207f8c5be1e5ebec7d5bd14f71427d1e84f3dd0314c0f7b2291e5b200ac8c7c3b925918360005260018252604060002085600052825280604060002055604051908152a3565b60405162461bcd60e51b815260206004820152602260248201527f45524332303a20617070726f766520746f20746865207a65726f206164647265604482015261737360f01b6064820152608490fd5b60405162461bcd60e51b8152602060048201526024808201527f45524332303a20617070726f76652066726f6d20746865207a65726f206164646044820152637265737360e01b6064820152608490fd5b6001600160a01b039081169182156109735716918215610922576000828152806020526040812054918083106108ce57604082827fddf252ad1be2c89b69c2b068fc378daa952ba7f163c4a11628f55a4df523b3ef958760209652828652038282205586815220818154019055604051908152a3565b60405162461bcd60e51b815260206004820152602660248201527f45524332303a207472616e7366657220616d6f756e7420657863656564732062604482015265616c616e636560d01b6064820152608490fd5b60405162461bcd60e51b815260206004820152602360248201527f45524332303a207472616e7366657220746f20746865207a65726f206164647260448201526265737360e81b6064820152608490fd5b60405162461bcd60e51b815260206004820152602560248201527f45524332303a207472616e736665722066726f6d20746865207a65726f206164604482015264647265737360d81b6064820152608490fdfea264697066735822122054487636b04819db9b4dc516fc952dd6cad7ab33426459a2f98471fc0348c9d964736f6c63430008180033",
  "linkReferences": {},
  "deployedLinkReferences": {}
}