{
  "_format": "hh-sol-artifact-1",
  "contractName": "SpotExchange",
  "sourceName": "contracts/solidity/exchange/SpotExchange.sol",
  "abi": [
    {
      "inputs": [
        {
          "internalType": "address",
          "name": "_feeRecipient",
          "type": "address"
        }
      ],
      "stateMutability": "nonpayable",
      "type": "constructor"
    },
    {
      "anonymous": false,
      "inputs": [
        {
          "indexed": true,
          "internalType": "address",
          "name": "user",
          "type": "address"
        },
        {
          "indexed": true,
          "internalType": "address",
          "name": "token",
          "type": "address"
        },
        {
          "indexed": false,
          "internalType": "uint256",
          "name": "amount",
          "type": "uint256"
        }
      ],
      "name": "Deposit",
      "type": "event"
    },
    {
      "anonymous": false,
      "inputs": [
        {
          "indexed": true,
          "internalType": "bytes32",
          "name": "orderId",
          "type": "bytes32"
        },
        {
          "indexed": true,
          "internalType": "address",
          "name": "user",
          "type": "address"
        }
      ],
      "name": "OrderCancelled",
      "type": "event"
    },
    {
      "anonymous": false,
      "inputs": [
        {
          "indexed": true,
          "internalType": "bytes32",
          "name": "tradeId",
          "type": "bytes32"
        },
        {
          "indexed": false,
          "internalType": "bytes32",
          "name": "makerOrderId",
          "type": "bytes32"
        },
        {
          "indexed": false,
          "internalType": "bytes32",
          "name": "takerOrderId",
          "type": "bytes32"
        },
        {
          "indexed": false,
          "internalType": "uint256",
          "name": "amount",
          "type": "uint256"
        },
        {
          "indexed": false,
          "internalType": "uint256",
          "name": "price",
          "type": "uint256"
        }
      ],
      "name": "OrderMatched",
      "type": "event"
    },
    {
      "anonymous": false,
      "inputs": [
        {
          "indexed": true,
          "internalType": "bytes32",
          "name": "orderId",
          "type": "bytes32"
        },
        {
          "indexed": true,
          "internalType": "address",
          "name": "user",
          "type": "address"
        },
        {
          "indexed": true,
          "internalType": "bytes32",
          "name": "pairId",
          "type": "bytes32"
        }
      ],
      "name": "OrderPlaced",
      "type": "event"
    },
    {
      "anonymous": false,
      "inputs": [
        {
          "indexed": true,
          "internalType": "bytes32",
          "name": "pairId",
          "type": "bytes32"
        },
        {
          "indexed": false,
          "internalType": "address",
          "name": "baseToken",
          "type": "address"
        },
        {
          "indexed": false,
          "internalType": "address",
          "name": "quoteToken",
          "type": "address"
        }
      ],
      "name": "PairAdded",
      "type": "event"
    },
    {
      "anonymous": false,
      "inputs": [
        {
          "indexed": false,
          "internalType": "address",
          "name": "account",
          "type": "address"
        }
      ],
      "name": "Paused",
      "type": "event"
    },
    {
      "anonymous": false,
      "inputs": [
        {
          "indexed": true,
          "internalType": "bytes32",
          "name": "role",
          "type": "bytes32"
        },
        {
          "indexed": true,
          "internalType": "bytes32",
          "name": "previousAdminRole",
          "type": "bytes32"
        },
        {
          "indexed": true,
          "internalType": "bytes32",
          "name": "newAdminRole",
          "type": "bytes32"
        }
      ],
      "name": "RoleAdminChanged",
      "type": "event"
    },
    {
      "anonymous": false,
      "inputs": [
        {
          "indexed": true,
          "internalType": "bytes32",
          "name": "role",
          "type": "bytes32"
        },
        {
          "indexed": true,
          "internalType": "address",
          "name": "account",
          "type": "address"
        },
        {
          "indexed": true,
          "internalType": "address",
          "name": "sender",
          "type": "address"
        }
      ],
      "name": "RoleGranted",
      "type": "event"
    },
    {
      "anonymous": false,
      "inputs": [
        {
          "indexed": true,
          "internalType": "bytes32",
          "name": "role",
          "type": "bytes32"
        },
        {
          "indexed": true,
          "internalType": "address",
          "name": "account",
          "type": "address"
        },
        {
          "indexed": true,
          "internalType": "address",
          "name": "sender",
          "type": "address"
        }
      ],
      "name": "RoleRevoked",
      "type": "event"
    },
    {
      "anonymous": false,
      "inputs": [
        {
          "indexed": false,
          "internalType": "address",
          "name": "account",
          "type": "address"
        }
      ],
      "name": "Unpaused",
      "type": "event"
    },
    {
      "anonymous": false,
      "inputs": [
        {
          "indexed": true,
          "internalType": "address",
          "name": "user",
          "type": "address"
        },
        {
          "indexed": true,
          "internalType": "address",
          "name": "token",
          "type": "address"
        },
        {
          "indexed": false,
          "internalType": "uint256",
          "name": "amount",
          "type": "uint256"
        }
      ],
      "name": "Withdrawal",
      "type": "event"
    },
    {
      "inputs": [],
      "name": "ADMIN_ROLE",
      "outputs": [
        {
          "internalType": "bytes32",
          "name": "",
          "type": "bytes32"
        }
      ],
      "stateMutability": "view",
      "type": "function"
    },
    {
      "inputs": [],
      "name": "DEFAULT_ADMIN_ROLE",
      "outputs": [
        {
          "internalType": "bytes32",
          "name": "",
          "type": "bytes32"
        }
      ],
      "stateMutability": "view",
      "type": "function"
    },
    {
      "inputs": [],
      "name": "MATCHER_ROLE",
      "outputs": [
        {
          "internalType": "bytes32",
          "name": "",
          "type": "bytes32"
        }
      ],
      "stateMutability": "view",
      "type": "function"
    },
    {
      "inputs": [],
      "name": "MAX_FEE",
      "outputs": [
        {
          "internalType": "uint256",
          "name": "",
          "type": "uint256"
        }
      ],
      "stateMutability": "view",
      "type": "function"
    },
    {
      "inputs": [],
      "name": "MIN_ORDER_SIZE",
      "outputs": [
        {
          "internalType": "uint256",
          "name": "",
          "type": "uint256"
        }
      ],
      "stateMutability": "view",
      "type": "function"
    },
    {
      "inputs": [],
      "name": "OPERATOR_ROLE",
      "outputs": [
        {
          "internalType": "bytes32",
          "name": "",
          "type": "bytes32"
        }
      ],
      "stateMutability": "view",
      "type": "function"
    },
    {
      "inputs": [],
      "name": "PRECISION",
      "outputs": [
        {
          "internalType": "uint256",
          "name": "",
          "type": "uint256"
        }
      ],
      "stateMutability": "view",
      "type": "function"
    },
    {
      "inputs": [
        {
          "internalType": "bytes32",
          "name": "_pairId",
          "type": "bytes32"
        },
        {
          "internalType": "address",
          "name": "_baseToken",
          "type": "address"
        },
        {
          "internalType": "address",
          "name": "_quoteToken",
          "type": "address"
        },
        {
          "internalType": "uint256",
          "name": "_minOrderSize",
          "type": "uint256"
        },
        {
          "internalType": "uint256",
          "name": "_tickSize",
          "type": "uint256"
        },
        {
          "internalType": "uint256",
          "name": "_makerFee",
          "type": "uint256"
        },
        {
          "internalType": "uint256",
          "name": "_takerFee",
          "type": "uint256"
        }
      ],
      "name": "addTradingPair",
      "outputs": [],
      "stateMutability": "nonpayable",
      "type": "function"
    },
    {
      "inputs": [
        {
          "internalType": "address",
          "name": "",
          "type": "address"
        },
        {
          "internalType": "address",
          "name": "",
          "type": "address"
        }
      ],
      "name": "balances",
      "outputs": [
        {
          "internalType": "uint256",
          "name": "",
          "type": "uint256"
        }
      ],
      "stateMutability": "view",
      "type": "function"
    },
    {
      "inputs": [
        {
          "internalType": "bytes32",
          "name": "_orderId",
          "type": "bytes32"
        }
      ],
      "name": "cancelOrder",
      "outputs": [],
      "stateMutability": "nonpayable",
      "type": "function"
    },
    {
      "inputs": [
        {
          "internalType": "address",
          "name": "_token",
          "type": "address"
        },
        {
          "internalType": "uint256",
          "name": "_amount",
          "type": "uint256"
        }
      ],
      "name": "deposit",
      "outputs": [],
      "stateMutability": "nonpayable",
      "type": "function"
    },
    {
      "inputs": [
        {
          "internalType": "address",
          "name": "_token",
          "type": "address"
        },
        {
          "internalType": "uint256",
          "name": "_amount",
          "type": "uint256"
        }
      ],
      "name": "emergencyWithdraw",
      "outputs": [],
      "stateMutability": "nonpayable",
      "type": "function"
    },
    {
      "inputs": [],
      "name": "feeRecipient",
      "outputs": [
        {
          "internalType": "address",
          "name": "",
          "type": "address"
        }
      ],
      "stateMutability": "view",
      "type": "function"
    },
    {
      "inputs": [
        {
          "internalType": "bytes32",
          "name": "_orderId",
          "type": "bytes32"
        }
      ],
      "name": "getOrder",
      "outputs": [
        {
          "components": [
            {
              "internalType": "bytes32",
              "name": "id",
              "type": "bytes32"
            },
            {
              "internalType": "address",
              "name": "user",
              "type": "address"
            },
            {
              "internalType": "bytes32",
              "name": "pairId",
              "type": "bytes32"
            },
            {
              "internalType": "enum SpotExchange.OrderType",
              "name": "orderType",
              "type": "uint8"
            },
            {
              "internalType": "enum SpotExchange.OrderSide",
              "name": "side",
              "type": "uint8"
            },
            {
              "internalType": "uint256",
              "name": "amount",
              "type": "uint256"
            },
            {
              "internalType": "uint256",
              "name": "price",
              "type": "uint256"
            },
            {
              "internalType": "uint256",
              "name": "filled",
              "type": "uint256"
            },
            {
              "internalType": "uint256",
              "name": "timestamp",
              "type": "uint256"
            },
            {
              "internalType": "uint256",
              "name": "expiry",
              "type": "uint256"
            },
            {
              "internalType": "enum SpotExchange.OrderStatus",
              "name": "status",
              "type": "uint8"
            },
            {
              "internalType": "uint256",
              "name": "stopPrice",
              "type": "uint256"
            },
            {
              "internalType": "bytes32",
              "name": "parentOrderId",
              "type": "bytes32"
            },
            {
              "internalType": "bool",
              "name": "isPostOnly",
              "type": "bool"
            },
            {
              "internalType": "uint256",
              "name": "nonce",
              "type": "uint256"
            }
          ],
          "internalType": "struct SpotExchange.Order",
          "name": "",
          "type": "tuple"
        }
      ],
      "stateMutability": "view",
      "type": "function"
    },
    {
      "inputs": [
        {
          "internalType": "bytes32",
          "name": "_pairId",
          "type": "bytes32"
        },
        {
          "internalType": "uint256",
          "name": "_depth",
          "type": "uint256"
        }
      ],
      "name": "getOrderBook",
      "outputs": [
        {
          "internalType": "uint256[]",
          "name": "bidPrices",
          "type": "uint256[]"
        },
        {
          "internalType": "uint256[]",
          "name": "bidAmounts",
          "type": "uint256[]"
        },
        {
          "internalType": "uint256[]",
          "name": "askPrices",
          "type": "uint256[]"
        },
        {
          "internalType": "uint256[]",
          "name": "askAmounts",
          "type": "uint256[]"
        }
      ],
      "stateMutability": "view",
      "type": "function"
    },
    {
      "inputs": [],
      "name": "getPairCount",
      "outputs": [
        {
          "internalType": "uint256",
          "name": "",
          "type": "uint256"
        }
      ],
      "stateMutability": "view",
      "type": "function"
    },
    {
      "inputs": [
        {
          "internalType": "bytes32",
          "name": "role",
          "type": "bytes32"
        }
      ],
      "name": "getRoleAdmin",
      "outputs": [
        {
          "internalType": "bytes32",
          "name": "",
          "type": "bytes32"
        }
      ],
      "stateMutability": "view",
      "type": "function"
    },
    {
      "inputs": [
        {
          "internalType": "bytes32",
          "name": "_tradeId",
          "type": "bytes32"
        }
      ],
      "name": "getTrade",
      "outputs": [
        {
          "components": [
            {
              "internalType": "bytes32",
              "name": "id",
              "type": "bytes32"
            },
            {
              "internalType": "bytes32",
              "name": "pairId",
              "type": "bytes32"
            },
            {
              "internalType": "address",
              "name": "maker",
              "type": "address"
            },
            {
              "internalType": "address",
              "name": "taker",
              "type": "address"
            },
            {
              "internalType": "bytes32",
              "name": "makerOrderId",
              "type": "bytes32"
            },
            {
              "internalType": "bytes32",
              "name": "takerOrderId",
              "type": "bytes32"
            },
            {
              "internalType": "uint256",
              "name": "amount",
              "type": "uint256"
            },
            {
              "internalType": "uint256",
              "name": "price",
              "type": "uint256"
            },
            {
              "internalType": "uint256",
              "name": "makerFee",
              "type": "uint256"
            },
            {
              "internalType": "uint256",
              "name": "takerFee",
              "type": "uint256"
            },
            {
              "internalType": "uint256",
              "name": "timestamp",
              "type": "uint256"
            }
          ],
          "internalType": "struct SpotExchange.Trade",
          "name": "",
          "type": "tuple"
        }
      ],
      "stateMutability": "view",
      "type": "function"
    },
    {
      "inputs": [
        {
          "internalType": "bytes32",
          "name": "_pairId",
          "type": "bytes32"
        }
      ],
      "name": "getTradingPair",
      "outputs": [
        {
          "components": [
            {
              "internalType": "address",
              "name": "baseToken",
              "type": "address"
            },
            {
              "internalType": "address",
              "name": "quoteToken",
              "type": "address"
            },
            {
              "internalType": "bool",
              "name": "isActive",
              "type": "bool"
            },
            {
              "internalType": "uint256",
              "name": "minOrderSize",
              "type": "uint256"
            },
            {
              "internalType": "uint256",
              "name": "tickSize",
              "type": "uint256"
            },
            {
              "internalType": "uint256",
              "name": "makerFee",
              "type": "uint256"
            },
            {
              "internalType": "uint256",
              "name": "takerFee",
              "type": "uint256"
            },
            {
              "internalType": "uint256",
              "name": "volume24h",
              "type": "uint256"
            },
            {
              "internalType": "uint256",
              "name": "lastPrice",
              "type": "uint256"
            },
            {
              "internalType": "uint256",
              "name": "totalTrades",
              "type": "uint256"
            }
          ],
          "internalType": "struct SpotExchange.TradingPair",
          "name": "",
          "type": "tuple"
        }
      ],
      "stateMutability": "view",
      "type": "function"
    },
    {
      "inputs": [
        {
          "internalType": "address",
          "name": "_user",
          "type": "address"
        },
        {
          "internalType": "address",
          "name": "_token",
          "type": "address"
        }
      ],
      "name": "getUserBalance",
      "outputs": [
        {
          "internalType": "uint256",
          "name": "",
          "type": "uint256"
        }
      ],
      "stateMutability": "view",
      "type": "function"
    },
    {
      "inputs": [
        {
          "internalType": "bytes32",
          "name": "role",
          "type": "bytes32"
        },
        {
          "internalType": "address",
          "name": "account",
          "type": "address"
        }
      ],
      "name": "grantRole",
      "outputs": [],
      "stateMutability": "nonpayable",
      "type": "function"
    },
    {
      "inputs": [
        {
          "internalType": "bytes32",
          "name": "role",
          "type": "bytes32"
        },
        {
          "internalType": "address",
          "name": "account",
          "type": "address"
        }
      ],
      "name": "hasRole",
      "outputs": [
        {
          "internalType": "bool",
          "name": "",
          "type": "bool"
        }
      ],
      "stateMutability": "view",
      "type": "function"
    },
    {
      "inputs": [
        {
          "internalType": "address",
          "name": "",
          "type": "address"
        }
      ],
      "name": "nonces",
      "outputs": [
        {
          "internalType": "uint256",
          "name": "",
          "type": "uint256"
        }
      ],
      "stateMutability": "view",
      "type": "function"
    },
    {
      "inputs": [
        {
          "internalType": "bytes32",
          "name": "",
          "type": "bytes32"
        }
      ],
      "name": "orderBooks",
      "outputs": [
        {
          "internalType": "uint256",
          "name": "bestBid",
          "type": "uint256"
        },
        {
          "internalType": "uint256",
          "name": "bestAsk",
          "type": "uint256"
        }
      ],
      "stateMutability": "view",
      "type": "function"
    },
    {
      "inputs": [
        {
          "internalType": "bytes32",
          "name": "",
          "type": "bytes32"
        }
      ],
      "name": "orders",
      "outputs": [
        {
          "internalType": "bytes32",
          "name": "id",
          "type": "bytes32"
        },
        {
          "internalType": "address",
          "name": "user",
          "type": "address"
        },
        {
          "internalType": "bytes32",
          "name": "pairId",
          "type": "bytes32"
        },
        {
          "internalType": "enum SpotExchange.OrderType",
          "name": "orderType",
          "type": "uint8"
        },
        {
          "internalType": "enum SpotExchange.OrderSide",
          "name": "side",
          "type": "uint8"
        },
        {
          "internalType": "uint256",
          "name": "amount",
          "type": "uint256"
        },
        {
          "internalType": "uint256",
          "name": "price",
          "type": "uint256"
        },
        {
          "internalType": "uint256",
          "name": "filled",
          "type": "uint256"
        },
        {
          "internalType": "uint256",
          "name": "timestamp",
          "type": "uint256"
        },
        {
          "internalType": "uint256",
          "name": "expiry",
          "type": "uint256"
        },
        {
          "internalType": "enum SpotExchange.OrderStatus",
          "name": "status",
          "type": "uint8"
        },
        {
          "internalType": "uint256",
          "name": "stopPrice",
          "type": "uint256"
        },
        {
          "internalType": "bytes32",
          "name": "parentOrderId",
          "type": "bytes32"
        },
        {
          "internalType": "bool",
          "name": "isPostOnly",
          "type": "bool"
        },
        {
          "internalType": "uint256",
          "name": "nonce",
          "type": "uint256"
        }
      ],
      "stateMutability": "view",
      "type": "function"
    },
    {
      "inputs": [
        {
          "internalType": "uint256",
          "name": "",
          "type": "uint256"
        }
      ],
      "name": "pairIds",
      "outputs": [
        {
          "internalType": "bytes32",
          "name": "",
          "type": "bytes32"
        }
      ],
      "stateMutability": "view",
      "type": "function"
    },
    {
      "inputs": [],
      "name": "pause",
      "outputs": [],
      "stateMutability": "nonpayable",
      "type": "function"
    },
    {
      "inputs": [],
      "name": "paused",
      "outputs": [
        {
          "internalType": "bool",
          "name": "",
          "type": "bool"
        }
      ],
      "stateMutability": "view",
      "type": "function"
    },
    {
      "inputs": [
        {
          "internalType": "bytes32",
          "name": "_pairId",
          "type": "bytes32"
        },
        {
          "internalType": "enum SpotExchange.OrderType",
          "name": "_orderType",
          "type": "uint8"
        },
        {
          "internalType": "enum SpotExchange.OrderSide",
          "name": "_side",
          "type": "uint8"
        },
        {
          "internalType": "uint256",
          "name": "_amount",
          "type": "uint256"
        },
        {
          "internalType": "uint256",
          "name": "_price",
          "type": "uint256"
        },
        {
          "internalType": "uint256",
          "name": "_expiry",
          "type": "uint256"
        },
        {
          "internalType": "uint256",
          "name": "_stopPrice",
          "type": "uint256"
        },
        {
          "internalType": "bool",
          "name": "_isPostOnly",
          "type": "bool"
        }
      ],
      "name": "placeOrder",
      "outputs": [
        {
          "internalType": "bytes32",
          "name": "",
          "type": "bytes32"
        }
      ],
      "stateMutability": "nonpayable",
      "type": "function"
    },
    {
      "inputs": [
        {
          "internalType": "bytes32",
          "name": "role",
          "type": "bytes32"
        },
        {
          "internalType": "address",
          "name": "account",
          "type": "address"
        }
      ],
      "name": "renounceRole",
      "outputs": [],
      "stateMutability": "nonpayable",
      "type": "function"
    },
    {
      "inputs": [
        {
          "internalType": "bytes32",
          "name": "role",
          "type": "bytes32"
        },
        {
          "internalType": "address",
          "name": "account",
          "type": "address"
        }
      ],
      "name": "revokeRole",
      "outputs": [],
      "stateMutability": "nonpayable",
      "type": "function"
    },
    {
      "inputs": [
        {
          "internalType": "address",
          "name": "_feeRecipient",
          "type": "address"
        }
      ],
      "name": "setFeeRecipient",
      "outputs": [],
      "stateMutability": "nonpayable",
      "type": "function"
    },
    {
      "inputs": [
        {
          "internalType": "bytes32",
          "name": "_pairId",
          "type": "bytes32"
        },
        {
          "internalType": "bool",
          "name": "_isActive",
          "type": "bool"
        }
      ],
      "name": "setPairActive",
      "outputs": [],
      "stateMutability": "nonpayable",
      "type": "function"
    },
    {
      "inputs": [
        {
          "internalType": "bytes4",
          "name": "interfaceId",
          "type": "bytes4"
        }
      ],
      "name": "supportsInterface",
      "outputs": [
        {
          "internalType": "bool",
          "name": "",
          "type": "bool"
        }
      ],
      "stateMutability": "view",
      "type": "function"
    },
    {
      "inputs": [],
      "name": "totalTrades",
      "outputs": [
        {
          "internalType": "uint256",
          "name": "",
          "type": "uint256"
        }
      ],
      "stateMutability": "view",
      "type": "function"
    },
    {
      "inputs": [],
      "name": "totalVolume",
      "outputs": [
        {
          "internalType": "uint256",
          "name": "",
          "type": "uint256"
        }
      ],
      "stateMutability": "view",
      "type": "function"
    },
    {
      "inputs": [
        {
          "internalType": "uint256",
          "name": "",
          "type": "uint256"
        }
      ],
      "name": "tradeHistory",
      "outputs": [
        {
          "internalType": "bytes32",
          "name": "",
          "type": "bytes32"
        }
      ],
      "stateMutability": "view",
      "type": "function"
    },
    {
      "inputs": [
        {
          "internalType": "bytes32",
          "name": "",
          "type": "bytes32"
        }
      ],
      "name": "trades",
      "outputs": [
        {
          "internalType": "bytes32",
          "name": "id",
          "type": "bytes32"
        },
        {
          "internalType": "bytes32",
          "name": "pairId",
          "type": "bytes32"
        },
        {
          "internalType": "address",
          "name": "maker",
          "type": "address"
        },
        {
          "internalType": "address",
          "name": "taker",
          "type": "address"
        },
        {
          "internalType": "bytes32",
          "name": "makerOrderId",
          "type": "bytes32"
        },
        {
          "internalType": "bytes32",
          "name": "takerOrderId",
          "type": "bytes32"
        },
        {
          "internalType": "uint256",
          "name": "amount",
          "type": "uint256"
        },
        {
          "internalType": "uint256",
          "name": "price",
          "type": "uint256"
        },
        {
          "internalType": "uint256",
          "name": "makerFee",
          "type": "uint256"
        },
        {
          "internalType": "uint256",
          "name": "takerFee",
          "type": "uint256"
        },
        {
          "internalType": "uint256",
          "name": "timestamp",
          "type": "uint256"
        }
      ],
      "stateMutability": "view",
      "type": "function"
    },
    {
      "inputs": [
        {
          "internalType": "bytes32",
          "name": "",
          "type": "bytes32"
        }
      ],
      "name": "tradingPairs",
      "outputs": [
        {
          "internalType": "address",
          "name": "baseToken",
          "type": "address"
        },
        {
          "internalType": "address",
          "name": "quoteToken",
          "type": "address"
        },
        {
          "internalType": "bool",
          "name": "isActive",
          "type": "bool"
        },
        {
          "internalType": "uint256",
          "name": "minOrderSize",
          "type": "uint256"
        },
        {
          "internalType": "uint256",
          "name": "tickSize",
          "type": "uint256"
        },
        {
          "internalType": "uint256",
          "name": "makerFee",
          "type": "uint256"
        },
        {
          "internalType": "uint256",
          "name": "takerFee",
          "type": "uint256"
        },
        {
          "internalType": "uint256",
          "name": "volume24h",
          "type": "uint256"
        },
        {
          "internalType": "uint256",
          "name": "lastPrice",
          "type": "uint256"
        },
        {
          "internalType": "uint256",
          "name": "totalTrades",
          "type": "uint256"
        }
      ],
      "stateMutability": "view",
      "type": "function"
    },
    {
      "inputs": [],
      "name": "unpause",
      "outputs": [],
      "stateMutability": "nonpayable",
      "type": "function"
    },
    {
      "inputs": [
        {
          "internalType": "bytes32",
          "name": "_pairId",
          "type": "bytes32"
        },
        {
          "internalType": "uint256",
          "name": "_makerFee",
          "type": "uint256"
        },
        {
          "internalType": "uint256",
          "name": "_takerFee",
          "type": "uint256"
        }
      ],
      "name": "updateFees",
      "outputs": [],
      "stateMutability": "nonpayable",
      "type": "function"
    },
    {
      "inputs": [
        {
          "internalType": "address",
          "name": "_token",
          "type": "address"
        },
        {
          "internalType": "uint256",
          "name": "_amount",
          "type": "uint256"
        }
      ],
      "name": "withdraw",
      "outputs": [],
      "stateMutability": "nonpayable",
      "type": "function"
    }
  ],
  "bytecode": "0x6101403462000396576001600160401b0390601f62003a2838819003918201601f1916830191848311848410176200038057808492604094855283396020938491810103126200039657516001600160a01b038116929083900362000396578082516200006c816200039b565b600c8152818101946b53706f7445786368616e676560a01b8652845162000093816200039b565b60019381858093520196603160f81b885281805560ff199384600254166002555190209620968660e052610100978089524660a052865190868201907f8b73c3c69bb8fe3d512ecc4cf759cc79239f7b179b0ffacaa9a75d522b39400f998a83528984015260608301524660808301523060a083015260a0825260c0820192828410908411176200038057828852815190206080523060c05261012097885282156200033157505060018060a01b0319600b541617600b55600091828052828452848320338452845260ff858420541615620002fc575b7fa49807205ce4d355092ef5a8a18f56e8913cf4a201fbe287825b095693c21775808452838552858420338552855260ff868520541615620002c5575b507f97667070c54ef182b0f5858b034beac1b6f3089aa2d3188bb1e8929f4fa9b929808452838552858420338552855260ff8685205416156200028e575b507fdf91394c13c48ebd5370100f1eb84afe3c6c47a78f9f9f874d5a9ec6afe0ae6b93848452838152858420338552815260ff86852054161562000255575b855161365090888a83620003b8843960805183505060a05183505060c05183505060e0518350505182505051815050f35b848452838152858420903385525284832091825416179055339160008051602062003a08833981519152339280a4388080808062000224565b808452838552858420338552855285842082848254161790553390339060008051602062003a088339815191528680a438620001e5565b808452838552858420338552855285842082848254161790553390339060008051602062003a088339815191528680a438620001a7565b8280528284528483203384528452848320818382541617905533338460008051602062003a088339815191528180a46200016a565b9062195b9d60ea1b6101246084938862461bcd60e51b855260c4820152602360e48201527f53706f7445786368616e67653a20696e76616c696420666565207265636970696101048201520152fd5b634e487b7160e01b600052604160045260246000fd5b600080fd5b604081019081106001600160401b03821117620003805760405256fe608080604052600436101561001357600080fd5b60003560e01c908162162420146128c85750806301ffc9a7146128725780631585f8b814612568578063175e7a6614612509578063248a9ca3146124da5780632f2ff15d1461242757806336568abe14612395578063390c46ab1461146d5780633f4ba83a146113d957806340ce2b9b1461128f578063469048401461126657806347e7ef241461117c5780635778472a14610f545780635b0c5dbd14610f035780635c975abb14610ee05780635f81a57c14610ec257806366091c7814610e8a5780636805d6ad1461080b5780637489ec2314610d3057806375b238fc14610cf55780637ecebe0014610cbb5780638456cb5914610c6157806391d1485414610c1457806395ccea6714610bdc578063979a4dbd14610b8b5780639c3f1e9014610a8a5780639cf2ebf514610a6c578063a217fddf14610a50578063a3b13799146108d7578063aaf5eb68146108b4578063b2194ff514610879578063bc063e1a1461085c578063c23f001f1461080b578063cfbf9c5414610508578063d3f82d8e146104e6578063d547741f146104a7578063e275c99714610489578063e74b981b146103f0578063ecb406f414610394578063f1e9899e146102f7578063f3fef3a31461022c5763f5b541a6146101ec57600080fd5b346102275760003660031901126102275760206040517f97667070c54ef182b0f5858b034beac1b6f3089aa2d3188bb1e8929f4fa9b9298152f35b600080fd5b34610227576040366003190112610227576102456129b5565b602435610250613036565b61025861308c565b610263811515612bb4565b33600052600660205260406000209160018060a01b03169182600052602052610293816040600020541015612c4a565b33600052600660205260406000208260005260205260406000206102b8828254612b9b565b90556102c581338461328b565b6040519081527f2717ead6b9200dd235aad468c9809ea400fe33ac69b5bfaa6d3e90fc922b639860203392a360018055005b34610227576020366003190112610227576004356000526003602052610140604060002060018060a01b03808254169160018101546002820154600383015460048401549060058501549260ff60068701549560086007890154980154986040519a8b52811660208b015260a01c16151560408901526060880152608087015260a086015260c085015260e0840152610100830152610120820152f35b34610227576040366003190112610227576024358015158103610227576103ee906103bd612ca1565b6004356000908152600360205260409020600101805460ff60a01b191691151560a01b60ff60a01b16919091179055565b005b34610227576020366003190112610227576104096129b5565b610411612ca1565b6001600160a01b03168015610438576001600160601b0360a01b600b541617600b55600080f35b60405162461bcd60e51b815260206004820152602360248201527f53706f7445786368616e67653a20696e76616c69642066656520726563697069604482015262195b9d60ea1b6064820152608490fd5b34610227576000366003190112610227576020600d54604051908152f35b34610227576040366003190112610227576103ee6004356104c661299f565b908060005260006020526104e1600160406000200154612eb8565b612fc2565b3461022757600036600319011261022757602060405166038d7ea4c680008152f35b346102275760e03660031901126102275760043561052461299f565b6044356001600160a01b0381811692918390036102275760a435918160c4359161054c612ca1565b169283151580610802575b156107bd578484146107785785600052600360205260ff60016040600020015460a01c1661072957600891869161059b6103e880831115908161071e575b50612b40565b604051916105a883612a34565b86835260208301918883526040840192600184526060850160643581526106506080870192608435845260a0880194855260c0880195865260e08801966000885261010089019860008a5261012081019a60008c5260005260036020528c600160406000209e8f935116926001600160601b0360a01b9384825416178155019351169083541617825551151581549060ff60a01b90151560a01b169060ff60a01b1916179055565b5160028901555160038801555160048701555160058601555160068501555160078401555191015560095490600160401b8210156107085760018201806009558210156106f2577fa696bed63f44f4cdb01a2bddcf16e7b22979444d35594ad592e19bb74116b5ea928460409360096000527f6e1540171b6c0c960b71a7020d9f60077f6af931a8bbf590da0223dacf75c7af015582519182526020820152a2005b634e487b7160e01b600052603260045260246000fd5b634e487b7160e01b600052604160045260246000fd5b90508311158a610595565b60405162461bcd60e51b815260206004820152602160248201527f53706f7445786368616e67653a207061697220616c72656164792065786973746044820152607360f81b6064820152608490fd5b60405162461bcd60e51b815260206004820152601e60248201527f53706f7445786368616e67653a206964656e746963616c20746f6b656e7300006044820152606490fd5b60405162461bcd60e51b815260206004820152601c60248201527f53706f7445786368616e67653a20696e76616c696420746f6b656e73000000006044820152606490fd5b50841515610557565b34610227576040366003190112610227576108246129b5565b61082c61299f565b9060018060a01b038091166000526006602052604060002091166000526020526020604060002054604051908152f35b346102275760003660031901126102275760206040516103e88152f35b346102275760003660031901126102275760206040517fdf91394c13c48ebd5370100f1eb84afe3c6c47a78f9f9f874d5a9ec6afe0ae6b8152f35b34610227576000366003190112610227576020604051670de0b6b3a76400008152f35b346102275760203660031901126102275760006101406040516108f981612a17565b8281528260208201528260408201528260608201528260808201528260a08201528260c08201528260e0820152826101008201528261012082015201526004356000526008602052610160604060002061014060405161095881612a17565b600a8354938483526001810154602084015260018060a01b03600282015416604084015260018060a01b03600382015416606084015260048101546080840152600581015460a0840152600681015460c0840152600781015460e0840152600881015461010084015260098101546101208401520154828201526040519283526020810151602084015260018060a01b03604082015116604084015260018060a01b0360608201511660608401526080810151608084015260a081015160a084015260c081015160c084015260e081015160e08401526101008101516101008401526101208101516101208401520151610140820152f35b3461022757600036600319011261022757602060405160008152f35b34610227576000366003190112610227576020600954604051908152f35b346102275760203660031901126102275760043560005260046020526040600020805490600160a01b600190036001820154169060028101546003820154600483015460058401546006850154600786015490600887015492600988015460ff1694600a89015496600b8a015498600c8b015460ff169a600d01549b604051809e81526020015260408d015260ff8116610b23906129cb565b60ff811660608d015260808c019060081c60ff1690610b41916129d5565b60a08b015260c08a015260e0890152610100880152610120870152610b65816129cb565b61014086015261016085015261018084015215156101a08301526101c08201526101e090f35b34610227576020366003190112610227576004356009548110156102275760209060096000527f6e1540171b6c0c960b71a7020d9f60077f6af931a8bbf590da0223dacf75c7af0154604051908152f35b34610227576040366003190112610227576103ee610bf86129b5565b610c00612ca1565b6024359033906001600160a01b031661328b565b3461022757604036600319011261022757610c2d61299f565b600435600052600060205260406000209060018060a01b0316600052602052602060ff604060002054166040519015158152f35b3461022757600036600319011261022757610c7a612ca1565b610c8261308c565b600160ff1960025416176002557f62e78cea01bee320cd4e420270b5ea74000d11b0c9f74754ebdbfc544b05a2586020604051338152a1005b34610227576020366003190112610227576001600160a01b03610cdc6129b5565b1660005260076020526020604060002054604051908152f35b346102275760003660031901126102275760206040517fa49807205ce4d355092ef5a8a18f56e8913cf4a201fbe287825b095693c217758152f35b3461022757602036600319011261022757600435610d4c613036565b600081815260046020526040902060018101546001600160a01b03163303610e4557600981019060ff825416610d81816129cb565b8015908115610e31575b5015610dec5780610da3846002610db3940154613123565b6006600482015491015490612b9b565b50805460ff1916600317905533907fa6eb7cdc219e1518ced964e9a34e61d68a94e4f1569db3e84256ba981ba52753600080a360018055005b60405162461bcd60e51b815260206004820152601b60248201527f53706f7445786368616e67653a2063616e6e6f742063616e63656c00000000006044820152606490fd5b60019150610e3e816129cb565b1484610d8b565b60405162461bcd60e51b815260206004820152601d60248201527f53706f7445786368616e67653a206e6f74206f72646572206f776e65720000006044820152606490fd5b346102275760203660031901126102275760043560005260056020526040806000206005600482015491015482519182526020820152f35b34610227576000366003190112610227576020600c54604051908152f35b3461022757600036600319011261022757602060ff600254166040519015158152f35b3461022757602036600319011261022757600435600a5481101561022757602090600a6000527fc65a7bb8d6351c1cf70c95a316cc6a92839c986682d98bc35f958f4883f9d2a80154604051908152f35b346102275760203660031901126102275760006101c0604051610f76816129fa565b8281528260208201528260408201528260608201528260808201528260a08201528260c08201528260e08201528261010082015282610120820152826101408201528261016082015282610180820152826101a0820152015260043560005260046020526101e06040600020600d60405191610ff1836129fa565b8054835260018101546001600160a01b0316602084015260028101546040840152600381015461103c9060ff9080821661102a816129cb565b606087015260081c1660808501612ba8565b600481015460a0840152600581015460c0840152600681015460e08401526007810154610100840152600881015461012084015260ff600982015416611081816129cb565b610140840152600a810154610160840152600b81015461018084015260ff600c8201541615156101a084015201546101c08201526101c0604051918051835260018060a01b0360208201511660208401526040810151604084015260608101516110ea816129cb565b6060840152611101608082015160808501906129d5565b60a081015160a084015260c081015160c084015260e081015160e0840152610100810151610100840152610120810151610120840152610140810151611146816129cb565b6101408401526101608101516101608401526101808101516101808401526101a081015115156101a084015201516101c0820152f35b34610227576040366003190112610227576111956129b5565b602435906111a1613036565b6111a961308c565b6111b4821515612bb4565b6040516323b872dd60e01b6020820152336024820152306044820152606480820184905281526001600160a01b0391909116919060a081019067ffffffffffffffff8211818310176107085761120d9160405283613318565b3360005260066020526040600020826000526020526040600020611232828254612c00565b90556040519081527f5548c837ab068cf56a2c2479df0882a4922fd203edb7517321831d95078c5f6260203392a360018055005b3461022757600036600319011261022757600b546040516001600160a01b039091168152602090f35b34610227576020366003190112610227576101406040516112af81612a34565b6000815260006020820152600060408201526000606082015260006080820152600060a0820152600060c0820152600060e08201526101009060008282015260006101208092015260043560005260036020526040600020916040519061131582612a34565b8160018060a01b039485815416958683526001820154906020840191818116835260ff604086019160a01c16151581526002840154606086019081526003850154916080870192835260048601549360a0880194855260058701549560c089019687528b600860068a01549960e08c019a8b528c60078201549c019b8c5201549b019a8b526040519c8d52511660208c015251151560408b01525160608a01525160808901525160a08801525160c08701525160e086015251908401525190820152f35b34610227576000366003190112610227576113f2612ca1565b60025460ff8116156114315760ff19166002557f5db9ee0a495bf2e6ff9c91a7834c1ba4fdd244a5e8aa4e537bd38aeae4b073aa6020604051338152a1005b60405162461bcd60e51b815260206004820152601460248201527314185d5cd8589b194e881b9bdd081c185d5cd95960621b6044820152606490fd5b3461022757610100366003190112610227576004602435101561022757600260443510156102275760e4358015158103610227576114a9613036565b6114b161308c565b600435600052600360205260ff60016040600020015460a01c16156123505760043560005260036020526002604060002001546064351061230b576114f76024356129cb565b60243515612240575b336000526007602052604060002080549061151a82612b8c565b9055604051903360601b6020830152600435603483015260548201526054815261154381612a51565b60208151910120906004356000526003602052604060002060443515600014612209576115b190670de0b6b3a76400006115816084356064356130d0565b04903360005260066020526040600020906001808060a01b03910154166000526020526040600020541015612c4a565b3360005260076020526040600020548060001981011161198e57604051906115d8826129fa565b83825233602083015260043560408301526115f46024356129cb565b602435606083015261160b60443560808401612ba8565b60643560a083015260843560c0830152600060e08301524261010083015260a435610120830152600061014083015260c43561016083015260006101808301528215156101a0830152600019016101c08201528260005260046020526040600020908051825560018060a01b036020820151166001600160601b0360a01b6001840154161760018301556040810151600283015560608101516116ad816129cb565b6116b6816129cb565b600383015491608081015191600283101561200357600d9360ff61ff006101c09560081b1692169061ffff19161717600385015560a0810151600485015560c0810151600585015560e081015160068501556101008101516007850155610120810151600885015561014081015161172d816129cb565b611736816129cb565b60ff80196009870154169116176009850155610160810151600a850155610180810151600b850155600c84016101a0820151151560ff8019835416911617905501519101556117866024356129cb565b602435156117c8575b6020826040519060043533827f8d211b6f03b180a149e29e2bcbe22c46abb0a5f158891378a4ebdad0870f0258600080a4600180558152f35b8160005260046020526040600020600435600052600560205260406000209060ff600382015460081c1660028110156120035761214d576005810154908160005282602052604060002091600283015415612137575b5061182c8560028401612c0d565b6002820154908160001981011161198e5760049260059287600052600382016020526000190160406000205561186b6001858401549201918254612c00565b9055015491018054821161212f575b50505b15611889575b8161178f565b806000526004602052604060002090600435600052600560205260406000209060ff600384015460081c16906002821015612003578161211b576118cf60038401612ad9565b9390925b6000935b85518060001981011161198e57600019018510156119d95760005b6118fd868851612b9b565b8060001981011161198e57600019018110156119cd57846119a4576119228188612b2c565b5160018201821161198e5761193a6001830189612b2c565b51105b61194a575b6001016118f2565b60018101811161198e5780611963600180930189612b2c565b5161196e828a612b2c565b5161197b8484018b612b2c565b52611986828a612b2c565b529050611942565b634e487b7160e01b600052601160045260246000fd5b6119ae8188612b2c565b5160018201821161198e576119c66001830189612b2c565b511161193d565b506001909401936118d7565b94600094509192905b825185108061210a575b156120fd576119fb8584612b2c565b51928215806120f0575b6120e257821515836120d5575b61208557826120725783600052600182016020526040600020925b60005b6002850154811080612061575b1561204a57611a4f81600287016129e2565b90549060031b1c90816000526004602052604060002060ff600982015416611a76816129cb565b8015159081612035575b50611abd57611aac611a9b60048b015460068c015490612b9b565b916006600482015491015490612b9b565b8082101561202d5750915b82611acd575b50611ac89150612b8c565b611a30565b806000526004602052826040600020918c600052604060002060043560005260036020528d8b69021e19e0c9bab2400000611b35611b2a82611b22611b178660406000209b6130d0565b60048b0154906130d0565b04938b6130d0565b6005880154906130d0565b049160068701611b468a8254612c00565b815560068501611b578b8254612c00565b9055546004880154036120195760098701805460ff19166002179055611b7f85600435613123565b60043560005260036020528d604060002090670de0b6b3a7640000611bbb60018060a01b03845416936001808060a01b0391015416928d6130d0565b0460ff60038b015460081c166002811015612003578a918d889215600014611ef45794611c809394956001808c0196818060a01b0388541660005260066020526040600020846000526020526040600020611c17848254612b9b565b9055019160018060a01b038354166000526006602052604060002090600052602052611c496040600020918254612c00565b905560018060a01b0390541660005260066020526040600020856000526020526040600020611c79828254612b9b565b9055612b9b565b9060018060a01b039054166000526006602052604060002082600052602052611caf6040600020918254612c00565b9055611cbb8484612c00565b9060018060a01b03600b54166000526006602052604060002090600052602052611ceb6040600020918254612c00565b90555b604051602081019086825282604082015242606082015260608152611d1281612a51565b5190206001978801549490970154604051946001600160a01b039182169116611d3a86612a17565b88865260043560208701526040860152606085015284608085015260a08401528760c08401528c60e084015261010083015261012082015242610140820152836000526008602052600a61014060406000209280518455602081015160018501556002840160018060a01b036040830151166001600160601b0360a01b8254161790556003840160018060a01b036060830151166001600160601b0360a01b8254161790556080810151600485015560a0810151600585015560c0810151600685015560e08101516007850155610100810151600885015561012081015160098501550151910155600a5490600160401b821015610708576001820180600a558210156106f257611ac8958e60087f901fea57579f49a3e061642b5c628f85b2a55841db9215997b624323acde0b36958e88608097600a6000527fc65a7bb8d6351c1cf70c95a316cc6a92839c986682d98bc35f958f4883f9d2a8015560068201611ea6868254612c00565b9055600782015501611eb88154612b8c565b9055611ec682600c54612c00565b600c55611ed4600d54612b8c565b600d55604051928352602083015260408201528a6060820152a28a611abd565b916001611f2d929594019260018060a01b0384541660005260066020526040600020876000526020526040600020611c79828254612b9b565b600189019060018060a01b038254166000526006602052604060002086600052602052611f606040600020918254612c00565b905560018060a01b0390541660005260066020526040600020826000526020526040600020611f90848254612b9b565b905560018060a01b039054166000526006602052604060002090600052602052611fc06040600020918254612c00565b9055611fcc8484612c00565b9060018060a01b03600b54166000526006602052604060002090600052602052611ffc6040600020918254612c00565b9055611cee565b634e487b7160e01b600052602160045260246000fd5b60098701805460ff19166001179055611b7f565b905091611ab7565b60019150612042816129cb565b14158c611a80565b50935094612059919250612b8c565b9391906119e2565b506006870154600488015411611a3d565b8360005281602052604060002092611a2d565b5050505060209291505b6006810154600482015481036120b65750600901805460ff191660021790555b9050611883565b6120c1575b506120af565b600901805460ff19166001179055826120bb565b5060058501548410611a12565b50505050602092915061208f565b5060058501548411611a05565b505050602092915061208f565b5060068401546004850154116119ec565b61212760028401612ad9565b9390926118d3565b55828061187a565b8061214791845560028501612c0d565b8561181e565b9060058201549081600052600181016020526040600020916002830154156121f3575b5061217e8560028401612c0d565b6002820154918260001981011161198e576005928660005260038201602052600019016040600020556121bb600160048601549201918254612c00565b90550190815480159081156121e5575b506121d8575b505061187d565b60050154905582806121d1565b9050600582015410856121cb565b8061220391845560038301612c0d565b85612170565b33600052600660205260406000209060018060a01b0390541660005260205261223b6064356040600020541015612c4a565b6115b1565b608435156122c657600435600052600360205260036040600020015480156122b05760843506156115005760405162461bcd60e51b815260206004820152601f60248201527f53706f7445786368616e67653a20696e76616c6964207469636b2073697a65006044820152606490fd5b634e487b7160e01b600052601260045260246000fd5b60405162461bcd60e51b815260206004820152601b60248201527f53706f7445786368616e67653a20696e76616c696420707269636500000000006044820152606490fd5b60405162461bcd60e51b815260206004820152601d60248201527f53706f7445786368616e67653a206f7264657220746f6f20736d616c6c0000006044820152606490fd5b60405162461bcd60e51b815260206004820152601d60248201527f53706f7445786368616e67653a2070616972206e6f74206163746976650000006044820152606490fd5b34610227576040366003190112610227576123ae61299f565b336001600160a01b038216036123ca576103ee90600435612fc2565b60405162461bcd60e51b815260206004820152602f60248201527f416363657373436f6e74726f6c3a2063616e206f6e6c792072656e6f756e636560448201526e103937b632b9903337b91039b2b63360891b6064820152608490fd5b346102275760403660031901126102275760043561244361299f565b81600052600060205261245d600160406000200154612eb8565b81600052600060205260406000209060018060a01b0316908160005260205260ff604060002054161561248c57005b8160005260006020526040600020816000526020526040600020600160ff1982541617905533917f2f8788117e7eff1d82e926ec794901d17c78024a50270940304540a733656f0d600080a4005b346102275760203660031901126102275760043560005260006020526020600160406000200154604051908152f35b3461022757606036600319011261022757604435600560243561252a612ca1565b6125406103e880831115908161255d5750612b40565b600435600052600360205260406000209060048201550155600080f35b905084111585610595565b346102275760403660031901126102275760243560043560005260056020526040600020906002820191825480831060001461286c5750815b6003820154808210156128615750919290925b6125bd81612aa7565b926125c782612aa7565b906125d181612aa7565b956125e46125de83612aa7565b95612ad9565b966000965b88518060001981011161198e57600019018810156126955760005b61260f898b51612b9b565b600019810190811161198e578110156126895761262c818b612b2c565b519060018101811161198e576001916126478383018d612b2c565b5111612654575b01612604565b6126608282018c612b2c565b5161266b828d612b2c565b516126788385018e612b2c565b52612683828d612b2c565b5261264e565b506001909701966125e9565b91928693868a96939660005b82811061280d575050506126b760038201612ad9565b956000945b8751600019979088810190811161198e578710156127665760005b6126e2888b51612b9b565b89810190811161198e57811015612758576126fd818b612b2c565b51906001810180821161198e57600192612717828e612b2c565b5110612725575b50016126d7565b8b6127466127338383612b2c565b519261273f8584612b2c565b5192612b2c565b52612751828d612b2c565b528b61271e565b5096506001909501946126bc565b856001868187018c60005b8381106127ca5761279c886127c6896127b88d6127aa8c60405197889760808952608089019061296b565b90878203602089015261296b565b90858203604087015261296b565b90838203606085015261296b565b0390f35b806127d6869284612b2c565b516127e1828c612b2c565b526127ec8184612b2c565b51600052836020528160406000200154612806828a612b2c565b5201612771565b80612822600192849b989b9a9699979a612b2c565b5161282d8288612b2c565b526128388184612b2c565b51600052876020528160406000200154612852828c612b2c565b520197949796939592966126a1565b9050919290926125b4565b916125a1565b346102275760203660031901126102275760043563ffffffff60e01b811680910361022757602090637965db0b60e01b81149081156128b7575b506040519015158152f35b6301ffc9a760e01b149050826128ac565b34610227576020366003190112610227576101609060043560005260086020526040600020805490600181015460018060a01b0380600284015416906003840154166004840154600585015490600686015492600787015494600888015496600a60098a0154990154998b5260208b015260408a01526060890152608088015260a087015260c086015260e0850152610100840152610120830152610140820152f35b90815180825260208080930193019160005b82811061298b575050505090565b83518552938101939281019260010161297d565b602435906001600160a01b038216820361022757565b600435906001600160a01b038216820361022757565b6004111561200357565b9060028210156120035752565b80548210156106f25760005260206000200190600090565b6101e0810190811067ffffffffffffffff82111761070857604052565b610160810190811067ffffffffffffffff82111761070857604052565b610140810190811067ffffffffffffffff82111761070857604052565b6080810190811067ffffffffffffffff82111761070857604052565b90601f8019910116810190811067ffffffffffffffff82111761070857604052565b67ffffffffffffffff81116107085760051b60200190565b90612ab182612a8f565b612abe6040519182612a6d565b8281528092612acf601f1991612a8f565b0190602036910137565b90604051918281549182825260209260208301916000526020600020936000905b828210612b1257505050612b1092500383612a6d565b565b855484526001958601958895509381019390910190612afa565b80518210156106f25760209160051b010190565b15612b4757565b60405162461bcd60e51b815260206004820152601a60248201527f53706f7445786368616e67653a2066656520746f6f20686967680000000000006044820152606490fd5b600019811461198e5760010190565b9190820391821161198e57565b60028210156120035752565b15612bbb57565b60405162461bcd60e51b815260206004820152601c60248201527f53706f7445786368616e67653a20696e76616c696420616d6f756e74000000006044820152606490fd5b9190820180921161198e57565b805490600160401b8210156107085781612c2f916001612c46940181556129e2565b819391549060031b91821b91600019901b19161790565b9055565b15612c5157565b60405162461bcd60e51b815260206004820152602260248201527f53706f7445786368616e67653a20696e73756666696369656e742062616c616e604482015261636560f01b6064820152608490fd5b3360009081527f7d7ffb7a348e1c6a02869081a26547b49160dd3df72d1d75a570eb9b698292ec60209081526040808320549092907fa49807205ce4d355092ef5a8a18f56e8913cf4a201fbe287825b095693c217759060ff1615612d065750505050565b612d0f33613479565b845191612d1b83612a51565b60428352848301936060368637835115612ea4576030855383519060019160011015612ea45790607860218601536041915b818311612e3657505050612df457612da2938593612dda93612dcb604894612df09951988576020b1b1b2b9b9a1b7b73a3937b61d1030b1b1b7bab73a1604d1b8b9788015282519283916037890191016132c9565b8401917001034b99036b4b9b9b4b733903937b6329607d1b6037840152518093868401906132c9565b01036028810185520183612a6d565b5162461bcd60e51b8152918291600483016132ec565b0390fd5b60648486519062461bcd60e51b825280600483015260248201527f537472696e67733a20686578206c656e67746820696e73756666696369656e746044820152fd5b909192600f81166010811015612e90576f181899199a1a9b1b9c1cb0b131b232b360811b901a612e668588613468565b5360041c928015612e7c57600019019190612d4d565b634e487b7160e01b82526011600452602482fd5b634e487b7160e01b83526032600452602483fd5b634e487b7160e01b81526032600452602490fd5b6000818152602090808252604092838220338352835260ff848320541615612ee05750505050565b612ee933613479565b845191612ef583612a51565b60428352848301936060368637835115612ea4576030855383519060019160011015612ea45790607860218601536041915b818311612f7c57505050612df457612da2938593612dda93612dcb604894612df09951988576020b1b1b2b9b9a1b7b73a3937b61d1030b1b1b7bab73a1604d1b8b9788015282519283916037890191016132c9565b909192600f81166010811015612e90576f181899199a1a9b1b9c1cb0b131b232b360811b901a612fac8588613468565b5360041c928015612e7c57600019019190612f27565b9060009180835282602052604083209160018060a01b03169182845260205260ff604084205416612ff257505050565b80835282602052604083208284526020526040832060ff1981541690557ff6391f5c32d9c69d2a47ea670b442974b53935d1edc7fd64eb21e047a839171b339380a4565b600260015414613047576002600155565b60405162461bcd60e51b815260206004820152601f60248201527f5265656e7472616e637947756172643a207265656e7472616e742063616c6c006044820152606490fd5b60ff6002541661309857565b60405162461bcd60e51b815260206004820152601060248201526f14185d5cd8589b194e881c185d5cd95960821b6044820152606490fd5b8181029291811591840414171561198e57565b805490811561310d57600019918201916130fd83836129e2565b909182549160031b1b1916905555565b634e487b7160e01b600052603160045260246000fd5b60008281526004906020828152604090818320948352600581528183209060039160ff8388015460081c1660028110156132785761321f5760058701548552815282842096828801928186528383528486205460028a01918254600019810190811161320c57936131b1612c469b98948460019c9894886131c39d9960069c98106131cd575b5050506130e3565b84525281205582015491015490612b9b565b9201918254612b9b565b6131d790846129e2565b905490821b1c6131ea612c2f84866129e2565b90556131f682846129e2565b9054911b1c8852858552868820553880806131a9565b634e487b7160e01b895260118a52602489fd5b6001906005880154865201815282842096828801928186528383528486205460028a01918254600019810190811161320c57936131b1612c469b98948460019c9894886131c39d9960069c98106131cd575050506130e3565b634e487b7160e01b865260218752602486fd5b60405163a9059cbb60e01b60208201526001600160a01b039092166024830152604480830193909352918152612b10916132c482612a51565b613318565b60005b8381106132dc5750506000910152565b81810151838201526020016132cc565b6040916020825261330c81518092816020860152602086860191016132c9565b601f01601f1916010190565b60018060a01b0316906040516040810167ffffffffffffffff9082811082821117610708576040526020938483527f5361666545524332303a206c6f772d6c6576656c2063616c6c206661696c6564858401526000808587829751910182855af1903d15613459573d92831161344557906133b3939291604051926133a688601f19601f8401160185612a6d565b83523d868885013e613589565b8051806133c1575b50505050565b81849181010312613441578201519081159182150361343e57506133e7578080806133bb565b6084906040519062461bcd60e51b82526004820152602a60248201527f5361666545524332303a204552433230206f7065726174696f6e20646964206e6044820152691bdd081cdd58d8d9595960b21b6064820152fd5b80fd5b5080fd5b634e487b7160e01b85526041600452602485fd5b906133b3939250606091613589565b9081518110156106f2570160200190565b604051906060820182811067ffffffffffffffff82111761070857604052602a82526020820160403682378251156106f257603090538151600190600110156106f257607860218401536029905b80821161351b5750506134d75790565b606460405162461bcd60e51b815260206004820152602060248201527f537472696e67733a20686578206c656e67746820696e73756666696369656e746044820152fd5b9091600f81166010811015613574576f181899199a1a9b1b9c1cb0b131b232b360811b901a61354a8486613468565b5360041c91801561355f5760001901906134c7565b60246000634e487b7160e01b81526011600452fd5b60246000634e487b7160e01b81526032600452fd5b919290156135eb575081511561359d575090565b3b156135a65790565b60405162461bcd60e51b815260206004820152601d60248201527f416464726573733a2063616c6c20746f206e6f6e2d636f6e74726163740000006044820152606490fd5b8251909150156135fe5750805190602001fd5b60405162461bcd60e51b8152908190612df090600483016132ec56fea2646970667358221220fe15a465f4bd4f4fc81dd46307998a052c9eff17e35c4898819141170b59cc3164736f6c634300081800332f8788117e7eff1d82e926ec794901d17c78024a50270940304540a733656f0d",
  "linkReferences": {},
  "deployedLinkReferences": {}
}