{
  "_format": "hh-sol-artifact-1",
  "contractName": "StakingPool",
  "sourceName": "contracts/solidity/defi/StakingPool.sol",
  "abi": [
    {
      "inputs": [
        {
          "internalType": "address",
          "name": "_stakingToken",
          "type": "address"
        },
        {
          "internalType": "address",
          "name": "_penaltyRecipient",
          "type": "address"
        }
      ],
      "stateMutability": "nonpayable",
      "type": "constructor"
    },
    {
      "anonymous": false,
      "inputs": [
        {
          "indexed": true,
          "internalType": "address",
          "name": "user",
          "type": "address"
        },
        {
          "indexed": false,
          "internalType": "uint256",
          "name": "amount",
          "type": "uint256"
        },
        {
          "indexed": false,
          "internalType": "uint256",
          "name": "penalty",
          "type": "uint256"
        }
      ],
      "name": "EmergencyWithdraw",
      "type": "event"
    },
    {
      "anonymous": false,
      "inputs": [
        {
          "indexed": true,
          "internalType": "address",
          "name": "previousOwner",
          "type": "address"
        },
        {
          "indexed": true,
          "internalType": "address",
          "name": "newOwner",
          "type": "address"
        }
      ],
      "name": "OwnershipTransferred",
      "type": "event"
    },
    {
      "anonymous": false,
      "inputs": [
        {
          "indexed": false,
          "internalType": "address",
          "name": "account",
          "type": "address"
        }
      ],
      "name": "Paused",
      "type": "event"
    },
    {
      "anonymous": false,
      "inputs": [
        {
          "indexed": true,
          "internalType": "address",
          "name": "rewardToken",
          "type": "address"
        },
        {
          "indexed": false,
          "internalType": "uint256",
          "name": "reward",
          "type": "uint256"
        }
      ],
      "name": "RewardAdded",
      "type": "event"
    },
    {
      "anonymous": false,
      "inputs": [
        {
          "indexed": true,
          "internalType": "address",
          "name": "user",
          "type": "address"
        },
        {
          "indexed": true,
          "internalType": "address",
          "name": "rewardToken",
          "type": "address"
        },
        {
          "indexed": false,
          "internalType": "uint256",
          "name": "amount",
          "type": "uint256"
        }
      ],
      "name": "RewardsClaimed",
      "type": "event"
    },
    {
      "anonymous": false,
      "inputs": [
        {
          "indexed": true,
          "internalType": "address",
          "name": "delegator",
          "type": "address"
        },
        {
          "indexed": true,
          "internalType": "address",
          "name": "delegatee",
          "type": "address"
        },
        {
          "indexed": true,
          "internalType": "uint256",
          "name": "stakeId",
          "type": "uint256"
        }
      ],
      "name": "StakeDelegated",
      "type": "event"
    },
    {
      "anonymous": false,
      "inputs": [
        {
          "indexed": true,
          "internalType": "address",
          "name": "user",
          "type": "address"
        },
        {
          "indexed": true,
          "internalType": "uint256",
          "name": "stakeId",
          "type": "uint256"
        },
        {
          "indexed": false,
          "internalType": "uint256",
          "name": "amount",
          "type": "uint256"
        },
        {
          "indexed": false,
          "internalType": "uint256",
          "name": "lockPeriod",
          "type": "uint256"
        },
        {
          "indexed": false,
          "internalType": "uint256",
          "name": "multiplier",
          "type": "uint256"
        },
        {
          "indexed": false,
          "internalType": "bool",
          "name": "autoCompound",
          "type": "bool"
        }
      ],
      "name": "Staked",
      "type": "event"
    },
    {
      "anonymous": false,
      "inputs": [
        {
          "indexed": true,
          "internalType": "uint256",
          "name": "tierId",
          "type": "uint256"
        },
        {
          "indexed": false,
          "internalType": "uint256",
          "name": "minPeriod",
          "type": "uint256"
        },
        {
          "indexed": false,
          "internalType": "uint256",
          "name": "maxPeriod",
          "type": "uint256"
        },
        {
          "indexed": false,
          "internalType": "uint256",
          "name": "multiplier",
          "type": "uint256"
        },
        {
          "indexed": false,
          "internalType": "uint256",
          "name": "penalty",
          "type": "uint256"
        }
      ],
      "name": "TierAdded",
      "type": "event"
    },
    {
      "anonymous": false,
      "inputs": [
        {
          "indexed": false,
          "internalType": "address",
          "name": "account",
          "type": "address"
        }
      ],
      "name": "Unpaused",
      "type": "event"
    },
    {
      "anonymous": false,
      "inputs": [
        {
          "indexed": true,
          "internalType": "address",
          "name": "user",
          "type": "address"
        },
        {
          "indexed": true,
          "internalType": "uint256",
          "name": "stakeId",
          "type": "uint256"
        },
        {
          "indexed": false,
          "internalType": "uint256",
          "name": "amount",
          "type": "uint256"
        },
        {
          "indexed": false,
          "internalType": "uint256",
          "name": "penalty",
          "type": "uint256"
        }
      ],
      "name": "Unstaked",
      "type": "event"
    },
    {
      "inputs": [],
      "name": "MAX_PENALTY_RATE",
      "outputs": [
        {
          "internalType": "uint256",
          "name": "",
          "type": "uint256"
        }
      ],
      "stateMutability": "view",
      "type": "function"
    },
    {
      "inputs": [],
      "name": "MAX_STAKING_PERIOD",
      "outputs": [
        {
          "internalType": "uint256",
          "name": "",
          "type": "uint256"
        }
      ],
      "stateMutability": "view",
      "type": "function"
    },
    {
      "inputs": [],
      "name": "MIN_STAKING_PERIOD",
      "outputs": [
        {
          "internalType": "uint256",
          "name": "",
          "type": "uint256"
        }
      ],
      "stateMutability": "view",
      "type": "function"
    },
    {
      "inputs": [
        {
          "internalType": "address",
          "name": "rewardToken",
          "type": "address"
        },
        {
          "internalType": "uint256",
          "name": "rewardRate",
          "type": "uint256"
        }
      ],
      "name": "addRewardToken",
      "outputs": [],
      "stateMutability": "nonpayable",
      "type": "function"
    },
    {
      "inputs": [
        {
          "internalType": "uint256",
          "name": "minPeriod",
          "type": "uint256"
        },
        {
          "internalType": "uint256",
          "name": "maxPeriod",
          "type": "uint256"
        },
        {
          "internalType": "uint256",
          "name": "multiplier",
          "type": "uint256"
        },
        {
          "internalType": "uint256",
          "name": "penalty",
          "type": "uint256"
        }
      ],
      "name": "addTier",
      "outputs": [],
      "stateMutability": "nonpayable",
      "type": "function"
    },
    {
      "inputs": [
        {
          "internalType": "address",
          "name": "rewardToken",
          "type": "address"
        }
      ],
      "name": "claimReward",
      "outputs": [],
      "stateMutability": "nonpayable",
      "type": "function"
    },
    {
      "inputs": [],
      "name": "claimRewards",
      "outputs": [],
      "stateMutability": "nonpayable",
      "type": "function"
    },
    {
      "inputs": [
        {
          "internalType": "address",
          "name": "",
          "type": "address"
        }
      ],
      "name": "delegatedPower",
      "outputs": [
        {
          "internalType": "uint256",
          "name": "",
          "type": "uint256"
        }
      ],
      "stateMutability": "view",
      "type": "function"
    },
    {
      "inputs": [
        {
          "internalType": "address",
          "name": "",
          "type": "address"
        },
        {
          "internalType": "uint256",
          "name": "",
          "type": "uint256"
        }
      ],
      "name": "delegators",
      "outputs": [
        {
          "internalType": "address",
          "name": "",
          "type": "address"
        }
      ],
      "stateMutability": "view",
      "type": "function"
    },
    {
      "inputs": [
        {
          "internalType": "address",
          "name": "token",
          "type": "address"
        },
        {
          "internalType": "uint256",
          "name": "amount",
          "type": "uint256"
        }
      ],
      "name": "emergencyRecoverToken",
      "outputs": [],
      "stateMutability": "nonpayable",
      "type": "function"
    },
    {
      "inputs": [],
      "name": "emergencyWithdraw",
      "outputs": [],
      "stateMutability": "nonpayable",
      "type": "function"
    },
    {
      "inputs": [],
      "name": "emergencyWithdrawEnabled",
      "outputs": [
        {
          "internalType": "bool",
          "name": "",
          "type": "bool"
        }
      ],
      "stateMutability": "view",
      "type": "function"
    },
    {
      "inputs": [],
      "name": "emergencyWithdrawPenalty",
      "outputs": [
        {
          "internalType": "uint256",
          "name": "",
          "type": "uint256"
        }
      ],
      "stateMutability": "view",
      "type": "function"
    },
    {
      "inputs": [
        {
          "internalType": "address",
          "name": "user",
          "type": "address"
        }
      ],
      "name": "getEffectiveStakedAmount",
      "outputs": [
        {
          "internalType": "uint256",
          "name": "",
          "type": "uint256"
        }
      ],
      "stateMutability": "view",
      "type": "function"
    },
    {
      "inputs": [
        {
          "internalType": "address",
          "name": "user",
          "type": "address"
        }
      ],
      "name": "getPendingRewards",
      "outputs": [
        {
          "internalType": "address[]",
          "name": "tokens",
          "type": "address[]"
        },
        {
          "internalType": "uint256[]",
          "name": "amounts",
          "type": "uint256[]"
        }
      ],
      "stateMutability": "view",
      "type": "function"
    },
    {
      "inputs": [
        {
          "internalType": "address",
          "name": "user",
          "type": "address"
        }
      ],
      "name": "getUserStakes",
      "outputs": [
        {
          "components": [
            {
              "internalType": "uint256",
              "name": "amount",
              "type": "uint256"
            },
            {
              "internalType": "uint256",
              "name": "lockEndTime",
              "type": "uint256"
            },
            {
              "internalType": "uint256",
              "name": "stakingPeriod",
              "type": "uint256"
            },
            {
              "internalType": "uint256",
              "name": "multiplier",
              "type": "uint256"
            },
            {
              "internalType": "bool",
              "name": "autoCompound",
              "type": "bool"
            },
            {
              "internalType": "address",
              "name": "delegatedTo",
              "type": "address"
            },
            {
              "internalType": "uint256",
              "name": "stakedAt",
              "type": "uint256"
            }
          ],
          "internalType": "struct StakingPool.StakeInfo[]",
          "name": "",
          "type": "tuple[]"
        }
      ],
      "stateMutability": "view",
      "type": "function"
    },
    {
      "inputs": [
        {
          "internalType": "address",
          "name": "user",
          "type": "address"
        }
      ],
      "name": "getVotingPower",
      "outputs": [
        {
          "internalType": "uint256",
          "name": "",
          "type": "uint256"
        }
      ],
      "stateMutability": "view",
      "type": "function"
    },
    {
      "inputs": [
        {
          "internalType": "address",
          "name": "",
          "type": "address"
        }
      ],
      "name": "isRewardToken",
      "outputs": [
        {
          "internalType": "bool",
          "name": "",
          "type": "bool"
        }
      ],
      "stateMutability": "view",
      "type": "function"
    },
    {
      "inputs": [
        {
          "internalType": "address",
          "name": "",
          "type": "address"
        }
      ],
      "name": "lastUpdateTime",
      "outputs": [
        {
          "internalType": "uint256",
          "name": "",
          "type": "uint256"
        }
      ],
      "stateMutability": "view",
      "type": "function"
    },
    {
      "inputs": [],
      "name": "maxStakeAmount",
      "outputs": [
        {
          "internalType": "uint256",
          "name": "",
          "type": "uint256"
        }
      ],
      "stateMutability": "view",
      "type": "function"
    },
    {
      "inputs": [],
      "name": "minStakeAmount",
      "outputs": [
        {
          "internalType": "uint256",
          "name": "",
          "type": "uint256"
        }
      ],
      "stateMutability": "view",
      "type": "function"
    },
    {
      "inputs": [],
      "name": "owner",
      "outputs": [
        {
          "internalType": "address",
          "name": "",
          "type": "address"
        }
      ],
      "stateMutability": "view",
      "type": "function"
    },
    {
      "inputs": [],
      "name": "pause",
      "outputs": [],
      "stateMutability": "nonpayable",
      "type": "function"
    },
    {
      "inputs": [],
      "name": "paused",
      "outputs": [
        {
          "internalType": "bool",
          "name": "",
          "type": "bool"
        }
      ],
      "stateMutability": "view",
      "type": "function"
    },
    {
      "inputs": [],
      "name": "penaltyRecipient",
      "outputs": [
        {
          "internalType": "address",
          "name": "",
          "type": "address"
        }
      ],
      "stateMutability": "view",
      "type": "function"
    },
    {
      "inputs": [],
      "name": "renounceOwnership",
      "outputs": [],
      "stateMutability": "nonpayable",
      "type": "function"
    },
    {
      "inputs": [
        {
          "internalType": "address",
          "name": "",
          "type": "address"
        }
      ],
      "name": "rewardPerTokenStored",
      "outputs": [
        {
          "internalType": "uint256",
          "name": "",
          "type": "uint256"
        }
      ],
      "stateMutability": "view",
      "type": "function"
    },
    {
      "inputs": [
        {
          "internalType": "address",
          "name": "",
          "type": "address"
        }
      ],
      "name": "rewardRates",
      "outputs": [
        {
          "internalType": "uint256",
          "name": "",
          "type": "uint256"
        }
      ],
      "stateMutability": "view",
      "type": "function"
    },
    {
      "inputs": [
        {
          "internalType": "uint256",
          "name": "",
          "type": "uint256"
        }
      ],
      "name": "rewardTokens",
      "outputs": [
        {
          "internalType": "address",
          "name": "",
          "type": "address"
        }
      ],
      "stateMutability": "view",
      "type": "function"
    },
    {
      "inputs": [
        {
          "internalType": "bool",
          "name": "enabled",
          "type": "bool"
        }
      ],
      "name": "setEmergencyWithdraw",
      "outputs": [],
      "stateMutability": "nonpayable",
      "type": "function"
    },
    {
      "inputs": [
        {
          "internalType": "uint256",
          "name": "newPenalty",
          "type": "uint256"
        }
      ],
      "name": "setEmergencyWithdrawPenalty",
      "outputs": [],
      "stateMutability": "nonpayable",
      "type": "function"
    },
    {
      "inputs": [
        {
          "internalType": "uint256",
          "name": "amount",
          "type": "uint256"
        },
        {
          "internalType": "uint256",
          "name": "stakingPeriod",
          "type": "uint256"
        },
        {
          "internalType": "bool",
          "name": "autoCompound",
          "type": "bool"
        },
        {
          "internalType": "address",
          "name": "delegateTo",
          "type": "address"
        }
      ],
      "name": "stake",
      "outputs": [
        {
          "internalType": "uint256",
          "name": "stakeId",
          "type": "uint256"
        }
      ],
      "stateMutability": "nonpayable",
      "type": "function"
    },
    {
      "inputs": [
        {
          "internalType": "uint256",
          "name": "",
          "type": "uint256"
        }
      ],
      "name": "stakingTiers",
      "outputs": [
        {
          "internalType": "uint256",
          "name": "minPeriod",
          "type": "uint256"
        },
        {
          "internalType": "uint256",
          "name": "maxPeriod",
          "type": "uint256"
        },
        {
          "internalType": "uint256",
          "name": "multiplier",
          "type": "uint256"
        },
        {
          "internalType": "uint256",
          "name": "earlyWithdrawalPenalty",
          "type": "uint256"
        }
      ],
      "stateMutability": "view",
      "type": "function"
    },
    {
      "inputs": [],
      "name": "stakingToken",
      "outputs": [
        {
          "internalType": "contract IERC20",
          "name": "",
          "type": "address"
        }
      ],
      "stateMutability": "view",
      "type": "function"
    },
    {
      "inputs": [],
      "name": "tierCount",
      "outputs": [
        {
          "internalType": "uint256",
          "name": "",
          "type": "uint256"
        }
      ],
      "stateMutability": "view",
      "type": "function"
    },
    {
      "inputs": [
        {
          "internalType": "address",
          "name": "",
          "type": "address"
        }
      ],
      "name": "totalRewardsByToken",
      "outputs": [
        {
          "internalType": "uint256",
          "name": "",
          "type": "uint256"
        }
      ],
      "stateMutability": "view",
      "type": "function"
    },
    {
      "inputs": [],
      "name": "totalRewardsDistributed",
      "outputs": [
        {
          "internalType": "uint256",
          "name": "",
          "type": "uint256"
        }
      ],
      "stateMutability": "view",
      "type": "function"
    },
    {
      "inputs": [],
      "name": "totalStaked",
      "outputs": [
        {
          "internalType": "uint256",
          "name": "",
          "type": "uint256"
        }
      ],
      "stateMutability": "view",
      "type": "function"
    },
    {
      "inputs": [
        {
          "internalType": "address",
          "name": "",
          "type": "address"
        }
      ],
      "name": "totalStakedByUser",
      "outputs": [
        {
          "internalType": "uint256",
          "name": "",
          "type": "uint256"
        }
      ],
      "stateMutability": "view",
      "type": "function"
    },
    {
      "inputs": [
        {
          "internalType": "address",
          "name": "newOwner",
          "type": "address"
        }
      ],
      "name": "transferOwnership",
      "outputs": [],
      "stateMutability": "nonpayable",
      "type": "function"
    },
    {
      "inputs": [],
      "name": "unpause",
      "outputs": [],
      "stateMutability": "nonpayable",
      "type": "function"
    },
    {
      "inputs": [
        {
          "internalType": "uint256",
          "name": "stakeId",
          "type": "uint256"
        }
      ],
      "name": "unstake",
      "outputs": [],
      "stateMutability": "nonpayable",
      "type": "function"
    },
    {
      "inputs": [
        {
          "internalType": "address",
          "name": "rewardToken",
          "type": "address"
        },
        {
          "internalType": "uint256",
          "name": "newRate",
          "type": "uint256"
        }
      ],
      "name": "updateRewardRate",
      "outputs": [],
      "stateMutability": "nonpayable",
      "type": "function"
    },
    {
      "inputs": [
        {
          "internalType": "uint256",
          "name": "newMinStake",
          "type": "uint256"
        },
        {
          "internalType": "uint256",
          "name": "newMaxStake",
          "type": "uint256"
        }
      ],
      "name": "updateStakingLimits",
      "outputs": [],
      "stateMutability": "nonpayable",
      "type": "function"
    },
    {
      "inputs": [
        {
          "internalType": "address",
          "name": "",
          "type": "address"
        },
        {
          "internalType": "uint256",
          "name": "",
          "type": "uint256"
        }
      ],
      "name": "userStakes",
      "outputs": [
        {
          "internalType": "uint256",
          "name": "amount",
          "type": "uint256"
        },
        {
          "internalType": "uint256",
          "name": "lockEndTime",
          "type": "uint256"
        },
        {
          "internalType": "uint256",
          "name": "stakingPeriod",
          "type": "uint256"
        },
        {
          "internalType": "uint256",
          "name": "multiplier",
          "type": "uint256"
        },
        {
          "internalType": "bool",
          "name": "autoCompound",
          "type": "bool"
        },
        {
          "internalType": "address",
          "name": "delegatedTo",
          "type": "address"
        },
        {
          "internalType": "uint256",
          "name": "stakedAt",
          "type": "uint256"
        }
      ],
      "stateMutability": "view",
      "type": "function"
    }
  ],
  "bytecode": "0x60a034620003fc5762002f3e601f38829003908101601f19168301906001600160401b03821184831017620004015780849160409485948552833981010312620003fc576200004e8262000437565b6200005d602080940162000437565b9262000069336200044c565b60019081805560ff1992600293808554168555670de0b6b3a764000060125569d3c21bcecceda1000000601355601454166014556103e860155560018060a01b03809116958615620003ad571680156200035a576080958652601680546001600160a01b031916919091179055620000e1336200044c565b83620000ec62000417565b8662015180918281528481019662278d0080895285830194612710908187526060948581016101f49889825260119d8e549b8d60009d8e52601090528c2093518455518d84015551868301555190600301558a549687928d51928352848b8401528d830152858201527f09a732fbf23a66264aca144a2de1318eeb16cf6de8564c92cdf689871d3097fd958691a260001994808614620003465787858d8b948d8f8990888e980192838155620001a162000417565b8581526003898d8184019c6276a7009e8f9e8f815288808801936010612ee09c8d87528a019761012c9e8f8a528352522096518755519086015551908401555191015554978897825195865285015283015288820152a2858114620003465787858d8695948c978f8f8a8e98018082556200021b62000417565b908582528882019962ed4e009d8b8f809d5286808601938d613a989a8b875288019660c8885282526010905220945185555190840155518b83015551906003015554968796825194855284015282015286810160c89052a285811462000346578b92888c8b60038e839a999783606498018092558d6200029a62000417565b948a86528786016301e1338097888252808801936010614e209b8c87528d8b01988f8a52835252209651875551908601555190840155519101558c549a8b98519586528501528c840152820152a2821462000332575001905551612aaa9182620004948339518181816105d001528181610600015281816110d3015281816114660152818161179d01528181611d6e0152611da00152f35b634e487b7160e01b81526004849052602490fd5b634e487b7160e01b875260048a9052602487fd5b845162461bcd60e51b815260048101839052602660248201527f5374616b696e67506f6f6c3a20696e76616c69642070656e616c7479207265636044820152651a5c1a595b9d60d21b6064820152608490fd5b855162461bcd60e51b815260048101849052602260248201527f5374616b696e67506f6f6c3a20696e76616c6964207374616b696e6720746f6b60448201526132b760f11b6064820152608490fd5b600080fd5b634e487b7160e01b600052604160045260246000fd5b60405190608082016001600160401b038111838210176200040157604052565b51906001600160a01b0382168203620003fc57565b600080546001600160a01b039283166001600160a01b03198216811783559216907f8be0079c531659141344cd1fd0a4f28419497f9722a3daafe3b4186f6b6457e09080a356fe608080604052600436101561001357600080fd5b60e060003560e01c918263012caae1146121f3575081630e3802e914612029578163169df06414611fef5781632ce9aead14611fb55781632e17de7814611c1f578163372500ab14611b1e5781633d3b260314611ae45781633f4ba83a14611a50578163489aa03314611a1657816352b817631461192f5781635747e69f1461190c578163583a6c34146118ee5781635c975abb146118cb5781635d80ca32146118ad5781635dcf152e1461187e5781636f6f580914611825578163715018a6146117cc57816372f702f31461178757816378370006146111eb57816379020194146110a25781637bb7bed1146110605781637db38ef914611043578163817b1cd214611025578163842e298114610ecd575080638456cb5914610e735780638da5cb5b14610e4a57806394952ea714610d0d57806396b55f7d14610cef5780639c3d362e14610a9b5780639ce43f9014610a61578063b5d5b5fa146109c8578063b5fd73f814610989578063bb4d44361461093c578063c743dabb1461091e578063c7dd6f07146108e5578063cac33fdc146108c6578063cbdb1ed51461088c578063d279c19114610790578063d50267ee14610741578063db2e21bc146104eb578063ee172546146104cd578063f0b3adee14610452578063f188768414610434578063f2fde38b1461036b5763f6ed20171461021157600080fd5b34610366576020806003193601126103665761022b612217565b6003916003549061023b8261238c565b92610249604051948561236a565b8284526102558361238c565b9282850191601f1980950136843761026c8261238c565b9661027a604051988961236a565b8288526102868361238c565b888601960136873760005b83811061031b57505050506040519485946040860190604087525180915260608601929060005b8181106102fb575050508482038584015251808252908201929160005b8281106102e457505050500390f35b8351855286955093810193928101926001016102d5565b82516001600160a01b0316855288975093850193918501916001016102b8565b80610350818a6103496103346001969e9a9c9d9e61222d565b878060a01b03915490891b1c169283926123a4565b5285612638565b61035a82886123a4565b52019796959397610291565b600080fd5b3461036657602036600319011261036657610384612217565b61038c612404565b6001600160a01b039081169081156103e057600054826bffffffffffffffffffffffff60a01b821617600055167f8be0079c531659141344cd1fd0a4f28419497f9722a3daafe3b4186f6b6457e0600080a3005b60405162461bcd60e51b815260206004820152602660248201527f4f776e61626c653a206e6577206f776e657220697320746865207a65726f206160448201526564647265737360d01b6064820152608490fd5b34610366576000366003190112610366576020601254604051908152f35b346103665760403660031901126103665761046b612217565b610473612404565b61049f60018060a01b0382169182600052600460205261049a60ff604060002054166123b8565b6127b0565b9060005260076020526040600020556006602052426040600020556005602052602435604060002055600080f35b34610366576000366003190112610366576020600e54604051908152f35b346103665760003660031901126103665761050461245c565b60ff60145416156106e857336000526020600a815260406000205490811561069957612710610535601554846122ae565b049061054182846122c1565b336000526008825260406000208054600082558061062a575b505061056884600d546122c1565b600d5533600052600a825260006040812055806105f9575b50816105bc575b6040519283528201527fbb757047c2b5f3974fe26b7c10f732e7bce710b0952a71082702781e62ae059560403392a260018055005b6016546105f49083906001600160a01b03167f00000000000000000000000000000000000000000000000000000000000000006125b4565b610587565b61062490337f00000000000000000000000000000000000000000000000000000000000000006125b4565b83610580565b600691816006029160068304036106835760005283600020908101905b818110610654575061055a565b806000849255600060018201556000600282015560006003820155600060048201556000600582015501610647565b634e487b7160e01b600052601160045260246000fd5b6084906040519062461bcd60e51b82526004820152602260248201527f5374616b696e67506f6f6c3a206e6f207374616b657320746f20776974686472604482015261617760f01b6064820152fd5b60405162461bcd60e51b815260206004820152602b60248201527f5374616b696e67506f6f6c3a20656d657267656e63792077697468647261772060448201526a1b9bdd08195b98589b195960aa1b6064820152608490fd5b3461036657602036600319011261036657600435600090815260106020908152604091829020805460018201546002830154600390930154855192835293820152928301526060820152608090f35b3461036657602080600319360112610366576107aa612217565b906107b361245c565b6107df60018060a01b0383169283600052600483526107d960ff604060002054166123b8565b336124b2565b336000526009815260016040600020018260005281526040600020549081610808575b60018055005b7f9310ccfcb8de723f578a9e4282ea9f521f05ae40dc08f3068dfad528a65ee3c790336000526009815260016040600020018460005281526000604081205561085383600e546122ce565b600e5583600052600f8152604060002061086e8482546122ce565b905561087b8333866125b4565b6040519283523392a3808080610802565b34610366576020366003190112610366576001600160a01b036108ad612217565b16600052600f6020526020604060002054604051908152f35b346103665760003660031901126103665760206040516301e133808152f35b34610366576020366003190112610366576004358015158091036103665761090b612404565b60ff801960145416911617601455600080f35b34610366576000366003190112610366576020604051620151808152f35b34610366576020366003190112610366576001600160a01b0361095d612217565b16600052600a6020526020610981604060002054600c8352604060002054906122ce565b604051908152f35b34610366576020366003190112610366576001600160a01b036109aa612217565b166000526004602052602060ff604060002054166040519015158152f35b34610366576040366003190112610366576109e1612217565b6024359060018060a01b038091166000526008602052604060002080548310156103665760e092610a1191612292565b508054916001820154916002810154600382015490600560048401549301549460405196875260208701526040860152606085015260ff81161515608085015260081c1660a083015260c0820152f35b34610366576020366003190112610366576001600160a01b03610a82612217565b1660005260076020526020604060002054604051908152f35b346103665760803660031901126103665760246064356044358235600435610ac1612404565b620151808110610ca1576301e133808211610c5d57818111610c0f576127108310610bb757907f09a732fbf23a66264aca144a2de1318eeb16cf6de8564c92cdf689871d3097fd91610b176109c48611156122db565b604051610b2381612332565b818152600360208201848152604083018781526060840191898352601154600052601060205260406000209451855551600185015551600284015551910155610b8e601154958695604051948594859094939260609260808301968352602083015260408201520152565b0390a26000198114610ba257600101601155005b50634e487b7160e01b60009081526011600452fd5b60405162461bcd60e51b815260206004820152602b818701527f5374616b696e67506f6f6c3a206d756c7469706c696572206d7573742062652060448201526a0c2e840d8cac2e6e84062f60ab1b6064820152608490fd5b60405162461bcd60e51b8152602060048201526021818701527f5374616b696e67506f6f6c3a20696e76616c696420706572696f642072616e676044820152606560f81b6064820152608490fd5b60405162461bcd60e51b8152602060048201819052818701527f5374616b696e67506f6f6c3a206d617820706572696f6420746f6f206c6f6e676044820152606490fd5b60405162461bcd60e51b8152602060048201526021818701527f5374616b696e67506f6f6c3a206d696e20706572696f6420746f6f2073686f726044820152601d60fa1b6064820152608490fd5b34610366576000366003190112610366576020601154604051908152f35b346103665760208060031936011261036657610d27612217565b6001600160a01b03908116600090815260088084526040822080549293919291610d508361238c565b93610d5e604051958661236a565b838552600092835286832091878087015b868610610de55750878760005b8151811015610ddb57610d8f81836123a4565b5151610d9e575b600101610d7c565b91610dd3600191612710610dcc610db587876123a4565b51516060610dc389896123a4565b510151906122ae565b04906122ce565b929050610d96565b5050604051908152f35b600191600691604051610df78161234e565b875481528488015483820152600288015460408201526003880154606082015285600489015460ff811615156080840152881c1660a0820152600588015460c08201528152019401940193928890610d6f565b34610366576000366003190112610366576000546040516001600160a01b039091168152602090f35b3461036657600036600319011261036657610e8c612404565b610e946125f4565b600160ff1960025416176002557f62e78cea01bee320cd4e420270b5ea74000d11b0c9f74754ebdbfc544b05a2586020604051338152a1005b34610366576020908160031936011261036657906001600160a01b039081610ef3612217565b1660005260088082526040600020918254610f0d8161238c565b92610f1b604051948561236a565b81845260009485528285208385019591865b848410610fb65750505050506040519381850192828652518093526040850193956000915b848310610f5f5786860387f35b8751805187528085015187860152604080820151908801526060808201519088015260808082015115159088015260a08082015183169088015260c090810151908701529683019694810194600190920191610f52565b60068660019260409c9b98999a9c51610fce8161234e565b865481528487015483820152600287015460408201526003870154606082015289600488015460ff811615156080840152871c1660a0820152600587015460c0820152815201930193019291989695949798610f2d565b34610366576000366003190112610366576020600d54604051908152f35b346103665760003660031901126103665760206040516109c48152f35b34610366576020366003190112610366576004356003548110156103665761108960209161222d565b905460405160039290921b1c6001600160a01b03168152f35b34610366576040366003190112610366576110bb612217565b6024356110c6612404565b6001600160a01b039182167f00000000000000000000000000000000000000000000000000000000000000008316811480159061116a575b15611113576111119260005416906125b4565b005b60405162461bcd60e51b815260206004820152602960248201527f5374616b696e67506f6f6c3a2063616e6e6f74207265636f766572207374616b604482015268656420746f6b656e7360b81b6064820152608490fd5b506040516370a0823160e01b8152306004820152602081602481855afa80156111df576000906111ab575b6111a39150600d54906122c1565b8211156110fe565b506020813d6020116111d7575b816111c56020938361236a565b81010312610366576111a39051611195565b3d91506111b8565b6040513d6000823e3d90fd5b34610366576080366003190112610366576044358015158103610366576064356001600160a01b0381168103610366576112236125f4565b61122b61245c565b6012546004351061173857601354600435116116e7576201518060243510611694576301e133806024351161164357611265602435612539565b6011548110156115f257600052601060205260406000209060036040519261128c84612332565b8054845260018101546020850152600281015460408501520154606083015260005b6003548110156112e157806112db6112c760019361222d565b848060a01b0391549060031b1c16336124b2565b016112ae565b5090336000526008602052604060002091825492611301602435426122ce565b906040840151604051926113148461234e565b600435845260208401526024356040840152606083015285151560808301526001600160a01b03831660a08301524260c0830152600160401b851015611531578461136491600182018155612292565b9190916115dc5760c0816005925184556020810151600185015560408101516002850155606081015160038501556004840160808201511515815460ff610100600160a81b0360a086015160081b169216906affffffffffffffffffffff60a81b161717905501519101556113dd600435600d546122ce565b600d5533600052600a60205260406000206113fb60043582546122ce565b90556001600160a01b038116151580806115c9575b611547575b604051946323b872dd60e01b602087015233602487015230604487015260043560648701526064865260a086019086821067ffffffffffffffff831117611531576040869561148a602099889584527f0000000000000000000000000000000000000000000000000000000000000000612854565b015190604051916004358352602435898401526040830152151560608201527fea1d652d20662dd9e57f36998e41bc3a8f5afa8dc39f71c1b5d23c812f6e92ef60803392a38061151e575b6114e8575b505060018055604051908152f35b6001600160a01b0316337fd39549de9e66b0b67e3696e4d033b914ea92d1fa64a28ee38da6938575214aaa600080a480836114da565b506001600160a01b0381163314156114d5565b634e487b7160e01b600052604160045260246000fd5b6001600160a01b0382166000908152600b60205260409020805490600160401b821015611531578161158191600161159f9401815561227a565b81546001600160a01b0360039290921b91821b19163390911b179055565b60018060a01b038216600052600c60205260406000206115c260043582546122ce565b9055611415565b506001600160a01b038216331415611410565b634e487b7160e01b600052600060045260246000fd5b60405162461bcd60e51b815260206004820152602360248201527f5374616b696e67506f6f6c3a20696e76616c6964207374616b696e67207065726044820152621a5bd960ea1b6064820152608490fd5b60405162461bcd60e51b8152602060048201526024808201527f5374616b696e67506f6f6c3a207374616b696e6720706572696f6420746f6f206044820152636c6f6e6760e01b6064820152608490fd5b60405162461bcd60e51b815260206004820152602560248201527f5374616b696e67506f6f6c3a207374616b696e6720706572696f6420746f6f206044820152641cda1bdc9d60da1b6064820152608490fd5b60405162461bcd60e51b815260206004820152602360248201527f5374616b696e67506f6f6c3a20616d6f756e742065786365656473206d6178696044820152626d756d60e81b6064820152608490fd5b60405162461bcd60e51b815260206004820152602160248201527f5374616b696e67506f6f6c3a20616d6f756e742062656c6f77206d696e696d756044820152606d60f81b6064820152608490fd5b34610366576000366003190112610366576040517f00000000000000000000000000000000000000000000000000000000000000006001600160a01b03168152602090f35b34610366576000366003190112610366576117e5612404565b600080546001600160a01b0319811682556001600160a01b03167f8be0079c531659141344cd1fd0a4f28419497f9722a3daafe3b4186f6b6457e08280a3005b346103665760403660031901126103665761183e612217565b6024359060018060a01b03809116600052600b602052604060002080548310156103665760209261186e9161227a565b9190546040519260031b1c168152f35b346103665760203660031901126103665760043561189a612404565b6118a86109c48211156122db565b601555005b34610366576000366003190112610366576020601354604051908152f35b3461036657600036600319011261036657602060ff600254166040519015158152f35b34610366576000366003190112610366576020601554604051908152f35b3461036657600036600319011261036657602060ff601454166040519015158152f35b346103665760403660031901126103665760243560043561194e612404565b80156119c1578082111561196457601255601355005b60405162461bcd60e51b815260206004820152602f60248201527f5374616b696e67506f6f6c3a206d6178207374616b65206d757374206265206760448201526e3932b0ba32b9103a3430b71036b4b760891b6064820152608490fd5b60405162461bcd60e51b815260206004820152602760248201527f5374616b696e67506f6f6c3a206d696e207374616b65206d75737420626520706044820152666f73697469766560c81b6064820152608490fd5b34610366576020366003190112610366576001600160a01b03611a37612217565b16600052600a6020526020604060002054604051908152f35b3461036657600036600319011261036657611a69612404565b60025460ff811615611aa85760ff19166002557f5db9ee0a495bf2e6ff9c91a7834c1ba4fdd244a5e8aa4e537bd38aeae4b073aa6020604051338152a1005b60405162461bcd60e51b815260206004820152601460248201527314185d5cd8589b194e881b9bdd081c185d5cd95960621b6044820152606490fd5b34610366576020366003190112610366576001600160a01b03611b05612217565b1660005260056020526020604060002054604051908152f35b3461036657600036600319011261036657611b3761245c565b60005b600390815481101561080257600191611b528261222d565b9054911b1c60a083901b83900316611b6a81336124b2565b3360005260096020908082528491826040600020018460005281526040600020549283611b9d575b505050505001611b3a565b7f9310ccfcb8de723f578a9e4282ea9f521f05ae40dc08f3068dfad528a65ee3c79233600052825260406000200184600052815260006040812055600e611be58482546122ce565b905583600052600f81526040600020611bff8482546122ce565b9055611c0c8333866125b4565b6040519283523392a38280808080611b92565b34610366576020806003193601126103665760043590611c3d61245c565b3360005260088152604060002054821015611f71573360005260088152611c68826040600020612292565b5091825415611f205760005b60038054821015611ca95790611ca3600192611c8f8361222d565b9054911b1c60a084901b84900316336124b2565b01611c74565b50509180549160009160019060018101544210611edc575b6004810180546001600160a01b039391849160081c821680151580611ed2575b611dca575b50505050600090611cf986600d546122c1565b600d55338252600a845260408220611d128782546122c1565b905555611d1f83856122c1565b80611d99575b508280611d64575b50506040519283528201527f204fccf0d92ed8d48f204adb39b2e81e92bad0dedb93f5716ca9478cfb57de0060403392a360018055005b611d9291601654167f00000000000000000000000000000000000000000000000000000000000000006125b4565b8482611d2d565b611dc490337f00000000000000000000000000000000000000000000000000000000000000006125b4565b85611d25565b600094939452600c86526040600020611de48982546122c1565b90555460081c16600052600b84528160406000206000935b611e0b575b8293859250611ce6565b805480851015611ecc57611e1f858361227a565b905460039291831b1c87163314611e3c5750509281019281611dfc565b9092506000199485820191821161068357611e6c87611e5e611e8a948661227a565b905490871b1c16918461227a565b90919060018060a01b038084549260031b9316831b921b1916179055565b80548015611eb65760009486910192611ea3848461227a565b81939154921b1b19169055558780611e01565b634e487b7160e01b600052603160045260246000fd5b50611e01565b5033811415611ce1565b611ee96002820154612539565b6011548110611ef9575b50611cc1565b90935060005260108252612710611f18600360406000200154866122ae565b049286611ef3565b60405162461bcd60e51b8152600481018390526024808201527f5374616b696e67506f6f6c3a207374616b6520616c72656164792077697468646044820152633930bbb760e11b6064820152608490fd5b6064906040519062461bcd60e51b82526004820152601d60248201527f5374616b696e67506f6f6c3a20696e76616c6964207374616b652049440000006044820152fd5b34610366576020366003190112610366576001600160a01b03611fd6612217565b1660005260066020526020604060002054604051908152f35b34610366576020366003190112610366576001600160a01b03612010612217565b16600052600c6020526020604060002054604051908152f35b3461036657604036600319011261036657612042612217565b6024359061204e612404565b6001600160a01b0381169182156121a457826000526020906004825260ff6040600020541661214f5780156120f857600354600160401b811015611531577fac24935fd910bc682b5ccb1a07b718cadf8cf2f6d1404c4f3ddc3662dae40e2993611e6c8260016120c1940160035561222d565b83600052600482526040600020600160ff1982541617905560058252604060002055600681524260406000205560405160008152a2005b60405162461bcd60e51b815260048101839052602960248201527f5374616b696e67506f6f6c3a207265776172642072617465206d75737420626560448201526820706f73697469766560b81b6064820152608490fd5b60405162461bcd60e51b815260048101839052602760248201527f5374616b696e67506f6f6c3a2072657761726420746f6b656e20616c726561646044820152661e48185919195960ca1b6064820152608490fd5b60405162461bcd60e51b815260206004820152602160248201527f5374616b696e67506f6f6c3a20696e76616c69642072657761726420746f6b656044820152603760f91b6064820152608490fd5b34610366576000366003190112610366576016546001600160a01b03168152602090f35b600435906001600160a01b038216820361036657565b6003548110156122645760036000527fc2575a0e9e593c00f959f8c92f12db2869c3395a3b0502d05e2516446f71f85b0190600090565b634e487b7160e01b600052603260045260246000fd5b80548210156122645760005260206000200190600090565b8054821015612264576000526006602060002091020190600090565b8181029291811591840414171561068357565b9190820391821161068357565b9190820180921161068357565b156122e257565b60405162461bcd60e51b815260206004820152602260248201527f5374616b696e67506f6f6c3a2070656e616c7479207261746520746f6f2068696044820152610ced60f31b6064820152608490fd5b6080810190811067ffffffffffffffff82111761153157604052565b60e0810190811067ffffffffffffffff82111761153157604052565b90601f8019910116810190811067ffffffffffffffff82111761153157604052565b67ffffffffffffffff81116115315760051b60200190565b80518210156122645760209160051b010190565b156123bf57565b60405162461bcd60e51b815260206004820152601f60248201527f5374616b696e67506f6f6c3a206e6f7420612072657761726420746f6b656e006044820152606490fd5b6000546001600160a01b0316330361241857565b606460405162461bcd60e51b815260206004820152602060248201527f4f776e61626c653a2063616c6c6572206973206e6f7420746865206f776e65726044820152fd5b60026001541461246d576002600155565b60405162461bcd60e51b815260206004820152601f60248201527f5265656e7472616e637947756172643a207265656e7472616e742063616c6c006044820152606490fd5b6124bb826127b0565b9060018060a01b03808416906000928284526020916007835260409586862055600683524286862055811695866124f6575b50505050505050565b6124ff91612638565b85845260098252600185852001838552825284842055600781528383205494835260098152838320918352522055388080808080806124ed565b60008091601154925b83811061254f5750505090565b80835260206010815260408085206060600383519261256d84612332565b80549485855260018201548097860152600282015490850152015491015283101590816125a9575b506125a257600101612542565b9250505090565b905082111538612595565b60405163a9059cbb60e01b60208201526001600160a01b0390921660248301526044808301939093529181526125f2916125ed82612332565b612854565b565b60ff6002541661260057565b60405162461bcd60e51b815260206004820152601060248201526f14185d5cd8589b194e881c185d5cd95960821b6044820152606490fd5b90600060018060a01b03809316808252600892602090600882526040918285208054906126648261238c565b976126718651998a61236a565b8289529087528287208791848a015b8b8686861061274f5750505050505050845b86518110156126e2576126a581886123a4565b51516126b4575b600101612692565b946126da600191612710610dcc8a6060610dc38c6126d281856123a4565b5151936123a4565b9590506126ac565b509193670de0b6b3a76400009193955061272d9061272761274c98612706876127b0565b908960005260098752886000209716968760005286528760002054906122c1565b906122ae565b04936000526009815260018360002001916000525260002054906122ce565b90565b6001926006928b51906127618261234e565b87548252858801548483015260028801548d83015260038801546060830152600488015460ff811615156080840152871c1660a0820152600587015460c0820152815201930193019291612680565b90600d549182156128385760018060a01b031660009281845260076020526127fd60408520549260066020526127ea6040872054426122c1565b90865260056020526040862054906122ae565b670de0b6b3a7640000908181029181830414901517156128245761274c93945004906122ce565b634e487b7160e01b85526011600452602485fd5b6001600160a01b03166000908152600760205260409020549150565b60018060a01b0316906040516040810167ffffffffffffffff9082811082821117611531576040526020938483527f5361666545524332303a206c6f772d6c6576656c2063616c6c206661696c6564858401526000808587829751910182855af1903d15612995573d92831161298157906128ef939291604051926128e288601f19601f840116018561236a565b83523d868885013e6129a0565b8051806128fd575b50505050565b8184918101031261297d578201519081159182150361297a5750612923578080806128f7565b6084906040519062461bcd60e51b82526004820152602a60248201527f5361666545524332303a204552433230206f7065726174696f6e20646964206e6044820152691bdd081cdd58d8d9595960b21b6064820152fd5b80fd5b5080fd5b634e487b7160e01b85526041600452602485fd5b906128ef9392506060915b91929015612a0257508151156129b4575090565b3b156129bd5790565b60405162461bcd60e51b815260206004820152601d60248201527f416464726573733a2063616c6c20746f206e6f6e2d636f6e74726163740000006044820152606490fd5b825190915015612a155750805190602001fd5b6040519062461bcd60e51b82528160208060048301528251908160248401526000935b828510612a5b575050604492506000838284010152601f80199101168101030190fd5b8481018201518686016044015293810193859350612a3856fea2646970667358221220672b26ba9b6d57956ba9c175559f7b49e64a6e4f25c8b5f5b29a32e773c6243b64736f6c63430008180033",
  "linkReferences": {},
  "deployedLinkReferences": {}
}