{
  "_format": "hh-sol-artifact-1",
  "contractName": "YieldFarming",
  "sourceName": "contracts/solidity/defi/YieldFarming.sol",
  "abi": [
    {
      "inputs": [
        {
          "internalType": "address",
          "name": "_treasury",
          "type": "address"
        }
      ],
      "stateMutability": "nonpayable",
      "type": "constructor"
    },
    {
      "anonymous": false,
      "inputs": [
        {
          "indexed": true,
          "internalType": "address",
          "name": "user",
          "type": "address"
        },
        {
          "indexed": true,
          "internalType": "uint256",
          "name": "pid",
          "type": "uint256"
        },
        {
          "indexed": false,
          "internalType": "bool",
          "name": "enabled",
          "type": "bool"
        }
      ],
      "name": "AutoCompoundToggled",
      "type": "event"
    },
    {
      "anonymous": false,
      "inputs": [
        {
          "indexed": true,
          "internalType": "uint256",
          "name": "pid",
          "type": "uint256"
        },
        {
          "indexed": false,
          "internalType": "uint256",
          "name": "lockDuration",
          "type": "uint256"
        },
        {
          "indexed": false,
          "internalType": "uint256",
          "name": "multiplier",
          "type": "uint256"
        }
      ],
      "name": "BoostTierAdded",
      "type": "event"
    },
    {
      "anonymous": false,
      "inputs": [
        {
          "indexed": true,
          "internalType": "address",
          "name": "user",
          "type": "address"
        },
        {
          "indexed": true,
          "internalType": "uint256",
          "name": "pid",
          "type": "uint256"
        },
        {
          "indexed": false,
          "internalType": "uint256",
          "name": "amount",
          "type": "uint256"
        }
      ],
      "name": "Compound",
      "type": "event"
    },
    {
      "anonymous": false,
      "inputs": [
        {
          "indexed": true,
          "internalType": "address",
          "name": "user",
          "type": "address"
        },
        {
          "indexed": true,
          "internalType": "uint256",
          "name": "pid",
          "type": "uint256"
        },
        {
          "indexed": false,
          "internalType": "uint256",
          "name": "amount",
          "type": "uint256"
        },
        {
          "indexed": false,
          "internalType": "uint256",
          "name": "penalty",
          "type": "uint256"
        }
      ],
      "name": "EmergencyWithdraw",
      "type": "event"
    },
    {
      "anonymous": false,
      "inputs": [
        {
          "indexed": true,
          "internalType": "address",
          "name": "user",
          "type": "address"
        },
        {
          "indexed": true,
          "internalType": "uint256",
          "name": "pid",
          "type": "uint256"
        },
        {
          "indexed": false,
          "internalType": "uint256",
          "name": "amount",
          "type": "uint256"
        }
      ],
      "name": "Harvest",
      "type": "event"
    },
    {
      "anonymous": false,
      "inputs": [
        {
          "indexed": false,
          "internalType": "address",
          "name": "account",
          "type": "address"
        }
      ],
      "name": "Paused",
      "type": "event"
    },
    {
      "anonymous": false,
      "inputs": [
        {
          "indexed": true,
          "internalType": "uint256",
          "name": "pid",
          "type": "uint256"
        },
        {
          "indexed": false,
          "internalType": "address",
          "name": "stakingToken",
          "type": "address"
        },
        {
          "indexed": false,
          "internalType": "address",
          "name": "rewardToken",
          "type": "address"
        },
        {
          "indexed": false,
          "internalType": "uint256",
          "name": "allocPoint",
          "type": "uint256"
        }
      ],
      "name": "PoolAdded",
      "type": "event"
    },
    {
      "anonymous": false,
      "inputs": [
        {
          "indexed": true,
          "internalType": "uint256",
          "name": "pid",
          "type": "uint256"
        },
        {
          "indexed": false,
          "internalType": "uint256",
          "name": "rewardPerSecond",
          "type": "uint256"
        },
        {
          "indexed": false,
          "internalType": "uint256",
          "name": "allocPoint",
          "type": "uint256"
        }
      ],
      "name": "PoolUpdated",
      "type": "event"
    },
    {
      "anonymous": false,
      "inputs": [
        {
          "indexed": true,
          "internalType": "bytes32",
          "name": "role",
          "type": "bytes32"
        },
        {
          "indexed": true,
          "internalType": "bytes32",
          "name": "previousAdminRole",
          "type": "bytes32"
        },
        {
          "indexed": true,
          "internalType": "bytes32",
          "name": "newAdminRole",
          "type": "bytes32"
        }
      ],
      "name": "RoleAdminChanged",
      "type": "event"
    },
    {
      "anonymous": false,
      "inputs": [
        {
          "indexed": true,
          "internalType": "bytes32",
          "name": "role",
          "type": "bytes32"
        },
        {
          "indexed": true,
          "internalType": "address",
          "name": "account",
          "type": "address"
        },
        {
          "indexed": true,
          "internalType": "address",
          "name": "sender",
          "type": "address"
        }
      ],
      "name": "RoleGranted",
      "type": "event"
    },
    {
      "anonymous": false,
      "inputs": [
        {
          "indexed": true,
          "internalType": "bytes32",
          "name": "role",
          "type": "bytes32"
        },
        {
          "indexed": true,
          "internalType": "address",
          "name": "account",
          "type": "address"
        },
        {
          "indexed": true,
          "internalType": "address",
          "name": "sender",
          "type": "address"
        }
      ],
      "name": "RoleRevoked",
      "type": "event"
    },
    {
      "anonymous": false,
      "inputs": [
        {
          "indexed": true,
          "internalType": "address",
          "name": "user",
          "type": "address"
        },
        {
          "indexed": true,
          "internalType": "uint256",
          "name": "pid",
          "type": "uint256"
        },
        {
          "indexed": false,
          "internalType": "uint256",
          "name": "amount",
          "type": "uint256"
        }
      ],
      "name": "Stake",
      "type": "event"
    },
    {
      "anonymous": false,
      "inputs": [
        {
          "indexed": false,
          "internalType": "address",
          "name": "account",
          "type": "address"
        }
      ],
      "name": "Unpaused",
      "type": "event"
    },
    {
      "anonymous": false,
      "inputs": [
        {
          "indexed": true,
          "internalType": "address",
          "name": "user",
          "type": "address"
        },
        {
          "indexed": true,
          "internalType": "uint256",
          "name": "pid",
          "type": "uint256"
        },
        {
          "indexed": false,
          "internalType": "uint256",
          "name": "amount",
          "type": "uint256"
        }
      ],
      "name": "Withdraw",
      "type": "event"
    },
    {
      "inputs": [],
      "name": "ADMIN_ROLE",
      "outputs": [
        {
          "internalType": "bytes32",
          "name": "",
          "type": "bytes32"
        }
      ],
      "stateMutability": "view",
      "type": "function"
    },
    {
      "inputs": [],
      "name": "DEFAULT_ADMIN_ROLE",
      "outputs": [
        {
          "internalType": "bytes32",
          "name": "",
          "type": "bytes32"
        }
      ],
      "stateMutability": "view",
      "type": "function"
    },
    {
      "inputs": [],
      "name": "EMERGENCY_PENALTY",
      "outputs": [
        {
          "internalType": "uint256",
          "name": "",
          "type": "uint256"
        }
      ],
      "stateMutability": "view",
      "type": "function"
    },
    {
      "inputs": [],
      "name": "FARM_MANAGER_ROLE",
      "outputs": [
        {
          "internalType": "bytes32",
          "name": "",
          "type": "bytes32"
        }
      ],
      "stateMutability": "view",
      "type": "function"
    },
    {
      "inputs": [],
      "name": "MAX_BOOST_MULTIPLIER",
      "outputs": [
        {
          "internalType": "uint256",
          "name": "",
          "type": "uint256"
        }
      ],
      "stateMutability": "view",
      "type": "function"
    },
    {
      "inputs": [],
      "name": "MAX_LOCK_DURATION",
      "outputs": [
        {
          "internalType": "uint256",
          "name": "",
          "type": "uint256"
        }
      ],
      "stateMutability": "view",
      "type": "function"
    },
    {
      "inputs": [],
      "name": "MIN_LOCK_DURATION",
      "outputs": [
        {
          "internalType": "uint256",
          "name": "",
          "type": "uint256"
        }
      ],
      "stateMutability": "view",
      "type": "function"
    },
    {
      "inputs": [],
      "name": "PAUSER_ROLE",
      "outputs": [
        {
          "internalType": "bytes32",
          "name": "",
          "type": "bytes32"
        }
      ],
      "stateMutability": "view",
      "type": "function"
    },
    {
      "inputs": [],
      "name": "PRECISION",
      "outputs": [
        {
          "internalType": "uint256",
          "name": "",
          "type": "uint256"
        }
      ],
      "stateMutability": "view",
      "type": "function"
    },
    {
      "inputs": [
        {
          "internalType": "uint256",
          "name": "_pid",
          "type": "uint256"
        },
        {
          "internalType": "uint256",
          "name": "_lockDuration",
          "type": "uint256"
        },
        {
          "internalType": "uint256",
          "name": "_multiplier",
          "type": "uint256"
        }
      ],
      "name": "addBoostTier",
      "outputs": [],
      "stateMutability": "nonpayable",
      "type": "function"
    },
    {
      "inputs": [
        {
          "internalType": "contract IERC20",
          "name": "_stakingToken",
          "type": "address"
        },
        {
          "internalType": "contract IERC20",
          "name": "_rewardToken",
          "type": "address"
        },
        {
          "internalType": "uint256",
          "name": "_rewardPerSecond",
          "type": "uint256"
        },
        {
          "internalType": "uint256",
          "name": "_allocPoint",
          "type": "uint256"
        },
        {
          "internalType": "uint256",
          "name": "_startTime",
          "type": "uint256"
        },
        {
          "internalType": "uint256",
          "name": "_endTime",
          "type": "uint256"
        },
        {
          "internalType": "uint256",
          "name": "_minStakeAmount",
          "type": "uint256"
        },
        {
          "internalType": "uint256",
          "name": "_maxStakeAmount",
          "type": "uint256"
        },
        {
          "internalType": "uint256",
          "name": "_lockDuration",
          "type": "uint256"
        },
        {
          "internalType": "bool",
          "name": "_allowCompounding",
          "type": "bool"
        }
      ],
      "name": "addPool",
      "outputs": [],
      "stateMutability": "nonpayable",
      "type": "function"
    },
    {
      "inputs": [
        {
          "internalType": "address",
          "name": "",
          "type": "address"
        }
      ],
      "name": "authorizedCompounders",
      "outputs": [
        {
          "internalType": "bool",
          "name": "",
          "type": "bool"
        }
      ],
      "stateMutability": "view",
      "type": "function"
    },
    {
      "inputs": [
        {
          "internalType": "uint256",
          "name": "",
          "type": "uint256"
        },
        {
          "internalType": "uint256",
          "name": "",
          "type": "uint256"
        }
      ],
      "name": "boostTiers",
      "outputs": [
        {
          "internalType": "uint256",
          "name": "lockDuration",
          "type": "uint256"
        },
        {
          "internalType": "uint256",
          "name": "multiplier",
          "type": "uint256"
        },
        {
          "internalType": "bool",
          "name": "isActive",
          "type": "bool"
        }
      ],
      "stateMutability": "view",
      "type": "function"
    },
    {
      "inputs": [
        {
          "internalType": "uint256",
          "name": "_pid",
          "type": "uint256"
        }
      ],
      "name": "compound",
      "outputs": [],
      "stateMutability": "nonpayable",
      "type": "function"
    },
    {
      "inputs": [
        {
          "internalType": "uint256",
          "name": "_pid",
          "type": "uint256"
        },
        {
          "internalType": "uint256",
          "name": "_amount",
          "type": "uint256"
        }
      ],
      "name": "emergencyRewardWithdraw",
      "outputs": [],
      "stateMutability": "nonpayable",
      "type": "function"
    },
    {
      "inputs": [
        {
          "internalType": "uint256",
          "name": "_pid",
          "type": "uint256"
        }
      ],
      "name": "emergencyWithdraw",
      "outputs": [],
      "stateMutability": "nonpayable",
      "type": "function"
    },
    {
      "inputs": [],
      "name": "emergencyWithdrawFeeCollected",
      "outputs": [
        {
          "internalType": "uint256",
          "name": "",
          "type": "uint256"
        }
      ],
      "stateMutability": "view",
      "type": "function"
    },
    {
      "inputs": [
        {
          "internalType": "uint256",
          "name": "_pid",
          "type": "uint256"
        }
      ],
      "name": "getBoostTiers",
      "outputs": [
        {
          "components": [
            {
              "internalType": "uint256",
              "name": "lockDuration",
              "type": "uint256"
            },
            {
              "internalType": "uint256",
              "name": "multiplier",
              "type": "uint256"
            },
            {
              "internalType": "bool",
              "name": "isActive",
              "type": "bool"
            }
          ],
          "internalType": "struct YieldFarming.BoostTier[]",
          "name": "",
          "type": "tuple[]"
        }
      ],
      "stateMutability": "view",
      "type": "function"
    },
    {
      "inputs": [
        {
          "internalType": "uint256",
          "name": "_pid",
          "type": "uint256"
        }
      ],
      "name": "getPoolInfo",
      "outputs": [
        {
          "components": [
            {
              "internalType": "contract IERC20",
              "name": "stakingToken",
              "type": "address"
            },
            {
              "internalType": "contract IERC20",
              "name": "rewardToken",
              "type": "address"
            },
            {
              "internalType": "uint256",
              "name": "totalStaked",
              "type": "uint256"
            },
            {
              "internalType": "uint256",
              "name": "rewardPerSecond",
              "type": "uint256"
            },
            {
              "internalType": "uint256",
              "name": "startTime",
              "type": "uint256"
            },
            {
              "internalType": "uint256",
              "name": "endTime",
              "type": "uint256"
            },
            {
              "internalType": "uint256",
              "name": "lastRewardTime",
              "type": "uint256"
            },
            {
              "internalType": "uint256",
              "name": "accRewardPerShare",
              "type": "uint256"
            },
            {
              "internalType": "uint256",
              "name": "allocPoint",
              "type": "uint256"
            },
            {
              "internalType": "bool",
              "name": "isActive",
              "type": "bool"
            },
            {
              "internalType": "uint256",
              "name": "minStakeAmount",
              "type": "uint256"
            },
            {
              "internalType": "uint256",
              "name": "maxStakeAmount",
              "type": "uint256"
            },
            {
              "internalType": "uint256",
              "name": "emergencyWithdrawPenalty",
              "type": "uint256"
            },
            {
              "internalType": "bool",
              "name": "allowCompounding",
              "type": "bool"
            },
            {
              "internalType": "uint256",
              "name": "lockDuration",
              "type": "uint256"
            }
          ],
          "internalType": "struct YieldFarming.PoolInfo",
          "name": "",
          "type": "tuple"
        }
      ],
      "stateMutability": "view",
      "type": "function"
    },
    {
      "inputs": [
        {
          "internalType": "bytes32",
          "name": "role",
          "type": "bytes32"
        }
      ],
      "name": "getRoleAdmin",
      "outputs": [
        {
          "internalType": "bytes32",
          "name": "",
          "type": "bytes32"
        }
      ],
      "stateMutability": "view",
      "type": "function"
    },
    {
      "inputs": [
        {
          "internalType": "uint256",
          "name": "_pid",
          "type": "uint256"
        },
        {
          "internalType": "address",
          "name": "_user",
          "type": "address"
        }
      ],
      "name": "getUserInfo",
      "outputs": [
        {
          "components": [
            {
              "internalType": "uint256",
              "name": "amount",
              "type": "uint256"
            },
            {
              "internalType": "uint256",
              "name": "rewardDebt",
              "type": "uint256"
            },
            {
              "internalType": "uint256",
              "name": "pendingRewards",
              "type": "uint256"
            },
            {
              "internalType": "uint256",
              "name": "stakeTime",
              "type": "uint256"
            },
            {
              "internalType": "uint256",
              "name": "lockEndTime",
              "type": "uint256"
            },
            {
              "internalType": "uint256",
              "name": "boostMultiplier",
              "type": "uint256"
            },
            {
              "internalType": "uint256",
              "name": "totalRewardsClaimed",
              "type": "uint256"
            },
            {
              "internalType": "bool",
              "name": "autoCompound",
              "type": "bool"
            }
          ],
          "internalType": "struct YieldFarming.UserInfo",
          "name": "",
          "type": "tuple"
        }
      ],
      "stateMutability": "view",
      "type": "function"
    },
    {
      "inputs": [
        {
          "internalType": "bytes32",
          "name": "role",
          "type": "bytes32"
        },
        {
          "internalType": "address",
          "name": "account",
          "type": "address"
        }
      ],
      "name": "grantRole",
      "outputs": [],
      "stateMutability": "nonpayable",
      "type": "function"
    },
    {
      "inputs": [
        {
          "internalType": "uint256",
          "name": "_pid",
          "type": "uint256"
        }
      ],
      "name": "harvest",
      "outputs": [],
      "stateMutability": "nonpayable",
      "type": "function"
    },
    {
      "inputs": [
        {
          "internalType": "bytes32",
          "name": "role",
          "type": "bytes32"
        },
        {
          "internalType": "address",
          "name": "account",
          "type": "address"
        }
      ],
      "name": "hasRole",
      "outputs": [
        {
          "internalType": "bool",
          "name": "",
          "type": "bool"
        }
      ],
      "stateMutability": "view",
      "type": "function"
    },
    {
      "inputs": [],
      "name": "pause",
      "outputs": [],
      "stateMutability": "nonpayable",
      "type": "function"
    },
    {
      "inputs": [],
      "name": "paused",
      "outputs": [
        {
          "internalType": "bool",
          "name": "",
          "type": "bool"
        }
      ],
      "stateMutability": "view",
      "type": "function"
    },
    {
      "inputs": [
        {
          "internalType": "uint256",
          "name": "_pid",
          "type": "uint256"
        },
        {
          "internalType": "address",
          "name": "_user",
          "type": "address"
        }
      ],
      "name": "pendingRewards",
      "outputs": [
        {
          "internalType": "uint256",
          "name": "",
          "type": "uint256"
        }
      ],
      "stateMutability": "view",
      "type": "function"
    },
    {
      "inputs": [
        {
          "internalType": "uint256",
          "name": "",
          "type": "uint256"
        }
      ],
      "name": "poolInfo",
      "outputs": [
        {
          "internalType": "contract IERC20",
          "name": "stakingToken",
          "type": "address"
        },
        {
          "internalType": "contract IERC20",
          "name": "rewardToken",
          "type": "address"
        },
        {
          "internalType": "uint256",
          "name": "totalStaked",
          "type": "uint256"
        },
        {
          "internalType": "uint256",
          "name": "rewardPerSecond",
          "type": "uint256"
        },
        {
          "internalType": "uint256",
          "name": "startTime",
          "type": "uint256"
        },
        {
          "internalType": "uint256",
          "name": "endTime",
          "type": "uint256"
        },
        {
          "internalType": "uint256",
          "name": "lastRewardTime",
          "type": "uint256"
        },
        {
          "internalType": "uint256",
          "name": "accRewardPerShare",
          "type": "uint256"
        },
        {
          "internalType": "uint256",
          "name": "allocPoint",
          "type": "uint256"
        },
        {
          "internalType": "bool",
          "name": "isActive",
          "type": "bool"
        },
        {
          "internalType": "uint256",
          "name": "minStakeAmount",
          "type": "uint256"
        },
        {
          "internalType": "uint256",
          "name": "maxStakeAmount",
          "type": "uint256"
        },
        {
          "internalType": "uint256",
          "name": "emergencyWithdrawPenalty",
          "type": "uint256"
        },
        {
          "internalType": "bool",
          "name": "allowCompounding",
          "type": "bool"
        },
        {
          "internalType": "uint256",
          "name": "lockDuration",
          "type": "uint256"
        }
      ],
      "stateMutability": "view",
      "type": "function"
    },
    {
      "inputs": [],
      "name": "poolLength",
      "outputs": [
        {
          "internalType": "uint256",
          "name": "",
          "type": "uint256"
        }
      ],
      "stateMutability": "view",
      "type": "function"
    },
    {
      "inputs": [
        {
          "internalType": "bytes32",
          "name": "role",
          "type": "bytes32"
        },
        {
          "internalType": "address",
          "name": "account",
          "type": "address"
        }
      ],
      "name": "renounceRole",
      "outputs": [],
      "stateMutability": "nonpayable",
      "type": "function"
    },
    {
      "inputs": [
        {
          "internalType": "bytes32",
          "name": "role",
          "type": "bytes32"
        },
        {
          "internalType": "address",
          "name": "account",
          "type": "address"
        }
      ],
      "name": "revokeRole",
      "outputs": [],
      "stateMutability": "nonpayable",
      "type": "function"
    },
    {
      "inputs": [
        {
          "internalType": "address",
          "name": "_compounder",
          "type": "address"
        },
        {
          "internalType": "bool",
          "name": "_authorized",
          "type": "bool"
        }
      ],
      "name": "setAuthorizedCompounder",
      "outputs": [],
      "stateMutability": "nonpayable",
      "type": "function"
    },
    {
      "inputs": [
        {
          "internalType": "uint256",
          "name": "_pid",
          "type": "uint256"
        },
        {
          "internalType": "bool",
          "name": "_isActive",
          "type": "bool"
        }
      ],
      "name": "setPoolActive",
      "outputs": [],
      "stateMutability": "nonpayable",
      "type": "function"
    },
    {
      "inputs": [
        {
          "internalType": "uint256",
          "name": "_pid",
          "type": "uint256"
        },
        {
          "internalType": "uint256",
          "name": "_amount",
          "type": "uint256"
        },
        {
          "internalType": "uint256",
          "name": "_lockDuration",
          "type": "uint256"
        }
      ],
      "name": "stake",
      "outputs": [],
      "stateMutability": "nonpayable",
      "type": "function"
    },
    {
      "inputs": [
        {
          "internalType": "bytes4",
          "name": "interfaceId",
          "type": "bytes4"
        }
      ],
      "name": "supportsInterface",
      "outputs": [
        {
          "internalType": "bool",
          "name": "",
          "type": "bool"
        }
      ],
      "stateMutability": "view",
      "type": "function"
    },
    {
      "inputs": [
        {
          "internalType": "uint256",
          "name": "_pid",
          "type": "uint256"
        }
      ],
      "name": "toggleAutoCompound",
      "outputs": [],
      "stateMutability": "nonpayable",
      "type": "function"
    },
    {
      "inputs": [],
      "name": "totalAllocPoint",
      "outputs": [
        {
          "internalType": "uint256",
          "name": "",
          "type": "uint256"
        }
      ],
      "stateMutability": "view",
      "type": "function"
    },
    {
      "inputs": [],
      "name": "treasury",
      "outputs": [
        {
          "internalType": "address",
          "name": "",
          "type": "address"
        }
      ],
      "stateMutability": "view",
      "type": "function"
    },
    {
      "inputs": [],
      "name": "unpause",
      "outputs": [],
      "stateMutability": "nonpayable",
      "type": "function"
    },
    {
      "inputs": [
        {
          "internalType": "uint256",
          "name": "_pid",
          "type": "uint256"
        },
        {
          "internalType": "uint256",
          "name": "_rewardPerSecond",
          "type": "uint256"
        },
        {
          "internalType": "uint256",
          "name": "_allocPoint",
          "type": "uint256"
        },
        {
          "internalType": "uint256",
          "name": "_endTime",
          "type": "uint256"
        }
      ],
      "name": "updatePool",
      "outputs": [],
      "stateMutability": "nonpayable",
      "type": "function"
    },
    {
      "inputs": [
        {
          "internalType": "uint256",
          "name": "",
          "type": "uint256"
        },
        {
          "internalType": "address",
          "name": "",
          "type": "address"
        }
      ],
      "name": "userInfo",
      "outputs": [
        {
          "internalType": "uint256",
          "name": "amount",
          "type": "uint256"
        },
        {
          "internalType": "uint256",
          "name": "rewardDebt",
          "type": "uint256"
        },
        {
          "internalType": "uint256",
          "name": "pendingRewards",
          "type": "uint256"
        },
        {
          "internalType": "uint256",
          "name": "stakeTime",
          "type": "uint256"
        },
        {
          "internalType": "uint256",
          "name": "lockEndTime",
          "type": "uint256"
        },
        {
          "internalType": "uint256",
          "name": "boostMultiplier",
          "type": "uint256"
        },
        {
          "internalType": "uint256",
          "name": "totalRewardsClaimed",
          "type": "uint256"
        },
        {
          "internalType": "bool",
          "name": "autoCompound",
          "type": "bool"
        }
      ],
      "stateMutability": "view",
      "type": "function"
    },
    {
      "inputs": [
        {
          "internalType": "uint256",
          "name": "_pid",
          "type": "uint256"
        },
        {
          "internalType": "uint256",
          "name": "_amount",
          "type": "uint256"
        }
      ],
      "name": "withdraw",
      "outputs": [],
      "stateMutability": "nonpayable",
      "type": "function"
    }
  ],
  "bytecode": "0x6080346200028c57601f6200353238819003918201601f1916830192916001600160401b038411838510176200029157808392604095865283396020928391810103126200028c57516001600160a01b038116908190036200028c5760019081805560ff199081600254166002558015620002485760018060a01b03196008541617600855600091828052828452848320338452845260ff85842054161562000213575b7fa49807205ce4d355092ef5a8a18f56e8913cf4a201fbe287825b095693c21775808452838552858420338552855260ff868520541615620001dc575b507f168592fc6d31de4538f19815c7229e078bf82c0085cdb430656abca14d661b9b808452838552858420338552855260ff868520541615620001a5575b507f65d7a28e3265b37a6474929f336521b332c1681b933f6cb9f3376673440d862a93848452838152858420338552815260ff8685205416156200016c575b855161326a9081620002a88239f35b848452838152858420903385525284832091825416179055339160008051602062003512833981519152339280a438808080806200015d565b8084528385528584203385528552858420828482541617905533903390600080516020620035128339815191528680a4386200011e565b8084528385528584203385528552858420828482541617905533903390600080516020620035128339815191528680a438620000e0565b82805282845284832033845284528483208183825416179055333384600080516020620035128339815191528180a4620000a3565b845162461bcd60e51b815260048101859052601e60248201527f5969656c644661726d696e673a20696e76616c696420747265617375727900006044820152606490fd5b600080fd5b634e487b7160e01b600052604160045260246000fdfe608080604052600436101561001357600080fd5b60003560e01c90816301ffc9a71461239557508063081e3eda146123775780631069f3b51461225d5780631526fe271461217557806317caf6f114612157578063248a9ca31461212857806327acce41146120695780632a16e0a91461204c5780632c636645146120145780632f2ff15d14611f615780632f380b3514611d6e57806336568abe14611cdc5780633f4ba83a14611c48578063441a3e7014611a4b5780634f1bfc9e14611a2c5780635312ea8e146118bb5780635a4d8489146118165780635c975abb146117f357806361d027b3146117ca5780636a9a2f23146117775780637529af62146110cb57806375b238fc1461109057806378b4330f146110725780637ba69ca01461101b5780638456cb5914610fc157806391d1485414610f7457806393c4673714610f5757806393f1a40b14610ebd578063a217fddf14610ea1578063a638f2e214610a07578063a8555a2b1461091b578063aa5f7e26146107af578063aaf5eb681461078c578063c6ff91431461074d578063d18df53c146105d5578063d547741f14610596578063ddc6326214610429578063e58a160d146103ee578063e63ab1e9146103b3578063ea17fa931461035f578063ec84060a146103415763ee124dd3146101ed57600080fd5b3461033c576101fb366124a6565b90610204612647565b6102116003548410612554565b6161a882116102ed5782600052600560205260406000209060405192610236846124fa565b818452602084018181526040850193600185528054600160401b8110156102d7576102669160018201815561248a565b6102c15760026040956102b4937f6bc7fec1ba064cd3674a66d26db7c907ce0afa2381e7960107e7dadc1ee1006a9851845551600184015551151591019060ff801983541691151516179055565b82519182526020820152a2005b634e487b7160e01b600052600060045260246000fd5b634e487b7160e01b600052604160045260246000fd5b60405162461bcd60e51b815260206004820152602160248201527f5969656c644661726d696e673a206d756c7469706c69657220746f6f206869676044820152600d60fb1b6064820152608490fd5b600080fd5b3461033c57600036600319011261033c576020600954604051908152f35b3461033c57604036600319011261033c576103b1600435600961039e61038361247b565b9261038c612647565b6103996003548210612554565b612414565b50019060ff801983541691151516179055565b005b3461033c57600036600319011261033c5760206040517f65d7a28e3265b37a6474929f336521b332c1681b933f6cb9f3376673440d862a8152f35b3461033c57600036600319011261033c5760206040517f168592fc6d31de4538f19815c7229e078bf82c0085cdb430656abca14d661b9b8152f35b3461033c57602036600319011261033c57600435610445612cde565b61044d612d34565b61045a6003548210612554565b6104a96104df61046983612414565b50836000526004602052604060002033600052602052604060002061048d85612d78565b8054916007810192670de0b6b3a76400009586918554906125ba565b04956104bb60018401978854906125a0565b906104cc60028501928354906125ad565b806104e8575b50505050549054906125ba565b04905560018055005b60009360ff6007870154169081610587575b81610569575b50841461051c57610512913390612e5b565b55858080806104d2565b610527813384612e0c565b600685016105368282546125ad565b90556040519081527f71bab65ced2e5750775a0613be067df48ef06cf92a496ebf7663ae066092495460203392a3610512565b80546001909101546001600160a01b0390811691161490508a610500565b600d81015460ff1691506104fa565b3461033c57604036600319011261033c576103b16004356105b56123e8565b908060005260006020526105d0600160406000200154612aec565b612c6a565b3461033c57604036600319011261033c576004356105f16123e8565b6105fa82612414565b5091600052600460205260406000209060018060a01b03166000526020526040600020600782015491600681015480421180610740575b610684575b602061271061067b856005610672610667670de0b6b3a764000061065b8c86546125ba565b046001850154906125a0565b6002840154906125ad565b910154906125ba565b04604051908152f35b6106bf6106b46106a96106c8936005869796015480421060001461073b5750426125a0565b6003860154906125ba565b6008850154906125ba565b600754906125cd565b90670de0b6b3a764000091828102928184041490151715610725576005610672610667670de0b6b3a764000061065b61071860209961071261067b9960026127109c0154906125cd565b906125ad565b9850505050505091610636565b634e487b7160e01b600052601160045260246000fd5b6125a0565b5060028201541515610631565b3461033c57602036600319011261033c576001600160a01b0361076e6123fe565b166000526006602052602060ff604060002054166040519015158152f35b3461033c57600036600319011261033c576020604051670de0b6b3a76400008152f35b3461033c57602036600319011261033c576004356107cb612cde565b6107d3612d34565b6107e06003548210612554565b6107e981612414565b506107fa60ff600d830154166125ed565b805460018201546001600160a01b039182169116036108d65761086e908260005260046020526040600020336000526020526002610865670de0b6b3a764000061085960406000209461084c88612d78565b60078654910154906125ba565b046001840154906125a0565b910154906125ad565b80156108855761087f913390612e5b565b60018055005b60405162461bcd60e51b8152602060048201526024808201527f5969656c644661726d696e673a206e6f207265776172647320746f20636f6d706044820152631bdd5b9960e21b6064820152608490fd5b60405162461bcd60e51b815260206004820152601e60248201527f5969656c644661726d696e673a20646966666572656e7420746f6b656e7300006044820152606490fd5b3461033c5760208060031936011261033c5760043560005260058152604060002090815467ffffffffffffffff81116102d75760405190610961838260051b0183612532565b8082528282018094600052836000206000915b8383106109cc5760408051878152865181890181905289928201908960005b8281106109a05784840385f35b855180518552808301518584015260409081015115159085015294810194606090930192600101610993565b6003866001926040516109de816124fa565b85548152848601548382015260ff60028701541615156040820152815201920192019190610974565b3461033c57610a15366124a6565b610a1d612cde565b610a25612d34565b610a326003548410612554565b8115610e4e57610a4183612414565b508360005260209160048352604060002033600052835260406000209060ff8060098501541615610e095760048401544210610dc4576005840154421015610d7f57600a8401548610610d3057600b8401548015908115610d1b575b5015610cca57600e8401548210610c7757610ab787612d78565b825480610c2e575b86908860005260058752604060002092612710936000918154925b838110610bb25750505050610b4e7f5af417134f72a9d41143ace85b0a26dce6f550f894f2cbc1eeee8810603d91b6979694610ba39694610b39610b29600196670de0b6b3a7640000966125ad565b92838855426003890155426125ad565b600487015560058601556007860154906125ba565b0491015560028101610b618682546125ad565b9055546040516323b872dd60e01b8482015233602482015230604482015260648082018790528152906001600160a01b0316610b9e608483612532565b612f43565b6040519283523392a360018055005b9082939495506002610bc583839561248a565b5001541680610c19575b80610c02575b610be8575b600101908a94939291610ada565b9450600180610bf7878561248a565b500154959050610bda565b50856001610c10838661248a565b50015411610bd5565b50610c24818461248a565b5054871015610bcf565b610c54670de0b6b3a7640000610c486007880154846125ba565b046001860154906125a0565b80610c60575b50610abf565b610c6f600286019182546125ad565b905588610c5a565b60405162461bcd60e51b815260048101869052602560248201527f5969656c644661726d696e673a206c6f636b206475726174696f6e20746f6f206044820152641cda1bdc9d60da1b6064820152608490fd5b60405162461bcd60e51b815260048101869052602360248201527f5969656c644661726d696e673a2065786365656473206d6178696d756d207374604482015262616b6560e81b6064820152608490fd5b9050610d288785546125ad565b111588610a9d565b60405162461bcd60e51b815260048101869052602160248201527f5969656c644661726d696e673a2062656c6f77206d696e696d756d207374616b6044820152606560f81b6064820152608490fd5b60405162461bcd60e51b815260048101869052601860248201527f5969656c644661726d696e673a20706f6f6c20656e64656400000000000000006044820152606490fd5b60405162461bcd60e51b815260048101869052601e60248201527f5969656c644661726d696e673a20706f6f6c206e6f74207374617274656400006044820152606490fd5b60405162461bcd60e51b815260048101869052601d60248201527f5969656c644661726d696e673a20706f6f6c206e6f74206163746976650000006044820152606490fd5b60405162461bcd60e51b815260206004820152602560248201527f5969656c644661726d696e673a20616d6f756e74206d75737420626520706f73604482015264697469766560d81b6064820152608490fd5b3461033c57600036600319011261033c57602060405160008152f35b3461033c57604036600319011261033c57610ed66123e8565b600435600052600460205260406000209060018060a01b031660005260205261010060406000208054906001810154906002810154600382015460048301549060058401549260ff600760068701549601541695604051978852602088015260408701526060860152608085015260a084015260c0830152151560e0820152f35b3461033c57600036600319011261033c5760206040516161a88152f35b3461033c57604036600319011261033c57610f8d6123e8565b600435600052600060205260406000209060018060a01b0316600052602052602060ff604060002054166040519015158152f35b3461033c57600036600319011261033c57610fda6129a5565b610fe2612d34565b600160ff1960025416176002557f62e78cea01bee320cd4e420270b5ea74000d11b0c9f74754ebdbfc544b05a2586020604051338152a1005b3461033c5761102936612465565b9060005260056020526040600020805482101561033c5760609161104c9161248a565b5080549060ff600260018301549201541690604051928352602083015215156040820152f35b3461033c57600036600319011261033c576020604051620151808152f35b3461033c57600036600319011261033c5760206040517fa49807205ce4d355092ef5a8a18f56e8913cf4a201fbe287825b095693c217758152f35b3461033c5761014036600319011261033c576110e56123fe565b6110ed6123e8565b6064916044610104356101243580151590608480359183900361033c57611112612647565b6001600160a01b0386161561172b576001600160a01b038716156116e05742821061168d578160a4351115611635576201518084101580611627575b156115db575061115c612bf6565b61116987356007546125ad565b60075560405193611179856124dd565b6001600160a01b03868116865287166020860152600060408601819052903560608601526080850182905260a43560a086015260c085019190915260e08401528535610100840152600161012084015260c43561014084015260e4356101608401526103e86101808401526101a08301526101c0820152600354600160401b8110156102d75780600161120f9201600355612414565b9190916102c1576101c0600e9160018060a01b038151166bffffffffffffffffffffffff60a01b9081865416178555600185019060018060a01b036020840151169082541617905560408101516002850155606081015160038501556080810151600485015560a0810151600585015560c0810151600685015560e0810151600785015561010081015160088501556112be6101208201511515600986019060ff801983541691151516179055565b610140810151600a850155610160810151600b850155610180810151600c8501556112ff6101a08201511515600d86019060ff801983541691151516179055565b01519101556003546000198101939084116107255783600052600560205260406000206040519061132f826124fa565b60008252602082019161271083526040810191600183528054600160401b8110156102d7576113639160018201815561248a565b9290926102c1576113909360029251845551600184015551151591019060ff801983541691151516179055565b8360005260056020526040600020604051906113ab826124fa565b62278d0082526020820191612ee083526040810191600183528054600160401b8110156102d7576113e19160018201815561248a565b9290926102c15761140e9360029251845551600184015551151591019060ff801983541691151516179055565b836000526005602052604060002060405190611429826124fa565b6276a70082526020820191613a9883526040810191600183528054600160401b8110156102d75761145f9160018201815561248a565b9290926102c15761148c9360029251845551600184015551151591019060ff801983541691151516179055565b8360005260056020526040600020604051906114a7826124fa565b62ed4e0082526020820191614e2083526040810191600183528054600160401b8110156102d7576114dd9160018201815561248a565b9290926102c15761150a9360029251845551600184015551151591019060ff801983541691151516179055565b836000526005602052604060002060405193611525856124fa565b6301e133808552602085016161a881526040860192600184528054600160401b8110156102d75761155b9160018201815561248a565b6102c15760026115d6946115aa937f32a60bdf9445a75fb5c95e4fb9c0131216cc2970d2dc89dd6a1babe40459c53c9951845551600184015551151591019060ff801983541691151516179055565b604080516001600160a01b03958616815294909116602085015291359183019190915281906060820190565b0390a2005b60405162461bcd60e51b815260206004820152602360248201527f5969656c644661726d696e673a20696e76616c6964206c6f636b206475726174818701526234b7b760e91b818a0152fd5b506301e1338084111561114e565b60405162461bcd60e51b815260206004820152602f60248201527f5969656c644661726d696e673a20656e642074696d65206d7573742062652061818701526e667465722073746172742074696d6560881b818a0152fd5b60405162461bcd60e51b815260206004820152602a60248201527f5969656c644661726d696e673a2073746172742074696d65206d757374206265818701526920696e2066757475726560b01b818a0152fd5b60405162461bcd60e51b815260206004820152602260248201527f5969656c644661726d696e673a20696e76616c69642072657761726420746f6b818701526132b760f11b818a0152fd5b60405162461bcd60e51b815260206004820152602360248201527f5969656c644661726d696e673a20696e76616c6964207374616b696e6720746f818701526235b2b760e91b818a0152fd5b3461033c57604036600319011261033c576103b16117936123fe565b61179b61247b565b906117a461285e565b60018060a01b0316600052600660205260406000209060ff801983541691151516179055565b3461033c57600036600319011261033c576008546040516001600160a01b039091168152602090f35b3461033c57600036600319011261033c57602060ff600254166040519015158152f35b3461033c57602036600319011261033c576004356118376003548210612554565b61185060ff600d61184784612414565b500154166125ed565b80600052600460205260406000203360005260205260ff60076040600020016118898282541615829060ff801983541691151516179055565b541660405190151581527fd9a4263cd64bef5364cf9865147c8561e0c7151a9e1d79d8aa67df565aa96efe60203392a3005b3461033c57602036600319011261033c576004356118d7612cde565b6118e46003548210612554565b6118ed81612414565b5081600052600460205260406000203360005260205260406000209081549081156119dc576004928161271061192a600c611983950154866125ba565b0493600061193886836125a0565b968482899655826001820155826002820155015561195b600283019182546125a0565b9055611969846009546125ad565b600955836119ba575b5433906001600160a01b0316612c18565b60405191825260208201527f2369db1bafee945aee5630782f4a170682e3f8188d8dc247a4c73eb8c9e692d260403392a360018055005b80546008546119d79186916001600160a01b039081169116612c18565b611972565b60405162461bcd60e51b815260206004820152602260248201527f5969656c644661726d696e673a206e6f207374616b6520746f20776974686472604482015261617760f01b6064820152608490fd5b3461033c57600036600319011261033c5760206040516301e133808152f35b3461033c57611a5936612465565b611a61612cde565b611a69612d34565b611a766003548310612554565b611a7f82612414565b50826000526004602052604060002033600052602052604060002082815410611bf85760048101544210611bb357611b3c918391611abc86612d78565b611ade611b178254926007850193670de0b6b3a76400009384918654906125ba565b049389611af160018401968754906125a0565b8015801590611ba6575b611b6e575b5050611b0d8783546125a0565b80925554906125ba565b04905560028101611b298382546125a0565b90555433906001600160a01b0316612c18565b6040519081527ff279e6a1f5e320cca91135676d9cb6e44ca8a08c0b88342bcdb1144f6511b56860203392a360018055005b600090611b8d611b8460028701928354906125ad565b80943390612e0c565b55611b9d600684019182546125ad565b9055898b611b00565b5060028401541515611afb565b60405162461bcd60e51b815260206004820152601a60248201527f5969656c644661726d696e673a207374696c6c206c6f636b65640000000000006044820152606490fd5b60405162461bcd60e51b815260206004820152602260248201527f5969656c644661726d696e673a20696e73756666696369656e742062616c616e604482015261636560f01b6064820152608490fd5b3461033c57600036600319011261033c57611c616129a5565b60025460ff811615611ca05760ff19166002557f5db9ee0a495bf2e6ff9c91a7834c1ba4fdd244a5e8aa4e537bd38aeae4b073aa6020604051338152a1005b60405162461bcd60e51b815260206004820152601460248201527314185d5cd8589b194e881b9bdd081c185d5cd95960621b6044820152606490fd5b3461033c57604036600319011261033c57611cf56123e8565b336001600160a01b03821603611d11576103b190600435612c6a565b60405162461bcd60e51b815260206004820152602f60248201527f416363657373436f6e74726f6c3a2063616e206f6e6c792072656e6f756e636560448201526e103937b632b9903337b91039b2b63360891b6064820152608490fd5b3461033c57602036600319011261033c5760006101c0604051611d90816124dd565b8281528260208201528260408201528260608201528260808201528260a08201528260c08201528260e08201528261010082015282610120820152826101408201528261016082015282610180820152826101a082015201526101e0611df7600435612414565b506101c0604051611e07816124dd565b600e60018060a01b038454169384835260018060a01b036001820154166020840152600281015460408401526003810154606084015260048101546080840152600581015460a0840152600681015460c0840152600781015460e0840152600881015461010084015260ff6009820154161515610120840152600a810154610140840152600b810154610160840152600c81015461018084015260ff600d8201541615156101a084015201548282015260405192835260018060a01b03602082015116602084015260408101516040840152606081015160608401526080810151608084015260a081015160a084015260c081015160c084015260e081015160e084015261010081015161010084015261012081015115156101208401526101408101516101408401526101608101516101608401526101808101516101808401526101a081015115156101a084015201516101c0820152f35b3461033c57604036600319011261033c57600435611f7d6123e8565b816000526000602052611f97600160406000200154612aec565b81600052600060205260406000209060018060a01b0316908160005260205260ff6040600020541615611fc657005b8160005260006020526040600020816000526020526040600020600160ff1982541617905533917f2f8788117e7eff1d82e926ec794901d17c78024a50270940304540a733656f0d600080a4005b3461033c576103b1612034600161202a36612465565b929061039961285e565b50818060a01b03918291015416906008541690612c18565b3461033c57600036600319011261033c5760206040516103e88152f35b3461033c57608036600319011261033c576004357f17b8644f386d1c7c7138ef98b3c8035622bbe94d7be9b26f71d2654a547c294360406024356044356064356120b1612647565b6120be6003548710612554565b6120c6612bf6565b6120cf86612414565b50826007546120ed826120e860088601938454906125a0565b6125ad565b600755856003840155558115158061211f575b612114575b505082519182526020820152a2005b600501558580612105565b50428211612100565b3461033c57602036600319011261033c5760043560005260006020526020600160406000200154604051908152f35b3461033c57600036600319011261033c576020600754604051908152f35b3461033c57602036600319011261033c5760043560035481101561033c5761219c90612414565b50600160a01b60019003808254169060018301541691600281015460038201546004830154600584015460068501546007860154600887015491600988015460ff1693600a89015495600b8a015497600c8b015499600d8c015460ff169b600e01549c6040519e8f91825260208201526040015260608d015260808c015260a08b015260c08a015260e0890152610100880152151561012087015261014086015261016085015261018084015215156101a08301526101c08201526101e090f35b3461033c57604036600319011261033c576122766123e8565b600060e0604051612286816124c0565b8281528260208201528260408201528260608201528260808201528260a08201528260c08201520152600435600052600460205260406000209060018060a01b031660005260205261010060406000206040516122e2816124c0565b8154918282526001810154602083019081526002820154604084019081526003830154606085019081526004840154916080860192835260058501549360a0870194855260e060ff600760068901549860c08b01998a52015416970196151587526040519788525160208801525160408701525160608601525160808501525160a08401525160c083015251151560e0820152f35b3461033c57600036600319011261033c576020600354604051908152f35b3461033c57602036600319011261033c576004359063ffffffff60e01b821680920361033c57602091637965db0b60e01b81149081156123d7575b5015158152f35b6301ffc9a760e01b149050836123d0565b602435906001600160a01b038216820361033c57565b600435906001600160a01b038216820361033c57565b60035481101561244f57600f906003600052027fc2575a0e9e593c00f959f8c92f12db2869c3395a3b0502d05e2516446f71f85b0190600090565b634e487b7160e01b600052603260045260246000fd5b604090600319011261033c576004359060243590565b60243590811515820361033c57565b805482101561244f576000526003602060002091020190600090565b606090600319011261033c57600435906024359060443590565b610100810190811067ffffffffffffffff8211176102d757604052565b6101e0810190811067ffffffffffffffff8211176102d757604052565b6060810190811067ffffffffffffffff8211176102d757604052565b6080810190811067ffffffffffffffff8211176102d757604052565b90601f8019910116810190811067ffffffffffffffff8211176102d757604052565b1561255b57565b60405162461bcd60e51b815260206004820152601a60248201527f5969656c644661726d696e673a20696e76616c696420706f6f6c0000000000006044820152606490fd5b9190820391821161072557565b9190820180921161072557565b8181029291811591840414171561072557565b81156125d7570490565b634e487b7160e01b600052601260045260246000fd5b156125f457565b60405162461bcd60e51b815260206004820152602560248201527f5969656c644661726d696e673a20636f6d706f756e64696e67206e6f7420616c6044820152641b1bddd95960da1b6064820152608490fd5b3360009081527fc3cdb33d18eb5fe37cdb5dd8b881d00707c9ff894e2e228a37cd7893af064f0a60209081526040808320549092907f168592fc6d31de4538f19815c7229e078bf82c0085cdb430656abca14d661b9b9060ff16156126ac5750505050565b6126b5336130a4565b8451916126c183612516565b6042835284830193606036863783511561284a57603085538351906001916001101561284a5790607860218601536041915b8183116127dc5750505061279a57612748938593612780936127716048946127969951988576020b1b1b2b9b9a1b7b73a3937b61d1030b1b1b7bab73a1604d1b8b978801528251928391603789019101612ef4565b8401917001034b99036b4b9b9b4b733903937b6329607d1b603784015251809386840190612ef4565b01036028810185520183612532565b5162461bcd60e51b815291829160048301612f17565b0390fd5b60648486519062461bcd60e51b825280600483015260248201527f537472696e67733a20686578206c656e67746820696e73756666696369656e746044820152fd5b909192600f81166010811015612836576f181899199a1a9b1b9c1cb0b131b232b360811b901a61280c8588613093565b5360041c928015612822576000190191906126f3565b634e487b7160e01b82526011600452602482fd5b634e487b7160e01b83526032600452602483fd5b634e487b7160e01b81526032600452602490fd5b3360009081527f7d7ffb7a348e1c6a02869081a26547b49160dd3df72d1d75a570eb9b698292ec60209081526040808320549092907fa49807205ce4d355092ef5a8a18f56e8913cf4a201fbe287825b095693c217759060ff16156128c35750505050565b6128cc336130a4565b8451916128d883612516565b6042835284830193606036863783511561284a57603085538351906001916001101561284a5790607860218601536041915b81831161295f5750505061279a57612748938593612780936127716048946127969951988576020b1b1b2b9b9a1b7b73a3937b61d1030b1b1b7bab73a1604d1b8b978801528251928391603789019101612ef4565b909192600f81166010811015612836576f181899199a1a9b1b9c1cb0b131b232b360811b901a61298f8588613093565b5360041c9280156128225760001901919061290a565b3360009081527ff7c9542c591017a21c74b6f3fab6263c7952fc0aaf9db4c22a2a04ddc7f8674f60209081526040808320549092907f65d7a28e3265b37a6474929f336521b332c1681b933f6cb9f3376673440d862a9060ff1615612a0a5750505050565b612a13336130a4565b845191612a1f83612516565b6042835284830193606036863783511561284a57603085538351906001916001101561284a5790607860218601536041915b818311612aa65750505061279a57612748938593612780936127716048946127969951988576020b1b1b2b9b9a1b7b73a3937b61d1030b1b1b7bab73a1604d1b8b978801528251928391603789019101612ef4565b909192600f81166010811015612836576f181899199a1a9b1b9c1cb0b131b232b360811b901a612ad68588613093565b5360041c92801561282257600019019190612a51565b6000818152602090808252604092838220338352835260ff848320541615612b145750505050565b612b1d336130a4565b845191612b2983612516565b6042835284830193606036863783511561284a57603085538351906001916001101561284a5790607860218601536041915b818311612bb05750505061279a57612748938593612780936127716048946127969951988576020b1b1b2b9b9a1b7b73a3937b61d1030b1b1b7bab73a1604d1b8b978801528251928391603789019101612ef4565b909192600f81166010811015612836576f181899199a1a9b1b9c1cb0b131b232b360811b901a612be08588613093565b5360041c92801561282257600019019190612b5b565b60005b600354811015612c155780612c0f600192612d78565b01612bf9565b50565b60405163a9059cbb60e01b60208201526001600160a01b039092166024830152604480830193909352918152608081019167ffffffffffffffff8311828410176102d757612c6892604052612f43565b565b9060009180835282602052604083209160018060a01b03169182845260205260ff604084205416612c9a57505050565b80835282602052604083208284526020526040832060ff1981541690557ff6391f5c32d9c69d2a47ea670b442974b53935d1edc7fd64eb21e047a839171b339380a4565b600260015414612cef576002600155565b60405162461bcd60e51b815260206004820152601f60248201527f5265656e7472616e637947756172643a207265656e7472616e742063616c6c006044820152606490fd5b60ff60025416612d4057565b60405162461bcd60e51b815260206004820152601060248201526f14185d5cd8589b194e881c185d5cd95960821b6044820152606490fd5b612d8190612414565b50600681018054421115612e08576002820154918215612e01576005810154804210600014612dfb575042925b612dc26106bf6106b46106a98654886125a0565b90670de0b6b3a76400009182810292818404149015171561072557612dec600791612df6936125cd565b92019182546125ad565b905555565b92612dae565b5042905550565b5050565b90612c6892612e1a83612414565b509260005260046020526001612710612e51604060002093838060a01b0394858716600052602052600560406000200154906125ba565b0493015416612c18565b9160207f0e311a2c6dbfb0153ec3a8a5bdca09070b3e5f60768fdc10a20453f38d1868739160006002612e8d87612414565b5087835260048552604083209660018060a01b0316968784528552670de0b6b3a7640000612ee36040852092612ec48785546125ad565b8455848101612ed48882546125ad565b905560078454910154906125ba565b0460018201550155604051908152a3565b60005b838110612f075750506000910152565b8181015183820152602001612ef7565b60409160208252612f378151809281602086015260208686019101612ef4565b601f01601f1916010190565b60018060a01b0316906040516040810167ffffffffffffffff90828110828211176102d7576040526020938483527f5361666545524332303a206c6f772d6c6576656c2063616c6c206661696c6564858401526000808587829751910182855af1903d15613084573d9283116130705790612fde93929160405192612fd188601f19601f8401160185612532565b83523d868885013e6131a3565b805180612fec575b50505050565b8184918101031261306c5782015190811591821503613069575061301257808080612fe6565b6084906040519062461bcd60e51b82526004820152602a60248201527f5361666545524332303a204552433230206f7065726174696f6e20646964206e6044820152691bdd081cdd58d8d9595960b21b6064820152fd5b80fd5b5080fd5b634e487b7160e01b85526041600452602485fd5b90612fde9392506060916131a3565b90815181101561244f570160200190565b604051906130b1826124fa565b602a825260208201604036823782511561244f576030905381516001906001101561244f57607860218401536029905b8082116131355750506130f15790565b606460405162461bcd60e51b815260206004820152602060248201527f537472696e67733a20686578206c656e67746820696e73756666696369656e746044820152fd5b9091600f8116601081101561318e576f181899199a1a9b1b9c1cb0b131b232b360811b901a6131648486613093565b5360041c9180156131795760001901906130e1565b60246000634e487b7160e01b81526011600452fd5b60246000634e487b7160e01b81526032600452fd5b9192901561320557508151156131b7575090565b3b156131c05790565b60405162461bcd60e51b815260206004820152601d60248201527f416464726573733a2063616c6c20746f206e6f6e2d636f6e74726163740000006044820152606490fd5b8251909150156132185750805190602001fd5b60405162461bcd60e51b81529081906127969060048301612f1756fea26469706673582212204d532a70e7c56292ee85395b8e8bb6379828afc1bf72478646c2d51812eda27a64736f6c634300081800332f8788117e7eff1d82e926ec794901d17c78024a50270940304540a733656f0d",
  "linkReferences": {},
  "deployedLinkReferences": {}
}